:020000040800F2
:10000000C8050020A1010008DD210008BF0D00087F
:10001000D9210008B9080008A32E0008000000003C
:10002000000000000000000000000000952A000809
:10003000BD0C0008000000006D220008852B0008A0
:10004000BB010008BB010008BB010008BB010008A0
:10005000BB010008BB010008BB010008BB01000890
:10006000BB010008BB010008BB0100083D0B0008F4
:10007000BB010008BB010008BB010008BB01000870
:10008000BB010008A90B0008BB010008BB01000868
:10009000BB010008BB010008BB010008BB01000850
:1000A000BB010008BB010008BB010008BB01000840
:1000B000BB010008BB010008BB010008BB01000830
:1000C000BB010008BB010008BB010008BB01000820
:1000D000BB010008752C0008BB010008BB0100082B
:1000E000BB010008BB010008BB010008BB01000800
:1000F000BB010008BB010008BB010008BB010008F0
:10010000BB010008BB010008BB010008BB010008DF
:10011000BB010008BB010008BB010008BB010008CF
:10012000BB010008BB010008BB010008BB010008BF
:10013000BB010008BB010008BB010008BB010008AF
:10014000BB010008BB010008BB010008BB0100089F
:10015000BB010008BB010008BB010008BB0100088F
:10016000BB010008BB010008BB010008BB0100087F
:10017000BB010008BB010008BB010008BB0100086F
:10018000BB010008BB010008DFF810D000F072FBD3
:10019000004800476D3E0008AFF30080C80500200E
:1001A0000648804706480047FEE7FEE7FEE7FEE711
:1001B000FEE7FEE7FEE7FEE7FEE7FEE7F52B0008B9
:1001C00089010008D2B201E000F8012B491EFBD2E0
:1001D00070470022F6E710B513460A460446194652
:1001E000FFF7F0FF204610BD2DE9FE4F804681EA63
:1001F0000300C00F0C46009021F0004123F00045A1
:10020000B8EB0200A94105D24046214690461C4663
:100210000B46024623F00040104347D0270DC7F39A
:100220000A00C3F30A510290401A019040286BDA89
:10023000C3F3130040F4801B0098924620B10023C2
:10024000D2EB030A63EB0B0B01985946C0F1400255
:10025000504600F0F0F906460D4650465946019AC0
:1002600000F0F8F910EB08006141002487EA115210
:1002700084EAE7731A4340D0009A62B3019A012AD4
:100280004FEA075215DC001B61EB02014FF0004200
:1002900002EA0752CDE90042001C41F580113246C6
:1002A0002B4600F02FFA03B0BDE8F08F4046214600
:1002B000F9E7001B61EB0201001C41F580130018F7
:1002C0005B412018A2F5001747EB030140EAD57007
:1002D000B6196D4111E06D084FEA360645EAC07562
:1002E0004FEA0752001B61EB0201001C41F580112F
:1002F00049084FEA30000019514132462B4603B0FD
:10030000BDE8F04F00F0EFB9009801224000002353
:10031000D0EB020263EBE073009821464FEAE074F1
:10032000B8EB000061EB0401E9E783F000435BE711
:1003300081F0004158E72DE9FE4F81EA030404F003
:10034000004421F0004100944FF0000B23F00043E3
:1003500050EA01045ED052EA03045BD0C3F30A54AE
:10036000C1F30A552C44A4F2F3340194A0FB0254C7
:10037000C1F3130141F48011C3F3130343F4801359
:1003800001FB024400FB034E840A970A44EA8154AD
:1003900047EA8357A4FB076802958D0A05FB07858A
:1003A0004FEA932C04FB0C542705029D4FEA065894
:1003B00047EA1637B5EB08056EEB070C870E920E71
:1003C00047EA811742EA8312A7FB0201B6EB0B0151
:1003D00064EB00042B0D43EA0C335E1844EB1C5015
:1003E000DA465146E7FB0201C5F313044FEA0B332B
:1003F00043EA14534FEA0432019C43EA0603A4F192
:100400000C040294009CCDE900B400F07BF903B029
:10041000BDE8F08F00200146F9E72DE9F04D81EAB3
:10042000030404F0004B21F0004514464FF0000A8D
:1004300023F0004150EA050220D054EA01021DD009
:10044000C5F30A570246C5F31303C1F31300C1F302
:100450000A5640F4801543F48013A7EB0608101BDE
:10046000D64608F2FD3873EB050002D308F1010807
:1004700001E092185B41B8F1000F03DA0020014659
:10048000BDE8F08D00204FF48011064684460EE052
:10049000171B73EB050705D3121B63EB050306431C
:1004A0004CEA010C49084FEA300092185B4150EACF
:1004B0000107EDD152EA030012D082EA040083EA78
:1004C0000501084305D0101BAB4106D201220023D1
:1004D00006E000224FF0004302E06FF001025310EB
:1004E0001AEB06004CEB085110EB0A0041EB0B0134
:1004F000BDE8F04D00F0F7B80EB5C10F80EAE0702E
:100500000844CA07002140F233438DE80E000A4632
:100510000B4600F0F7F803B000BD00F0004230F0E9
:1005200000400AD0C10D01F56071C0F3160042EA27
:100530000151C2084007114370470020014670472F
:1005400030B5041E71F1000404DB4FF0004440425A
:1005500064EB0101141E73F1000405DB1C464FF02F
:100560000043524263EB0403994208BF904230BDFE
:1005700001F0004330B421F0004150EA010206D0FE
:100580000A0DA2F56072C1F31301002A02DC30BC2F
:1005900000207047440F44EAC104C100E01830BC99
:1005A00000EBC25000F068B830B50B4601460020A1
:1005B0002022012409E021FA02F59D4205D303FA25
:1005C00002F5491B04FA02F52844151EA2F10102A6
:1005D000F1DC30BD2DE9F05F0546002092469B46D8
:1005E00088460646814640241BE028464146474649
:1005F000224600F051F953465A46C01A914110D391
:1006000011461846224600F016F82D1A67EB01082D
:100610004F4622460120002100F00DF817EB00099B
:100620004E41201EA4F10104DFDC484631462A4633
:100630004346BDE8F09F202A04DB203A00FA02F18D
:10064000002070479140C2F1200320FA03F31943C0
:1006500090407047202A06DBCB17203A41FA02F07F
:1006600043EAE07306E041FA02F3D040C2F120020F
:1006700091400843194670470029A8BF7047401CA5
:10068000490008BF20F00100704710B4B0FA80FCA8
:1006900000FA0CF050EA010404BF10BC704749B1E5
:1006A000CCF1200421FA04F411FA0CF118BF012155
:1006B00021430843A3EB0C01CB1D4FEA00614FEA35
:1006C000102042BF002010BC704700EBC350104404
:1006D0000029A4BF10BC7047401C490008BF20F08F
:1006E000010010BC704710B5141E73F1000408DA45
:1006F000401C41F1000192185B411A4301D120F0E6
:10070000010010BD2DE9F04D92469B4611B1B1FAA2
:1007100081F202E0B0FA80F220329046FFF78BFFC0
:1007200004460F4640EA0A0041EA0B0153465A4686
:10073000084313D0114653EA010019D0C8F1400212
:10074000504600F0A9F805460E4650465946424626
:10075000FFF771FF084305D0012004E02046394629
:10076000BDE8F08D0020054346EAE0762C43374390
:100770000A986305E40AA0EB08000022FD0A44EA97
:1007800047540A3002D500200146E9E70105101957
:100790006941DDE9084500196941BDE8F04DA2E76E
:1007A0002DE9F04D00231A461B1A8A4103DB002075
:1007B0000146BDE8F08DC1F30A52C1F3130141F4C3
:1007C00080154FF0000BD10702D100186D41521E69
:1007D0000027044640F2FF11384601EB620A3E460C
:1007E0008046024600204FF4801100F055F8C219EF
:1007F0007141BB1846EB0100B4EB030C75EB000C28
:1008000004D3E41A65EB000517460E46241908F1D7
:1008100001006D4180463428E3DDF91946EB0600FE
:10082000091BA84103D24FF0FF32134601E000221A
:1008300013461BEB070046EB0A51BDE8F04DFFF7EE
:1008400052BFC1F30A52C1F3130140F2FF3341F426
:1008500080119A4202DA00200146704740F2334389
:100860009A42A2F2334202DC524200F015B8FFF77E
:10087000E2BE0000064C074D06E0E06840F00103D0
:1008800094E8070098471034AC42F6D3FFF780FC99
:100890007C4100089C410008202A04DB203A21FA10
:1008A00002F00021704721FA02F3D040C2F1200289
:1008B000914008431946704700BFFEE72DE9F04F0D
:1008C0002DED068B85B047F6FF74E54326462F468F
:1008D0004FF0000B14216846FFF77BFC7A48006854
:1008E0007A49884270D114220021684601F006FE40
:1008F0009DED000ADFED760AB4EE600AF1EE10FA23
:1009000025D19DED010ABDEEC00A10EE100A00B21D
:10091000704908809DED030ABDEEC00A10EE100A72
:1009200000B26D4908809DED020A6C4880ED000A16
:100930009DED040A6A4880ED000A01F0A3FF69A05A
:1009400002F0B2FA05B0BDEC068BBDE8F08F68A0EE
:1009500002F0AAFA4FF0000A3BE0642000F0AFF981
:10096000684B062203213C2000F064FB65480078B8
:10097000000200B26349497840EA01086148007901
:10098000000200B25F49497940EA010941465EA090
:1009900002F08AFA49465FA002F086FAA04501DA21
:1009A000404600E020460446A84501DD404600E000
:1009B00028460546B14501DA484600E0304606467D
:1009C000B94502DD484601E07BE0384607460AF1BA
:1009D000010ABAF1780FC0DB281900EBD071491079
:1009E00009B23C4A1180B81900EBD071491009B224
:1009F000394A1180291BBA1B8818FFF77DFD41EC8D
:100A00001A0B9FED470B53EC102BFFF706FD41EC43
:100A1000190BFFF7ADFD08EE100A281B00EE100AB7
:100A2000B8EEC00AC8EE000A2C48C0ED000AB81B98
:100A300000EE100AB8EEC00AC8EE000A2848C0ED61
:100A4000000A9FED230A8DED000A2248B0F900004C
:100A5000FFF752FD41EC1A0B9FED330B53EC102BBB
:100A6000FFF769FC41EC190BFFF782FD01901B4871
:100A700090ED000A8DED020A1748B0F90000FFF76B
:100A80003BFD41EC1A0B9FED280B53EC102BFFF7AD
:100A900052FC41EC190BFFF76BFD0390104890EDF1
:100AA000000A8DED040A22A002F0FEF9002001F0F8
:100AB0008BFE14220021684601F04AFD01F0E2FE9F
:100AC00000BF00BF3EE70000980000201540EF0087
:100AD00000003B436A0000206C00002070000020F2
:100AE00074000020D2D1B1BBD0A3D7BCA3A10A000F
:100AF000C7EBBBBAC2FD333630A1E3D0FDD7AA0A9B
:100B0000000000007800002078202D2D3E20256474
:100B10000D0A000079202D2D3E2025640D0A0000CD
:100B20000000000000001040000000000000F03F46
:100B3000D0A3D7BCCDEAB3C9A3A10A0010B514490C
:100B4000144800F089F870B11149124800F05EF8BD
:100B50000021104800F074F801210F4800F096F9C8
:100B600001200E4908700E490A4800F075F870B16E
:100B70000B49084800F04AF80021064800F060F8E8
:100B80000121054800F082F901200649087010BDD6
:100B900020800010106002400054004090000020AF
:100BA000082000109100002010B51249124800F0F2
:100BB00053F850B10F49104800F028F800210E48B2
:100BC00000F03EF801200D4908700D490A4800F078
:100BD00043F870B10A49084800F018F800210648A7
:100BE00000F02EF80121074800F050F901200649D5
:100BF000087010BD00802020A060024090000020FE
:100C00000020082000540040910000200246094BBB
:100C10009A4201D2084801E00648103801F000531A
:100C20001BB1064B0B40C36002E0044B0B408360DA
:100C30007047000010640240006002407D0F7D0F8D
:100C400021B1026842F00102026003E0026822F072
:100C5000010202607047000070B5024600200024C7
:100C60000025124EB24201D2114B01E00F4B103B56
:100C7000104E0E4036B11E2606EAD124166806EA4A
:100C8000040502E0566906F0800501F000560EB139
:100C90005C6800E01C68084E344004EA010616B1A6
:100CA0000DB1012000E0002070BD00001064024082
:100CB000006002403C0F3C0F7D0F7D0F704701B577
:100CC0004FF47A72009901FB02F000F001F808BDC0
:100CD00001B504490098086000BF02480068002878
:100CE000FBD108BDAC000020F0B50A46002100236E
:100CF000002400BF3DE0012505FA01F3156805EA6F
:100D000003049C4234D105684F000326BE40B5431E
:100D1000056015794E00B5400668354305601579C4
:100D2000012D02D01579022D16D185684F000326BA
:100D3000BE40B543856055794E00B5408668354361
:100D40008560456801268E40B543456045689679C3
:100D50008E40B6B235434560C5684F000326BE409D
:100D6000B543C560D5794E00B540C6683543C5600A
:100D7000491C1029BFD3F0BDF0B5002300244D0756
:100D8000ED0E02FA05F3CE1000F1200555F82650BD
:100D90004E07F70E0F26BE40B543CF1000F12006D8
:100DA00046F82750CE1000F1200555F8265045EAA8
:100DB0000304CE1000F1200545F82640F0BD00BF29
:100DC000FEE721B1028842F48062028004E00288DA
:100DD0004FF6FF331A400280704770B50246002478
:100DE000002500230020958A138B1B0445EA030687
:100DF00026F07F4404EA01068E4201D1012000E082
:100E0000002070BD21B1028842F00102028004E09E
:100E100002884FF6FE731A40028070471CB501210C
:100E2000480501F035FA0121022001F021FA0422DF
:100E300006210F48FFF7A0FF042207210C48FFF707
:100E40009BFF4020009002208DF805008DF80400E3
:100E500001208DF806008DF8070069460448FFF769
:100E600043FF8020009069460148FFF73DFF1CBD0D
:100E70000004024021B1028842F48072028004E042
:100E800002884FF6FF631A400280704721B1028842
:100E900042F40072028004E002884FF6FF531A40C9
:100EA000028070470CB50246002000230193009396
:100EB00000920B0F019321F07F41019B1BB1009B1E
:100EC0001433009303E0090C009B18330093009B3C
:100ED0001B680B400BB1012000E000200CBD00009E
:100EE0002DE9FF4704460D460026B1460427DFF8EA
:100EF000CC80A6884FF6C0700640684601F0E8F93D
:100F0000DDF808802E48B8FBF0F01FFA80F946EAB9
:100F10000906A68020884FF6FE7108402080002632
:100F20002849286888420CD828684000B8FBF0F0AF
:100F300087B2042F00DA04273E4309F10100208420
:100F400027E0E8884BF6FF71884206D1286800EB5D
:100F50004000B8FBF0F087B209E0286800EBC00160
:100F600001EB0010B8FBF0F087B247F48047C7F3FD
:100F70000B0008B947F0010747F4004006434FF45F
:100F8000967009FB00F04FF47A7190FBF1F0401C71
:100F90002084A683208840F00100208026884FF618
:100FA000F5300640A8886989084306432680A88949
:100FB000298908432081BDE8FF87000000127A00DC
:100FC00040420F00A08601001FB5FFF727FF002059
:100FD000ADF804004BF6FF70ADF806000A20ADF83E
:100FE00008004FF48060ADF80A000001ADF80C0075
:100FF0000748009069460748FFF772FF012105483E
:10100000FFF700FF01210348FFF7DBFE1FBD0000D3
:10101000A0860100005400400146088AC0B2704713
:1010200012B141F0010101E001F0FE0101827047BF
:10103000018270472DE9F0410546884616461F4655
:101040004FF420405A49086007E059490868411E9A
:10105000574A116008B9BDE8F0814FF40031554896
:10106000FFF720FF0028F0D101215248FFF702FFCF
:101070004FF480504E49086006E04D490868411E13
:101080004B4A116000B9E6E74B494A48FFF7A5FE15
:101090000028F2D0002229464648FFF7C1FF4FF44E
:1010A00080504349086006E041490868411E404AB3
:1010B000116000B9CFE741493E48FFF78EFE002896
:1010C000F2D001213B48FFF79DFE41463948FFF72A
:1010D000AFFF4FF480503649086006E03449086895
:1010E000411E334A116000B9B5E73449891C3148C3
:1010F000FFF773FE0028F1D001212E48FFF7BAFE5A
:101100004FF480502A49086006E029490868411ECA
:10111000274A116000B99EE727492648FFF75DFE80
:101120000028F2D0681CC1B201222248FFF778FFE4
:101130004FF480501E49086006E01D490868411EB2
:101140001B4A116000B986E71B49491C1948FFF783
:1011500044FE0028F1D000241DE0052C03D100211D
:101160001448FFF72EFE4FF420401149086006E0B6
:101170000F490868411E0E4A116000B96BE70E491D
:101180003F310C48FFF729FE0028F1D00948FFF74E
:1011900043FF3855641CB442DFDB01210548FFF7EB
:1011A00075FE01210348FFF70CFE00BF53E7000066
:1011B0008C00002000540040010003008200070062
:1011C0002DE9F04105460E46174698460121344860
:1011D000FFF750FE4FF480503249086007E0314974
:1011E0000868411E2F4A116008B9BDE8F0812E49F8
:1011F0002B48FFF7F2FD0028F1D04FF48050294929
:101200000860002229462648FFF70AFF06E0254924
:101210000868411E234A116000B9E6E723492048C7
:10122000FFF7DBFD0028F2D0002430E03019C1B216
:101230001B48FFF7FDFE4FF480501A49086006E096
:1012400018490868411E174A116000B9CDE71749CF
:10125000891C1348FFF7C1FD0028F1D018F80410CD
:101260000F48FFF7E5FE4FF480500E49086006E096
:101270000C490868411E0B4A116000B9B5E70B49DB
:10128000891C0748FFF7A9FD0028F1D0641CBC4267
:10129000CCDB01210248FFF7F9FD00BFA5E7000004
:1012A000005400408C000020010003008200070071
:1012B0001CB51BA103C9CDE900010220FFF7FFFC0B
:1012C0000DF1020301222D21A620FFF779FF6B46C5
:1012D00001223121A620FFF773FF0DF10103012246
:1012E0002C21A620FFF76CFF0DF1030301222E2114
:1012F000A620FFF765FF01AB01221E21A620FFF704
:101300005FFF0DF1050301221F21A620FFF758FF03
:101310000DF1060301222021A620FFF751FF1CBD7D
:101320000B0A08000000F00000B52DED048B81B021
:1013300016A0006800906420FFF7CAFC6B460122EB
:1013400000213C20FFF73CFF0DF101030122114673
:101350003C20FFF735FF0DF10203012202213C2062
:10136000FFF72EFF9FED0A0AB0EE408A9FED090AB3
:10137000F0EE408A9FED070AB0EE409A9FED050A15
:10138000F0EE409A01B0BDEC048B00BD70E00000AF
:10139000CDCCCC3D0000000008B511A00068009045
:1013A0006B4601223E21D020FFF70AFF6420FFF7A1
:1013B0008FFC0DF1010301223E21D020FFF700FF39
:1013C0000DF1020301221521D020FFF7F9FE0DF1E6
:1013D000030301221621D020FFF7F2FE08BD000012
:1013E0008003071E10B5FFF7EFFDFFF79DFFFFF726
:1013F000D3FFFFF75DFF01F03DF910BD00B52DED06
:101400000A0B2DED108B9DB0B0EE61EAF0EE42CAF2
:10141000B0EE62FAB0EE43AAB0EE639AF0EE449AF0
:10142000B5EEC0AAF1EE10FA1CD1B5EEC09AF1EEFD
:1014300010FA17D1F5EEC09AF1EE10FA12D1F0EED3
:101440004F2AB0EE6C2AF0EE4E1A9DED2F1ADDED0C
:101450002E0A9DED2D0A00F0CFFC1DB0BDEC108BC7
:101460000AB000BDFE4890ED000AF1EE400A9DED85
:101470002D0A20EE800AFB4890ED001ADDED2E0AC1
:1014800001EE600AF84890ED001ADDED2F0A01EE3A
:10149000600AF6EE000A20EE200A8DED180AF348E5
:1014A000D0ED000A9DED2D0A20EE800AED4890ED6A
:1014B000001ADDED2F0A01EE200AEB4890ED001A2C
:1014C000DDED2E0A01EE600AF6EE000A20EE200A9B
:1014D0008DED170AE548D0ED000A9DED2E0A20EEAD
:1014E000800ADF4890ED001ADDED2F0A01EE600A58
:1014F000DD4890ED001ADDED2D0A01EE200AF6EE32
:10150000000A20EE200A8DED160AD848D0ED000A18
:101510009DED2F0A20EE800AD14890ED001ADDEDF6
:101520002E0A01EE200ACF4890ED001ADDED2D0ABB
:1015300001EE600AF6EE000A20EE200A8DED150A93
:10154000B5EEC0EAF1EE10FA09D1F5EEC0CAF1EE3F
:1015500010FA04D1B5EEC0FAF1EE10FA7ED06EEEBC
:101560000E0A4CEEAC0A4FEE0F0AB0EE600A02F023
:101570005FFCF0EE40AA2EEE2A0AB0EE40EA2CEE16
:10158000AA0AF0EE40CA2FEE2A0AB0EE40FA6AEE3E
:101590000A0A49EE090A49EEA90AB0EE600A02F009
:1015A00047FCF0EE40AA2AEE2A0AB0EE40AA29EE45
:1015B0002A0AB0EE409A29EEAA0AF0EE409AAB4809
:1015C00090ED000AF0EE000A20EE200A20EE0A0A52
:1015D0008DED120A90ED000AF0EE000A20EE200ACE
:1015E00020EE090A8DED110A90ED000AF0EE000AD6
:1015F00020EE200A20EE290A8DED100A984890ED81
:10160000000AF0EE000A20EE200A20EE0A0A8DED14
:101610000F0A964890ED000AF0EE000A60EE200AEC
:10162000CDED0C0A8E4890ED000AF0EE000A20EE97
:10163000200A8DED0B0A8B4890ED000AF0EE000AAF
:1016400020EE200A8DED0A0A874890ED000AF0EEA0
:10165000000A20EE200A8DED090A00E054E38348D9
:1016600090ED000AF0EE000A20EE200A7D48D0ED51
:10167000000A60EE20FA90ED000AF0EE000A20EE7B
:10168000200A7948D0ED000A20EE200A8DED080AE4
:10169000764890ED000AD0ED000A20EE200A8DED8C
:1016A000070A90ED000A6E48D0ED000A20EE20DA1D
:1016B0006E4890ED000A6B48D0ED000A60EE20DA2B
:1016C0006A4890ED000A6848D0ED000A20EE200A32
:1016D0008DED060A624890ED000AD0ED000A20EE7A
:1016E00020CA90ED000A5F48D0ED000A20EE200AE3
:1016F0008DED050A5A4890ED000A5B48D0ED000ACE
:1017000060EE20BA574890ED000AD0ED000A20EEB6
:1017100020BA90ED000A5448D0ED000A20EE200ACD
:101720008DED040A90ED000AD0ED000A60EE20EA8B
:101730009DED070A2AEE000ADDED110A90ED001A70
:1017400000EEC10ADDED100A464890ED001A00EEE9
:10175000810A0AEE0C0ADDED0B0A60EE890A90EDB3
:10176000001A00EE810ADDED0B0A60EEA90A3E4880
:1017700090ED001A00EE810A0AEE4B0A0AEE6E0A9C
:101780008DED140A9DED120AD0ED000A20EE200A1C
:10179000DDED070A09EE200ADDED100A304890ED74
:1017A000001A00EEC10ADDED0F0A2E4890ED001A76
:1017B00000EE810A09EE4C0A09EE0B0ADDED0A0A79
:1017C00060EEA90A284890ED001A00EE810A09EEA1
:1017D0006E0A8DED130A9DED140A60EE000A9DED70
:1017E000130A40EE000A10EE901A0846FEF795FE26
:1017F000CDE900019DED000B01F066FD8DED020BC2
:101800009DED020B51EC100BFEF7B2FE08EE100A34
:101810009DED120AB1EE400A1248D0ED000A20EE0A
:10182000200ADDED110A0E4890ED001A00EE810A43
:10183000DDED070A09EEA00ADDED0F0A0A4890ED7A
:10184000001A00EE810A09EECC0ADDED0A0A60EE0C
:10185000890A90ED001A00EE810A09EECB0A07E032
:10186000B8000020BC000020C0000020B400002010
:10187000F0EE408A49EEAE8AB0EE000A28EE000A89
:101880008DED0E0AB0EE000A68EE800ACDED0D0A6D
:10189000F0EE000AB0EE6F0A10EEAB0A70EE4E0AE0
:1018A0009DED0A0AB1EE400A20EE801A9DED080A6D
:1018B000F0EE000A00EE8D0A70EE6C1ADDED0B0AF8
:1018C000B0EE410A00EEA10AF6EE000A70EECB0A75
:1018D00070EEEE0A60EE880A3BEEED1A48EE810AE1
:1018E00070EECA0AFE4890ED001A28EE811A01EE49
:1018F000600AF1EE480AFB4890ED001A60EE811A8A
:10190000F948D0ED000A48EEA01ADDED050A9DED7C
:10191000061A70EEC10A20EE881ADDED040A7DEE8B
:10192000200A08EEA01A71EE490A01EEA00A7DEE27
:10193000AB0A60EE880AB6EE001A31EE4C1A31EEB0
:101940004B1A48EE810A70EEE90AE54890ED001A5C
:1019500028EE011A01EE200A8DED1C0AF0EE000AB5
:10196000B0EE6F0A10EEAB0A70EE4E0A9DED090A5A
:1019700020EE801A9DED080AF0EE000A00EE8D0AB6
:1019800070EE6C1ADDED0C0AB0EE410A00EEA10A11
:10199000F7EE000AB0EE001A41EE4C0AB0EE001A63
:1019A00041EE4B0A70EECF0ACF4890ED001AF1EEEF
:1019B000001A21EE211A01EE600AF6EE000A70EE1E
:1019C000CB0A70EEEE0A60EE880A3BEEED1A48EEA6
:1019D000810A70EECA0AC34890ED001A28EE811AF7
:1019E00001EE200ABE48D0ED000A68EE201ABF487A
:1019F000D0ED000A48EEA01ADDED050A9DED061AAD
:101A000070EEC10A20EE881ADDED040A7DEE200A90
:101A100008EEA01A71EE490A01EEA00AB148D0ED15
:101A2000000A28EE201ADDED0D0AAF48D0ED001AAD
:101A300000EEE11A7DEEAB0A60EE880AF6EE001ABF
:101A400071EECC1A71EECB1A48EEA10A70EEE90ADB
:101A500001EE200A8DED1B0AF0EE000AB0EE6F0ACF
:101A600010EEAB0A70EE4E0A9DED0C0AB1EE400A84
:101A700060EE800A9DED080AB0EE001A01EE0D0A34
:101A800070EE6C1A9DED091AB0EE600A01EE210AA3
:101A9000F7EE000AB0EE001A41EE4C0AB0EE001A62
:101AA00041EE4B0A70EECF0A8D4890ED001AF1EE30
:101AB000001A21EE211A01EE600ADDED0E0AF1EEA8
:101AC000600A90ED001A60EE810A884890ED001AD5
:101AD00048EEC10AB6EE001A31EE4B1A31EE6E1A1C
:101AE00021EE081A7BEEED1A08EEA11A31EE4A1A21
:101AF00000EE810A7C48D0ED000A28EE201A7948D1
:101B0000D0ED000A08EEA01ADDED050ADDED061A9B
:101B100070EEE10A60EE880ADDED041A7DEE211A0E
:101B200048EEA10A70EEC90A01EE200A6F48D0ED16
:101B3000000A28EE201ADDED0D0A6948D0ED001AE2
:101B400000EEE11A7DEEAB0A60EE880AF6EE001AAE
:101B500071EECC1A71EECB1A48EEA10A70EEE90ACA
:101B600001EE200A8DED1A0AF0EE000AB0EE6F0ABF
:101B700010EEAB0A70EE4E0A9DED0B0A60EE800A85
:101B80009DED080AB0EE001A01EE0D0A70EE6C1A17
:101B90009DED0A1AB0EE600A01EE210ADDED0E0A93
:101BA000F1EE600A4F4890ED001A20EE811A4E487F
:101BB000D0ED000A08EEA01AF6EE000A70EECB0A8D
:101BC00070EEEE0A60EE880A7BEEED1A48EEA10A8E
:101BD00070EECA0A01EE200AF1EE480A434890ED81
:101BE000001A20EE811A3E48D0ED000A08EEA01A35
:101BF000DDED050ADDED061A70EEE10A60EE880AF9
:101C0000DDED041A7DEE211A48EEA10A70EEC90A34
:101C100001EE200A7DEEAB0A60EE880AB6EE001AED
:101C200031EE4C1A31EE4B1A48EE810A70EEE90A99
:101C30002D4890ED001A28EE011A01EE200A8DEDD4
:101C4000190ADDED1C0A60EEA00A9DED1B1A41EE9B
:101C5000010A9DED1A1A41EE010A9DED191A41EE95
:101C6000010AB0EE600A02F0E3F8F0EE40AA9DED42
:101C70001C0A20EE2A0A8DED1C0A9DED1B0A20EE9F
:101C80002A0A8DED1B0A9DED1A0A20EE2A0A8DED17
:101C90001A0A9DED190A20EE2A0A8DED190A9DED0A
:101CA000180A134890ED001ADDED1C0A01EE600AD7
:101CB0008DED180A9DED170A90ED001ADDED1B0A57
:101CC00001EE600A8DED170A9DED160A90ED001ADF
:101CD000DDED1A0A01EE600A8DED160A0AE0000039
:101CE000BC000020C0000020B8000020B40000208C
:101CF000B00000209DED150A90ED001ADDED190AE7
:101D000001EE600A8DED150A3648D0ED000A9DED12
:101D1000180A9FED351A40EE010AC0ED000A33485B
:101D2000D0ED000A9DED170A9FED2F1A40EE010A33
:101D3000C0ED000A2E48D0ED000A9DED160A9FED79
:101D40002A1A40EE010AC0ED000A2A48D0ED000A26
:101D50009DED150A9FED241A40EE010AC0ED000A20
:101D60002048D0ED000A90ED001A60EE810A1F486D
:101D700090ED001AD0ED001A41EE210A1C4890EDBA
:101D8000001AD0ED001A41EE210A1A4890ED001A0F
:101D9000D0ED001A41EE210AB0EE600A02F048F8D8
:101DA000F0EE40AA0F4890ED000A20EE2A0A80EDDE
:101DB000000A0E4890ED000A20EE2A0A80ED000A83
:101DC0000B4890ED000A20EE2A0A80ED000A09482F
:101DD00090ED000A20EE2A0A80ED000A00BFFFF70E
:101DE0003CBB0000B40000206F12033BB800002091
:101DF000BC000020C000002000B52DED108B81B08C
:101E0000F0EE404AB0EE605AF0EE415AF0EE613A20
:101E1000B0EE423AB0EE624AE94890ED000AB1EE07
:101E2000400A20EE240AE748D0ED000A00EEC50A79
:101E3000E548D0ED000A00EEE50AF6EE000A20EED5
:101E4000200AF0EE40EAE14890ED000A20EE240A74
:101E5000DC48D0ED000A00EEA50ADB48D0ED000A10
:101E600000EEC50AF6EE000A20EE200AB0EE40FAB7
:101E7000D64890ED000A20EE050AD148D0ED000AC0
:101E800000EEE50AD048D0ED000A00EEA40AF6EE16
:101E9000000A20EE200AF0EE40FACC4890ED000A4D
:101EA00020EE250AC648D0ED000A00EE850AC54896
:101EB000D0ED000A00EEE40AF6EE000A20EE200A59
:101EC0008DED000AF5EEC03AF1EE10FA09D1B5EE4B
:101ED000C03AF1EE10FA04D1B5EEC04AF1EE10FAB4
:101EE0007DD063EEA30A43EE030A44EE040AB0EE8B
:101EF000600A01F09DFFF0EE402A23EEA20AF0EE08
:101F0000403A23EE220AB0EE403A24EE220AB0EE26
:101F1000404AAE4890ED000AF0EE000A20EE20AAFA
:101F2000A74890ED000AF0EE000A60EE20AAA5484E
:101F300090ED000AF0EE000A20EE20BAA24890EDE3
:101F4000000AF0EE000A60EE20BAA04890ED000A08
:101F5000F1EE000A20EE20CA994890ED000AF1EE59
:101F6000000A60EE208A974890ED000AF1EE000A20
:101F700020EE209A924890ED000AF2EE000A60EE00
:101F800020CA904890ED000AF2EE000A20EE20DA16
:101F90008E4890ED000AD0ED000A60EE20DA884805
:101FA00090ED000AD0ED000A20EE206A854890ED01
:101FB000000AD0ED000A60EE206A834890ED000A26
:101FC000D0ED000A20EE20EA2CEE260A0BEE230AC2
:101FD0000CEE060A0AEEC30AF0EE409A00E087E033
:101FE00028EE8E0A0BEEE30AF1EE000A6DEEA00A6F
:101FF000734890ED001A00EE810A0AEE430A30EEB3
:10200000680A0CEE860A0CEEA60A08EE840AB0EE08
:10201000407AB1EE000A2DEE800A6A48D0ED000A3F
:1020200020EE200A0AEE230A09EE0E0A0BEEC30A7E
:1020300030EE490A0DEE060A0DEE260A09EE040AF4
:10204000F0EE407AB1EE000A26EE000A5E48D0EDCE
:10205000000A20EE200A0AEEE30AF1EE000A66EE1C
:10206000A00A90ED001A00EE810A0BEE430AB0EED2
:10207000408A69EEA90A47EE070A47EEA70A48EE2A
:10208000080AB0EE600A01F0D3FEF0EE402A29EE15
:10209000A20AF0EE409A27EE220AB0EE407A27EE2E
:1020A000A20AF0EE407A28EE220AB0EE408A4848B2
:1020B000D0ED000AB0EE6E0A00EEE90AF0EE40EA5A
:1020C000D0ED000AB0EE4F0A00EEC70AB0EE40FABB
:1020D000D0ED000AB0EE6F0A00EEE70AF0EE40FA2B
:1020E0009DED000AD0ED000A00EEC80A8DED000A51
:1020F000364890ED000ADFED370A0EEEA00A80EDBB
:10210000000A2F4890ED000ADFED320A0FEE200A98
:1021100080ED000A2B4890ED000ADFED2E0A0FEE4D
:10212000A00A80ED000A2848D0ED000A9DED000AC3
:102130009FED281A40EE010AC0ED000A2348D0EDB9
:10214000000A90ED001A60EE810A1D4890ED001A19
:10215000D0ED001A41EE210A1A4890ED001AD0ED98
:10216000001A41EE210A184890ED001AD0ED001A2D
:1021700041EE210AB0EE600A01F05AFEF0EE402A6C
:10218000124890ED000A20EE220A80ED000A0C4869
:1021900090ED000A20EE220A80ED000A094890ED39
:1021A000000A20EE220A80ED000A074890ED000A9E
:1021B00020EE220A80ED000A01B0BDEC108B00BDBC
:1021C000B8000020BC000020C0000020B4000020A7
:1021D000B00000206F12033B00BFFEE77047000015
:1021E00070B5002100230F22C4781CB3174C24685B
:1021F00004F4E064C4F5E064C4F30721C1F104040D
:10220000E3B20A4144789C40E1B28478144021430F
:102210000C07210E0E4C05786155047804F01F055B
:102220000124AC4005786D11AD0005F1E025C5F83D
:10223000004109E0047804F01F050124AC40054D7D
:102240000678761145F8264070BD00000CED00E0E0
:1022500000E400E080E100E002490143024A11602D
:10226000704700000000FA050CED00E07047000028
:1022700029B1064A12680243044B1A6004E0034A7B
:1022800012688243014B1A607047000030380240E8
:1022900029B1064A12680243044B1A6004E0034A5B
:1022A00012688243014B1A607047000040380240B8
:1022B00029B1064A12680243044B1A6004E0034A3B
:1022C00012688243014B1A60704700004438024094
:1022D000F0B5002100220024022500260223324FFF
:1022E0003F6807F00C0121B1042905D0082937D136
:1022F00005E02E4F076036E02D4F076033E02A4F90
:102300003F1F3F68C7F38056274F3F1F3F6807F0C6
:102310003F036EB1264FB7FBF3F7DFF88CC0ACF18B
:10232000040CDCF800C0CCF3881C07FB0CF40CE0B8
:102330001E4FB7FBF3F7DFF870C0ACF1040CDCF80C
:1023400000C0CCF3881C07FB0CF4174F3F1F3F68FD
:10235000C7F301477F1C7D00B4FBF5F7076002E07F
:10236000124F076000BF00BF0F4F3F6807F0F0013A
:102370000909104F7A5C0768D74047600A4F3F68E9
:1023800007F4E051890A0B4F7A5C4768D7408760B1
:10239000054F3F6807F46041490B064F7A5C476878
:1023A000D740C760F0BD0000083802400024F400A8
:1023B00000127A005400002070B504460D461646FF
:1023C000154B06223221A620FEF734FE1248007873
:1023D0001149497840EA012000EE100AB8EEC00A1F
:1023E00084ED000A0C4880780B49C97840EA012046
:1023F00000EE100AB8EEC00A85ED000A0648007922
:102400000549497940EA012000EE100AB8EEC00AF9
:1024100086ED000A70BD00008400002070B50446FF
:102420000D461646154B062203213C20FEF702FE00
:10243000124840781149097840EA012000EE100A5C
:10244000B8EEC00A84ED000A0C4840790B490979BE
:1024500040EA012000EE100AB8EEC00A85ED000A3D
:102460000648C0780549897840EA012000EE100A44
:10247000B8EEC00A86ED000A70BD000078000020AA
:1024800070B504460D461646154B06221D21D02078
:10249000FEF7D0FD124840781149097840EA012042
:1024A00000EE100AB8EEC00A84ED000A0C48C078AD
:1024B0000B49897840EA012000EE100AB8EEC00A04
:1024C00085ED000A064840790549097940EA01206E
:1024D00000EE100AB8EEC00A86ED000A70BD0000DA
:1024E000F000002021B1028842F04002028004E0A6
:1024F00002884FF6BF731A400280704770B50546D8
:102500000C4616464FF4804010490880032000F026
:10251000F5F9C4F3074000F0F1F9C4F3072000F027
:10252000EDF9E0B200F0EAF904E0FF2000F0E6F98E
:1025300028706D1C301EA6F101018EB2F5D14FF44A
:1025400080400249891E088070BD00001A040240C4
:102550002DE9F05F07460E4614464FF00008C146CD
:10256000C2460025AB4606F0FF0ACAF10000C5B21C
:102570002046E11704EB1161C1F30728E11704EBD2
:1025800011610912A4EB012101F0FF09BAF1000F5A
:1025900020D1B8F1000F05D122463146384600F06F
:1025A0007DF864E009E04FF480723146384600F06F
:1025B00075F806F5807607F58077B8F10000A8F188
:1025C000010101F0FF08EED14A463146384600F0DD
:1025D00065F84CE0B8F1000F18D1A94510DDA9EB62
:1025E000050000F0FF0B2A463146384600F056F849
:1025F0002E442F445A463146384600F04FF836E014
:1026000022463146384600F049F830E0601B84B27B
:102610002046E11704EB1161C1F30728E11704EB31
:1026200011610912A4EB012101F0FF092A4631468C
:10263000384600F033F82E442F4409E04FF48072FE
:102640003146384600F02AF806F5807607F580779F
:10265000B8F10000A8F1010101F0FF08EED1B9F1D5
:10266000000F04D04A463146384600F017F8BDE85E
:10267000F09F000010B500F09DF900F05DF80549ED
:102680000860C820FEF71BFB00F076F802490860DE
:1026900010BD0000940000209800002070B5054691
:1026A0000C46164600F0DEF84FF4804014490880CE
:1026B000022000F023F9C4F3074000F01FF9C4F32F
:1026C000072000F01BF9E0B200F018F9B6F5807FA2
:1026D00004DD4FF480760BA000F0E6FB03E02878E1
:1026E00000F00CF96D1C301EA6F101018EB2F6D17E
:1026F0004FF480400249891E088000F087F870BDC1
:102700001A0402403C3C2D464C4153482D45525240
:102710004F522D3E3E205350495F464C4153485F37
:1027200050616765577269746520746F6F206C61C2
:10273000726765210A00000010B500244FF4804044
:102740000C490880AB2000F0D9F8FF2000F0D6F843
:10275000FF2000F0D3F8FF2000F0D0F8FF2000F0B9
:10276000CDF804464FF480400249891E0880204677
:1027700010BD00001A0402402DE9F041002400259C
:10278000002600274FF480400E4908809F2000F06B
:10279000B5F8FF2000F0B2F80546FF2000F0AEF8D3
:1027A0000646FF2000F0AAF807464FF4804005498E
:1027B000891E0880280440EA062040EA07042046D3
:1027C000BDE8F0811A04024010B5044600F04AF852
:1027D00000F01CF84FF480400B490880202000F0E6
:1027E0008DF8C4F3074000F089F8C4F3072000F027
:1027F00085F8E0B200F082F84FF480400249891E6B
:10280000088000F003F810BD1A04024010B500243F
:102810004FF4804011490880052000F06FF84FF414
:1028200080500F49086000BFFF2000F067F80446A1
:102830000B490868411E0A4A116018B9042000F0CB
:1028400099F810BD04F001000028EDD14FF480404C
:102850000249891E088000BFF3E700001A04024005
:102860009C00002010B54FF48040054908800620E8
:1028700000F044F84FF480400149891E088010BDE3
:102880001A04024010B54FF4804005490880B92071
:1028900000F034F84FF480400149891E088010BDD3
:1028A0001A0402400246002013890B400BB101209C
:1028B00000E0002070470146888970478181704799
:1028C00010B50022028802F441520B884C88234341
:1028D0008C882343CC8823430C8923434C8923438E
:1028E0008C892343CC8923431A430280838B4FF284
:1028F000FF74234083830B8A038210BD10B5044606
:102900004FF48050194908600AE018490868411ED0
:10291000164A116020B9002000F02CF8C0B210BD9A
:1029200002211348FFF7BEFF0028EED021461048D1
:10293000FFF7C4FF4FF480500C4908600AE00B49D0
:102940000868411E094A116020B9012000F012F800
:10295000C0B2E4E701210648FFF7A4FF0028EED04B
:102960000348FFF7A8FFC0B2D9E700009C00002091
:102970000030014010B50446214602A000F094FA50
:10298000002010BD3C3C2D464C4153482D45525231
:102990004F522D3E3E2053504920B5C8B4FDB3AC34
:1029A000CAB1216572726F72436F6465203D202544
:1029B000640A000000B587B001210220FFF758FC2F
:1029C00001210803FFF774FC0820059002208DF810
:1029D000180000208DF81A0003208DF8190001203E
:1029E0008DF81B0005A92948FEF77EF910200590F7
:1029F00005A92648FEF778F92020059005A9234867
:102A0000FEF772F94FF48040059001208DF8180010
:102A100005A91E48FEF768F9052203211B48FEF7A9
:102A2000ABF9052204211948FEF7A6F90522114643
:102A30001648FEF7A1F94FF4804014491831088078
:102A40000020ADF800004FF48270ADF802000020C5
:102A5000ADF804000220ADF806000120ADF8080032
:102A60004002ADF80A000020ADF80C00ADF80E00F1
:102A70000720ADF8100069460548FFF721FF012146
:102A80000348FFF72FFD07B000BD0000000402401F
:102A900000300140704700000CB50020019000900C
:102AA0003448006840F480303249086000BF314843
:102AB000006800F4003000900198401C01900098DC
:102AC00018B90198B0F5A04FF1D12A48006800F478
:102AD000003010B10120009001E00020009000982B
:102AE000012846D123484030006840F080502149F9
:102AF000403108602048006840F440401E490860AA
:102B00001C48083000681B49083108600846006806
:102B100040F4004008600846006840F4A050086097
:102B20001648091F0860081F006840F08070091FE0
:102B3000086000BF0F48006800F000700028F9D05E
:102B400040F205700E4908600A480830006820F01D
:102B500003000849083108600846006840F0020098
:102B6000086000BF03480830006800F00C00082827
:102B7000F8D10CBD003802400070004019544007E5
:102B8000003C024010B500F069F810BD30B51548A2
:102B90000068154AB0FBF2F1481EB0F1807F01D306
:102BA00001201BE0481E4FF0E022506150170F2219
:102BB000002807DA13071D0E0C4B00F00F04241F2A
:102BC0001D5503E013071C0E094B1C5400BF0020C9
:102BD0004FF0E022906107201061002008B100BF93
:102BE000FEE730BD0000002040420F0018ED00E07D
:102BF00000E400E010B51548006840F47000134987
:102C000008601348006840F0010011490860002086
:102C10000F49083108600E4800680E4908400C4909
:102C200008600D48091D0860081F006820F4802016
:102C3000091F0860002006490C310860FFF72CFFCF
:102C40004FF0006001498039086010BD88ED00E058
:102C500000380240FFFFF6FE1030002404480068F0
:102C600020B103480068401E014908607047000019
:102C7000AC00002010B540F225511D4800F053F87B
:102C800010B31B4800F008F9C4B21A48008800F4D9
:102C90000040C8B91748008800F4804060B10A2C91
:102CA00003D000201349088020E01248008840F437
:102CB00000401049088019E00D2C06D10D4800880D
:102CC00040F480400B49088010E00A480088C0F3B7
:102CD0000D0009490C5407480088401C054908802C
:102CE00008460088C72801DD0020088010BD0000CC
:102CF00000100140A4000020FA00002001F400723E
:102D0000B2F5007F00D100BFCA430280704721B1F5
:102D1000828942F40052828104E082894DF6FF7379
:102D20001A408281704770B50246002400230025B6
:102D3000002040F66A16B14200D100BFC1F342152F
:102D400001F01F03012606FA03F3012D02D1968933
:102D5000334006E0022D02D1168A334001E0968A04
:102D600033400C12012606FA04F41688344013B1DD
:102D70000CB1012000E0002070BDF0B50346002436
:102D800000260025002040F66A17B94200D100BF96
:102D90001846C1F3421401F01F06012707FA06F591
:102DA000012C01D10C3004E0022C01D1103000E0E4
:102DB00014301AB107682F43076002E00768AF4379
:102DC0000760F0BD2DE9FF4705460E460024A146E9
:102DD00000BFA046B08900B100BF2C8A24F4405443
:102DE000F08804432C82AC8941F20C608443B088A3
:102DF00031890843718908430443AC81AC8A24F4C7
:102E00004074B0890443AC826846FFF761FA2048F9
:102E1000854202D01F48854202D1DDF80C9001E0C6
:102E2000DDF80890A88900F4004040B109EBC90022
:102E300000EB091031684900B0FBF1F707E009EB3E
:102E4000C90000EB091031688900B0FBF1F764207C
:102E5000B7FBF0F004012009642101FB1078A88978
:102E600000F4004040B1322000EBC800B0FBF1F0AC
:102E700000F00700044308E0322000EB0810642152
:102E8000B0FBF1F000F00F0004432C81BDE8FF8798
:102E9000001001400014014001468888C0F308007A
:102EA000704700BFFEE700000FB4054B10B503A943
:102EB000044A029800F034FB10BC5DF814FB0000DB
:102EC000153E0008A00000204100080218BF0420A1
:102ED0000A0E18BF40F001004FF07F4232EA0101B4
:102EE00008BF40F00200012808BF0520704700001D
:102EF00010B54FF00E402DED028BB0EE408A18EE6B
:102F0000104A00EB4400B0F1506F4AD84FF0FC403B
:102F1000B0EB440F22D2B0EEC80AF7EE000A30EE52
:102F2000C00AF6EE000A60EE208A18EE900A01F060
:102F3000A7F801EE100A14F0004F1DBFDFED2D0AB7
:102F40009FED2D0AB1EE411ADFED2C0A08BF9FED6F
:102F50002C0AF8EE001A21EE218A05E0DFED290A9D
:102F600068EE088AB0EE600A9FED271ADFED271A97
:102F700030EE080A48EE811A9FED251A08EEA11AD4
:102F8000DFED241A48EE811A9FED231A08EEA11AEC
:102F900068EE281ABDEC028B01EE810A30EE200AA1
:102FA00010BD4FF0E440B0EB440F0CD918EE100AFE
:102FB000FFF78AFF042808BF00F0D2F9B0EE480AF4
:102FC000BDEC028B10BD4FF07F40B0EB440F07D239
:102FD000B0EE480ABDEC028BBDE8104000F0B1B97C
:102FE000012000F0D5F9BDEC028BBDE8104000F0E7
:102FF000AFB900000000C9BF22AAFDB90000C93F57
:1030000022AAFD390000000024FE1C3DC78AD83CDE
:103010001E67383D1B93993DAFAA2A3E70B54FF00D
:1030200068422DED048BF0EE408A18EE900AB0EE67
:10303000608A18EE101A02EB4003B3F1654F3CBFF3
:1030400002EB4102B2F1654F7DD200BFC0F3C7531E
:10305000C1F3C7529A1A1B2A09DD10F0004F14BFA2
:103060009FED830A9FED830ABDEC048B70BD12F1C6
:103070001A0F36DA11F0004F09D010F0004F0CBFD4
:103080009FED7D0A9FED7D0ABDEC048B70BD88EE3F
:10309000889A19EE100AFFF717FF042808BF00F0FE
:1030A0005FF918EE900AFFF70FFF054618EE100AB9
:1030B000FFF70AFF044619EE100AFFF705FF042D7B
:1030C00018BF052D08D1042C18BF052C04D10028E9
:1030D00004BF022000F05CF9B0EE490ABDEC048B9D
:1030E00070BD4200B2EB410F3AD910F0004F19BF4A
:1030F000DFED630A9FED630ADFED630A9FED630A6C
:10310000B0EE481A0A46B1EE688A80F00041F0EE4F
:10311000418A10460A1A5200B2F1807F34D24840E8
:1031200010F0004FDFED5A1A9FED5A2A1DBFBEEE78
:10313000001A70EEE10A30EE420AB6EE001A08BF3D
:1031400070EEA10A00E040E008BF30EE020AB0EEE7
:10315000682A01EE482A08EE818AC2EE081A15E0B4
:1031600011F0004F04BF9FED4C0AF0EE400AD1D0A1
:1031700010F0004F19BFDFED490A9FED490ADFED5E
:10318000490A9FED490AC5E7C8EE881A21EEA11A3F
:103190009FED462ADFED462A41EE022A9FED452AA1
:1031A00001EE222ADFED442A41EE022A9FED432A56
:1031B000BDEC048B01EE222A21EE811A01EE020AF7
:1031C00030EE210A30EE200A70BD4FF07F42B2EBA4
:1031D000400F28BFB2EB410F09D2F0EE480AB0EE23
:1031E000680ABDEC048BBDE8704000F0ADB840EA61
:1031F00001035B0008BF41F0FF410BD0B2EB400F71
:1032000008BFB2EB410F08D120F0804008EE900AD1
:1032100021F0804108EE101A18E7B2EB400F12BF00
:103220005FEA410340F0FF4001F000413FF40EAF80
:10323000B2EB410F12BF5FEA400200F0004041F0E4
:10324000FF413FF403AF4A0092EA40033FF5FEAE70
:10325000002AACBF9FED1A0A9FED1A0A68EE808A19
:1032600028EE008A18EE900A18EE101AEEE600001A
:10327000DB0FC9BFDB0FC93FDB0F4940DB0F49C084
:103280000000C9BF22AAFDB90000C93F22AAFD392A
:103290000060ED3EC30ACE3700000000000049C0C8
:1032A00022AA7DBA0000494022AA7D3A2DAD65BD13
:1032B0008FB8D53D0FB511BE61C84C3EA8AAAABEB5
:1032C0000000804F0000802F00B52DED048BB0EE84
:1032D000409AF0EE609A83B051EC190BFDF760FA5A
:1032E00041EC180B18EE100A18EE901A8DED008BB9
:1032F000002818BF0120084320F00040C0F17F6083
:1033000000F1E040C00F14D019EE101A19EE900A27
:103310008DED009B002918BF0121084320F00040DB
:10332000C0F17F6000F1E040C00F04BF012000F059
:103330002FF8B0EE480A03B0F0EE680ABDEC048B3B
:1033400000BD30EE000A704730EE200A70470000E2
:10335000DFED020A80EEA00A7047000000000000C6
:103360009FED020A20EE000A7047000000000010E6
:1033700002E008C8121F08C1002AFAD1704770473E
:10338000002001E001C1121F002AFBD1704700009C
:103390000149086070470000EC0000202DE9FF5F44
:1033A00082B00021DDE90430020DDDF840B00343B6
:1033B00018D044F61050A2F2FF324243151411986F
:1033C00001281FD0A5EB0B00401C5FEA000A4FF05C
:1033D00000064E4FDFF83891B046504615D5CAF179
:1033E000000413E0119801244AA3012801D16FEAD7
:1033F0000B010298119AC0E90031C0E9024206B0FF
:10340000BDE8F09FCBF10000DFE704460021404A11
:10341000491842EB0450CDE9001012E0E00707D054
:1034200032463B4640464946FCF785FF8046894682
:1034300032463B4610461946FCF77DFF06460F46CE
:103440006410002CEAD1DDE90401DDE90023BAF1C2
:10345000000F06DAFCF76FFF42464B46FCF76BFFA6
:1034600005E0FCF7DAFF42464B46FCF7D6FF044680
:103470000E460022284BFDF763F803D84FF0FF30CB
:10348000014607E00022254B20463146FCF7ACFE02
:10349000FDF7D7F9102409E0002C0ADB0A220023EB
:1034A000FDF798F8039B30321A55641E50EA01026A
:1034B000F2D1641C039AC4F111031444119A012A35
:1034C00003D0012208430DD10AE0084304D00020B4
:1034D0004FF0110B119072E7A3EB0B056D1E0DE081
:1034E0005B4504DD4FF0000205F1010504E003DA5D
:1034F0004FF00002A5F10105002AECD002981199C5
:10350000C0E90231C0E9004579E70000000014403D
:103510000000F03F300000000000F0430000E03FFA
:103520002DE9FF4F95B09A46884606460025EEE104
:10353000252877D100242746F94A0121039400E089
:10354000044316F8013F203B01FA03F01042F7D183
:1035500030782A2811D06FF02F033078A0F1300294
:10356000092A16D8039A44F0020402EB820203EB04
:1035700042021044761C0390EFE758F8042B0392A4
:10358000002A03DA504244F40054039044F0020449
:10359000761C30782E2816D116F8010F44F004045A
:1035A0002A280DD06FF02F023078A0F13003092BBC
:1035B00009D807EB870302EB4303C718761CF3E730
:1035C00058F8047B761C30786C280FD006DC4C2829
:1035D00017D068280DD06A2814D104E0742810D0C0
:1035E0007A280FD10DE044F400140AE044F480146A
:1035F00001E044F440147278824202D104F5801450
:10360000761C761C307866280BD013DC582877D0CF
:1036100009DC002875D04528F6D04628F4D0472884
:103620001AD193E118E0632835D0642879D0652851
:1036300012D18BE1702873D008DC6728F1D069289B
:103640006FD06E280DD06F2806D1ACE073282CD037
:10365000752874D0782853D05246179990476D1C1E
:1036600054E1C4F30250022809D003280DD0D8F841
:10367000001004280DD00D6008F1040846E1D8F8C8
:103680000010EA17C1E90052F6E7D8F800100D80E3
:10369000F2E70D70F0E718F8041B8DF80010002019
:1036A0008DF80100EB46012003E058F804BB4FF011
:1036B000FF3061074FF0000102D40DE009F1010174
:1036C0008946B9420FDA8145F8DB1BF80910002959
:1036D000F4D108E009F1010189468142FADB1BF8C7
:1036E00009100029F6D103985346A0EB090721469B
:1036F0003846179A00F080FA284400EB090507E0E5
:1037000044E008E10DE01BF8010B52461799904781
:10371000B9F10109F7D2534621463846179AF2E02B
:1037200039E00A21C4F302524FF0000B0091022A43
:1037300006D058F8040BC117032A09D00AE023E089
:1037400008F1070020F00702F2E80201904605E0C8
:1037500000B2C117042A01D140B2C117002906DA0C
:103760000A460021404261EB02012D2202E02205BF
:1037700004D52B228DF80420012203E0E20701D0BA
:103780002022F7E7914657E00A2100E010214FF090
:10379000000B00910BE010214FF0000B44F00404EB
:1037A0000827009103E008204FF0000B0090C4F3BD
:1037B0000252022A05D058F8040B0021032A08D02F
:1037C00008E008F1070020F00702F2E80201904645
:1037D00003E080B2042A00D1C0B24FF000092207F2
:1037E0002AD53278702A07D0DDF800C08CF0100C92
:1037F0005CEA0B0C05D00EE040228DF8042001227B
:1038000008E050EA010306D030238DF804308DF82B
:10381000052002229146009B83F0080353EA0B0324
:103820000AD150EA010201D1620705D530228DF894
:1038300004204FF001097F1E3278582A04D039A2A3
:103840000C920CAA02920BE03BA2F9E75B46009AAD
:10385000FCF7C0FE0C9B9B5C029A521E02921370F6
:1038600050EA0102F2D1029804A9081A00F1200BD3
:10387000600702D524F4803400E001275F4502DDB3
:10388000A7EB0B0000E0002000EB0B010090039879
:103890004944401A0390E00306D453462146179A40
:1038A000039800F0A9F90544002706E001A8524654
:1038B000C05D179990476D1C7F1C4F45F6DBE003F8
:1038C0000CD553462146179A039800F095F9054404
:1038D00004E030205246179990476D1C0099481E0D
:1038E00000900029F5DC08E0029802995246007821
:1038F000491C0291179990476D1CBBF10001ABF177
:10390000010BF1DC5BE100F065F90544761C3078D1
:1039100000287FF40DAE19B02846BDE8F08F0000F6
:103920000928010030313233343536373839616295
:103930006364656600000000303132333435363759
:10394000383941424344454600000000600700D436
:10395000062708F1070020F00700F0E80223804660
:1039600003F0004C5FEA0C0001D097A009E02005AD
:1039700001D596A005E0E00701D095A001E0AFF2E7
:103980004C001390307823F0004365280CD006DCFF
:10399000452809D046281DD047287FD13BE066281E
:1039A00018D067287AD136E00021112F01DB1120D1
:1039B00000E0781CCDE9000104A90CA8FFF7EEFC9B
:1039C000DDE90D010C9A4FF0000B07F1010910928F
:1039D00000914EE04FF000400097CDE9011004A99E
:1039E0000CA8FFF7DBFCDDE90D020C9B0F994FF0F3
:1039F000000B91461093009211B9791C00EB01095C
:103A0000B7EB090003D4C0F1FF3B07F10109A9EBB3
:103A10000700019042E0012F00DA01270021112F59
:103A200001DD112000E03846CDE9000104A90CA811
:103A3000FFF7B4FCDDE90D010C9A00914FF0000B8B
:103A4000B946109221070FD4009A4A4503DA9146ED
:103A500001E0A9F10109B9F1010F05DD109AA9F101
:103A60000101515C3029F4D0B84202DA10F1040FA0
:103A700003DA0121CDE9011010E0002803DC8344C2
:103A8000A9EB000102E0411C494500DD8946A0EB9D
:103A90000B00401C01904FF000400290200705D41D
:103AA0000198484502DB4FF0FF30019000208DF86F
:103AB0004B0002980DF14B07B0F1004F25D00220CA
:103AC0000C902B200D90029800280CDA40420290B6
:103AD0002D200D9007E00A210298FCF765FD30319A
:103AE000029007F8011D0C99481E0C900029F2DC89
:103AF00002980028EFD1791E0D980870307800F0F8
:103B0000200040F0450007F8020D11A8C01BC01DA1
:103B100002901398007800B1012000EB0901019890
:103B200001EBE071029801440398401A401E039093
:103B3000E00306D453462146179A039800F05CF838
:103B400005441398007818B15246179990476D1C98
:103B5000E00323D553462146179A039800F04CF80A
:103B600005441BE0BBF1000F07DB0098584504DD5E
:103B70001098179910F80B0001E017993020524661
:103B8000904701980BF1010B401E05F101050190D2
:103B900004D12E205246179990476D1CB9F10001AF
:103BA000A9F10109DEDC05E017F8010B524617996F
:103BB00090476D1C0299481E02900029F4DC534680
:103BC0002146179A03989EE62D0000002B00000066
:103BD000200000002DE9F041044600251E4617464E
:103BE000880404D405E039462020B0476D1C641ECB
:103BF000F9D52846BDE8F0812DE9F04104460025BD
:103C00001E469046C80301D5302700E020278804CF
:103C100004D505E041463846B0476D1C641EF9D511
:103C20002846BDE8F081000010B56A48D0ED001AC2
:103C300090ED002AB6EE001A01EEC21A6648D0EDE9
:103C4000001A90ED002A01EEC21AF0EE410A634814
:103C500090ED001A5F48D0ED001A21EE211A5E485F
:103C6000D0ED001A5E4890ED002A01EE821AB0EE07
:103C7000410AFFF7D3F9DFED5B0A20EE200A5A482C
:103C800080ED000A5348D0ED000A554890ED001A27
:103C900060EE810A514890ED001A4F48D0ED001AAD
:103CA00041EE610AB8EE001A60EE810AB0EE600AD9
:103CB000FFF71EF9DFED4B0A20EE200A4B4880ED9E
:103CC000000A4548D0ED001A90ED002AB6EE001A21
:103CD00001EEC21A4248D0ED001A90ED002A01EE22
:103CE000C21AF0EE410A3B4890ED001A3A48D0ED76
:103CF000001A21EE211A3948D0ED001A384890ED0B
:103D0000002A01EE821AB0EE410AFFF787F9DFEDD3
:103D1000350A20EE200A364880ED000A2F4890ED43
:103D2000000ADFED340A20EE200ABDEEC00A10EED4
:103D3000100A31490860274890ED000ADFED2D0A8E
:103D400020EE200ABDEEC00A10EE100A2B490860D2
:103D5000214890ED000ADFED270A20EE200ABDEE93
:103D6000C00A10EE100A264908601D4890ED000AAE
:103D7000DFED200A20EE200ABDEEC00A10EE100A88
:103D800020490860194890ED000ADFED1A0A20EE7C
:103D9000200ABDEEC00A10EE100A1B490860124846
:103DA00090ED000ADFED130A20EE200ABDEEC00AF6
:103DB00010EE100A154908600D4890ED000ADFED7D
:103DC0000D0A20EE200ABDEEC00A10EE100A1049BE
:103DD000086010BDB8000020BC000020B400002026
:103DE000C000002033336542C8000020C40000201A
:103DF000CC0000200000C842D0000020D4000020E9
:103E0000D8000020DC000020E8000020E4000020B2
:103E1000E000002000BF054A128802F04002002A9C
:103E2000F9D0C2B2014B9A807047000000100140E7
:103E3000F0EE400AF6EE001A60EEA11AB0EE611A3A
:103E4000B0EE600A10EE100A0749A1EB600000EE28
:103E5000100A21EE002AF7EE081A42EE401A61EE2F
:103E6000801AB0EE610A7047DF59375F2DED0A8B7B
:103E700084B0FEF78BFE4FF4E13000F021F9FDF73E
:103E8000B1FAFCF71BFDC0E0604A61496148FEF7EA
:103E9000F7FA614A61496248FEF78EFA614A62495F
:103EA0006248FEF7BBFA624890ED020A5D48D0ED29
:103EB000000A20EE200ADFED5F0A80EE201AB0EE45
:103EC000418A5B4890ED000A5848D0ED000A20EE88
:103ED000200ADFED580A80EE201AF0EE418A54489D
:103EE00090ED010A5048D0ED000A20EE200ADFEDE7
:103EF000510A80EE201AB0EE419A474890ED000A30
:103F0000DFED4D0A80EE201AF0EE419A434890ED25
:103F1000000ADFED490A80EE201AB0EE41AA4048BF
:103F200090ED000ADFED440A80EE201AF0EE41AA7F
:103F3000364890ED000A9FED411AC0EE010A9FED50
:103F4000400A20EE800ADFED3F0A80EE201AB0EE34
:103F500041BA2F4890ED000A9FED381AC0EE010AD1
:103F60009FED370A20EE800ADFED360A80EE201A38
:103F7000F0EE41BA274890ED000ADFED300A80EEFE
:103F8000201A9FED2F0A21EE000ADFED2E0A80EEA7
:103F9000201AB0EE41CAB0EE484AF0EE683AB0EEF0
:103FA000493AF0EE692AB0EE4A2AF0EE6A1AB0EE0B
:103FB0004B1AF0EE6B0AB0EE4C0AFDF71FFAFFF752
:103FC00033FE214890ED000A10EE100AFCF7A5FA26
:103FD00041EC180B1D4890ED000A10EE100AFCF79A
:103FE0009CFA41EC190B1A4890ED000A10EE100AE9
:103FF000FCF793FA41EC1A0B8DED028B8DED009BD3
:1040000053EC1A2B13A0FEF74FFF3DE720000020D2
:104010001C000020180000202C0000202800002098
:104020002400002038000020340000203000002050
:10403000480000205555D54000FF7F45EC118341D5
:10404000C3F5484000003443C8000020C4000020ED
:10405000CC000020BABDCFF2A3BA252E3266A1E370
:1040600020B8A9D1F6A3BA252E3266A1E320BAE181
:10407000B9F6A3BA252E3266A1E30D0A00000000AE
:1040800010B500EE100A2DED028BB1EEC08A18EECD
:10409000100A20F00040C0F1FF40C00F0AD010EE1F
:1040A000100A20F00040C0F1FF40C00F04BF012003
:1040B000FFF76EF918EE100ABDEC028B10BD000080
:1040C00010B588B0044601210846FEF7D1F8012159
:1040D0001020FEF7EDF8072209212648FCF74CFED8
:1040E00007220A212348FCF747FE4FF4C0600690E0
:1040F00002208DF81C008DF81D0000208DF81E0098
:1041000001208DF81F0006A91A48FCF7EDFD029466
:104110000020ADF80C00ADF80E00ADF81000ADF8C1
:1041200014000C20ADF8120002A91348FEF74AFE55
:1041300001211148FEF7EBFD40210F48FEF7DEFD9F
:10414000012240F225510C48FEF717FE4FF4A06003
:10415000FEF782F825208DF8040003208DF8050075
:104160008DF8060001208DF8070001A8FEF738F849
:1041700008B010BD00000240001001409C41000842
:1041800000000020F0000000703300088C4200089E
:10419000F0000020D804000080330008007A030AF1
:1041A00000000000000000000102030406070809E7
:1041B00000000000000000000000000000000000FF
:1041C00000000000000000000000000000000000EF
:1041D00000000000000000000000000000000000DF
:1041E000000000000000803FE02D703F8B6C673FB7
:1041F000000000000102030401020304060708098D
:104200000000000000000000000000000000803FEF
:104210000000803F000000000000000000000000DF
:10422000000000000000000000A0000000000000EE
:10423000000000000000000000A0000000000000DE
:10424000000000000000000000000000CDCCCC3DCC
:104250000000803F0000000000000000000000009F
:10426000000000000000000000000000000000004E
:10427000000000000000000000000000000000003E
:0C42800000000000000000000000000032
:040000050800018965
:00000001FF
