:020000040800F2
:10000000180B00209D01000837100008030B0008A2
:1000100033100008D7070008F51900080000000099
:10002000000000000000000000000000BD130008F8
:10003000D109000800000000A51200080D190008F1
:10004000B7010008B7010008B7010008B7010008B0
:10005000B7010008B7010008B7010008B7010008A0
:10006000B7010008B7010008B7010008B701000890
:10007000B7010008B7010008B7010008B701000880
:10008000B7010008B7010008B7010008B701000870
:10009000B7010008B7010008B7010008B701000860
:1000A000B7010008B7010008B7010008B701000850
:1000B000B7010008B7010008B7010008B701000840
:1000C000B7010008B7010008B7010008B701000830
:1000D000B701000871190008B7010008B70100084E
:1000E000B7010008B7010008B701000800F002F8E6
:1000F00000F045F80AA090E8000C82448344AAF17D
:100100000107DA4501D100F03AF8AFF2090EBAE87A
:100110000F0013F0010F18BFFB1A43F0010318473B
:10012000B4550000D4550000103A24BF78C878C1F7
:10013000FAD8520724BF30C830C144BF04680C60ED
:10014000704700000023002400250026103A28BF35
:1001500078C1FBD8520728BF30C148BF0B60704739
:10016000642900F0AD80782900F0E680732900F062
:100170009C82002070471FB51FBD10B510BD00F058
:10018000FCFA1146FFF7F7FF04F0F2FC00F01AFB4F
:1001900003B4FFF7F2FF03BC04F0D1FB094880472A
:1001A00009480047FEE7FEE7FEE7FEE7FEE7FEE759
:1001B000FEE7FEE7FEE7FEE704480549054A064B71
:1001C0007047000011190008ED0000081805002014
:1001D000180B0020180700201807002070470000A7
:1001E0000FB4044910B503AA029800F063FA10BCDA
:1001F0005DF814FB180000200FB41CB5074B06AACD
:100200007B4469460090059800F025FA0020694675
:1002100000F034FA1CBC5DF814FB00007904000007
:1002200070B5044685690068C10601D5302600E036
:100230002026C00707D070BDD4E901213046904781
:10024000206A401C20626D1EF6D570BD70B5044654
:1002500085690078C00707D170BDD4E9012120204D
:100260009047206A401C20626D1EF6D570BD70B5A7
:100270000C460546012A05D02878800600D5EA6993
:10028000002302E0012305E05B1C934202D2E05C04
:100290000028F9D1A869E618C01AA861286A18448C
:1002A00028622846FFF7BCFF04E0D5E9012114F8D5
:1002B000010B9047B442F8D32846FFF7C7FF70BD43
:1002C0002DE9F0410646002410687529314616A52F
:1002D00010D0AFF30080002802DA404213A507E0F7
:1002E00031688A0701D512A502E0490704D511A596
:1002F000012401E0AFF3008000210A2206F1240767
:1003000009E0B0FBF2FCB0FBF2F302FB1C00303062
:1003100078541846491C0028F3D123462A46304613
:10032000BDE8F04100F039B9000000002D000000E8
:100330002B0000002000000070B504460D46214649
:100340001068AFF300802188090502D50F4A7A446E
:1003500002E00E4A7A440E32002104F1240305E043
:1003600000F00F060009965D5E54491C0028F7D185
:1003700020780023000704D5702D02D009B1022394
:1003800011322046BDE8704000F007B94653000026
:100390002DE9F05F894604464FF0000ADFF824B1EA
:1003A000FB44C0F820A02046E168884700287DD0A3
:1003B000252806D0D4E901219047206A401C2062FC
:1003C000F1E700255F462046E16888472028064679
:1003D00007DB312E05D2B81910F8200C08B10543FF
:1003E000F1E7A80701D525F00405C4F81CA00027F3
:1003F000C4F818A02A2E09D0304604F099FA38B370
:1004000004EB8708303EC8F8186019E059F8041B5F
:10041000204604EB87029161E1688847012F064678
:1004200018D1E069002820DA25F020051DE0D8F871
:10043000180000EB800006EB40003038C8F81800C8
:100440002046E1688847064604F072FA0028EED19B
:10045000012F0AD02E2E08D12046E16888477F1C44
:100460000646022F45F02005C4DBA069002803DA08
:10047000404245F00105A061E80701D025F01005D4
:10048000A6B1A6F14100192802D8203645F400652E
:100490004A463146204625604D46FFF761FE60B171
:1004A000012807D0ED1D25F0070000E007E000F16E
:1004B000080978E705F1040975E730467AE7206A0C
:1004C000BDE8F09F1C53000010B5203AC0F00B802F
:1004D000B1E81850203AA0E81850B1E81850A0E848
:1004E0001850BFF4F5AF5FEA027C24BFB1E81850A2
:1004F000A0E8185044BF18C918C0BDE810405FEA12
:10050000827C24BF51F8043B40F8043B08BF70478D
:10051000D20728BF31F8023B48BF11F8012B28BF92
:1005200020F8023B48BF00F8012B704702F0FF03A0
:1005300043EA032242EA024200F0D0B810B5044672
:1005400010F0030F08BF11F0030F40F015804FF0BB
:10055000013E121FC0F20E8051F8043BA3EB0E0CBB
:100560002CEA030C1CEACE1C08BF40F8043BF0D078
:10057000A1F1040102F10402521E08DB11F8013B53
:10058000002B00F8013BF7D1114600F0A5F82046FA
:1005900010BD70477047704770472DE9F0470D4612
:1005A00099469246044600F124080168880604D55D
:1005B000E06921F01001216000E00120A84201DD86
:1005C000471B00E00027A1697A1902EB0900081A0D
:1005D000A0612078C00602D42046FFF721FE002645
:1005E00008E0D4E901211AF806009047206A401C6F
:1005F000761C20624E45F4DB2078C0060AD52046E2
:10060000FFF70EFE06E0D4E9012130209047206A72
:10061000401C2062381EA7F10107F4DC07E0D4E992
:10062000012118F805009047206A401C2062281E0E
:10063000A5F10105F3DC2046FFF708FE207800064F
:1006400002D50220BDE8F0870120FBE701694A1CC2
:1006500002610878704700B58FB0CDE90131002103
:10066000059105497944CDE9031011466846FFF725
:100670008FFE0FB000BD0000E5FFFFFF0A6802F823
:10068000010B0A60704710B5436913B1AFF30080E6
:1006900001E0FFF7ECFD012010BD127800F124010C
:1006A0000A7000224A700122EDE711684FF0FF3214
:1006B000E9E70000074B70B50D467B44FFF7CBFF21
:1006C0000446284600F02EF810B14FF0FF3070BD00
:1006D000204670BD974400004FF000020429C0F08E
:1006E000128010F0030C00F02380CCF1040CBCF15C
:1006F000020F18BF00F8012BA8BF20F8022BA1EBB6
:100700000C0100F015B85FEAC17C24BF00F8012B92
:1007100000F8012B48BF00F8012B704700487047D4
:10072000B4040020007B00F0800070474FF000020E
:1007300000B5134694469646203922BFA0E80C50D7
:10074000A0E80C50B1F12001BFF4F7AF090728BFB2
:10075000A0E80C5048BF0CC05DF804EB890028BF2E
:1007600040F8042B08BF704748BF20F8022B11F057
:10077000804F18BF00F8012B70477546FFF7CEFF7A
:10078000AE4605006946534620F00700854618B07E
:1007900020B5FFF711FDBDE820404FF000064FF0F7
:1007A00000074FF000084FF0000B21F00701AC46A6
:1007B000ACE8C009ACE8C009ACE8C009ACE8C009C5
:1007C0008D46704710B50446AFF300802046BDE863
:1007D0001040FFF7DDBC00BFFEE72DE9FF470546EF
:1007E000002403A9284602F049FB044695F87C93AF
:1007F00040F27F30465D34B902AB01AA6946284613
:1008000002F0C1F904461CB9284603F083FF0446F0
:100810002CB94FF4FA71284601F07CFC044644B927
:10082000D5F81480434632464946284600F0E7FD95
:10083000044644B928469DE80E0003F01EFF044616
:100840000CB90298286124B903A9284603F03DFF9A
:10085000044634B9AF7806223946284603F03FF8FB
:10086000044614B940F27E304655204604B0BDE837
:10087000F08700003EB503460C46002017A52D6802
:10088000029517A52D68019516A52D6800950125DF
:100890001570012C02D0022C04D101E0002103E0EC
:1008A000012101E0022100BF00BF032B08D0042B6F
:1008B00002D0082B0CD107E002AD6D5C15700AE088
:1008C00001AD6D5C157006E01DF80150157002E079
:1008D0006FF0070000BF00BF3EBD00000201030033
:1008E00007060800242526002DE9F04F06460F468E
:1008F00013464FF496784FF01E09DFF884C0DFF8F6
:1009000084A041F69A1B0EB9002037E0072F01D1D1
:10091000322033E0B3F93CE0C64502DA4FEA094140
:1009200003E0B3F93CE00EFB0BF181B1B3F838E022
:100930000EFB0AF202EB5102B2FBF1F21204624525
:1009400002D8ACEB020404E04FF4481401E04FF489
:10095000C804C4F30745642D02DD4FF0640E00E0C7
:10096000AE46BEF1320F06DD642D02DD4FF0640E9F
:1009700003E0AE4601E04FF0320E7046BDE8F08F66
:1009800033B37500CDCC300001460A1F102A1BD2AC
:10099000DFE802F00E0C101216181A1A141A1A1A9E
:1009A0001A1A080A0A2011E006200FE004200DE0C0
:1009B00002200BE0012009E0072007E0092005E004
:1009C000032003E0002001E0FF2000BF00BF7047CC
:1009D00070472DE9F0410246002500260020002343
:1009E0000024002791F803C00CF00F0591F803C014
:1009F0000CF0100CBCF1000F03D091F802C04CEACF
:100A0000050591F800C0BCF1000F31D0146800203A
:100A10002BE04FF0010C0CFA00F3B1F800C00CEA27
:100A200003069E4220D183004FF00F0C0CFA03F70F
:100A3000BC4305FA03FC4CEA040491F803C0BCF182
:100A4000280F06D14FF0010C0CFA00FCC2F814C0BC
:100A50000AE091F803C0BCF1480F05D14FF0010C3A
:100A60000CFA00FCC2F810C0401C0828D1D3146056
:100A7000B1F800C0BCF1FF0F34DD546800202EE057
:100A800000F1080C4FF0010808FA0CF3B1F800C0AF
:100A90000CEA03069E4221D183004FF00F0C0CFAA2
:100AA00003F7BC4305FA03FC4CEA040491F803C0C5
:100AB000BCF1280F05D100F1080C08FA0CF8C2F8B7
:100AC000148091F803C0BCF1480F07D100F1080C65
:100AD0004FF0010808FA0CF8C2F81080401C0828F2
:100AE000CED35460BDE8F0810246002093680B40ED
:100AF0000BB1012000E000207047416170470161A7
:100B0000704700BFFEE7000000B585B00121082056
:100B100000F0DAFB1C208DF813004FF48060ADF874
:100B2000100001208DF8120004A91648FFF751FFAC
:100B30004FF40060ADF8100004A91248FFF749FF18
:100B40000121880500F0B0FB0020ADF804004FF44F
:100B50008060ADF80A000C4800904BF6FF70ADF8CD
:100B600006000A20ADF808004FF48040ADF80C00F4
:100B70006946064800F0D8F90121044800F093F9CD
:100B800005B000BD000C0140801A0600005800406E
:100B90002DE9F04105460E4614461F46022003F09B
:100BA000EDFE4FF480506149086008E05F49086835
:100BB000411E5E4A116010B90120BDE8F0814FF47A
:100BC00000315B4800F093F90028EFD1012158482B
:100BD00000F075F94FF480505449086007E053491C
:100BE0000868411E514A116008B90220E5E75149E1
:100BF0004F4800F043F90028F1D0002229464C4824
:100C000000F00CFA4FF480504849086007E047496B
:100C10000868411E454A116008B90320CDE74649DE
:100C2000434800F02BF90028F1D03112404800F081
:100C3000FEF94FF480503D49086007E03B490868E1
:100C4000411E3A4A116008B90420B6E73A49891CA6
:100C5000374800F013F90028F0D0F1B2344800F022
:100C6000E6F94FF480503149086007E02F490868E1
:100C7000411E2E4A116008B905209EE72E49891CA5
:100C80002B4800F0FBF80028F0D00121284800F0A4
:100C900016F94FF480502549086007E02349086899
:100CA000411E224A116008B9062086E721492048E2
:100CB00000F0E4F80028F1D045F0010101221C48C1
:100CC00000F0ACF94FF480501849086007E017496C
:100CD0000868411E154A116008B907206DE71549DB
:100CE000491C134800F0CAF80028F0D016E0012C87
:100CF00007D100210E4800F0B5F801210C4800F0A2
:100D0000EAF80C493F310A4800F0B8F830B1084819
:100D100000F080F938707F1C601EC4B2002CE6D150
:100D20000121034800F09EF8002046E72000002043
:100D30000058004001000300820007002DE9F04147
:100D400006460C4617461D460121424800F0B7F8FA
:100D50004FF480504049086008E03F490868411E50
:100D60003D4A116010B90120BDE8F0813B49394886
:100D700000F084F80028F0D000223146354800F019
:100D80004DF94FF480503449086007E03249086853
:100D9000411E314A116008B90220E5E730492D486B
:100DA00000F06CF80028F1D021122A4800F03FF939
:100DB0004FF480502849086007E027490868411E21
:100DC000254A116008B90320CEE72549891C21482E
:100DD00000F054F80028F0D0E1B21E4800F027F9E6
:100DE0004FF480501C49086007E01B490868411E09
:100DF000194A116008B90420B6E71949891C154839
:100E000000F03CF80028F0D018E02978114800F0F4
:100E10000EF96D1C4FF480500F49086007E00E4931
:100E20000868411E0C4A116008B905209CE70C496E
:100E3000891C084800F022F80028F0D0381EA7F1DD
:100E40000101CFB2E1D10121024800F044F80020B5
:100E50008AE7000000580040200000200100030045
:100E60008200070021B1028842F48062028004E01F
:100E700002884FF6FF331A400280704770B5024671
:100E80000024002500230020958A138B1B0445EACB
:100E9000030626F07F4404EA01068E4201D10120B8
:100EA00000E0002070BD21B1028842F00102028002
:100EB00004E002884FF6FE731A400280704721B1A9
:100EC000028842F48072028004E002884FF6FF63D9
:100ED0001A400280704721B1028842F400720280F9
:100EE00004E002884FF6FF531A40028070470CB5A9
:100EF0000246002000230193009300920B0F019300
:100F000021F07F41019B1BB1009B1433009303E050
:100F1000090C009B18330093009B1B680B400BB11E
:100F2000012000E000200CBD2DE9F04385B004460F
:100F30000D460026B1460427DFF8CC80A6884FF680
:100F4000C0700640684600F0CFF9DDF808802F48F1
:100F5000B8FBF0F01FFA80F946EA0906A68020885F
:100F60004FF6FE71084020800026294928688842F3
:100F70000CD828684000B8FBF0F087B2042F00DAE4
:100F800004273E4309F10100208427E0E8884BF65E
:100F9000FF71884206D1286800EB4000B8FBF0F0F2
:100FA00087B209E0286800EBC00101EB0010B8FB34
:100FB000F0F087B247F48047C7F30B0008B947F059
:100FC000010747F4004006434FF4967009FB00F018
:100FD0004FF47A7190FBF1F0401C2084A6832088A6
:100FE00040F00100208026884FF6F5300640A888A2
:100FF0006989084306432680A889298908432081F6
:1010000005B0BDE8F083000000127A0040420F00F6
:10101000A08601000146088AC0B2704712B141F0B3
:10102000010102E04FF6FE73194001827047018210
:10103000704700BFFEE7704702490143024A116052
:10104000704700000000FA050CED00E010B500202C
:1010500000F001F810BD70B50646002415E004F15B
:10106000B001C8B200F00EF9002000F00BF910201A
:1010700000F008F9002504E0304600F00BF9681C88
:10108000C5B2802DF8DB601CC4B2082CE7DB70BD54
:1010900010B500F049FB10BD10B5FFF7F9FFAE2009
:1010A00000F0F0F8812000F0EDF8FF2000F0EAF801
:1010B000A42000F0E7F8A62000F0E4F82E2000F0CD
:1010C000E1F8262000F0DEF8002000F0DBF8002038
:1010D00000F0D8F8032000F0D5F8072000F0D2F88F
:1010E000002000F0CFF8FF2000F0CCF8202000F026
:1010F000C9F8102000F0C6F8B02000F0C3F80020B6
:1011000000F0C0F8102000F0BDF8402000F0BAF860
:10111000A12000F0B7F8A82000F0B4F83F2000F0BC
:10112000B1F8C82000F0AEF8D32000F0ABF80020F2
:1011300000F0A8F8DA2000F0A5F8122000F0A2F8DC
:10114000D92000F09FF8222000F09CF8DB2000F06E
:1011500099F8202000F096F88D2000F093F81420E4
:1011600000F090F8AF2000F08DF8FFF76FFF10BD92
:1011700070B504460D4605F1B001C8B200F082F822
:10118000102141EA141000F07DF804F00F0141F045
:10119000010000F077F870BD2DE9F047064689465A
:1011A00017469A464FF0000800240025BAF1010FB7
:1011B00003D0BAF1020F5ED125E020E0785D20383F
:1011C00000F0FF087E2E04DD002609F1010000F08A
:1011D000FF0949463046FFF7CBFF002409E008EB42
:1011E0004801264A02EB4101085D00F053F8601CFB
:1011F000C4B2062CF3DBB01DC6B2681CC5B2785D64
:101200000028DBD137E032E0785D203800F0FF08BD
:10121000782E04DD002609F1010000F0FF0949469F
:101220003046FFF7A5FF002407E004EB0811144A3D
:10123000505C00F02FF8601CC4B2082CF5DB09F1FB
:101240000100C1B23046FFF793FF002408E004EB31
:10125000081108310A4A505C00F01CF8601CC4B246
:10126000082CF4DB06F10800C6B2681CC5B2785D34
:101270000028C9D100BF00BFBDE8F087804E00083C
:10128000A850000801B56B46012200213C2000F067
:101290000DFA08BD01B56B46012240213C2000F04B
:1012A00005FA08BD7047000029B1064AD269024319
:1012B000044BDA6104E0034AD2698243014BDA61EC
:1012C000704700000010024029B1064A92690243AB
:1012D000044B9A6104E0034A92698243014B9A618C
:1012E000704700000010024030B5002100220024A9
:1012F00000232D4D6D6805F00C0121B1042905D0A6
:10130000082923D105E0294D056022E0274D05601D
:101310001FE0254D6D6805F47012234D6D6805F4CE
:101320008034022505EB92421CB9214D55430560DE
:101330000BE01D4D6D6805F400351DB11C4D554386
:10134000056002E0194D5543056002E0174D056048
:1013500000BF00BF144D6D6805F0F0010909154D7F
:101360006B5C0568DD4045600F4D6D6805F4E0611C
:10137000090A104D6B5C4568DD4085600A4D6D685B
:1013800005F46051C90A0B4D6B5C4568DD40C560D2
:10139000054D6D6805F44041890B074D6B5CC568D0
:1013A000B5FBF3F5056130BD0010024000127A0074
:1013B00000093D00000000201000002070472DE9CA
:1013C000F04107460E4614464FF0000816B1012EB4
:1013D0000ED106E0C4F38F352946384603F043F8B2
:1013E00009E0C4F34F252946384603F034F802E0FB
:1013F0006FF0030800BF00BF4046BDE8F0812DE953
:10140000F04389B006460C46904699460025032CC9
:1014100001D0082C01D1402700E0202708AA41462E
:101420002046FFF727FA05465DB904A805A906ABD3
:1014300007AACDE900109DF82010304601F00FFBFF
:10144000054665B9DDE904108DE80302BDF81C20EE
:101450009DF820103046069B03F00DF8054605B9AF
:10146000B7700DB986F87C43284609B0BDE8F08313
:101470002DE9F04F89B006468A4693461D46129CD8
:10148000002008906868206095F83E0000F01F0773
:101490002A4639465046FFF727FA6071A88D400268
:1014A00002900298A060288E400203900398E060AA
:1014B000288A2082288F4FEA4028C4F81480A88FF9
:1014C00020830020A076BBF1030F10D006DCBBF117
:1014D000010F0BD0BBF1020F0FD106E0BBF10D0FD6
:1014E00008D0BBF1110F08D100BF00BF00BF05201D
:1014F000E07605E00D20E07602E00020E07600BF17
:1015000000BFE07E18B93846FFF73EFAE076288F34
:101510004FEA4028C6F89083A88D4FEA4028C6F8C5
:10152000948301AA0021304600F0D6FA062F01D19B
:10153000012000E00020079005AA0021304600F0BD
:10154000BDFA9DF81400012803D10798012800D1A5
:1015500000E00020049040F286310498885501AAEA
:101560000121304600F0B8FA042F01D1012000E03B
:101570000020069005AA0121304600F09FFA9DF850
:101580001400012803D10698012800D100E00020B2
:101590000490049986F88713B4F91890E07E58B93E
:1015A000B9F1000F08DA06484068484502DD0E2010
:1015B000E07601E000202083089809B0BDE8F08FB4
:1015C0002400002010B500F001F810BD0CB500207B
:1015D000019000903348006840F480303149086041
:1015E00000BF3048006800F4003000900198401CB3
:1015F0000190009818B90198B0F5A06FF1D1294871
:10160000006800F4003010B10120009001E00020DB
:1016100000900098012843D12348006840F0100052
:10162000214908600846006820F003000860084669
:10163000006840F0020008601A4840681949486094
:101640000846406848600846406840F4806048604A
:101650000846406820F47C1048600846406840F422
:10166000E81048600846006840F08070086000BFDD
:101670000C48006800F000700028F9D00948406864
:1016800020F00300074948600846406840F0020027
:10169000486000BF0348406800F00C000828F9D1FA
:1016A0000CBD000000100240002002402DE9F04176
:1016B00005460E461746984600F09AF8002141EA82
:1016C0004501C8B200F058F800F0E8F8012804D14C
:1016D00000F0BCF80220BDE8F081304600F04CF884
:1016E00000F0DCF8012803D100F0B0F80220F2E7A6
:1016F00000240DE018F8040000F03EF800F0CEF8E9
:10170000012803D100F0A2F80220E4E7601CC4B273
:10171000BC42EFDB00F09AF80020DCE710B50420B3
:1017200003F036F910BD000008B501210820FFF7CD
:10173000CBFD4020ADF8000010208DF80300032001
:101740008DF8020069460B48FFF743F98020ADF899
:10175000000069460748FFF73CF900BF40210548F3
:10176000FFF7CDF900BF00BF80210248FFF7C7F99E
:1017700000BF08BD000C014070B504461B4800685E
:1017800020F07040194908600846006840F0405059
:101790000860002520E000BFE00920B18021134847
:1017A000FFF7ADF903E080211048FFF7A6F900BF6D
:1017B000FFF7B4FF00BF40210C48FFF7A0F900BFBE
:1017C000FFF7ACFF00BF40210848FFF796F900BFC4
:1017D0006006040E681CC5B2082DDCDB00BF80214A
:1017E0000248FFF78CF900BF70BD0000000C0140FB
:1017F00010B51548006820F070401349086008468D
:10180000006840F04050086000BF80210E48FFF79C
:1018100076F900BF00BF40210B48FFF770F900BF09
:10182000FFF77CFF00BF80210748FFF766F900BF84
:10183000FFF774FF00BF40210348FFF75EF900BFC8
:10184000FFF76CFF10BD0000000C014010B51248FE
:10185000006820F07040104908600846006840F0B9
:101860004050086000BF80210B48FFF746F900BFD9
:10187000FFF754FF00BF40210748FFF740F900BFC2
:10188000FFF74CFF00BF80210348FFF738F900BF86
:10189000FFF744FF10BD0000000C014070B50024AC
:1018A00000251948006820F0704017490860084674
:1018B0000068086000BF80211348FFF720F900BFCF
:1018C000FFF72CFF00BF40210F48FFF718F900BFBA
:1018D000FFF724FF07E0601CC4B2FA2C03DDFFF71A
:1018E000B5FF012505E080210748FFF7FDF8002836
:1018F000F1D100BF00BF40210348FFF7FEF800BF51
:10190000FFF70CFF284670BD000C01407047000037
:1019100010B51348006840F00100114908600846FE
:101920004068104908400E494860084600680E4962
:1019300008400B4908600846006820F480200860D1
:101940000846406820F4FE0048604FF41F0088609D
:10195000FFF738FE4FF000600449086010BD00003A
:10196000001002400000FFF8FFFFF6FE08ED00E067
:101970001D49098801F0200111B31B49091D09887F
:10198000C8B21A49098801F40041C9B91749098840
:1019900001F4804161B10A2803D00021134A11806B
:1019A00020E01249098841F40041104A118019E0F1
:1019B0000D2806D10D49098841F480410B4A118058
:1019C00010E00A490988C1F30D01094A505407493A
:1019D0000988491C054A118011460988C72901DD7B
:1019E0000021118070470000003801401C000020D9
:1019F000EC03002000BFFEE72DE9F041044600257E
:101A0000A67840F27E30075D401C10F80480B8458F
:101A100004D02046FEF7E1FE054604E031462046AC
:101A200000F0F0FC05462846BDE8F08170B506469A
:101A3000002424B90121304600F036FE04462CB9BA
:101A4000012086F87803082086F87C0300250AE048
:101A500034B901222946304600F0C9F9044300E0B8
:101A600003E0681CC5B2022DF2DB00BF34B94FF4AD
:101A700090120021304600F0DEF9044634B94FF4EC
:101A800080420121304600F0D6F90446204670BD60
:101A9000F8B505460C4600266946284600F025FFA5
:101AA0000646009880014FF47A71B0FBF1F000997E
:101AB000081A0090009820603046F8BD30B5034603
:101AC0000020022903DB001F0025157003E003F549
:101AD00061756C5C147030BD2DE9FC4106460C4606
:101AE00017464FF0000814B1012C12D108E06946E6
:101AF000304600F019FF8046BDF8000085030BE07A
:101B000001A9304600F007FF8046BDF804004502F9
:101B100002E06FF0030800BF00BFB8F1000F11D161
:101B200045B906F5627050F824503D600021001F51
:101B3000015507E03D6006F5627040F82450012130
:101B4000001F01554046BDE8FC8170B504460D46B6
:101B500000262946204602F0D6F80646304670BDDB
:101B60002DE9F04786B007460D4600240020059079
:101B70000490039002908246019028602CB905AA37
:101B80000521384600F088F804462CB904AA06213D
:101B9000384600F081F8044634B902AB03AA01A923
:101BA000384600F0F0FF0446002C4CD197F87C83B7
:101BB000B8F1030F18D0B8F1040F03D0B8F1080F33
:101BC0003DD127E09DF81400012803D09DF81000B6
:101BD000012805D141F28831029800EB010A02E0A8
:101BE000029800F57A7A2DE09DF81400012803D0C0
:101BF0009DF81000012806D146F2E87102220298F1
:101C000002FB001A05E045F260410222029802FB45
:101C1000001A17E0F5266A4648F23601384600F009
:101C2000FEFF0098002803DDF521009800FB016607
:101C300006F6DC590221029801FB009A02E06FF0DF
:101C4000070400BF00BF0CB9C5F800A0204606B0CD
:101C5000BDE8F0872DE9F041A2B080460C46002691
:101C600001ADFF221C212046FEF760FC2A4602211E
:101C7000404600F0E6FD064656B9A87820712F1DB3
:101C80000094EA783B4601214046FFF7F1FB064607
:101C9000304622B0BDE8F0812DE9F04104460D4602
:101CA0001646002732462946204600F03DFF0746EB
:101CB0003846BDE8F0810146002000220A607047E6
:101CC0002DE9F04107460D46144600262346012221
:101CD0002946522002F0E0FD3046BDE8F0810000C8
:101CE0002DE9F04107460D4614460026074B022217
:101CF0002946522002F0D0FD044840780349097873
:101D000000EB012020803046BDE8F0814400002037
:101D10002DE9F04180460E4614461D460027EAB2E2
:101D200023463146522002F0B7FD3846BDE8F08127
:101D30002DE9FF4706460D46002496F87C93012DB9
:101D400007D0022D05D0032D03D0201F04B0BDE81D
:101D5000F08734B9012D01D0022D01D12F4600E0CA
:101D6000032724B96946304601F088F80446D6F8BE
:101D7000148034B903AB02AA01A9304600F003FF76
:101D8000044634B943463A4649463046FFF737FBE6
:101D9000044634B940F27E308755401C8755801E7A
:101DA000855544B9304601A90EC902F066FC0446C7
:101DB0000CB90398306124B96946304602F085FCBD
:101DC00004462046C2E72DE9F04106460C460027AE
:101DD0002546A8014FF47A71B0FBF1F0054429467D
:101DE000304602F023FB07463846BDE8F0812DE976
:101DF000F04105460C4616460027B846022C01DB8A
:101E00003F1F0DE016B94FF0000803E005F56270C2
:101E100050F82480424621462846FFF7D0FA07466C
:101E200037B90EB1012100E0002105F561700155BF
:101E30003846BDE8F0812DE9F04105460C461646CE
:101E40000027022C01DB3F1F15E005F5617010F83B
:101E50000480B8F1000F03D1001D40F824600AE0AF
:101E6000324621462846FFF7AAFA07461FB905F56C
:101E7000627040F824603846BDE8F0812DE9F04FEB
:101E800087B006460D460024DFF81091444885428D
:101E900000D9241F2CB906AA05213046FFF7FCFE05
:101EA00004462CB905AA06213046FFF7F5FE044684
:101EB00034B904AB03AA02A9304600F064FE04461C
:101EC000002C63D196F87CB300274FF0010ABBF1D8
:101ED000030F14D0BBF1040F03D0BBF1080F36D1B0
:101EE0001FE09DF81800012803D09DF81400012878
:101EF00002D141F2883701E04FF47A772AE04FEAC5
:101F000049099DF81800012803D09DF81400012804
:101F100002D146F2E87701E045F260474FF0020A4D
:101F200018E04FEA49094FF0F50801AA48F23601D6
:101F3000304600F074FE0198002803DDF521019879
:101F400000FB018808F6DC574FF0020A02E06FF050
:101F5000070400BF00BFBD4202D86FF0030401E0D8
:101F6000E81B049094B90498484502D96FF0030423
:101F700009E00498B0FBFAF00490304602A90EC9BB
:101F800002F07BFB04460CB90498306114B94FF49D
:101F900060708551204607B0BDE8F08F706408007E
:101FA000809698002DE9F04107460C46002503264F
:101FB0004FF47A73324621463846FFF720FA054639
:101FC000BDB940F27E30C655401CC655042C03D026
:101FD000032C01D0082C06D14AF228013846FFF71D
:101FE0004DFF054605E048F235213846FFF746FF2C
:101FF00005462DB94FF47A713846FFF7E4FE0546E1
:102000002846BDE8F0812DE9FC410446002594F8FE
:102010007873042F14D007DC7FB1012F0ED0022F6C
:102020000DD0032F12D106E0052F0AD0622F09D060
:10203000632F0BD107E000250BE000BF00BF00BFFE
:1020400000BF00BF00BF6FF00D0502E06FF002059A
:1020500000BF00BFA678C5B9402E16D101A9204601
:10206000FFF77EFD80464FF47A710198B0FBF1F0E6
:10207000019069462046FFF70BFD8046DDE9001020
:10208000001D814201D26FF003052DB906223146B1
:10209000204601F024FC054615B9042084F8780395
:1020A0002846BDE8FC8170B504460025032084F86D
:1020B00078032026A670032140F27F300155401E90
:1020C0000155401E015508212046FFF76BFF0546CC
:1020D000284670BD70B504460025204602F01AFB64
:1020E000054615B9032084F87803284670BD70B5FD
:1020F000044600254FF4FA71204601F0F0FE054633
:10210000284670BD70B505460C46A0B202F036FCFC
:10211000002070BD70B506460C464FF47A7094FBF3
:10212000F0F085B2284602F029FC002070BD0000C6
:102130002DE9FF4FADF5037D0E4617469846DDF8B5
:1021400040A2DDF8449200240020829081908346D2
:102150008090002540F2FF121AA16846FEF7EEF9C2
:1021600082A8FFF7A8FD1EE02CB980AA3946839803
:10217000FFF7A6FD04469DF8000200EA0A0040456C
:1021800000D1012544B93DB9B9F1000F04D0494649
:102190008398FFF7B7FF044681A8FFF78CFD82996B
:1021A0008198A0EB010B1CB9B34501D2002DDBD007
:1021B00015B90CB96FF0060420460DF5077DBDE892
:1021C000F08F0000000000002DE9F04180460E462F
:1021D00014461D460027EAB223463146522002F03B
:1021E00081FB3846BDE8F081F0B504460D46002677
:1021F0000027204600F0D2FA06462946304600F075
:10220000BAF807463846F0BDF0B504460D4600263C
:1022100000272946204600F05BF80646304600F0CD
:10222000E1FA07463846F0BD2DE9F04106460D4675
:1022300000BF00BF00BF304600F00FF80746284639
:1022400000F0B3FA804607EBC7000402A40904FBC0
:1022500008F4A4092046BDE8F081014600204FF0B3
:10226000804292FBF1F070472DE9F04305460C46A1
:1022700000218846002600278C4628014FF47A79F1
:1022800090FBF9F6002C01DA604207B2002A02DA6C
:1022900050420FFA80FC4FEA471909EB4C114FF4FA
:1022A0007A7091FBF0F13144594301F110004FEA8B
:1022B000E07900EBD9694FEA6911B1F5803F02DBA3
:1022C0004FF6FF7801E01FFA81F84046BDE8F08341
:1022D00002460020130303EB5103B3FBF1F07047F8
:1022E0002DE9FC5F82460F4690461E46DDE90CB4A0
:1022F000002001900090814600251EB96FF00E006D
:10230000019035E0A1793046FFF78EFF00905046EE
:102310000099FFF7DDFF8146B9F1FF0F01D94FF0BA
:10232000FF098BF8079038460099FFF76DFF0546C7
:10233000280A2070657040460099FFF765FF054642
:10234000280A20716571617A3046FFF76DFF0090B1
:1023500038460099FFF758FF0546280AA070E57037
:1023600040460099FFF750FF0546280AE0712572A4
:102370000198BDE8FC9FF0B503460C46002000BF65
:10238000A3FB04152A464FF4006C11EB0C0142F13B
:1023900000020D0B45EA02510846F0BDF0B50146BA
:1023A00000200A4602F12C0302F5E77400250026FE
:1023B000002794F801C00CF01F05E67894F800C0DF
:1023C0000CF0200C4FEA2C1792F8CCC10CF0200C2A
:1023D000BCF1200F15D193F804C0BCF1060F04D155
:1023E000122D0ED06FF010000BE093F805C0B4452D
:1023F00001D06FF0110093F806C0BC4501D06FF01A
:102400001200F0BD70B505460E4600242CB903221B
:102410003146284601F063FA0446204670BD10B5E7
:102420000346002001245470002494708B244C74C3
:102430004FF448441C8202249C7210BD10F8102FE7
:102440000A7042784A7082788A70C278CA700279BB
:102450000A7142794A7182798A71C279CA71027AA3
:102460000A72427A4A72827A8A72C27ACA72027B8B
:102470000A73427B4A73827B8A73C27BCA73027C73
:102480000A74427C4A74827C8A74C27CCA74027D5B
:102490000A75427D4A75827D8A75C27DCA75027E43
:1024A0000A76427E4A76827E8A76C27ECA76027F2B
:1024B0000A77427F4A77827F8A77C27F1038CA774D
:1024C00070472DE9F04107461446002500220026FA
:1024D00091F803C083F802C0181D00BFB5E0057075
:1024E0004FF0000CC0F804C091F803C0BCF1000F1D
:1024F0000BD191F801C00CF01F0CBCF1090F04D1F5
:102500004FF0130C80F83EC005E091F801C00CF0CC
:102510001F0C80F83EC015B1012D51D151E091F84A
:1025200002C0BCF1070F04D1B1F812C0A0F810C06E
:102530000DE091F802C0BCF1080F04D1B1F814C04D
:10254000A0F810C003E0B1F804C0A0F810C0B1F8C2
:1025500010C0A0F82CC0B1F816C0A0F82EC0B1F879
:1025600008C0A0F830C0B1F80AC04FEA4C16B6F562
:10257000803F01D34FF6FF760687B1F80CC0A0F874
:102580003AC0CA897A4302F5806294464FEAE278FB
:1025900002EB58584FEAE8220FFA82FCA0F83CC040
:1025A000D4F804C0C0F824C0D4F808C0C0F828C0CB
:1025B000D4F80CC0C0F814C0D4F800C0C0F820C0D3
:1025C0003DE0B1F818C0A0F810C0B1F81AC0A0F8EA
:1025D0002CC04FF6FF7CA0F82EC0B1F81CC0A0F8AC
:1025E00030C0B1F81EC04FEA4C16B6F5803F01D39B
:1025F0004FF6FF760687B1F820C0A0F83AC04A8CA3
:102600007A4302F5806294464FEAE27802EB58582A
:102610004FEAE8220FFA82FCA0F83CC0D4F814C0BC
:10262000C0F824C0D4F818C0C0F828C0D4F81CC022
:10263000C0F814C0D4F810C0C0F820C000BF00BF5C
:10264000403005F1010C0CF0FF05022DFFF647AFFD
:102650004FF0000C83F803C091F801C00CF01F0C80
:10266000BCF1030F10D006DCBCF1010F0AD0BCF1A5
:10267000020F16D107E0BCF10D0F06D0BCF1110F0F
:102680000FD103E000BF00BF00BF00BF91F801C041
:102690000CF01F0C83F803C04FF0000883F8428051
:1026A00000BF00BFBDE8F081FEB505460F4600261D
:1026B0002C466221284601F04CFA002020700120AF
:1026C00060700020A0700120E07020714FF47A70DB
:1026D000A0604000E06043F2C82020616420606197
:1026E0004FF420602083002084F8210040F2DB704A
:1026F000A4F89C00284601F0C5FA002F04DD1EB99D
:10270000284601F045FE064604F5887001F047FAB8
:10271000064604F5907001F053FA064604F59671EA
:1027200004F1420001F0BCFA064604F5A27001F083
:1027300023FA064604F1A40001F052FA06462021CD
:10274000284601F0D7FF064666B9D4E9031260694E
:10275000CDE900120290228B61782846A36801F02F
:102760008AFE0646284601F0F8FA3046FEBD7F286C
:102770000BDDC0F1FF0303F0070308330B70A0F17A
:102780008003C3F3C703137007E000F007030B7067
:10279000C0F17F03C3F3C7031370704701460020E5
:1027A000CAB20B0A9A40501C7047014600204A1CCE
:1027B0005206100E70470311137000F00F030B70D8
:1027C000704710B5072807DD802303EBC103C0F174
:1027D0000F042344137004E0C1F10F0300EBC303A3
:1027E000137010BD10B5014600200022002361B116
:1027F0004A1E02E052085C1CA3B222F0FF04002C27
:10280000F8D1144663F31F24A0B210BD00EB0113EE
:102810001370704770B586B006460D46002434B973
:1028200017236A460D213046FFF772FA04462CB989
:102830002A466946172000F078FB0446204606B079
:1028400070BD2DE9F04707468946904600253C4675
:1028500007F53D7A564625B94946384600F06DF8E9
:10286000054645B9B4F89C00334604F5227204F5D8
:10287000E771FFF726FE40F2E520005D012821D137
:1028800065B940F2E620005D40B9384601F0A7FA8C
:102890000546012140F2E620015509E045B940F224
:1028A000E620005D012803D1022140F2E620015517
:1028B00040F2E620005DFF2804D01DB9384601F043
:1028C000BFFA054694F82C0030703020005D70701F
:1028D000842231464046FDF7F7FD1DB93846FFF723
:1028E0005DFD05462846BDE8F08730B502460B463B
:1028F000002011464FF42D74645A0CB96FF00E008D
:1029000040B94FF4D67465584FF42D74645AB5FB32
:10291000F4F41C6030BD10B50246002013464FF49D
:10292000D474E45A0C8010BD10B502460020134642
:102930004FF4D374E45A0C8010BD2DE9F04FC3B0AE
:1029400004460F460025A04608F5E77A08F5227BE5
:1029500008F52B7002908826A94600200190012FCF
:1029600006D0022F09D1C6F5877080B2019007E02A
:10297000C6F1D50080B2019002E02C20019000BF8A
:1029800000BF35B903AA31462046019BFFF7C0F9C5
:102990000546022F0CDB5DB9C6F1D6001FFA80F99F
:1029A00003A800EB09013820029A00F010FB05464D
:1029B000012F0CDB5DB9C6F1B4001FFA80F903A842
:1029C00000EB09015A46212000F06FFA05464DB987
:1029D0004FF0000903A800EB090152462C2000F03B
:1029E000B2FC0546284643B0BDE8F08F2DE9FC4116
:1029F00005460C464FF000082E460020019000903E
:102A0000002796F82A0201AA6946FFF7B0FE9DF852
:102A1000040020709DF80000607096F82B72381149
:102A2000E07007F00F00A0704046BDE8FC8170B573
:102A30008EB006460D4600243CB9312301AA40F26F
:102A40000F113046FFF764F904462CB92A4601A954
:102A5000312000F0A6FB044620460EB070BD2DE9E3
:102A6000F04106460F46DDE9064500203146072FB6
:102A70002ED007DC072F51D2DFE807F050131415D2
:102A800016172900242F36D006DC082F21D0112F4D
:102A90000CD0122F42D11DE0252F2DD0262F3DD155
:102AA0002BE000BF00BF00BF00BF00BFB1F8CAC02D
:102AB000A2F800C0D1F8D0C0C3F800C0D1F8D8C087
:102AC000C4F800C0D1F8E4C0C5F800C029E000BFD8
:102AD00000BF00BFB1F8CCC0A2F800C0D1F8D4C08C
:102AE000C3F800C0D1F8DCC0C4F800C0D1F8E8C019
:102AF000C5F800C015E000BF00BFB1F8CCC0A2F817
:102B000000C0D1F8D4C0C3F800C0D1F8E0C0C4F808
:102B100000C0D1F8ECC0C5F800C002E06FF00300BF
:102B200000BF00BFBDE8F08170B5034600201D4620
:102B3000012407290FDC002902DD01268E40F4B2B2
:102B400040F2C516765D26401670002905DD167820
:102B50000E41167001E06FF0030070BDFEB5064631
:102B60000D46002434B90B236A4601213046FFF795
:102B7000CFF804462CB92A4669460B2000F0B2FB78
:102B800004462046FEBD2DE9F05F05460E46174679
:102B900098464FF0000A2C46D346D1464FF4AF700A
:102BA000005B08B96FF00E0ABAF1000F34D14FF490
:102BB000D172115D4FF4AF72105BFFF735FB8346A6
:102BC00040F28B11085D5946FFF7D5FB306094F851
:102BD0009C9140F29D10005D00EB09201FFA80F9E6
:102BE00059464846FFF700FB38604FF4D07010F8A4
:102BF0000490401C005D00EB09201FFA80F9594643
:102C00004846FFF7F1FAC8F800003068A06038685D
:102C1000E060D8F8000020615046BDE8F09F70B534
:102C200003460C4600201946A4F50045392D6FD205
:102C3000DFE805F01D2125292D3135393D41454974
:102C40004D5155595D61666A6F73777B7F83878BC2
:102C50008F93989CA1A6ABB0B5B9BEC3C8CDD2D74F
:102C6000DCE1F1F5F9FDECEBEAE9E8E7E600B1F8C3
:102C7000A450156000E1A6256D5A1560FCE0A8255A
:102C80006D5A1560F8E0B0256D5C1560F4E0B12573
:102C90006D5C1560F0E0B2256D5A1560ECE0B1F89E
:102CA0009C501560E8E0B4256D5C1560E4E0B62545
:102CB0006D5A1560E0E0B8256D5A1560DCE0BA2564
:102CC0006D5A1560D8E0BC256D5A1560D4E0BE255C
:102CD0006D5A1560D0E0C0256D5A1560CCE0C22554
:102CE0006D5C1560C8E0C3256D5C1560C4E091F8AB
:102CF000C4501560C0E04FF4A0756D5C1560BBE07A
:102D000091F8C5501560B7E091F8C7501560B3E071
:102D1000ADE091F8C8501560AEE0B1F93E511560D4
:102D2000AAE0AA256D5C1560A6E0AB256D5C156078
:102D3000A2E0AC256D5C15609EE0AD256D5C156074
:102D40009AE0AE256D5C156096E0AF256D5C156070
:102D500092E091F8C65015608EE04FF4B0756D5C4E
:102D6000156089E091F81051156085E040F2111569
:102D70006D5C156080E04FF48A756D5815607BE0DE
:102D80004FF48C756D5A156076E04FF48D756D5A61
:102D9000156071E04FF48E756D5A15606CE0B1F8F6
:102DA0004451156068E04FF4A4756D58156063E0F8
:102DB0004FF4A8756D5815605EE04FF4A6756D5818
:102DC000156059E04FF4AA756D5C156054E040F24F
:102DD00055156D5C15604FE04FF4AB756D5C15607B
:102DE0004AE040F221156D5C156045E04FF49175A5
:102DF0006D5C156040E04FF494756D5A15603BE0D2
:102E000031E02CE027E022E01DE018E013E00EE0C6
:102E100009E004E0FFE7CA256D5A15602CE0CC25D7
:102E20006D5A156028E0D0256D58156024E0D42532
:102E30006D58156020E0D8256D5815601CE0DC2524
:102E40006D58156018E0E4256D58156014E0E8250C
:102E50006D58156010E091F8E45215600CE0E02523
:102E60006D58156008E0EC256D58156004E06FF0B2
:102E700000451560A80000BF00BF70BD2DE9F041FE
:102E800005460C4600272E4640F2C311885D2246B7
:102E9000611CFFF76CFC4FF4E271885DE21CA11C21
:102EA000FFF789FC3846BDE8F0812DE9F041064680
:102EB0000D4614460027212E03DA6FF00900BDE805
:102EC000F0812946042000F0DFFA2060291D04204B
:102ED00000F0DAFA606005F10801042000F04FF913
:102EE000A06005F10C01042000F0CEFAE06005F1CD
:102EF0001001042000F0C8FA206105F1140104203B
:102F000000F0C2FA606105F11801042000F037F901
:102F1000A06105F11C01042000F0B6FAE06195F80B
:102F2000200084F820003846C9E72DE9F041064624
:102F30000C4615460027172E03DA6FF00900BDE88E
:102F4000F0812078287060786870A078A870E078A8
:102F5000E87020792871607900F00F006871A0791D
:102F6000A871E07900F03F00E871207A00F00300DA
:102F7000287204F10901022000F077FA688104F157
:102F80000B01022000F0E8F8A88104F10D010220F5
:102F900000F0E2F8E88104F10F01022000F065FA88
:102FA000288204F11101022000F0D6F8C0F30C00D1
:102FB000688204F11301022000F0CEF8A88204F127
:102FC0001501022000F0C8F8E8823846B7E72DE97D
:102FD000F04106460D4614460027382E03DA6FF0FE
:102FE0000900BDE8F0812946022000F03EFA208069
:102FF000A87800F07F00A070E87800F03F00E07053
:10300000287900F003002071687900F001006071F8
:10301000A87900F03F00A071E87900F03F00E0716E
:1030200005F10801022000F020FAC0F30900208118
:10303000A87A00F00300A072E87A00F00300E072C2
:10304000287B00F00F002073687B00F0070060739E
:10305000A87B00F00100A073E87B00F00300E073A0
:10306000287C2074687C607405F11201022000F055
:10307000FCF9C0F30B00608205F11601022000F09C
:10308000F4F9A08205F11801022000F0EEF9E082C7
:1030900015F81A0F00F0010004F8180F687800F016
:1030A00007006070A878A070E878E070287900F0D8
:1030B0007F002071687900F07F006071A87900F0CE
:1030C0000300A071E87900F00F00E071287A207207
:1030D000687A6072A87AA072E87A00F00100E07263
:1030E000287B00F003002073687B00F01F006073F2
:1030F000A87B00F01F00A073E87B00F01F00E073C6
:10310000287C00F001002074687C00F001006074ED
:10311000A87C00F00300A074E87C1A3D00F03F009A
:10312000E07405F12E01042000F0AEF9C0F31100A7
:10313000606105F13201042000F0A6F9A06195F864
:10314000360000F00100207795F8370000F001000C
:103150006077183C384644E710B5024600200B78EB
:10316000802B00DB401E04E011F8014B44EA0023F1
:1031700018B2131EA2F10104A2B2F5DC10BD10B505
:10318000024600200B78802B00DB401E03E011F884
:10319000014B44EA0020131EA2F10104A2B2F6DCA6
:1031A00010BD2DE9F04106460C4615460027312E8C
:1031B00003DA6FF00900BDE8F081207828706078AC
:1031C0006870A078A870E11C022000F04EF9A88079
:1031D00014F8050F00F07F0005F8060F607800F086
:1031E00007006870A07800F00700A870E07800F091
:1031F0003F00E870207900F03F002871607900F00E
:1032000001006871A07900F07F00A871E07900F0FA
:103210000100E871207A00F03F002872607A00F027
:103220003F006872A07AA872E07AE872207B287367
:10323000607B6873A07BA873E07BE873207C2874B4
:10324000607C6874A07CA874E07CE874207D28759C
:10325000607D6875A07DA875E07DE875207E287684
:10326000607E6876A07EA876E07EE876207F28776C
:10327000607F6877A07FA877E07FE87794F82000E8
:1032800085F8200094F8210085F8210094F82200A8
:1032900085F8220094F8230085F8230094F8240090
:1032A00085F8240094F8250085F8250094F8260078
:1032B00085F8260094F8270085F8270094F8280060
:1032C00085F8280094F8290085F8290094F82A0048
:1032D00085F82A0094F82B00641F85F82B00AD1F99
:1032E000384668E72DE9F04106460C4615460027AA
:1032F0000B2E03DA6FF00900BDE8F081207800F0B2
:103300007F002870607800F00F006870A07800F0EF
:103310007F00A870E07800F00300E870207900F0EA
:103320007F002871611D022000F09FF8E880E0799D
:103330002872207A6872607A00F03F00A872A07A42
:10334000E8723846D8E72DE9F04106460C461546A6
:1033500000272C2E03DA6FF00900BDE8F0812078F9
:1033600000F03F00287060786870A07800F00F00CF
:10337000A870E078E870211D022000F076F8A8809F
:10338000A11D022000F071F8E88004F1080102207C
:1033900000F06BF8288104F10A01022000F065F8C2
:1033A000688104F10C01022000F05FF8A88104F1AB
:1033B0000E01022000F059F8E88104F1100102200A
:1033C00000F053F8288204F11201022000F04DF8B9
:1033D000688204F11401022000F047F8A88204F189
:1033E0001601022000F041F8E88204F118010220E1
:1033F00000F03BF8288304F11A01022000F035F8B0
:10340000688304F11C01022000F02FF8A88304F166
:103410001E01022000F029F8E88304F120010220B7
:1034200000F023F8288404F12201022000F01DF8A6
:10343000688404F12401022000F017F8A88404F144
:103440002601022000F011F8E88404F1280102208E
:1034500000F00BF8288594F82A0085F82A0094F8E3
:103460002B0085F82B00384677E710B50246002080
:1034700004E011F8014B44EA002398B2131EA2F1B4
:103480000104A2B2F5DC10BD10B50246002003E035
:1034900011F8014B44EA0020131EA2F10104A2B26C
:1034A000F6DC10BD2DE9F04104460E461546002716
:1034B000172E03DA6FF00900BDE8F081207828703C
:1034C00060786870A078A870E078E870207928713A
:1034D000607900F00F006871A079A871E07900F0C0
:1034E0003F00E871207A00F003002872608905F13E
:1034F0000902022100F0D3F9B4F90C0005F10B0226
:10350000022100F0B4F8B4F90E0005F10D02022119
:1035100000F0ADF8208A05F10F02022100F0BFF99A
:10352000618AC1F30C0005F11102022100F09FF83D
:10353000B4F9140005F11302022100F098F8B4F96F
:10354000160005F11502022100F091F83846B3E7A4
:103550002DE9F04104460E4615460027122E03DAE7
:103560006FF00900BDE8F081207800F003002870BA
:1035700060886A1C022100F092F9A088EA1C0221EE
:1035800000F08DF9A07900F001006871E07900F099
:103590000700A871207AE871607A2872A07A00F09A
:1035A0007F006872E07A00F07F00A872207B00F054
:1035B0000300E872607B00F003002873A07B00F03A
:1035C0000F006873E07BA873207CE873607C28742C
:1035D000A07C00F0030068743846C3E72DE9F04191
:1035E00004460E4615460027162E03DA6FF0090032
:1035F000BDE8F0812078287060786870A078A870A5
:10360000E07800F07F00E870A188C1F30B002A1D6C
:10361000022100F044F9A07900F07F00A871E07960
:10362000E871207A2872607A00F001006872A07A4E
:1036300000F00700E872A08905F10C02022100F0F9
:103640002EF9E08905F10E02022100F028F9208A06
:1036500005F11002022100F022F9A07CA874E07CA0
:10366000E874207D2875607D68753846C0E770B5C0
:103670000346002000241C4600BF05E00D1A6D1E05
:1036800054552412451CA8B28842F7DB70BD2DE9C1
:10369000F04104460E4615460027202E03DA6FF04F
:1036A0000900BDE8F08120882A46022100F0F7F8E1
:1036B000A07800F00100A870E07800F00F00E8703A
:1036C000207900F00F002871607900F01F00687108
:1036D000A07900F07F00A871E07900F07F00E87128
:1036E000207A00F001002872607A6872A07A00F0F7
:1036F0000100A872E07A00F00300E872207B00F07D
:103700001F002873607B00F003006873A07B00F04B
:103710000300A873E07B00F00700E873207C00F052
:103720001F002874607C00F001006874A07CA874FD
:10373000E07CE874207D2875607D6875A07DA875A3
:10374000E07DE875208B05F11802022100F0A7F852
:10375000A07EA876E07EE876207F00F00F00287734
:10376000607F6877A07F00F00F00A877E07FE877A0
:10377000384696E72DE9F04104460E4615460027E7
:103780000B2E03DA6FF00900BDE8F081207800F01D
:103790007F002870607800F00F006870A07800F05B
:1037A0007F00A870E07800F00300E870207900F056
:1037B0007F002871E0886A1D022100F070F8207AED
:1037C000E871607A2872A07A00F03F006872E07AAF
:1037D000A8723846D8E710B503460024052902DA56
:1037E0006FF0090010BD187800F0010010705878D3
:1037F00000F001005070987800F001009070D878C7
:1038000000F00300D070187910712046EAE72DE926
:10381000F04104460E4615460027172E03DA6FF0D6
:103820000900BDE8F081207800F00F002870607872
:103830006870A07800F00F00A870E078E870207938
:1038400000F00F00287160796871A07900F03F00E6
:10385000A871E07900F00F00E871207A2872607A90
:1038600000F03F006872608905F10A02022100F051
:1038700016F8A08905F10C02022100F010F8A07BD7
:10388000A873E07BE87305F112020421206900F0BF
:1038900016F8207D00F00100A8753846C1E770B524
:1038A0000346002000241C4600BF05E00D1A6D1ED3
:1038B00054552412451CA8B28842F7DB70BD70B580
:1038C0000346002000241C4600BF05E00D1A6D1EB3
:1038D0005455240A451CA8B28842F7DB70BD2DE977
:1038E000F74FCAB00546174600262C4604F5AC70C3
:1038F000099004F14200089004F5B270079020305E
:1039000006901830059004F5DA7A04F5E47B04F1AA
:103910002C0004900AA80390002002908046814663
:1039200001904B98A0709BF8040000F00F004B9999
:1039300008438BF804004FF4A170015B4FF4BE7094
:10394000015340F2E620005DFF2803D1002140F240
:10395000E620015540F2E520005D012820D140F22B
:10396000E620005DE0B94FF4C370015D40F2E7204E
:10397000015520214FF4C370015540F2C510005D80
:1039800000F0600030B95820005B800001B2542084
:10399000015302E0002154200153052F00DA0527CE
:1039A00040F2E520005D01280BD140F2E620005DE9
:1039B000012806D140F2E720015D4FF4C3700155A4
:1039C0000627072F17D2DFE807F01613100D0A0796
:1039D00004004FF0010811E04FF00D080EE04FF029
:1039E00024080BE04FF0440808E04FF05A0805E0C7
:1039F0004FF0710802E04FF0830800BF00BFC8F12C
:103A0000880080B201900AA803900020029009E08B
:103A10000021039801700398401C03900298401CF9
:103A200080B20290DDE901108842F1DB062F0CDB49
:103A30005EB9C8F101001FFA80F90AA800EB09027B
:103A40000B210998FFF796FE0646052F0CDB5EB9A1
:103A5000C8F10D001FFA80F90AA800EB090217212E
:103A60000898FFF71FFD0646042F0CDB5EB9C8F16E
:103A700024001FFA80F90AA800EB09022021079808
:103A8000FFF705FE0646032F0CDB5EB9C8F14400C4
:103A90001FFA80F90AA800EB090216210698FFF721
:103AA0009DFD0646022F0CDB5EB9C8F15A001FFAD5
:103AB00080F90AA800EB090217210598FFF7A7FE75
:103AC0000646012F22DB0EBBC8F171001FFA80F9F8
:103AD0009BF8040000F0200020280FD10498807883
:103AE00040F001008AF800000498807840F001005E
:103AF0008AF80C00049880788AF812000AA800EB73
:103B0000090212215046FFF723FD06465EB9C8F1AF
:103B100083001FFA80F90AA800EB09020521584624
:103B2000FFF759FE064636B90AAA41462846019BC8
:103B3000FEF74AFB06461EB9284600F056FE06462A
:103B40001EB9284600F010FE064630464DB0BDE8CE
:103B5000F08F10B50246134603F12C0001700024CB
:103B60004470022484700024C470017144710224E2
:103B700084710024C47110BD014600204FF42062FE
:103B80000A804FF47A724A6043F2C8228A60CA609F
:103B900008220A7428224A7409228A74704701464E
:103BA000002008220A700B224A704FF47A724A6091
:103BB0004FF420620A8152104A8192008A81704734
:103BC0000146002000220A7012224A700F228A70D9
:103BD0000222CA7048F6A0424A600C220A8170474D
:103BE0000146002048F203020A80921E4A8048F2F1
:103BF00041028A800E228A710A22CA7106220A7242
:103C00000E224A720A228A720622CA7202220A739B
:103C100021224A730022CA810A744FF4B4724A8284
:103C20008A82CA82C0220A834A838A8308228A77C8
:103C30001022CA77012281F82020022281F8212057
:103C4000012281F82220022281F82320002281F81B
:103C500024204FF42062CA840A8548F23002CA62E6
:103C60004FF47A720A6352004A638A634FF2186211
:103C70000A6443F2C8224A640122CA634FF4FA522A
:103C80008A647047014601232822535402232922C3
:103C900053540A232A2253544FF4E6624A6270476F
:103CA0002DE9F04105460C46002668892060A88968
:103CB000A080E889E0806889A060A889A081E8895F
:103CC000E0810020608240202075206830B9A08803
:103CD00020B9E08810B90020207401E00120207490
:103CE00066B9207C012809D1237DB4F90620B4F9F6
:103CF00004102068FEF7B8FAE08201E00020E082BC
:103D00003046BDE8F0812DE9F84304460D46002613
:103D1000A14600270020009080464FF4B87010F8AC
:103D2000090000F0100717B94FF0010801E04FF04B
:103D300000086A4631212046FDF7C2FF06469DF87D
:103D4000000000F00100404502D10120287001E090
:103D5000002028703046BDE8F88310B501460020E9
:103D60000A46032382F8E432002440F2E5239C54FF
:103D70005B1C9C545B1C9C545B1C9C545B1C9C54A7
:103D80005B1C9C549B1C9C501B1D9C5210BD10B571
:103D9000024600201146FF2440F2E6235C54002432
:103DA0001B1D5C549B1C5C501B1D5C524FF43A73F2
:103DB0005B5C2BB14FF43A735C5C40F263135C5470
:103DC00040F2E9235B5C2BB140F2E9235C5C4FF4E9
:103DD000B0735C54002440F28D135C5410BD10B5D8
:103DE00001460A46002040F263139C5C4FF43A738C
:103DF0009C544FF4B0739C5C40F2E9239C5440F215
:103E000063139B5C03F07F0440F263139C5492F8AD
:103E1000E442DB1E9B5C64F39F03DCB24FF4B0739F
:103E20009C54012440F28D139C5440F2AE239C5CC0
:103E300040F2EA239C549C5C40F287139C5410BDD2
:103E400030B50346194600204FF4EF74655A4FF41D
:103E5000EB74645A2A19B2F5803F01D34FF6FF7212
:103E600012044FF4E974645A14B96FF00E0025E09F
:103E70004FF4E974645AB2FBF4F24FF43B746250AD
:103E8000B1F8644122044FF43B74645814B96FF0E4
:103E90000E0013E04FF43B746458B2FBF4F2B2F539
:103EA000803F01D34FF6FF724FF43C746252655A63
:103EB0004FF4CA7465520225A41F655400F10F0423
:103EC00064B94FF400454FF43C746552655A4FF4A1
:103ED000CA7465520225A41F6554002030BD7CB50C
:103EE00005460E4600244FF496612846FEF712F967
:103EF00004464CB9012000900346E522314601906A
:103F00002846FEF715F904461CB903212846FFF799
:103F100020FE20467CBD2DE9FC5F07460C469046FE
:103F20001D46DDE90DABDDF8309000262B464246FC
:103F300021463846CDE9009A00F0D5F906462EB95B
:103F40005A4629462046FEF76AFA06463046BDE83C
:103F5000FC9F2DE9FC5F07460C4690461D46DDE9B7
:103F60000DABDDF8309000262B4642462146384600
:103F7000CDE9009A00F08DF906462EB95A46294639
:103F80002046FEF74CFA06463046BDE8FC9F2DE978
:103F9000FC5F07460C4690461D46DDE90DABDDF89B
:103FA000309000262B46424621463846CDE9009AFD
:103FB00000F0C3F906462EB95A4629462046FEF7B8
:103FC0002EFA06463046BDE8FC9F2DE9FC47064622
:103FD0000F4690469946DDE90A4A00254B4642467F
:103FE00039463046CDE9004A00F02EF805460DB9B5
:103FF000012060702846BDE8FC872DE9FC4781461A
:104000008A4614461D46DDE90A674FF000082B4634
:10401000224651464846CDE9006700F015F8804633
:10402000B8F1000F0DD10020A8742071B12060718B
:104030000020E071D420207297F82200E87110204F
:1040400030714046BDE8FC87F0B50446DDE9056502
:1040500000204FF4206727800027A770E7702771A2
:104060006771A771E77127726772A772E7721127EC
:104070002773022767730027A7730227E7730827B0
:104080002774002767740835AF7DA774EF7DE77448
:104090002F7E2775012767750027A775E77527838A
:1040A000FF27A7762F7AE7762F792777002767777C
:1040B000A777E7770F704F7020278F700B27CF708F
:1040C000EF888F8002278F710D27CF716F790F7264
:1040D00000274F7201278F7200278F81CF814FF405
:1040E0000C470F8200278F743827CF74FF270F7576
:1040F00001274F75002717701A27577000279770F0
:104100002027D77001271771CC2757710B2797717C
:104110000127D771F527177209275772AF89578181
:104120006F8A9781082797737827D77300271761BD
:10413000177501271F7000275F809F809F716F7E1A
:10414000DF710B271F7209275F7215F8017C9F72C0
:10415000AF78DF7201271F732F7F5F73EF7E083DFB
:104160009F73C727DF73FF271F74DB275F74022746
:104170009F74002777700127B770F7702127377178
:10418000F0BD2DE9FC478046894614461D46DDE911
:104190000AA600272B46224649464046CDE900A6FE
:1041A000FFF752FF07469FB90F20A0710D206072E4
:1041B000708A6081308BA0810820A073B820E073E2
:1041C0000F2028720D206872B079A872707AE87298
:1041D0003846BDE8FC872DE9FC4707460C4690466B
:1041E0001D46DDE90A9A00262B46424621463846FE
:1041F000CDE9009AFFF728FF06461EB90220A072FB
:104200003B2068743046BDE8FC872DE9FC47074633
:104210000C4690461D46DDE90A9A00262B4642468A
:1042200021463846CDE9009AFFF70EFF06461EB933
:104230000220A0725B2068743046BDE8FC872DE93F
:10424000FC478046894614461D46DDE90AA600273C
:104250002B46224649464046CDE900A6FFF7F4FE2C
:1042600007469FB90720A07105206072F08A60811F
:10427000B08BA0810820A0733820E073072028723B
:1042800005206872307AA872F07AE8723846BDE884
:10429000FC872DE9FC4781468A4614461D46DDE928
:1042A0000A674FF000082B46224651464846CDE9A2
:1042B0000067FFF7C9FE8046B8F1000F10D100205B
:1042C000A8742071B12060710020E071D4202072A8
:1042D0004FF4C060206197F82200E87140203071EF
:1042E0004046BDE8FC872DE9FC4781468A461446D6
:1042F0001D46DDE90A674FF000082B46224651466D
:104300004846CDE90067FFF73CFF8046B8F1000F53
:1043100010D10020A8742071972060710020E071F6
:10432000B12020724FF4C060206197F82200E8713C
:10433000402030714046BDE8FC872DE9FC478146AE
:104340008A4614461D46DDE90A674FF000082B46F1
:10435000224651464846CDE90067FFF770FF804688
:10436000B8F1000F11D10020A87401202071842021
:1043700060710120E071B12020724FF4C0602061B3
:1043800097F82200E871402030714046BDE8FC8774
:1043900070B50646002534462DB904F5AC7130469B
:1043A000FEF7DCFB05462DB904F142013046FEF76D
:1043B00031FA054665B904F5FD713046FEF737FB65
:1043C00005462DB904F1F00104F5FD70FEF736F84D
:1043D00035B904F52D72DE213046FDF781FC054626
:1043E0004FF4AF70005BB0F5805F04DA4BF6CC4160
:1043F0004FF4AF7001532DB904F19E013046FEF722
:10440000F5FA054694F8A20070B9A320005D58B9EA
:1044100094F89E000007000E84F8A2009F20005D23
:104420000007010EA3200155284670BD30B5024695
:104430000B46002011464FF42D74645A0CB96FF0EE
:104440000E0038B94B614FF42D74645A5C434FF43D
:10445000D6756C5030BD10B50246002013464FF49F
:10446000D474E15210BD10B50246002013464FF43B
:10447000D374E15210BD2DE9FF4F87B00446894641
:1044800092464FF00008274607F5B270069020309C
:104490000590183004901830039007F5E47507F183
:1044A000A40607F5397B87F801901498F8601598F1
:1044B00038611698786103212046FFF74AFBB9F16D
:1044C000070F5AD008DCB9F1070F74D2DFE809F002
:1044D0009E19232D37414B00B9F1240F77D009DC09
:1044E000B9F1080F53D0B9F1110F5AD0B9F1120F29
:1044F00061D162E0B9F1250F74D0B9F1260FF7D17F
:104500007AE0CDE90056DDE90332DDE90510FFF779
:104510009BFD80467DE0CDE90056DDE90332DDE913
:104520000510FFF78CFE804673E0CDE90056DDE90B
:104530000332DDE90510FFF724FE804669E0CDE98E
:104540000056DDE90332DDE90510FFF744FE804641
:104550005FE0CDE90056DDE90332DDE90510FFF744
:1045600054FE804655E0CDE90056DDE90332DDE931
:104570000510FFF78EFE80464BE0CDE90056DDE9E1
:104580000332DDE90510FFF7D8FE804641E0CDE9B2
:104590000056DDE90332DDE90510FFF7A4FE804691
:1045A00037E0CDE90056DDE90332DDE90510FFF71C
:1045B0000CFD80462DE029E009E0CDE90056DDE95B
:1045C0000332DDE90510FFF718FD804621E08DE894
:1045D0006008DDE90332DDE90510FFF7D8FC80460D
:1045E00017E0FFE78DE86008DDE90332DDE905103B
:1045F000FFF7AFFC80460CE08DE86008DDE9033290
:10460000DDE90510FFF787FC804602E06FF0030844
:1046100000BF00BFB8F1000F04D10698A0F800A0B9
:10462000A7F818A0B8F1000F06D12046DDE9142341
:104630000A9900F022F88046B8F1000F04D1204614
:104640001699FFF7F3FE804640460BB0BDE8F08FA9
:104650007CB506460D4600242CB96A46052128463D
:10466000FFF7B9F8044634B905236A46832130467A
:10467000FDF7AAFD044620467CBD2DE9FC47054612
:104680000E46174698464FF000092C464FF4AF707F
:10469000005B08B96FF00E09B9F1000F12D1A660E6
:1046A000E760C4F8108004F5CE7004F5C271CDE95E
:1046B00000104FF4AF70035B424639463046FDF7B9
:1046C0000FFE81464846BDE8FC872DE9F0410546CE
:1046D0000C4600272E462178607806F2C312FEF7BA
:1046E00070F8E178A07806F5E272FEF78FF83846A8
:1046F000BDE8F08130B50246002013464FF4B07497
:10470000E45C04F0030404EB8104E5B24FF4B074FC
:10471000E55430BD70B50446002625464FF4E670DA
:10472000405D00F00F0040F080014FF4E67041550D
:1047300005F5E4712046FFF78BFF06464FF4E6705F
:10474000405D00F00F014FF4E67041550321204613
:10475000FFF7FFF940F2E520405D012802D1204635
:10476000FFF715FB304670BD10B50246002013461A
:1047700003F12C014FF4E674E45C04F0F00444B956
:1047800003240C7000244C7002248C700024CC7024
:104790002AE04C78FF2C02D180244C7002E04C7847
:1047A000641C4C708C7884F002048C700C78032CA0
:1047B00002D0042C0ED108E0CC7884F00104CC7037
:1047C00001244C7004240C700DE0CC7884F00104BA
:1047D000CC7008E003240C7000244C7002248C7010
:1047E0000024CC7000BF00BF10BD10B502460020F1
:1047F000134603F12C014FF4E674E45C04F0F0047A
:1048000044B903240C7100244C7102248C710024DF
:10481000CC713FE04C79FF2C02D180244C7102E036
:104820004C79641C4C718C7984F002048C710C7985
:10483000032C06D0062C14D0072C17D0082C1FD11F
:1048400017E04FF4E374E45C04F00204002C02DD92
:1048500006240C7101E008240C7100244C71CC7109
:1048600017E000244C7108240C7112E008240C712C
:104870000FE0CC7984F00104CC7108240C7108E0BD
:1048800003240C7100244C7102248C710024CC711F
:1048900000BF00BF10BD00002DE9F04104460D46E9
:1048A00016461F464FF000083B4632462946204632
:1048B000FCF76EF98046414602A0FBF791FCBDE88B
:1048C000F0810000564C35336C31585F726561647D
:1048D0005F6279746520726574203D2025640D0A3D
:1048E000000000002DE9F04104460D4616461F4623
:1048F0004FF000083B46324629462046FCF71EFA98
:104900008046414602A0FBF76BFCBDE8F081000049
:10491000564C35336C31585F77726974655F6E62DF
:1049200079746520726574203D2025640D0A0000AD
:1049300030380A2801D2012070470020704700BF9C
:10494000704710B5FCF7E0F8642000F017F810BDD0
:104950004FF0E021096941F004014FF0E0221161BC
:10496000054908601146096941F0010111616FF0C4
:1049700070415161704700001400002010B50446DA
:104980004FF47A7104FB01F000F002F810BD000052
:1049900070B5034600224FF0E02675690D4E36686B
:1049A00003FB06F44FF0E026B16910E04FF0E0267B
:1049B000B06988420BD0884202D20E1A324402E01B
:1049C0002E1A0E4432440146A24200D300E0EDE725
:1049D00000BF70BD1400002010B500241248FDF780
:1049E00086FB04461048FDF721F804460E48FDF703
:1049F0005AFB044603210C48FDF79AF904460B497B
:104A00000948FDF73BFA044696210748FDF7DBF914
:104A100004460548FDF75EFB04460348FDF7F3FA3C
:104A20000446E0B210BD00004C000020E02202006D
:104A300008B5002000906A4640F20F110A48FDF7C1
:104A40004FF9BDF800004EF6CC21884207D007A0F0
:104A5000FBF7C6FB02E0C820FFF790FFFBE7BDF8BD
:104A6000000000F059F808BD4C00002041544B2DC7
:104A70004D5335334C314D20446574656374204685
:104A800061696C6564210D0A0000000088B0002592
:104A900000200790FFF755FFFFF7CAFFFFF79CFFC5
:104AA0000FA0FBF79DFB1AE007A91548FDF74DF88D
:104AB00004469DF81C0078B169461148FDF7CAF814
:104AC000044634B9BDF8180085B229460DA0FBF79D
:104AD00087FB0B48FCF790FFC820FFF74FFFE3E789
:104AE00041544B2D4D5335334C314D20436F6E6641
:104AF000696720537563636564646564210D0A000A
:104B00004C00002044697374616E63653A2025642B
:104B1000206D6D0D0A00000010B586B004462246D7
:104B200004A16846FBF768FB694608A0FBF758FB41
:104B300006B010BD41544B2D4D5335334C314D20F3
:104B400049443A20307825303478000025730D0A26
:104B50000000000000BF054A128802F04002002A4F
:104B6000F9D0C2B2014B1B1D1A80704700380140BA
:104B70004FF4A060FCF760FA4820FFF7E9FE4FF41D
:104B8000E131482000F01AF9FCF786FA012304A26B
:104B900005211020FCF700FB00F00AF8FFF776FF74
:104BA0006672656552544F5320546573740000005B
:104BB00010B50BA0FBF714FB0AA0FBF711FB12A02A
:104BC000FBF70EFB12A0FBF70BFB15A0FBF708FB96
:104BD00004A0FBF705FB0BA0FBF702FB10BD0000D8
:104BE0000A0000002A2A2A2A2A2A2A2A2A2A2A2AC3
:104BF0002A2A2A2A2A2A2A2A2A2A2A2A2A2A2A2A15
:104C00002A2A2A2A0D0A000053544D33320D0A0075
:104C100041544B2D4D5335334C314D0D0A0000009E
:104C200041544F4D40414C49454E54454B0D0A00AF
:104C30002DE9F04F0E461D46DDE909C4002100278D
:104C40008846002300BF64E04FF0010909FA01F72C
:104C500006EA0708B8455BD10023012A01D0022AE1
:104C60000AD10CF0030305F0010943EA8903A2F11C
:104C7000010943EAC90318E0BAB90CB9042314E0E6
:104C80000823D0F80C904FF0010A0AFA01FA29EA39
:104C90000A09C0F80C90D0F80CA004F0010909FA38
:104CA00001F94AEA090AC0F80CA0072916D8D0F879
:104CB00000904FEA810B4FF00F0A0AFA0BFA29EA2B
:104CC0000A09C0F80090D0F800904FEA810A03FA70
:104CD0000AFA49EA0A09C0F8009019E0D0F80490ED
:104CE000A1F1080A4FEA8A0B4FF00F0A0AFA0BFAF1
:104CF00029EA0A09C0F80490D0F80490A1F1080A42
:104D00004FEA8A0A03FA0AFA49EA0A09C0F8049043
:104D1000491C102998D3BDE8F08F00002DE9F0411F
:104D20000746884614461D46284600F033F8C5F16C
:104D3000040007FA00F60F20284100EA08000643A5
:104D400006F00F06E21704EBD2625211920002F154
:104D5000E022D2F800212146E31704EBD3635B1174
:104D6000A4EB431C012303FA0CF31A432046E31778
:104D700004EBD3635B119B0003F1E023C3F8002134
:104D80000348005D40EA061001490855BDE8F0817E
:104D900000E400E00146072323EA01021202054B6A
:104DA00018684FF6FF031840034B18431043014B9C
:104DB000186070470CED00E00000FA057CB506466F
:104DC0000C4600BF2A48806940F0040028498861E9
:104DD00000BF00BF0846806940F00400886100BF42
:104DE00000BF0846806940F48040886100BF012010
:104DF000032100230222CDE9001041021D48FFF7E4
:104E000017FF0120032100231A46CDE9001081027B
:104E10001848FFF70DFF1848704300EB5400B0FB33
:104E2000F4F516490D800020091D08800846008809
:104E300008800846008840F008000880084600887E
:104E400040F0040008800846008840F020000880F8
:104E50000223252203210846FFF760FF0748001DB3
:104E6000008840F400500549091D08807CBD000001
:104E7000001002400008014040420F000838014085
:104E80000000000000000000002F000000000700EC
:104E9000070000147F147F1400242A7F2A12006266
:104EA0006408132300364955225000000503000012
:104EB00000001C224100000041221C000014083E9A
:104EC00008140008083E0808000000A06000000860
:104ED00008080808000060600000002010080402B4
:104EE000003E5149453E0000427F40000042615172
:104EF0004946002141454B31001814127F1000270C
:104F000045454539003C4A494930000171090503CE
:104F100000364949493600064949291E00003636FF
:104F20000000000056360000000814224100001462
:104F3000141414140000412214080002015109063F
:104F400000324959513E007C1211127C007F4949C0
:104F50004936003E41414122007F4141221C007FF1
:104F600049494941007F09090901003E4149497AFF
:104F7000007F0808087F0000417F41000020404179
:104F80003F01007F08142241007F40404040007FE5
:104F9000020C027F007F0408107F003E4141413E29
:104FA000007F09090906003E4151215E007F091971
:104FB00029460046494949310001017F0101003F6E
:104FC0004040403F001F2040201F003F4038403FEE
:104FD0000063140814630007087008070061514952
:104FE000454300007F41410000552A552A550000E5
:104FF00041417F0000040201020400404040404063
:10500000000001020400002054545478007F4844FA
:10501000443800384444442000384444487F003831
:105020005454541800087E0901020018A4A4A47C5A
:10503000007F080404780000447D40000040808424
:105040007D00007F102844000000417F4000007C6C
:1050500004180478007C0804047800384444443878
:1050600000FC242424180018242418FC007C0804C4
:10507000040800485454542000043F444020003C9D
:105080004040207C001C2040201C003C4030403C24
:10509000004428102844001CA0A0A07C00446454B4
:1050A0004C441414141414140000000000000000F8
:1050B0000000000000000000000000F800000000F8
:1050C000000000333000000000100C06100C060039
:1050D000000000000000000040C07840C0784000A0
:1050E000043F04043F040400007088FC0830000002
:1050F000001820FF211E0000F008F000E01800005A
:1051000000211C031E211E0000F008887000000012
:105110001E2123241927211010160E000000000064
:105120000000000000000000000000E01804020081
:10513000000000071820400000020418E0000000F2
:105140000040201807000000404080F080404000F0
:105150000202010F01020200000000F00000000046
:105160000101011F0101010000000000000000001A
:1051700080B070000000000000000000000000008F
:105180000001010101010101000000000000000018
:1051900000303000000000000000000080601804B3
:1051A000006018060100000000E010080810E00090
:1051B000000F102020100F00001010F80000000059
:1051C0000020203F202000000070080808887000A0
:1051D0000030282422213000003008888848300020
:1051E0000018202020110E000000C02010F8000040
:1051F00000070424243F240000F8088888080800D9
:105200000019212020110E0000E0108888180000ED
:10521000000F112020110E0000380808C8380800BF
:105220000000003F0000000000708808088870003F
:10523000001C222121221C0000E010080810E000C0
:105240000000312222110F00000000C0C000000049
:10525000000000303000000000000080000000006E
:105260000000806000000000000080402010080066
:10527000000102040810200040404040404040002F
:10528000040404040404040000081020408000000A
:105290000020100804020100007048080808F0000F
:1052A0000000003036010000C030C828E810E000DF
:1052B0000718272423140B000000C038E00000006A
:1052C000203C23020227382008F8888888700000D4
:1052D000203F202020110E00C030080808083800A8
:1052E000071820202010080008F808080810E0001F
:1052F000203F202020100F0008F88888E8081000C0
:10530000203F20202320180008F88888E808100093
:10531000203F200003000000C030080808380000CB
:1053200007182020221E020008F808000008F808CC
:10533000203F210101213F20000808F80808000053
:105340000020203F2020000000000808F808080086
:10535000C08080807F00000008F888C028180800FE
:10536000203F20012638200008F808000000000037
:10537000203F20202020300008F8F800F8F808002E
:10538000203F003F003F200008F830C00008F80828
:10539000203F200007183F00E01008080810E00038
:1053A0000F10202020100F0008F808080808F0004F
:1053B000203F210101010000E01008080810E00072
:1053C0000F18242438504F0008F888888888700007
:1053D000203F2000030C30200070880808083800A7
:1053E0000038202121221C00180808F8080818009D
:1053F0000000203F2000000008F808000008F8081E
:10540000001F202020201F000878880000C83808CE
:10541000000007380E010000F80800F80008F80046
:10542000033C0700073C03000818688080681808E0
:1054300020302C03032C30200838C800C83808005E
:105440000000203F2000000010080808C8380800AD
:105450002038262120201800000000FE0202020051
:105460000000007F40404000000C30C00000000001
:10547000000000010638C00000020202FE00000029
:10548000004040407F0000000000040202020400CF
:10549000000000000000000000000000000000000C
:1054A00080808080808080800002020400000000F4
:1054B00000000000000000000000808080800000EC
:1054C0000019242222223F2008F8008080000000DA
:1054D000003F112020110E0000000080808000009D
:1054E000000E112020201100000000808088F800AC
:1054F000000E112020103F200000808080800000DE
:10550000001F222222221300008080F08888881841
:105510000020203F2020000000008080808080004C
:10552000006B94949493600008F8008080800000E1
:10553000203F210000203F200080989800000000BC
:105540000020203F202000000000008098980000EC
:1055500000C08080807F000008F80000808080000C
:10556000203F24022D302000000808F80000000031
:105570000020203F202000008080808080808000EC
:10558000203F20003F20003F80800080808000007E
:10559000203F210000203F2000008080808000000C
:1055A000001F202020201F0080800080800000003D
:1055B00080FFA12020110E0000000080808080006C
:1055C000000E112020A0FF8080808000808080005D
:1055D00020203F212000010000008080808080008A
:1055E0000033242424241900008080E080800000FF
:1055F0000000001F2020000080800000008080004C
:10560000001F202020103F208080800000808080AC
:1056100000010E300806010080800080008080803C
:105620000F300C030C300F00008080008080800061
:105630000020312E0E31200080808000008080808C
:1056400080818E701806010000808080808080003C
:105650000021302C2221300000000000807C02025A
:1056600000000000003F404000000000FF0000007C
:1056700000000000FF0000000002027C800000002B
:105680000040403F00000000000601010202040447
:10569000000000000000000030313233343536376E
:1056A0003839414243444546403058003031323366
:1056B0003435363738396162636465664030780066
:1056C00004000008000000000000000200010000CB
:1056D00010000000F4560008000000204C000000FC
:1056E00028010008405700084C000020CC0A0000A8
:1056F0004401000800000000010203040102030449
:105700000607080902040608000000000000000067
:105710000000000000A0000004000000E2FFFFFF06
:1057200058020000320000000800000032000000B3
:10573000580200000100000000000000000000000E
:04000005080000ED02
:00000001FF
