:020000040800F2
:100000005005002005010008B30C0008850C00080D
:10001000AF0C0008230B00081317000800000000B5
:10002000000000000000000000000000F10E0008C9
:10003000270B000800000000250D000881140008AF
:100040001F0100081F0100081F0100081F01000810
:100050001F0100081F0100081F0100081F01000800
:100060001F0100081F0100081F0100081F010008F0
:100070001F0100081F0100081F0100081F010008E0
:100080001F0100081F0100081F0100081F010008D0
:100090001F0100081F0100081F0100081F010008C0
:1000A0001F0100081F0100081F0100081F010008B0
:1000B0001F0100081F0100081F0100081F010008A0
:1000C0001F0100081F0100081F0100081F01000890
:1000D0001F010008F11400081F0100081F0100089B
:1000E0001F0100081F0100081F010008DFF810D0E1
:1000F00000F0A4FC00480047513B0008AFF300802B
:10010000500500200648804706480047FEE7FEE706
:10011000FEE7FEE7FEE7FEE7FEE7FEE7FEE7FEE7B7
:1001200091140008ED0000082DE9F0410024061BA1
:10013000254671F1000605DA01240027D0EB0700FF
:1001400067EB0101161E73F1000605DA0027D2EBFA
:100150000702012567EB030300F0BCFA86460E4652
:1001600017469C46AC4204D00025D0EB050E65EB4B
:10017000010624B10020D2EB000760EB030C7046AF
:1001800031463A466346BDE8F081D2B201E000F85C
:10019000012B491EFBD270470022F6E710B513462B
:1001A0000A4604461946FFF7F0FF204610BD30B559
:1001B00004460020034600E05B1C934203D2E05C4F
:1001C000CD5C401BF8D030BDF0B480EA0102D40F02
:1001D0004200B2EB410F02D20246084611464A00E5
:1001E00042D0C30DDDB2C1F3C752AD1A202D35DAAE
:1001F000C1F3160141F4000204B15242C5F12006D8
:1002000002FA06F12A411044B3EBD05F23D0C4B107
:10021000012DA0EBC35009DCF0BC4FF0004202EA14
:10022000C352DBB200F5000000F0AFBA400000F1AD
:10023000807000EBC350A0F1807040EAD17049009B
:1002400009E0490841EAC071A0EBC35000F5000085
:10025000400800EBC350F0BC00F08EBA61420122AE
:1002600002EB4101001BF6E7F0BC704781F0004152
:10027000AAE780F00040A7E780EA010210B502F08B
:100280000043400022D04A001FD0010E01EB126152
:10029000C0F35600C2F3560240F4000042F40002DC
:1002A000A0FB022000047F39140400D0401C50EA57
:1002B000124001D44000491EC2B20C0604EBD0101B
:1002C000401C4008802A02D003E0002010BD20F02E
:1002D0000100002900DA0020184310BD30B480EA84
:1002E000010202F0004530F0004221F0004013D03E
:1002F00090B1C30DD40DC2F31601C0F31600E41A79
:1003000041F4000140F400027D34914201D3641CA9
:1003100000E04900002C02DA30BC002070474FF4A6
:1003200000000023914201D3891A034340084FEA99
:100330004101F7D151B1914202D14FF0004105E0A6
:1003400002D24FF0010101E06FF0010103EBC45054
:10035000284430BC00F010BA2DE9FE4F804681EAF7
:100360000300C00F0C46009021F0004123F000452F
:10037000B8EB0200A94105D24046214690461C46F2
:100380000B46024623F00040104347D0270DC7F329
:100390000A00C3F30A510290401A019040286BDA18
:1003A000C3F3130040F4801B0098924620B1002351
:1003B000D2EB030A63EB0B0B01985946C0F14002E4
:1003C000504600F0B8F906460D4650465946019A87
:1003D00000F0C0F910EB08006141002487EA1152D7
:1003E00084EAE7731A4340D0009A62B3019A012A63
:1003F0004FEA075215DC001B61EB02014FF000428F
:1004000002EA0752CDE90042001C41F58011324654
:100410002B4600F0F7F903B0BDE8F08F40462146C7
:10042000F9E7001B61EB0201001C41F58013001885
:100430005B412018A2F5001747EB030140EAD57095
:10044000B6196D4111E06D084FEA360645EAC075F0
:100450004FEA0752001B61EB0201001C41F58011BD
:1004600049084FEA30000019514132462B4603B08B
:10047000BDE8F04F00F0B7B900980122400000231A
:10048000D0EB020263EBE073009821464FEAE07480
:10049000B8EB000061EB0401E9E783F000435BE7A0
:1004A00081F0004158E72DE9FE4F81EA030404F092
:1004B000004421F0004100944FF0000B23F0004372
:1004C00050EA01045ED052EA03045BD0C3F30A543D
:1004D000C1F30A552C44A4F2F3340194A0FB025456
:1004E000C1F3130141F48011C3F3130343F48013E8
:1004F00001FB024400FB034E840A970A44EA81543C
:1005000047EA8357A4FB076802958D0A05FB078518
:100510004FEA932C04FB0C542705029D4FEA065822
:1005200047EA1637B5EB08056EEB070C870E920EFF
:1005300047EA811742EA8312A7FB0201B6EB0B01DF
:1005400064EB00042B0D43EA0C335E1844EB1C50A3
:10055000DA465146E7FB0201C5F313044FEA0B33B9
:1005600043EA14534FEA0432019C43EA0603A4F120
:100570000C040294009CCDE900B400F043F903B0F0
:10058000BDE8F08F00200146F9E7C10F80EAE07076
:100590000844CA079623002100F0F7B896230022EA
:1005A000114600F0F2B80EB5C10F80EAE0700844C1
:1005B000CA07002140F233438DE80E000A460B467D
:1005C00000F020F903B000BD00F0004220F0004030
:1005D000C10DC0F3160040F400007F2901DA0020AD
:1005E0007047962903DCC1F19601C84001E09639B5
:1005F0008840002AF4D04042704720F00040C10DEE
:10060000C0F3160040F400007F2901DA0020704793
:10061000962903DCC1F19601C8407047963988409D
:10062000704700F0004230F000400AD0C10D01F5E3
:100630006071C0F3160042EA0151C208400711433D
:10064000704700200146704701F0004330B421F0AC
:10065000004150EA010206D00A0DA2F56072C1F312
:100660001301002A02DC30BC00207047440F44EA2A
:10067000C104C100E01830BC00EBC25000F07CB8EF
:10068000002801DBC0F10040002901DBC1F100417D
:1006900081427047002801DBC0F10040002901DBE6
:1006A000C1F100418842704730B50B460146002039
:1006B0002022012409E021FA02F59D4205D303FA24
:1006C00002F5491B04FA02F52844151EA2F10102A5
:1006D000F1DC30BD2DE9F05F0546002092469B46D7
:1006E00088460646814640241BE028464146474648
:1006F000224600F0B5F953465A46C01A914110D32C
:1007000011461846224600F016F82D1A67EB01082C
:100710004F4622460120002100F00DF817EB00099A
:100720004E41201EA4F10104DFDC484631462A4632
:100730004346BDE8F09F202A04DB203A00FA02F18C
:10074000002070479140C2F1200320FA03F31943BF
:1007500090407047202A06DBCB17203A41FA02F07E
:1007600043EAE07306E041FA02F3D040C2F120020E
:1007700091400843194670470029A8BF7047401CA4
:10078000490008BF20F00100704710B4B0FA80FCA7
:1007900000FA0CF050EA010404BF10BC704749B1E4
:1007A000CCF1200421FA04F411FA0CF118BF012154
:1007B00021430843A3EB0C01CB1D4FEA00614FEA34
:1007C000102042BF002010BC704700EBC350104403
:1007D0000029A4BF10BC7047401C490008BF20F08E
:1007E000010010BC704710B5141E73F1000408DA44
:1007F000401C41F1000192185B411A4301D120F0E5
:10080000010010BD2DE9F04D92469B4611B1B1FAA1
:1008100081F202E0B0FA80F220329046FFF78BFFBF
:1008200004460F4640EA0A0041EA0B0153465A4685
:10083000084313D0114653EA010019D0C8F1400211
:10084000504600F00DF905460E46504659464246C0
:10085000FFF771FF084305D0012004E02046394628
:10086000BDE8F08D0020054346EAE0762C4337438F
:100870000A986305E40AA0EB08000022FD0A44EA96
:1008800047540A3002D500200146E9E70105101956
:100890006941DDE9084500196941BDE8F04DA2E76D
:1008A0002DE9F04D81EA030404F0004B21F00045EE
:1008B00014464FF0000A23F0004150EA050220D010
:1008C00054EA01021DD0C5F30A570246C5F31303CB
:1008D000C1F31300C1F30A5640F4801543F48013AA
:1008E000A7EB0608101BD64608F2FD3873EB05008F
:1008F00002D308F1010801E092185B41B8F1000F42
:1009000003DA00200146BDE8F08D00204FF480118D
:10091000064684460EE0171B73EB050705D3121B32
:1009200063EB050306434CEA010C49084FEA30002B
:1009300092185B4150EA0107EDD152EA030012D050
:1009400082EA040083EA0501084305D0101BAB418D
:1009500006D20122002306E000224FF0004302E00D
:100960006FF0010253101AEB06004CEB085110EB2C
:100970000A0041EB0B01BDE8F04DFFF734BF70B545
:1009800021F0004303430CD0C1F30A550024D5EBFA
:10099000040564EB0403D617AD1AB34102DB002053
:1009A000014670BD201841EB025170BDC1F30A52DF
:1009B000C1F3130140F2FF3341F480119A4202DA8D
:1009C00000200146704740F233439A42A2F233427C
:1009D00002DC524200F044B8FFF7ADBE30B5041E51
:1009E00071F1000404DB4FF00044404264EB01016C
:1009F000141E73F1000405DB1C464FF00043524205
:100A000063EB04038B4208BF824230BD30B5041E45
:100A100071F1000404DB4FF00044404264EB01013B
:100A2000141E73F1000405DB1C464FF000435242D4
:100A300063EB0403994208BF904230BD064C074D5A
:100A400006E0E06840F0010394E80700984710349E
:100A5000AC42F6D3FFF74EFB98600008B860000880
:100A6000202A04DB203A21FA02F00021704721FA03
:100A700002F3D040C2F1200291400843194670476A
:100A80002DE9F04D00231A461B1A8A4103DB002092
:100A90000146BDE8F08DC1F30A52C1F3130141F4E0
:100AA00080154FF0000BD10702D100186D41521E86
:100AB0000027044640F2FF11384601EB620A3E4629
:100AC0008046024600204FF48011FFF7C9FFC2198B
:100AD0007141BB1846EB0100B4EB030C75EB000C45
:100AE00004D3E41A65EB000517460E46241908F1F5
:100AF00001006D4180463428E3DDF91946EB06001C
:100B0000091BA84103D24FF0FF32134601E0002237
:100B100013461BEB070046EB0A51BDE8F04DFFF70B
:100B200062BE00BFFEE770472DE9F0410246002596
:100B30000026002000230024002791F803C00CF0B9
:100B40000F0591F803C00CF0100CBCF1000F03D09E
:100B500091F802C04CEA050591F800C0BCF1000F05
:100B600031D0146800202BE04FF0010C0CFA00F398
:100B7000B1F800C00CEA03069E4220D183004FF07A
:100B80000F0C0CFA03F7BC4305FA03FC4CEA04040F
:100B900091F803C0BCF1280F06D14FF0010C0CFAFC
:100BA00000FCC2F814C00AE091F803C0BCF1480F81
:100BB00005D14FF0010C0CFA00FCC2F810C0401C2B
:100BC0000828D1D31460B1F800C0BCF1FF0F34DDA8
:100BD000546800202EE000F1080C4FF0010808FADC
:100BE0000CF3B1F800C00CEA03069E4221D1830049
:100BF0004FF00F0C0CFA03F7BC4305FA03FC4CEA68
:100C0000040491F803C0BCF1280F05D100F1080CD1
:100C100008FA0CF8C2F8148091F803C0BCF1480F30
:100C200007D100F1080C4FF0010808FA0CF8C2F8DF
:100C30001080401C0828CED35460BDE8F0810246E5
:100C4000002093680B400BB1012000E000207047AA
:100C500041617047016170470148006870470000BA
:100C600034000020F7B504460D46002602AB0122F1
:100C70002946204600F0F7F906460EB90020FEBDD1
:100C80000220FCE700BFFEE710B500F0BDFA142219
:100C900000211E20FFF7E6FF002201211E20FFF7A2
:100CA000E1FF002202211E20FFF7DCFF10BD00BF84
:100CB000FEE7704770B5002100230F22C47804B30B
:100CC000154C246804F4E064C4F5E064210AC1F121
:100CD0000403CA40447804FA03F1847814402143A1
:100CE00009010E4C0678A155047804F01F05012473
:100CF000AC4005786D11AD0005F1E025C5F8004167
:100D000009E0047804F01F050124AC40044D067886
:100D1000761145F8264070BD0CED00E000E400E0DF
:100D200080E100E07047000029B1064A9269024361
:100D3000044B9A6104E0034A92698243014B9A6131
:100D4000704700000010024030B50021002200244E
:100D500000232D4D6D6805F00C0121B1042905D04B
:100D6000082923D105E0294D056022E0274D0560C3
:100D70001FE0254D6D6805F47012234D6D6805F474
:100D80008034022505EB92421CB9214D5543056084
:100D90000BE01D4D6D6805F400351DB11C4D55432C
:100DA000056002E0194D5543056002E0174D0560EE
:100DB00000BF00BF144D6D6805F0F0010909154D25
:100DC0006B5C0568DD4045600F4D6D6805F4E061C2
:100DD000090A104D6B5C4568DD4085600A4D6D6801
:100DE00005F46051C90A0B4D6B5C4568DD40C56078
:100DF000054D6D6805F44041890B074D6B5CC56876
:100E0000B5FBF3F5056130BD0010024000127A0019
:100E100000093D0014000020240000202DE9F047C7
:100E20008AB00023072219461E2000F054F906ABB1
:100E3000012209211E2000F0D1F89DF8180000F0D1
:100E40000100002849D007AB062203211E2000F034
:100E5000C5F89DF81D009DF81C1040EA01249DF87E
:100E60001F009DF81E1040EA012A9DF821009DF800
:100E7000201040EA0129B4F5004F02DBA4F57F44BD
:100E8000FF3CBAF5004F03DBAAF57F4AAAF1FF0A3F
:100E9000B9F5004F03DBA9F57F49A9F1FF094846E1
:100EA000FFF781FBCDE900012046FFF77CFB0746F9
:100EB000DDE9002301F0B4FB094A0A4BCDE9020148
:100EC000FFF7F1FA05460022074BFFF745FACDE997
:100ED0000401FFF7B9FB054908600AB0BDE8F087D7
:100EE000775AF01ADCA54C40008066407000002064
:100EF000704710B500F002F810BD00000CB50020DE
:100F0000019000903348006840F480303149086017
:100F100000BF3048006800F4003000900198401C89
:100F20000190009818B90198B0F5A06FF1D1294847
:100F3000006800F4003010B10120009001E00020B2
:100F400000900098012843D12348006840F0100029
:100F5000214908600846006820F003000860084640
:100F6000006840F0020008601A484068194948606B
:100F70000846406848600846406840F48060486021
:100F80000846406820F47C1048600846406840F4F9
:100F9000E81048600846006840F08070086000BFB4
:100FA0000C48006800F000700028F9D0094840683B
:100FB00020F00300074948600846406840F00200FE
:100FC000486000BF0348406800F00C000828F9D1D1
:100FD0000CBD000000100240002002402DE9F0414D
:100FE00005460F4614461E4600F0BCF9002141EAB2
:100FF0004501C8B200F080F900F0FAF9012804D1E7
:1010000000F0D6F90220BDE8F081384600F074F90E
:1010100000F0EEF9012803D100F0CAF90220F2E74E
:1010200000F0A0F9012101EB4501C8B200F064F91C
:1010300000F0DEF9012803D100F0BAF90220E2E75E
:101040000BE0012C01DD012100E00021084600F049
:1010500023F93070601EC4B2761C002CF1D100F070
:10106000A7F90020CFE72DE9F04105460E461746C7
:10107000984600F077F9002141EA4501C8B200F036
:101080003BF900F0B5F9012804D100F091F90220F4
:10109000BDE8F081304600F02FF900F0A9F90128F1
:1010A00003D100F085F90220F2E700240DE018F8E2
:1010B000040000F021F900F09BF9012803D100F0B1
:1010C00077F90220E4E7601CC4B2BC42EFDB00F019
:1010D0006FF90020DCE72DE9F84304460F46164679
:1010E000984600F03FF9002141EA4401C8B200F0FF
:1010F00003F900F07DF9012803D100F059F9BDE8AA
:10110000F883384600F0F8F800F072F9012802D1AF
:1011100000F04EF9F3E700F025F9012101EB44015D
:10112000C8B200F0E9F800F063F9012802D100F03C
:101130003FF9E4E7002000F0AFF8009000F038F944
:101140009DF80050B8F1000F03D00120B0402843B3
:1011500003E00120B04025EA0000C5B200F002F92A
:10116000002141EA4401C8B200F0C6F800F040F99D
:10117000012802D100F01CF9C1E7384600F0BCF8A4
:1011800000F036F9012802D100F012F9B7E728463D
:1011900000F0B2F800F02CF9012802D100F008F9B3
:1011A000ADE700F005F900BFA9E7000010B500BFEA
:1011B0004FF400611048FFF74BFD00BF00F01EF830
:1011C00000BF4FF480610C48FFF744FD00BF00F002
:1011D00015F800BF4FF480610748FFF739FD00BFE5
:1011E00000F00CF800BF4FF400610348FFF732FD38
:1011F00000BF00F003F810BD000C014010B5022044
:1012000001F056FB10BD000008B500BF0121082009
:10121000FFF78AFD00BF00BF01210820FFF784FD12
:1012200000BF4FF48060ADF8000014208DF803007B
:1012300003208DF8020069460648FFF775FC4FF45D
:101240000060ADF8000069460248FFF76DFC00F051
:10125000AFF808BD000C014010B500BF4FF40061AD
:101260000C48FFF7F7FC00BFFFF7C8FF00BF4FF4C3
:1012700080610848FFF7EEFC00BFFFF7BFFF00BF2B
:101280004FF480610348FFF7E3FC00BFFFF7B6FFB0
:1012900010BD0000000C014070B50546002400267A
:1012A0001DE06006040E00BF4FF480611148FFF797
:1012B000D1FC00BFFFF7A2FF4FF400610D48FFF71C
:1012C000BEFC08B1601CC4B200BF4FF48061094885
:1012D000FFF7BEFC00BFFFF791FF701CC6B2082EDF
:1012E000DFDB15B9FFF7B8FF01E0FFF75FFF20462E
:1012F00070BD0000000C014070B50446002524E0DC
:1013000000BFE00928B14FF400611548FFF7A2FCC7
:1013100004E04FF400611248FFF79AFC00BFFFF7AA
:101320006DFF00BF4FF480610D48FFF793FC00BFD5
:10133000FFF764FF00BF4FF480610948FFF788FCA6
:1013400000BF6006040E681CC5B2082DD8DB00BFC4
:101350004FF400610248FFF77DFC00BF70BD000044
:10136000000C014010B500BF4FF400610F48FFF7BB
:1013700071FC00BF00BF4FF480610C48FFF76AFCAE
:1013800000BFFFF73BFF00BF4FF400610748FFF7C6
:101390005FFC00BFFFF732FF00BF4FF480610348DE
:1013A000FFF756FC00BFFFF729FF10BD000C0140FE
:1013B00010B500BF4FF400610C48FFF749FC00BFB7
:1013C000FFF71CFF00BF4FF480610848FFF742FCA5
:1013D00000BFFFF713FF00BF4FF400610348FFF7A2
:1013E00039FC00BFFFF70AFF10BD0000000C0140F0
:1013F00070B50024002500BF4FF400611548FFF7C9
:1014000029FC00BFFFF7FAFE00BF4FF480611148CE
:10141000FFF720FC00BFFFF7F1FE07E0601CC4B23D
:10142000FA2C03DDFFF7C4FF012506E04FF400614D
:101430000848FFF704FC0028F0D100BF00BF4FF4BC
:1014400080610448FFF704FC00BFFFF7D7FE284681
:1014500070BD0000000C0140042808D14FF0E021CD
:10146000096941F004014FF0E022116107E04FF0FB
:10147000E021096921F004014FF0E0221161704779
:1014800002480068401C0149086070473400002091
:1014900010B51348006840F0010011490860084683
:1014A0004068104908400E494860084600680E49E7
:1014B00008400B4908600846006820F48020086056
:1014C0000846406820F4FE0048604FF41F00886022
:1014D000FFF70FFD4FF000600449086010BD0000E9
:1014E000001002400000FFF8FFFFF6FE08ED00E0EC
:1014F00010B540F225511D4800F04AF810B31B48C2
:1015000000F002F9C4B21A48008800F40040C8B9DB
:101510001748008800F4804060B10A2C03D00020F6
:101520001349088020E01248008840F40040104928
:10153000088019E00D2C06D10D48008840F4804049
:101540000B49088010E00A480088C0F30D000949E3
:101550000C5407480088401C05490880084600884C
:10156000C72801DD0020088010BD000000380140C0
:10157000300000207800002021B1828942F400521E
:10158000828104E082894DF6FF731A4082817047A0
:1015900070B50246002400230025002040F66A169C
:1015A000B14200D100BFC1F3421501F01F03012673
:1015B00006FA03F3012D02D19689334006E0022D8D
:1015C00002D1168A334001E0968A33400C1201267C
:1015D00006FA04F41688344013B10CB1012000E07F
:1015E000002070BDF0B50346002400260025002031
:1015F00040F66A17B94200D100BF1846C1F3421441
:1016000001F01F06012707FA06F5012C01D10C3065
:1016100004E0022C01D1103000E014301AB1076848
:101620002F43076002E00768AF430760F0BD00008A
:101630002DE9F04786B005460E460024A24600BFBD
:10164000A1460027B08900B100BF2F462C8A4CF676
:10165000FF700440F08804432C82AC894EF6F310EE
:101660000440B08831890843718908430443AC8140
:10167000AC8A4FF6FF400440B0890443AC8201A815
:10168000FFF762FB1F48874202D1DDF810A001E09E
:10169000DDF80CA0A88900F4004040B10AEBCA00B4
:1016A00000EB0A1031684900B0FBF1F807E00AEBE3
:1016B000CA0000EB0A1031688900B0FBF1F8642021
:1016C000B8FBF0F004012009642101FB1089A8890E
:1016D00000F4004040B1322000EBC900B0FBF1F053
:1016E00000F00700044308E0322000EB09106421F9
:1016F000B0FBF1F000F00F0004432C8106B0BDE810
:10170000F08700000038014001468888C0F30800D7
:10171000704700BFFEE700000FB4054B10B503A9EA
:10172000044A029800F05CF910BC5DF814FB00005C
:10173000B53400082C000020490050EAC12018BF31
:1017400004204A0D18BF40F0010040F2FF72B2EBD6
:10175000515F08BF40F00200012808BF0520704714
:101760002DE9F0414F1E00EBC7010446D1E900010D
:1017700015461E4637F006020DD02A463346FEF7C0
:1017800092FE7F1E04EBC703D3E90023FEF7E4FDBE
:1017900037F00602F1D1022F25D0042F13D0062FE7
:1017A00018BFBDE8F0812A463346FEF77CFED4E937
:1017B0000A23FEF7D1FD2A463346FEF774FED4E92C
:1017C0000823FEF7C9FD2A463346FEF76CFED4E92E
:1017D0000623FEF7C1FD2A463346FEF764FED4E930
:1017E0000423FEF7B9FD2A463346FEF75CFED4E932
:1017F0000223FEF7B1FD2A463346FEF754FED4E934
:101800000023BDE8F041FEF7A7BD0122FFF7B7B8FE
:10181000FEF7A2BD0022134610461146FFF740B85E
:10182000024A00201107FFF7AAB8000001FDFFFFE0
:1018300002E008C8121F08C1002AFAD17047704799
:10184000002001E001C1121F002AFBD170470000F7
:101850000149086070470000740000202DE9FF5F17
:1018600082B00021DDE90430020DDDF840B0034311
:1018700018D044F61050A2F2FF32424315141198CA
:1018800001281FD0A5EB0B00401C5FEA000A4FF0B7
:1018900000064E4FDFF83891B046504615D5CAF1D4
:1018A000000413E0119801244AA3012801D16FEA32
:1018B0000B010298119AC0E90031C0E9024206B05A
:1018C000BDE8F09FCBF10000DFE704460021404A6D
:1018D000491842EB0450CDE9001012E0E00707D0B0
:1018E00032463B4640464946FEF7DDFD8046894686
:1018F00032463B4610461946FEF7D5FD06460F46D2
:101900006410002CEAD1DDE90401DDE90023BAF11D
:10191000000F06DAFEF7C7FD42464B46FEF7C3FD51
:1019200005E0FEF7BDFF42464B46FEF7B9FF044611
:101930000E460022284BFFF769F803D84FF0FF301E
:10194000014607E00022254B20463146FEF704FD04
:10195000FFF72CF8102409E0002C0ADB0A220023F0
:10196000FEF7B8FE039B30321A55641E50EA01029E
:10197000F2D1641C039AC4F111031444119A012A90
:1019800003D0012208430DD10AE0084304D000200F
:101990004FF0110B119072E7A3EB0B056D1E0DE0DC
:1019A0005B4504DD4FF0000205F1010504E003DAB8
:1019B0004FF00002A5F10105002AECD00298119920
:1019C000C0E90231C0E9004579E700000000144099
:1019D0000000F03F300000000000F0430000E03F56
:1019E0002DE9FF4F95B09A46884606460025EEE160
:1019F000252877D100242746F94A0121039400E0E5
:101A0000044316F8013F203B01FA03F01042F7D1DE
:101A100030782A2811D06FF02F033078A0F13002EF
:101A2000092A16D8039A44F0020402EB820203EB5F
:101A300042021044761C0390EFE758F8042B0392FF
:101A4000002A03DA504244F40054039044F00204A4
:101A5000761C30782E2816D116F8010F44F00404B5
:101A60002A280DD06FF02F023078A0F13003092B17
:101A700009D807EB870302EB4303C718761CF3E78B
:101A800058F8047B761C30786C280FD006DC4C2884
:101A900017D068280DD06A2814D104E0742810D01B
:101AA0007A280FD10DE044F400140AE044F48014C5
:101AB00001E044F440147278824202D104F58014AB
:101AC000761C761C307866280BD013DC582877D02B
:101AD00009DC002875D04528F6D04628F4D04728E0
:101AE0001AD193E118E0632835D0642879D06528AD
:101AF00012D18BE1702873D008DC6728F1D06928F7
:101B00006FD06E280DD06F2806D1ACE073282CD092
:101B1000752874D0782853D05246179990476D1C79
:101B200054E1C4F30250022809D003280DD0D8F89C
:101B3000001004280DD00D6008F1040846E1D8F823
:101B40000010EA17C1E90052F6E7D8F800100D803E
:101B5000F2E70D70F0E718F8041B8DF80010002074
:101B60008DF80100EB46012003E058F804BB4FF06C
:101B7000FF3061074FF0000102D40DE009F10101CF
:101B80008946B9420FDA8145F8DB1BF809100029B4
:101B9000F4D108E009F1010189468142FADB1BF822
:101BA00009100029F6D103985346A0EB09072146F6
:101BB0003846179A00F080FA284400EB090507E040
:101BC00044E008E10DE01BF8010B524617999047DD
:101BD000B9F10109F7D2534621463846179AF2E087
:101BE00039E00A21C4F302524FF0000B0091022A9F
:101BF00006D058F8040BC117032A09D00AE023E0E5
:101C000008F1070020F00702F2E80201904605E023
:101C100000B2C117042A01D140B2C117002906DA67
:101C20000A460021404261EB02012D2202E022051A
:101C300004D52B228DF80420012203E0E20701D015
:101C40002022F7E7914657E00A2100E010214FF0EB
:101C5000000B00910BE010214FF0000B44F0040446
:101C60000827009103E008204FF0000B0090C4F318
:101C70000252022A05D058F8040B0021032A08D08A
:101C800008E008F1070020F00702F2E802019046A0
:101C900003E080B2042A00D1C0B24FF0000922074D
:101CA0002AD53278702A07D0DDF800C08CF0100CED
:101CB0005CEA0B0C05D00EE040228DF804200122D6
:101CC00008E050EA010306D030238DF804308DF887
:101CD000052002229146009B83F0080353EA0B0380
:101CE0000AD150EA010201D1620705D530228DF8F0
:101CF00004204FF001097F1E3278582A04D039A2FF
:101D00000C920CAA02920BE03BA2F9E75B46009A08
:101D1000FEF7E0FC0C9B9B5C029A521E0292137031
:101D200050EA0102F2D1029804A9081A00F1200B2E
:101D3000600702D524F4803400E001275F4502DD0E
:101D4000A7EB0B0000E0002000EB0B0100900398D4
:101D50004944401A0390E00306D453462146179A9B
:101D6000039800F0A9F90544002706E001A85246AF
:101D7000C05D179990476D1C7F1C4F45F6DBE00353
:101D80000CD553462146179A039800F095F905445F
:101D900004E030205246179990476D1C0099481E68
:101DA00000900029F5DC08E002980299524600787C
:101DB000491C0291179990476D1CBBF10001ABF1D2
:101DC000010BF1DC5BE100F065F90544761C30782D
:101DD00000287FF40DAE19B02846BDE8F08F000052
:101DE00009280100303132333435363738396162F1
:101DF00063646566000000003031323334353637B5
:101E0000383941424344454600000000600700D491
:101E1000062708F1070020F00700F0E802238046BB
:101E200003F0004C5FEA0C0001D097A009E0200508
:101E300001D596A005E0E00701D095A001E0AFF242
:101E40004C001390307823F0004365280CD006DC5A
:101E5000452809D046281DD047287FD13BE0662879
:101E600018D067287AD136E00021112F01DB11202C
:101E700000E0781CCDE9000104A90CA8FFF7EEFCF6
:101E8000DDE90D010C9A4FF0000B07F101091092EA
:101E900000914EE04FF000400097CDE9011004A9F9
:101EA0000CA8FFF7DBFCDDE90D020C9B0F994FF04E
:101EB000000B91461093009211B9791C00EB0109B7
:101EC000B7EB090003D4C0F1FF3B07F10109A9EB0F
:101ED0000700019042E0012F00DA01270021112FB5
:101EE00001DD112000E03846CDE9000104A90CA86D
:101EF000FFF7B4FCDDE90D010C9A00914FF0000BE7
:101F0000B946109221070FD4009A4A4503DA914648
:101F100001E0A9F10109B9F1010F05DD109AA9F15C
:101F20000101515C3029F4D0B84202DA10F1040FFB
:101F300003DA0121CDE9011010E0002803DC83441D
:101F4000A9EB000102E0411C494500DD8946A0EBF8
:101F50000B00401C01904FF000400290200705D478
:101F60000198484502DB4FF0FF30019000208DF8CA
:101F70004B0002980DF14B07B0F1004F25D0022025
:101F80000C902B200D90029800280CDA4042029011
:101F90002D200D9007E00A210298FEF785FB3031D5
:101FA000029007F8011D0C99481E0C900029F2DCE4
:101FB00002980028EFD1791E0D980870307800F053
:101FC000200040F0450007F8020D11A8C01BC01DFD
:101FD00002901398007800B1012000EB09010198EC
:101FE00001EBE071029801440398401A401E0390EF
:101FF000E00306D453462146179A039800F05CF894
:1020000005441398007818B15246179990476D1CF3
:10201000E00323D553462146179A039800F04CF865
:1020200005441BE0BBF1000F07DB0098584504DDB9
:102030001098179910F80B0001E0179930205246BC
:10204000904701980BF1010B401E05F1010501902D
:1020500004D12E205246179990476D1CB9F100010A
:10206000A9F10109DEDC05E017F8010B52461799CA
:1020700090476D1C0299481E02900029F4DC5346DB
:102080002146179A03989EE62D0000002B000000C1
:10209000200000002DE9F041044600251E461746A9
:1020A000880404D405E039462020B0476D1C641E26
:1020B000F9D52846BDE8F0812DE9F0410446002518
:1020C0001E469046C80301D5302700E0202788042B
:1020D00004D505E041463846B0476D1C641EF9D56D
:1020E0002846BDE8F08100002DE9FE4F06460F4668
:1020F0000025684601F0ECF9002442E056F824007F
:1021000057F82410A0EB010ABAF1000F01DB514689
:1021100001E0CAF100010846FEF737FA83464FF0A6
:102120008F41FEF7DBF880465DF824000021FEF7C2
:10213000A7FA16D05DF824104046FEF7CFF8824685
:102140004FF07E51FEF792F8814629F0004A0F4881
:10215000416A5046FEF79EFA12D20120A040054384
:102160000EE00A48C1694046FEF78AFA05D30748DF
:10217000016A4046FEF78EFA02D20120A0400543D4
:10218000641C032CBADB2846BDE8FE8F845300088C
:102190002DE9F04D8D4F21F0004A86B005460C46E2
:1021A000BA452ADBAAEB070028430AD088488245B3
:1021B00001DC1AD1CDB106B02846BDE8F04DFFF7DD
:1021C00024BB844A844B2846FEF76DF907460E4629
:1021D000824A834B28462146FEF765F906B03A4607
:1021E0003346BDE8F04DFEF7B7B80120FFF730FBEE
:1021F00006B0BDE8F04DFFF70DBB7A48824542DAE4
:10220000BAF1795F0BDA2846FFF796FA042808BF7F
:10221000FFF706FB284606B02146BDE8F08D2A46AA
:102220000B461046FEF73FF9834602466E480E46BF
:102230000B4606217844FFF793FA5A463346FEF7D9
:1022400032F9804669488A465A4633460421784422
:10225000FFF786FA5A463346FEF725F900223B4639
:10226000FEF77AF802460B4640465146FEF718FB49
:102270002A462346FEF717F906B02A462346BDE84C
:10228000F04DFEF769B8284624F0004100223D4693
:102290003B46FEF705F94FF0FF32FEF770FB0646AE
:1022A000024653480F460B4606217844FFF758FA7A
:1022B00032463B46FEF7F7F8CDE900014D4832467D
:1022C0003B4604217844FFF74BFA32463B46FEF783
:1022D000EAF800222B46FEF73FF88346029130468B
:1022E000394602F0C5FF804643480D46504517DC8D
:1022F000DDE900015A46029BFEF7D2FA42462B4620
:10230000FEF7D1F842462B46FEF726F80122FEF7EB
:1023100036FB304A304BFEF7C0F8304A304B4CE0C9
:102320004FF0000A52460B464046FEF715F8CDE93D
:10233000031052462B4610461946FEF7B4F83246B3
:102340003B46FEF7ADF8DDE90332FEF7A9FA064693
:102350000F46DDE900015A46029BFEF7A1FA8346CB
:102360000091012230463946FEF709FB194A1A4B03
:10237000FEF796F806460F46012240462946FEF72C
:10238000FEFA5A46009BFEF78EF832463B46FEF7B1
:1023900084F806460F46012250462946FEF7EFFA1A
:1023A0000E4DDFF858802A464346FEF779F832464C
:1023B0003B46FEF775F82A464346FEF771F8002CB7
:1023C000D8BF81F0004106B0BDE8F08D0000F03FBD
:1023D0000000F07F075C143326A6913C182D44546E
:1023E000FB21F93F0000E03F703D0000863D00000A
:1023F000FA3C0000103D00003333EF3FFB21E93F82
:102400002DE9F84F04460D4621F000400091734934
:10241000814211DC7249884201DC06D12CB1204690
:102420002946BDE8F84FFFF7F0B96E48002DCCBF44
:102430006D496E49BDE8F88F6D49814211DD6D49E6
:102440008142D8BF4FF0FF366DDD20462946FFF7A9
:1024500073F9042808BFFFF7E3F920462946BDE8D1
:10246000F88F6549654F25F00045814233DD6449A9
:10247000814219DD002632464FF08043204629462E
:10248000FDF76AFF80468A46012220462946FEF76C
:1024900076FA00223B46FEF700F842465346FEF726
:1024A000FFF904460D463EE001260022BA463B46AF
:1024B00020462946FDF750FF80460F46002253462E
:1024C00020462946FDF7E9FF42463B46FEF7E8F97C
:1024D00004460D4627E04B4981421BDDDFF828A169
:1024E00002260022534620462946FDF7DCFF002243
:1024F0003B46FDF731FF80460F46002253462046FB
:102500002946FDF7CAFF42463B46FEF7C9F9044695
:102510000D4608E0032622462B4600203B49FEF7E5
:10252000BFF904460D4622462B4610461946FDF7D4
:10253000BAFF8B46824602460B46FDF7B4FF0746BC
:102540000246334888460B4606217844FFF708F9CF
:1025500052465B46FDF7A7FF82462E488B463A4619
:10256000434605217844FFF7FBF83A464346FDF71A
:102570009AFF02460B46002E504659460CDAFDF7EC
:10258000EBFE22462B46FDF78EFF01B022462B467E
:10259000BDE8F04FFDF784BFFDF7DEFE22462B4677
:1025A000FDF781FF1C4A7A4402EBC603D3E90023FE
:1025B000FDF773FF22462B46FDF76FFF174A7A445B
:1025C00002EBC603D3E90023FDF76AFF009A002A55
:1025D000B8BF81F00041BDE8F88F00000000104452
:1025E0000000F07F182D4454FB21F93FFB21F9BF77
:1025F0000000DC3F0000203E0000F33F0000F03F01
:102600000000E63F008003400000F83F0000F0BFFC
:10261000123B0000D03A00006E3A0000363A00004B
:102620002DE9F04D9446CCF1000423F000464CEA2D
:102630000404594F46EAD4749A46884621F0004271
:10264000BC4206D8454240EA050442EAD474BC4282
:1026500004D9BDE8F04D6246FFF7DAB8AAF140555B
:10266000A5F17F6555EA0C040BD0022404EAAA7494
:102670004A4DDFF82CE144EAD87452EA000B04D04A
:102680000CE0BDE8F04DFFF7BBBE002C14BF012CE1
:10269000BDE8F08D022C30D0032C32D056EA0C0B62
:1026A0000AD0BE4220D1BA4209D126F0804622F09B
:1026B00080423346114617E000291ADB25E0DFF897
:1026C000E4B0FB44002C04BFDBE90001BDE8F08D61
:1026D000012C02BFDBE9000181F00041BDE8F08D73
:1026E000022C0AD0032C0CD0BA4212D1B8F1000F40
:1026F0000BDA2A482C49BDE8F08D28462B49BDE865
:10270000F08D28467146BDE8F08D24482849BDE883
:10271000F08D921B12153C2AC4BF204F244E10DCB2
:10272000BAF1000FBEBF12F13C0F00273E4608DB96
:102730006246FEF7B5F821F00041FFF761FE07465B
:102740000E4694B1012C08BF86F000460DD0194A00
:10275000194B022C3846314615D0FDF79EFE2A460D
:10276000BDE8F04D114BFDF798BE002213463846E8
:102770003146FEF733F904BF0220FFF769F8384607
:102780003146BDE8F08DFDF788FE2A46BDE8F04DE4
:10279000064BFDF785BE00000000F07F182D445465
:1027A000FB2109C0CA390000FB21F9BFFB21094008
:1027B000FB21F93F075C143326A6A13C2DE9F0412B
:1027C0000446E07800F0C006E07800F03F0560784D
:1027D00000F0010098B1EF102846E91705EB5171A0
:1027E000C910A5EBC101491C01F0FF080B480068A6
:1027F00020B10A48414602683846904700BF6078D9
:1028000000F0080030B10548406818B1B011034A23
:10281000516888470020BDE8F08100004001002099
:1028200010B56FF00400FEF717FE0A4800680A4969
:10283000B0FBF1F0094908700846007800EB400150
:10284000C1EBC0104FF6FF7101EAC00004490880D7
:1028500010BD00000000002000127A0028000020B7
:102860002A0000200146114A12884A434FF0E02313
:102870005A6100229A611A46126942F001021A61F5
:1028800000BF4FF0E022106900F001021AB100F41D
:102890008032002AF5D04FF0E022126922F00102C6
:1028A0004FF0E0231A6100229A6170472A0000204D
:1028B0000146114A12784A434FF0E0235A61002240
:1028C0009A611A46126942F001021A6100BF4FF084
:1028D000E022106900F001021AB100F48032002AEF
:1028E000F5D04FF0E022126922F001024FF0E02310
:1028F0001A6100229A6170472800002038B504460A
:1029000064B120208DF8000028208DF801003020CF
:102910008DF8020038208DF8030004E0A322042182
:102920006846FDF732FC6A46042140F69E2002F01C
:1029300017FC02F001F838BD3EB5044602208DF8C0
:102940000000CA208DF80100E3208DF80200092064
:102950008DF803006A460421682002F001FCA320E0
:102960008DF8000004F0400048B1C0208DF801004F
:10297000C8208DF80200C2208DF8030006E0A320D5
:102980008DF801008DF802008DF8030004F4C0708A
:1029900048B1C4208DF80400CC208DF80500C62075
:1029A0008DF8060006E0A3208DF804008DF80500E0
:1029B0008DF80600A3208DF807008DF808008DF82B
:1029C00009006A460A2140F6A72002F0C9FB04F07C
:1029D000030018B120208DF8000002E0D8208DF807
:1029E00000006A46012140F6B62002F0B9FB04F06F
:1029F000200018B1012000F0ADF802E0002000F046
:102A0000A9F804F4C07008B304F4807060B1B22077
:102A10008DF800008B208DF80100B6208DF80200A3
:102A20009B208DF803000BE0B0208DF80000802083
:102A30008DF80100B4208DF8020090208DF803007D
:102A40006A46042140F6A22002F08AFB04F001004D
:102A500020B3F8208DF800006A4601214FF40B6086
:102A600002F07EFBFA21072000F02EFC072000F088
:102A7000F5FB012000F015FC642000F0F5FC4FF49C
:102A8000FA7000F004FDC821304800F0A5FB2820B2
:102A900000F0BEFB0A2000F0CEFB08E0D8208DF845
:102AA00000006A4601214FF40B6002F059FB04F06C
:102AB000020018B1D9208DF8000002E0D8208DF86E
:102AC00000006A46012140F23D7002F049FB04F02B
:102AD000040018B1012000F069F802E0002000F0C5
:102AE00065F804F0100018B10120FFF707FF02E0BD
:102AF0000020FFF703FF44F008001549488101F06A
:102B00001BFF00201249887304F0400018B10846EA
:102B1000807B801D887304F4C07020B10C48807BDA
:102B2000801D0B49887304F0140020B10848807B95
:102B300010300749887304F0030020B10448807BFB
:102B4000001D0349887300203EBD000009E3CA024E
:102B5000400100203EB504466CB10EA1D1E9002031
:102B60008968CDE9002002916A4609214FF49760F7
:102B700002F0F6FA3EBD0AA2D2E900109268CDE951
:102B8000010200916A4609214FF4976002F0E8FAC9
:102B9000F0E70000B8AAB38DB4980D355D000000D1
:102BA000B8AAAAAAB088C3C5C700000038B50446B1
:102BB00064B1C0208DF80000C2208DF80100C4204F
:102BC0008DF80200C6208DF8030004E08B2204215A
:102BD0006846FDF7DAFA6A46042140F6982002F0CA
:102BE000BFFA01F0A9FE38BD10B5C8234FF48062CA
:102BF000024940F6F63001F033FD10BDAC53000839
:102C00002DE9F04F8DB00746884615469946DDE917
:102C1000166B0024002030806B49887B5A4605A93A
:102C200001F0EAFD18B1601E0DB0BDE8F08F6648F6
:102C3000807A00F01400002867D09DF81400000688
:102C40009DF8151040EA01409DF8161040EA012059
:102C50009DF81710084328609DF8180000069DF89D
:102C6000191040EA01409DF81A1040EA01209DF831
:102C70001B10084368609DF81C0000069DF81D109D
:102C800040EA01409DF81E1040EA01209DF81F1007
:102C90000843A8609DF8200000069DF8211040EA36
:102CA00001409DF8221040EA01209DF823100843BE
:102CB000E86004F11000C4B228680014019068684C
:102CC00000140290A86800140390E86800140490AF
:102CD00001984043029901FB0100039901FB0100A7
:102CE000049901FB010ABAF1706F02DBBAF1885F47
:102CF00005DD01F021FE00203080401E94E7B6F98A
:102D0000000040F48070308000BF2F48807A00F0CF
:102D1000400020B305A9601C085C095D40EA012061
:102D200000B2A8F8000005A9E01C095C05AAA01CD7
:102D3000105C41EA002000B2A8F8020005A9601D5D
:102D4000095C201D105C41EA002000B2A8F80400D4
:102D5000A01DC4B2B6F9000040F0080030801A4847
:102D6000408900F4C07008B305A9601C085C095DC7
:102D700040EA012000B2388005A9E01C095C05AAE0
:102D8000A01C105C41EA002000B2788005A9601DFB
:102D9000095C201D105C41EA002000B2B880A01D33
:102DA000C4B2B6F9000040F0700030800648807A66
:102DB00000F0030018B105A90819FFF7FFFC484609
:102DC00001F00CF900202FE74001002070B588B019
:102DD000064601A801F0BCFABDF804000021C903B1
:102DE00041EA5045C40300BF4448007A00F00300A4
:102DF00056F8200005904148007A00F0040010B118
:102E00000598404205903D48007AC0F3C10056F84D
:102E1000200006903948007A00F0200010B1069892
:102E2000404206903548007AC0F3811056F82000E1
:102E300007903248008900F4807010B10798404232
:102E400007900598C117A0FB042301FB043100FB88
:102E50000510810041EA927005900698C117A0FB09
:102E6000042301FB043100FB0510810041EA92704C
:102E700006900798C117A0FB042301FB043100FB57
:102E80000510810041EA927007900598000E8DF8B8
:102E900008000598000C8DF809000598000A8DF8C7
:102EA0000A000598C0B28DF80B000698000E8DF848
:102EB0000C000698000C8DF80D000698000A8DF89D
:102EC0000E000698C0B28DF80F000798000E8DF81E
:102ED00010000798000C8DF811000798000A8DF873
:102EE00012000798C0B28DF8130002AA0C214FF40B
:102EF000257002F035F908B070BD000040010020D7
:102F000030B585B0044616A207CA02AB07C3C82C69
:102F100003DD4FF0FF3005B030BDC82090FBF4F06A
:102F2000401E85B2280A8DF80000E8B28DF8010035
:102F30006A46022140F2162002F012F910B14FF059
:102F4000FF30E8E702AA0C2140F6C12002F008F9A0
:102F500010B14FF0FF30DEE7044884810020DAE74B
:102F6000FEF2ABC4AAF1DFDFBBAFDFDF4001002020
:102F70001FB504464848007A00F0030054F82000CA
:102F800001904548007A00F0040010B101984042D9
:102F900001904148007AC0F3C10054F8200002902B
:102FA0003D48007A00F0200010B1029840420290A3
:102FB0003948007AC0F3811054F820000390364855
:102FC000008900F4807010B10398404203903349A7
:102FD000019880FB0101800F40EA810001902F4998
:102FE000029880FB0110820042EA917002902B4906
:102FF000039880FB0110820042EA917003900198CF
:10300000000E8DF800000198000C8DF80100019869
:10301000000A8DF802000198C0B28DF803006A46DC
:1030200004214FF4747002F09BF818B14FF0FF3098
:1030300004B010BD0298000E8DF800000298000C3C
:103040008DF801000298000A8DF802000298C0B2C3
:103050008DF803006A4604214FF4757002F080F881
:1030600010B14FF0FF30E3E70398000E8DF8000039
:103070000398000C8DF801000398000A8DF80200F7
:103080000398C0B28DF803006A4604214FF47670AD
:1030900002F066F8CCE700004001002009E3CA0214
:1030A00010B586B0044647A00068039046A00068AB
:1030B000029046A00068019045A00068009004F0CE
:1030C000030003A9085C8DF8140003A8C4F3C10130
:1030D000405C8DF8150003A8C4F38111405C8DF8A5
:1030E000160004F0030002A9085C8DF8100002A885
:1030F000C4F3C101405C8DF8110002A8C4F3811132
:10310000405C8DF8120005AA032140F2264002F02F
:1031100027F818B14FF0FF3006B010BD04AA032104
:1031200040F22A4002F01CF810B14FF0FF30F3E7F4
:10313000019805900098049004F0040058B19DF89F
:10314000140040F001008DF814009DF8100040F0CC
:1031500001008DF8100004F0200058B19DF8150012
:1031600040F001008DF815009DF8110040F00100BD
:103170008DF8110004F4807058B19DF8160040F0ED
:1031800001008DF816009DF8120040F001008DF846
:10319000120005AA03214FF4886001F0E1FF10B18D
:1031A0004FF0FF30B8E704AA032140F2314001F0AC
:1031B000D7FF10B14FF0FF30AEE706480481002082
:1031C000AAE700004CCD6C000CC92C0036567600E6
:1031D0002646660040010020F8B505460E464FF42D
:1031E0007A7095FBF0F000FB06F4200E8DF80000DD
:1031F000200C8DF80100200A8DF80200E0B28DF855
:1032000003006A4604214FF4AE7001F0A9FFF8BD37
:1032100038B50446052094FBF0F084B220128DF8F6
:103220000000E0B28DF801006A4602214FF4AD7053
:1032300001F096FF38BD38B50446052094FBF0F048
:1032400084B220128DF80000E0B28DF801006A46C9
:1032500002214FF4AC7001F083FF38BD38B504464D
:103260000020009004F0010020B19DF8000040F023
:103270003000009004F0020020B19DF8000040F002
:103280000C00009004F0040020B19DF8000040F014
:10329000030000906A4601214FF4A47001F060FF22
:1032A00038BD38B50446012C01DA012402E0042CB3
:1032B00000DD0424601EC0B200906A46012140F285
:1032C0004F1001F04DFF38BD2DE9FC4706460F4673
:1032D00006F0070010B1B7F5C86F03DD4FF0FF30FF
:1032E000BDE8FC873846FDF759F981465949FCF796
:1032F000F5FF8046684601F005F89DF800000228B9
:1033000006D0042816D0082826D0102848D135E049
:103310004FF08D414046FCF7AFFF8146FDF76DF958
:1033200084B24D494046FCF7A7FF8146FDF765F999
:1033300085B238E04FF08C414046FCF79DFF814656
:10334000FDF75BF984B245494046FCF795FF81469D
:10335000FDF753F985B226E04FF08B414046FCF76C
:103360008BFF8146FDF749F984B23D494046FCF7A1
:1033700083FF8146FDF741F985B214E04FF08A41A1
:103380004046FCF779FF8146FDF737F984B23549AD
:103390004046FCF771FF8146FDF72FF985B202E048
:1033A0004FF0FF309CE700BF20128DF80400E0B220
:1033B0008DF8050028128DF80600E8B28DF8070098
:1033C00006F00100A0B101AA02214FF4EA7001F059
:1033D000C7FE10B14FF0FF3082E70DF10602022167
:1033E0004FF4927001F0BCFE10B14FF0FF3077E760
:1033F00006F00200A0B101AA02214FF4EC7001F026
:10340000AFFE10B14FF0FF306AE70DF10602022166
:103410004FF4947001F0A4FE10B14FF0FF305FE75D
:1034200006F00400A0B101AA02214FF4EE7001F0F1
:1034300097FE10B14FF0FF3052E70DF10602022166
:103440004FF4967001F08CFE10B14FF0FF3047E75B
:10345000002045E700004843000040460000C0450A
:10346000000040450000C04438B50446052094FBE8
:10347000F0F085B228128DF80000E8B28DF8010056
:103480006A4602214FF4EF7001F06AFE38BD38B58C
:103490000446052094FBF0F085B228128DF8000058
:1034A000E8B28DF801006A4602214FF4ED7001F098
:1034B00057FE38BD00BF054A128802F04002002ABC
:1034C000F9D0C2B2014B1B1D1A8070470038014071
:1034D0007CB5054628494968087801AB04220D21CE
:1034E00000F0EAFD08B107207CBD9DF80700C0F39D
:1034F00001109DF8041001F0E00140EAE1008DF8B0
:1035000000009DF80700C0F381009DF8051001F050
:10351000E00140EAE1008DF801009DF8070000F0AD
:1035200003009DF8061001F0E00140EAE1008DF88B
:10353000020000241CE01DF8040018B9002045F822
:10354000240013E00D4845F8240006E055F8240057
:103550000B49FCF791FE45F824001DF80400401EBD
:10356000C0B20DF804000028F0D100BF601CC4B246
:10357000032CE0DB0020B7E7380000207B14AE3ED0
:103580001D5A843F2DE9F04F87B005460C46914601
:1035900001208DF8100000208DF81100FE4A1268FD
:1035A000917CFD4A5268107804AB022200F050FE74
:1035B00020B14FF0FF3007B0BDE8F08FC820FFF713
:1035C00051F900208DF81000F34A1268D17BF24ABD
:1035D0005268107804AB012200F03AFE10B14FF0AF
:1035E000FF30E8E7EC4A12685179EB4A52681078EC
:1035F00004AB012200F02CFE10B14FF0FF30DAE7EF
:10360000E54A1268917CE44A5268107804AB0122C2
:1036100000F01EFE10B14FF0FF30CCE7DE4A12681A
:10362000D17DDD4A5268107804AB012200F010FE13
:1036300010B14FF0FF30BEE7D74A12681179D64A71
:103640005268107804AB012200F002FE10B14FF076
:10365000FF30B0E70C208DF81000CF4A12681179C6
:10366000CD4A5268107804AB012200F0F1FD10B190
:103670004FF0FF309FE70F20FFF7F4F8C648806A4D
:10368000407A8DF81000C44A12689178C24A526894
:10369000107804AB012200F0DBFD10B14FF0FF30D9
:1036A00089E7BD48806A007A8DF81000BA4A12682E
:1036B0005178B94A5268107804AB012200F0C8FD75
:1036C00010B14FF0FF3076E7B9F1000F07D0B248E4
:1036D000806A807A40F0E0008DF8100004E0AE4887
:1036E000806A807A8DF81000AB4A12689179AA4AF4
:1036F0005268107804AB012200F0AAFD10B14FF01F
:10370000FF3058E7B9F1000F07D0A348806AC07AAC
:1037100040F0E0008DF8100003E0A048C07A8DF87A
:1037200010009D4A1268D1799B4A5268107804AB08
:10373000012200F08DFD10B14FF0FF303BE7B9F1F1
:10374000000F02D0C820FFF78DF840208DF8100040
:10375000914A12681179904A5268107804AB01229C
:1037600000F076FD10B14FF0FF3024E778208DF89F
:103770001000894A12685179874A5268107804AB60
:10378000012200F065FD10B14FF0FF3013E78349CF
:103790008889FFF767F800208DF810007E4A1268CC
:1037A00051797D4A5268107804AB012200F050FD37
:1037B00010B14FF0FF30FEE6774A1268917A764AF0
:1037C0005268107804AB022200F076FC10B14FF082
:1037D000FF30F0E69DF811009DF8101040EA012B33
:1037E0000C209BFBF0F0C6B20020A8606860286047
:1037F000A06060602060824665E0674A1268D17A06
:10380000654A5268107804AB0C2200F055FC10B1E8
:103810004FF0FF30CFE69DF811009DF8101040EA00
:10382000012000B2ADF808009DF813009DF81210B9
:1038300040EA012000B2ADF80A009DF815009DF89D
:10384000141040EA012000B2ADF80C00BDF90810D8
:10385000206808442060BDF90A1060680844606070
:10386000BDF90C10A0680844A0609DF817009DF8F1
:10387000161040EA012000B2ADF800009DF81900D2
:103880009DF8181040EA012000B2ADF802009DF842
:103890001B009DF81A1040EA012000B2ADF80400A8
:1038A000BDF90010286808442860BDF90210686856
:1038B00008446860BDF90410A8680844A8600AF1CB
:1038C000010000F0FF0AB24597DB3448D0F800C091
:1038D0002868C117090441EA104107046246002321
:1038E0003846FCF721FC32460023CDE90201FCF703
:1038F0001BFC28602948D0F800C06868C11709047B
:1039000041EA10410704624600233846FCF70CFCEC
:1039100032460023CDE90201FCF706FC68601F482F
:10392000D0F800C0A868C117090441EA1041070493
:10393000624600233846FCF7F7FB32460023CDE908
:103940000201FCF7F1FBA8601448D0F804C020681D
:10395000C117090441EA10410704624600233846B2
:10396000FCF7E2FB32460023CDE90201FCF7DCFB69
:1039700020600A48D0F804C06068C117090441EA11
:1039800010410704624600233846FCF7CDFB32465F
:103990000023CDE9020103E0380000208453000831
:1039A000FCF7C2FB60601148D0F804C0A068C117E2
:1039B000090441EA10410704624600233846FCF737
:1039C000B3FB32460023CDE90201FCF7ADFBA0605A
:1039D000A068002804DDA068A0F58030A06003E0A6
:1039E000A06800F58030A0600020E4E58453000862
:1039F0002DE9FC5F06460F4600253D4949680878D9
:103A000001AB03220D2100F057FB10B10720BDE8E8
:103A1000FC9F9DF8040000F01F008DF804009DF845
:103A2000050000F01F008DF805009DF8060000F06D
:103A30001F008DF80600002456E056F8240057F8C1
:103A40002410A0EB010BBBF1000F01DB594601E094
:103A5000CBF100010846FCF798FD4FF08F41009034
:103A6000FCF73CFC814601A8005D68B32149086869
:103A7000FCF794FD834659461F48FCF72FFC80460F
:103A800004E01E494046FCF7F7FB804601A8005DB4
:103A9000401EC0B201A908550028F2D1414648464F
:103AA000FCF71CFC83464FF07E51FCF7DFFB82469F
:103AB0002AF0004B0F4881695846FCF7EBFD12D203
:103AC0000120A04005430EE00A4801694846FCF782
:103AD000D7FD05D3074841694846FCF7DBFD02D214
:103AE0000120A0400543641C032CA6DB28468EE77A
:103AF000380000208453000800B04C4554E3853F53
:103B0000014691F90020002A01DD00201EE091F914
:103B10000020002A01DA042018E091F90120002A8F
:103B200001DD012012E091F90120002A01DA0520CF
:103B30000CE091F90220002A01DD022006E091F953
:103B40000220002A01DA062000E00720704700006A
:103B50008EB04FF0000A4FF4E13001F0AFFBFEF7FA
:103B60005FFEFDF791F800F06BFA8246BAF1000FA4
:103B700002D02BA0FDF7D0FD00F0BAF98246BAF1D1
:103B8000000F02D02CA0FDF7C7FD48E00BAA0CA93E
:103B90000DA800F09FF808AA09A90AA800F0F6F9F4
:103BA00005AA06A907A800F023FAFDF737F90B9834
:103BB000FCF737FD04460D460C98FCF732FD06462F
:103BC0000F460D98FCF72DFD804642460B4621A07E
:103BD000CDE90067CDE90245FDF79EFDBDF9203036
:103BE000BDF92420BDF9281023A0FDF795FDBDF9EE
:103BF0001430BDF91820BDF91C1028A0FDF78CFD6C
:103C0000FDF70CF92E480068FCF70BFD0446224630
:103C10000B462CA0FDF780FD6420FEF723FEB5E7E0
:103C20004D50553630353020696E697420666169B3
:103C30006C6564210D0A00004D505536303530203A
:103C4000444D5020696E6974206661696C65642119
:103C50000D0A00007069743A20252E32662C2072FD
:103C60006F6C3A20252E32662C207961773A202518
:103C70002E32660D0A0000006163635F783A2025EA
:103C8000642C206163635F793A2025642C20616392
:103C9000635F7A3A2025640D0A0000006779725F3D
:103CA000783A2025642C206779725F793A20256460
:103CB0002C206779725F7A3A2025640D0A00000093
:103CC00070000020616E676C653A20252E32660D0B
:103CD0000A0000002DE9F04F99B004460D46164643
:103CE0000027B846B946BA4612A814A913AB0EAAC3
:103CF000CDE9001015A917A8FEF782FF18B1012021
:103D000019B0BDE8F08FBDF8500000F480700028B5
:103D10007ED00E98FCF739FC83464FF09D41FCF7AE
:103D2000DDFA07460F98FCF730FC83464FF09D41C3
:103D3000FCF7D4FA80461098FCF727FC83464FF036
:103D40009D41FCF7CBFA81461198FCF71EFC834697
:103D50004FF09D41FCF7C2FA824639464FF0804051
:103D6000FCF78AFA49460590FCF786FA4146079027
:103D70004FF04040FCF780FA51460590FCF77CFA82
:103D800006900799FCF720FA8346FCF74AFCCDE938
:103D90000801FEF7FDF94FF06632544BCDE90A01F8
:103DA000FCF781FBCDE90C01FCF74EFC2060494695
:103DB0004FF08040FCF760FA49460290FCF75CFA4D
:103DC000414604904FF04040FCF756FA41460290BD
:103DD000FCF752FA03900499FCF748FA83464FF037
:103DE0007E51FCF7F1F90590FCF71BFCCDE90801C9
:103DF00039464FF08040FCF73FFA41460390FCF70C
:103E00003BFA494604904FF08040FCF735FA00E059
:103E100068E051460390FCF72FFA83460499FCF7BB
:103E2000D3F90590FCF7FDFBCDE90601DDE9082398
:103E3000FEF7F6FB4FF066322C4BCDE90A01FCF79A
:103E400032FBCDE90C01FCF7FFFB286051465046E0
:103E5000FCF712FA494604904846FCF70DFA414631
:103E600003904046FCF708FA394601903846FCF7C3
:103E700003FA00900199FCF7A7F902900399FCF767
:103E8000F5F983460499FCF7F1F90590FCF7C9FBB5
:103E9000CDE9080151463846FCF7EEF94946049051
:103EA0004046FCF7E9F903900499FCF78DF94FF0CF
:103EB00080410590FCF7E0F98346FCF7B2FBCDE9C1
:103EC0000601DDE90823FEF7ABFB4FF06632074B36
:103ED000CDE90A01FCF7E7FACDE90C01FCF7B4FBE8
:103EE000306001E001200BE7002009E766A64C40A6
:103EF0002DE9F041002000F0DFFAC4B2782001F093
:103F0000C7F82044C4B2782000F0C4F92044C4B2F9
:103F1000642001F06FF82044C4B2FEF765FE20442F
:103F2000C4B2194D2846FFF7EBFD0646E81CFFF723
:103F3000E7FD46EAC00086B2A81DFFF7E1FD46EAAC
:103F4000801086B200BF37463846FFF7A9F82044F4
:103F5000C4B240F27310FEF7EFFC2044C4B26420F8
:103F6000FEF7CEFF2044C4B2012000F03FFF204402
:103F7000C4B200F0C3F82044C4B214B10120BDE8BB
:103F8000F0810020FBE70000640000202DE9FC41E7
:103F900004460D4616466B4606223B21682000F07B
:103FA0008BF80746BFB99DF801009DF8001040EA64
:103FB000012000B220809DF803009DF8021040EA25
:103FC000012000B228809DF805009DF8041040EA09
:103FD000012000B230803846BDE8FC8110B50446AF
:103FE0000CB9012010BDFCF737FE20600020F9E776
:103FF0002DE9FC4104460D4616466B460622432138
:10400000682000F059F80746BFB99DF801009DF8F7
:10401000001040EA012000B220809DF803009DF8C6
:10402000021040EA012000B228809DF805009DF8AA
:10403000041040EA012000B230803846BDE8FC811F
:1040400008B5FDF7E1F800F0F4F8032000F0A9F856
:10405000002000F09DF8322000F0C9F8002238213D
:10406000682000F00CF900226A21682000F007F9AE
:1040700000222321682000F002F9802237216820E5
:1040800000F0FDF86A467521682000F02CF89DF8D4
:104090000000682801D0012008BD01226B216820A2
:1040A00000F0EDF800226C21682000F0E8F83220E2
:1040B00000F09DF80020EFE72DE9F04104460D46A1
:1040C00016461F464FF000083B463246294620461A
:1040D000FCF784FF8046B8F1000F02D10020BDE854
:1040E000F0810220FBE770B505460E4614462346D4
:1040F000012231462846FFF7DFFF70BD70B588B05A
:1041000002A905A800F0FCFC0446032C3ED101A83E
:1041100000F072F90598FCF738FA06460199FCF7A9
:10412000ABF80546FCF750FA05900698FCF72DFA17
:1041300006460199FCF7A0F80546FCF745FA0690FB
:104140000798FCF722FA06460199FCF795F8054610
:10415000FCF73AFA079005A8FEF70AFF684600F058
:10416000F7F8BDF80010029848430290BDF800101F
:10417000039848430390BDF8001004984843049006
:1041800002A8FEF723FE002008B070BD0120FBE767
:1041900010B50446E006020E1C21682000F06FF8FE
:1041A00010BD10B50446E006020E1B21682000F089
:1041B00066F810BD70B50546BC2D01DB012410E08A
:1041C000622D01DB02240CE02A2D01DB032408E030
:1041D000142D01DB042404E00A2D01DB052400E09A
:1041E000062422461A21682000F049F870BD70B5F7
:1041F0000446B4F57A7F01DD4FF47A74042C00DABA
:1042000004244FF47A7090FBF4F0401EC6B232469C
:104210001921682000F033F805460DB1284670BD1D
:104220006010FFF7C7FF05460DB12846F7E70020ED
:10423000F5E710B580226B21682000F020F864209B
:10424000FEF710FB00226B21682000F018F810BD6B
:104250002DE9F04104460D4616461F464FF0000872
:104260003B46324629462046FCF7FDFE8046B8F123
:10427000000F02D10020BDE8F0810220FBE737B536
:1042800004460D4602AB012229462046FFF7E0FF17
:104290003EBD000070B50446002624F00104184815
:1042A00090F8240008B1002070BD1548807A10B93C
:1042B0004FF0FF30F8E71248057C807A2040104923
:1042C00008740846007CA04202D04FF0FF3600E0A0
:1042D000002614B90A48007D18B1012000F080FFC3
:1042E00002E0002000F07CFF3CB100F025FB20B193
:1042F000034805744FF0FF30D6E73046D4E700009E
:104300003800002001461148407A30B1012807D01A
:10431000022808D003280CD108E0022008700BE026
:104320000420087008E00820087005E010200870DC
:1043300002E04FF0FF30704700BF0448C07C18B166
:1043400008784006000E08700020F4E738000020CE
:1043500001461348407A30B1012808D002280AD01B
:10436000032810D10BE04FF4804008800EE041F6A6
:104370009C7008800AE04FF48050088006E04FF4FB
:104380000060088002E04FF0FF30704700BF044833
:10439000C07C10B10888401008800020F5E70000BC
:1043A0003800002001460248007C08700020704759
:1043B0003800002001460F48007A30B1012807D0AC
:1043C000022809D003280FD10AE0FA2008800EE065
:1043D0004FF4FA7008800AE04FF47A70088006E023
:1043E0004FF4FA60088002E00020088000BF00BFA0
:1043F000002070473800002001460E48007A30B196
:10440000012807D0022808D003280CD108E00A4868
:1044100008600BE00948086008E00948086005E00A
:104420000848086002E04FF0FF30704700BF0020EE
:10443000FBE7000038000020000003430000834237
:10444000333303423333834101461248C07A08288C
:1044500017D2DFE800F01704070A0D101318BC206C
:10446000088013E06220088010E02A2008800DE018
:10447000142008800AE00A20088007E00520088050
:1044800004E000BF00BF0020088000BF00BF002084
:1044900070470000380000200146064890F82400CC
:1044A00010B14FF0FF3070470248C08908800020EB
:1044B000F9E70000380000207CB5054680208DF823
:1044C0000000664A1268917C644A526810786B4614
:1044D0000122FFF7BDFE10B14FF0FF307CBD64201C
:1044E000FEF7C0F900208DF800005C4A1268917C4C
:1044F0005A4A526810786B460122FFF7A9FE10B1A4
:104500004FF0FF30EAE7554A1268917D534A5268EE
:1045100010786B460622FFF7CFFD10B14FF0FF3049
:10452000DCE79DF80500C007400F9DF8031001F07F
:10453000010140EA41009DF8011001F0010140EA4B
:10454000010484B1012C03D101214448C1742DE040
:10455000022C03D100214148C17427E000BF00BFF5
:104560004FF0FF30BAE73D4A1268D1783B4A5268B3
:1045700010786B460122FFF79FFD10B14FF0FF301E
:10458000ACE79DF8000000F00F0424B900BF00BFA5
:104590004FF0FF30A2E7042C05D100BF00BF01217E
:1045A0002E48C17402E000212C48C174FF212B4821
:1045B0008172FF2029490872FF2128484172C17287
:1045C0004FF6FF71C181FF210174817401210173D4
:1045D00080F82210002180F82310417501751630F3
:1045E000016041608160163880F8241080F8251041
:1045F000C1844FF4FA6000F041FC10B14FF0FF307D
:104600006CE7022000F00AFB10B14FF0FF3065E7C5
:104610002A2000F0ADFC10B14FF0FF305EE73220F1
:1046200000F0E8FC10B14FF0FF3057E70020FFF733
:1046300031FE10B14FF0FF3050E715B100BF00BFA1
:1046400000BF002000F02CFB10B14FF0FF3045E719
:10465000002000F01DFD002040E700003800002091
:104660002DE9F04385B005460E4690469946294807
:1046700090F8250020B14FF0FF3005B0BDE8F08381
:1046800016B94FF0FF30F8E7002423E0281B10286C
:1046900001DD102000E0281B87B232193946204680
:1046A00000F05EFD10B14FF0FF30E6E701AA394699
:1046B000204600F001F910B14FF0FF30DDE730196E
:1046C0003A4601A9FBF773FD10B16FF00100D4E782
:1046D000E01984B2AC42D9DB4FEA28208DF8000003
:1046E00008F0FF008DF801000A4A1268917E094A1D
:1046F000526810786B460222FFF7AAFD10B14FF006
:10470000FF30BAE70121034880F82510A0F8269071
:104710000020B2E73800002038B50446282C02DD1E
:104720004FF0FF3038BDDCB9002000F0EBFB00207B
:104730008DF8000007208DF801002E4A1268917C48
:104740002C4A526810786B460222FFF781FD10B1A7
:104750004FF0FF30E6E70021264801750020E1E731
:10476000012000F0CFFB20208DF80000012C06D1A5
:1047700000208DF80100052000F0FAFB17E0052C61
:1047800006DC01208DF80100052000F0F1FB0EE0B1
:10479000142C06DC02208DF801000A2000F0E8FB52
:1047A00005E003208DF80100142000F0E1FB9DF8E6
:1047B0000100072101EB8010C0B28DF801000D4A05
:1047C0001268917C0B4A526810786B460222FFF700
:1047D0003FFD10B14FF0FF30A4E70821054881727A
:1047E00000210173012101750020FFF753FD002016
:1047F00098E7000038000020F8B504460F4616463A
:104800002C4890F8240010B94FF0FF30F8BD29482B
:10481000807A10B94FF0FF30F8E7264A1268917A93
:10482000244A526810786B460222FFF745FC10B10B
:104830004FF0FF30EAE79DF801009DF8001040EAD4
:104840000125A54203DA00203070401EDEE719483A
:1048500040684088B5EB600F17DD164A1268517C3E
:10486000144A526810786B460122FFF725FC10B1FC
:104870004FF0FF30CAE79DF8000000F0100020B1B3
:1048800000F05AF86FF00100C0E7E2B2094B1B6874
:10489000D97A084B5B6818783B46FFF70DFC10B1DE
:1048A0004FF0FF30B2E795FBF4F0401E307000206F
:1048B000ACE7000038000020F8B504460D46164667
:1048C00016B94FF0FF30F8BD1A48807A10B94FF092
:1048D000FF30F8E720128DF80000E0B28DF80100FB
:1048E0009DF801002844134949684989884202DD3E
:1048F0004FF0FF30E7E70F4A1268117E0D4A526809
:1049000010786B460222FFF7A3FC10B14FF0FF3086
:10491000D9E7EAB2074B1B68597D064B5B681878EC
:104920003346FFF7C9FB10B14FF0FF30CBE7002053
:10493000C9E700003800002008B57048807A10B937
:104940004FF0FF3008BD002000906C4A1268D17B08
:104950006A4A526810786B460122FFF779FC10B161
:104960004FF0FF30EEE7654A12685179634A5268AA
:1049700010786B460122FFF76BFC10B14FF0FF304F
:10498000E0E75E4A126811795C4A526810786B461B
:104990000122FFF75DFC10B14FF0FF30D2E757481E
:1049A00090F82400002853D00C200090534A12683D
:1049B0001179524A526810786B460122FFF748FC81
:1049C00010B14FF0FF30BDE73220FDF74BFFC020A4
:1049D00000904A48807A00F0010020B19DF8000064
:1049E00040F020000090454A12681179434A52680D
:1049F00010786B460122FFF72BFC10B14FF0FF300F
:104A0000A0E73E48407C10B10220009001E0002069
:104A100000903A4A1268D17B384A526810786B4647
:104A20000122FFF715FC10B14FF0FF308AE700209C
:104A30000090324A12685179304A526810786B46B9
:104A40000122FFF705FC002855D04FF0FF3079E731
:104A500004200090294A12681179284A5268107877
:104A60006B460122FFF7F4FB10B14FF0FF3069E70E
:104A70002248807C20B92148807A00F0010010B9DA
:104A80004020009001E0602000901C4A12681179DB
:104A90001A4A526810786B460122FFF7D9FB10B111
:104AA0004FF0FF304EE73220FDF7DCFE1348407C2C
:104AB00010B10120009001E0002000900F4A126820
:104AC000D17B0E4A526810786B460122FFF7C0FB7B
:104AD00010B14FF0FF3035E7084A12685179074AA4
:104AE00052681078054B10330122FFF7B1FB10B16B
:104AF0004FF0FF3026E7002024E7000038000020B8
:104B00002DE9F04F8DB083460F4602200C904248AD
:104B100090F8240020B1002000F068F9012600E0A0
:104B2000002603A8FFF746FC05A8FFF7EBFB01A84A
:104B3000FFF78AFC02A8FFF7AFFC374890F80AA0FD
:104B400004A8FFF72FFC002407E00022394658464E
:104B5000FEF718FD00B902E0641C022CF5DB00BF73
:104B6000022C01D1002528E0002407E0012206A93B
:104B700009A8FEF707FD00B902E0641C022CF5DB72
:104B800000BF022C01D1002517E006A93846FDF729
:104B9000ABFA00F0FF0809A95846FEF729FF00F01C
:104BA000FF090025B9F1000F01D145F00105B8F169
:104BB000000F01D145F0020500BFFF201649087221
:104BC000FF2115484172C1724FF6FF71C181FF216B
:104BD0008172017401210173BDF80C0000F04EF9DF
:104BE0009DF8140000F01AF8BDF8040000F0C0F9B8
:104BF000BDF8080000F0FEF9504600F049FA9DF8B3
:104C00001000FFF747FB16B1012000F0EFF828462F
:104C10000DB0BDE8F08F00003800002038B5044624
:104C20001E48807A10B94FF0FF3038BD022C06D0F4
:104C3000042C07D0082C08D0102C0CD108E0002040
:104C400000900BE00820009008E01020009005E0A4
:104C50001820009002E04FF0FF30E6E700BF0F4859
:104C6000407A9DF80010B0EBE10F01D10020DCE7A5
:104C70000A4A1268D179094A526810786B460122B3
:104C8000FFF7E6FA10B14FF0FF30CEE79DF80000D5
:104C9000C110024841720020C7E700003800002020
:104CA00038B504465048807CA04201D1002038BD70
:104CB000002C46D04C4A126811794B4A5268107841
:104CC0006B460122FFF7F8F910B14FF0FF30EEE725
:104CD0009DF8000020F020000090434A12681179EE
:104CE000414A526810786B460122FFF7B1FA10B1C1
:104CF0004FF0FF30DBE70320FDF7B4FD022000900A
:104D0000394890F8220020B19DF8000040F0800062
:104D10000090354890F8230020B19DF8000040F045
:104D200030000090304A1268117D2F4A5268107886
:104D30006B460122FFF78CFA002851D04FF0FF306C
:104D4000B5E7294A12681179274A526810786B46EC
:104D50000122FFF7B1F910B14FF0FF30A7E7224869
:104D6000807A00F0010028B19DF8000040F020009A
:104D7000009004E09DF8000020F0200000901A4A06
:104D800012681179184A526810786B460122FFF7B1
:104D90005FFA10B14FF0FF3089E70320FDF762FDA5
:104DA000114890F8220010B18020009001E000200E
:104DB00000900D4890F8230020B19DF8000040F0CD
:104DC00030000090084A1268117D074A5268107836
:104DD0006B460122FFF73CFA10B14FF0FF3066E757
:104DE00001488474002062E73800002038B504468A
:104DF000214890F82400A04201D1002038BD24B3FE
:104E00001D4890F8250010B94FF0FF30F6E700205C
:104E100000F0E6F90020FFF743FF1749C88C00F0C7
:104E2000E9F8002000901449496808786B4601228F
:104E30002321FFF70DFA01210F4880F824100120EB
:104E400000F0CEF9FFF778FD13E0002000F0C8F97C
:104E50000948007C00900849496808786B4601229F
:104E60002321FFF7F5F90021034880F82410FFF70C
:104E700063FD0020C2E700003800002038B504467A
:104E80001F48807A10B94FF0FF3038BDFA2C09D096
:104E9000B4F5FA7F09D0B4F57A7F09D0B4F5FA6F8A
:104EA0000CD108E0002000900BE00820009008E002
:104EB0001020009005E01820009002E04FF0FF3035
:104EC000E3E700BF0E48007A9DF80010B0EBE10F59
:104ED00001D10020D9E70A4A12689179084A52683C
:104EE00010786B460122FFF7B3F910B14FF0FF3095
:104EF000CBE79DF80000C010014908720020C4E70C
:104F00003800002038B50446184890F82300A04225
:104F100001D1002038BD14B13020009001E0002004
:104F200000901248807C20B19DF8000040F0020003
:104F300000900E4890F8220020B19DF8000040F04B
:104F400080000090094A1268117D084A5268107862
:104F50006B460122FFF77CF910B14FF0FF30D9E723
:104F6000024880F823400020D4E7000038000020E9
:104F700038B504461E48807A10B94FF0FF3038BD6E
:104F8000BC2C02DB0120009015E0622C02DB022029
:104F9000009010E02A2C02DB032000900BE0142C80
:104FA00002DB0420009006E00A2C02DB05200090C2
:104FB00001E0062000900E48C07A9DF8001088425B
:104FC00001D10020DBE70A4A12689178084A52684A
:104FD00010786B460122FFF73BF910B14FF0FF301C
:104FE000CDE79DF800100248C1720020C7E700001D
:104FF0003800002038B504462448807A10B94FF0B4
:10500000FF3038BD214890F8240010B14FF0FF3038
:10501000F7E71E48007D50B134B1282C04DCE0B223
:10502000FFF77AFB0020ECE70020FFF775FB042C6C
:1050300001DA042404E0B4F57A7F01DD4FF47A74D8
:105040004FF47A7090FBF4F0401EC0B200900F4A0B
:10505000126851780D4A526810786B460122FFF7AA
:10506000F7F810B14FF0FF30CBE79DF80000401C7F
:105070004FF47A7191FBF0F081B20448C18101468E
:10508000C9894810FFF774FF0020BAE738000020F4
:1050900038B5044604F0700010B10120009005E01E
:1050A00014B10020009001E0402000902B4A1268CB
:1050B000917C2A4A526810786B460122FFF7C8F8A3
:1050C00020B1002125488172481E38BD9DF800009E
:1050D00020F04001214801730020009004F04000BE
:1050E00020B99DF8000040F00400009004F020007A
:1050F00020B99DF8000040F00200009004F010007C
:1051000020B99DF8000040F00100009004F0080074
:1051100020B99DF8000040F0380000900F4A126856
:10512000D17C0E4A526810786B460122FFF790F846
:1051300020B1002109488172481EC6E724B1082C1D
:1051400002D00020FFF7DEFE0448847200210175C2
:105150003220FDF787FB0020B7E700003800002071
:10516000F8B504460D46164616B94FF0FF30F8BDA7
:105170001A48807A10B94FF0FF30F8E720128DF806
:105180000000E0B28DF801009DF8010028441349A9
:1051900049684989884202DD4FF0FF30E7E70F4A4E
:1051A0001268117E0D4A526810786B460222FFF792
:1051B0004FF810B14FF0FF30D9E7EAB2074B1B6848
:1051C000597D064B5B6818783346FFF741F810B1FC
:1051D0004FF0FF30CBE70020C9E700003800002087
:1051E00038B50446214890F82400C0B114B102201B
:1051F000009001E0002000901C4A1268D17B1B4AFD
:10520000526810786B460122FFF722F810B14FF078
:10521000FF3038BD9DF800101448417423E0134856
:10522000807A10B94FF0FF30F3E724B10F48407C8B
:1052300008B10020EDE714B10120009001E000204A
:1052400000900A4A1268D17B084A526810786B466F
:105250000122FEF7FDFF10B14FF0FF30D9E79DF8B6
:105260000010024841740020D3E7000038000020FD
:105270002DE9F04106460F46FBF702FC041E0D46E1
:1052800018BF0120284320F00040C0F17F6000F1EA
:10529000E040C00F0ED0301C18BF0120384320F072
:1052A0000040C0F17F6000F1E040C00F04BF01206A
:1052B000FCF7CEFA20462946BDE8F08110B586B04D
:1052C0000446012144F20400FBF72EFD4FF4007068
:1052D000ADF8140003208DF8160018208DF8170083
:1052E00005A91C48FBF720FC4FF48060ADF81400C2
:1052F00004208DF8170005A91648FBF715FC25209A
:105300008DF8000003208DF801008DF802000120C7
:105310008DF803006846FBF7CDFC01940020ADF842
:105320000800ADF80A00ADF80C00ADF810000C2034
:10533000ADF80E0001A90848FCF77AF9012240F205
:1053400025510548FCF74EF901210348FCF714F9F3
:1053500006B010BD000801400038014075191A0C54
:105360006A231B1C1F207274433B4138393A6B6C13
:10537000376F06246D6E70006800000476005401DB
:10538000F7FD000183000000000800000001001884
:1053900032000500000020410000D242295C0F3E8F
:1053A0009A99993E3333733F295C0F3E0000700099
:1053B000000000240000000200030000006500540B
:1053C000FFEF0000FA80000B12820001030C30C3D3
:1053D0000E8C8CE914D5400213710F8E3883F8833C
:1053E0003000F883258EF8833000F883FFFFFFFF3D
:1053F0000FFEA9D6240004001A8279A10000003C07
:10540000FFFF00000010000038836FA2003E033051
:105410004000000002CAE3093E80000020000000B6
:10542000000000004000000060000000000C0000D0
:10543000000C186E000006920A16C0DFFFFF02562D
:10544000FD8CD377FFE1C496E0C5BEAA0000000042
:10545000FFFF0B2B0000165700000359400000000F
:1054600000001DFA00026C1D000000003FFFDFEB92
:10547000003EB3B6000D227800002F3C0000000073
:10548000001942B5000039A20000B365D90E9FC9CA
:105490001DCF4C3430000000500000003BB67AE8CD
:1054A0000064000000C800000000000010000000C0
:1054B0001000FA921000225E000D229F00010000F1
:1054C00000320000FF46000063D40000100000001E
:1054D00004D6000004CC000004CC000000001072D0
:1054E0000000004000000000000000000006000274
:1054F000000500070000000000640000000000003C
:10550000000000050005006400200000000000000D
:105510000000000000004000000003000000003216
:10552000F8980000FF650000830F0000FF9BFC005F
:10553000000000000000000000000000000000006B
:10554000000000000000000000000000000000005B
:1055500000000000000000000000100040000000FB
:10556000000000060000B26A000200000001FB8398
:105570000068000000D9FC007CF1FF8300000000FF
:1055800000650000006403E80064002800000025B6
:105590000000000016A00000000010000000100035
:1055A000002F0000000001F400001000002800009F
:1055B000FFFF4581FFFFFA720000000000000000BD
:1055C000004400050005BAC6004778A200000001AB
:1055D0000000000000000600000000140000254D3F
:1055E000002F706D000005AE000C02D0000000001E
:1055F000000000000000000000000000001B000090
:105600000000000000000000000000000064000036
:105610000008000000000000000000000000000082
:10562000000000000000000000000000000000007A
:10563000000000000000000000000000000000006A
:10564000000000000000000000000000000000005A
:10565000000000000000000000000000000000004A
:10566000000000000000000000000000001B00001F
:105670000000000000000000000E000E00000AC73D
:105680000004000000000032FFFFFF9C00000B2B15
:10569000000000020000000100000064FFE50000BF
:1056A00000000000000000000000000000000001F9
:1056B0000000000000010000000000000001800068
:1056C0000001800000018000002426D300000000BB
:1056D00000000000000600100096003C00000000E2
:1056E0000000000000000000000000000C0A4E68EE
:1056F000CDCF770950166759C619CE820000000039
:105700000000000000000000000000000000000099
:105710000000000017D78400030000000000000014
:1057200000000000C7938F9D1E1B1C190000000085
:105730000000000000000000000000000000000069
:105740000000000002031885000040000000000374
:105750000000000300000000000000004000000006
:105760000000000000000000000000000000000039
:105770000000000000000000000000000000000029
:105780000000000000000000000000000000000019
:10579000677DDF7E72902E554CF6E6880000000093
:1057A000000000000000000000000000D8DCB4B8D9
:1057B000B0D8B9ABF3F8FAB3B7BB8E9EAEF132F501
:1057C0001BF1B4B8B08097F1A9DFDFDFAADFDFDF1C
:1057D000F2AAC5CDC7A90CC92C97F1A9892646669E
:1057E000B28999A92D557DB0B08AA896365676F122
:1057F000BAA3B4B280C0B8A89711B28398BAA3F084
:10580000240844106418B2B9B49883F1A329557DD3
:10581000BAB5B1A38393F0002850F5B2B6AA83932A
:1058200028547CF1B9A3829361BAA2DADEDFDB816E
:105830009AB9AEF5606870F1DABAA2DFD9BAA2FA05
:10584000B9A38292DB31BAA2D9BAA2F8DF85A4D07B
:10585000C1BBAD83C2C5C7B8A2DFDFDFBAA0DFDF3F
:10586000DFD8D8F1B8AAB38DB4980D355DB2B6BA09
:10587000AF8C96198F9FA70E161EB49AB8AA872CC4
:10588000547CBAA4B08AB691325676B28494A4C835
:1058900008CDD8B8B4B0F19982A82D557D98A80E3E
:1058A000161EA22C547C92A4F02C5078F184A89857
:1058B000C4CDFCD80DDBA8FC2DF3D9BAA6F8DABA12
:1058C000A6DED8BAB2B68696A6D0F3C841DAA6C884
:1058D000F8D8B0B4B882A892F52C548898F135D98C
:1058E000F418D8F1A2D0F8F9A884D9C7DFF8F88362
:1058F000C5DADF69DF83C1D8F40114F1A8824EA8AC
:1059000084F311D182F5D992289788F109F41C1CEF
:10591000D884A8F3C0F9D1D99782F129F40DD8F32E
:10592000F9F9D1D982F4C203D8DEDF1AD8F1A2FA8C
:10593000F9A88498D9C7DFF8F8F883C7DADF69DFF8
:10594000F883C3D8F40114F198A8822EA884F31127
:10595000D182F5D992509788F109F41CD884A8F324
:10596000C0F8F9D1D99782F149F40DD8F3F9F9D1FA
:10597000D982F4C403D8DEDFD8F1AD8898CCA80969
:10598000F9D98292A8F57CF1883ACF944A6E98DBD7
:105990006931DAADF2DEF9D88795A8F221D1DAA51E
:1059A000F9F417D9F1AE8ED0C0C3AE82C684C3A8B5
:1059B0008595C8A588F2C0F1F4010EF18E9EA8C6A7
:1059C0003E56F554F18872F40115F19845856EF54F
:1059D0008E9E0488F142985A8E9E068869F4011CB6
:1059E000F1981E1108D0F504F11E97020298362591
:1059F000DBF9D985A5F3C1DA85A5F3DFD88595A8AC
:105A0000F309DAA5FAD88292A8F578F1881A849F6A
:105A100026889821DAF41DF3D8879F39D1AFD9DFD2
:105A2000DFFBF9F40CF3D8FAD0F8DAF9F9D0DFD9C2
:105A3000F9D8F40BD8F3879F39D1AFD9DFDFF41D44
:105A4000F3D8FAFCA869F9F9AFD0DADEFAD9F88F01
:105A50009FA8F1CCF398DB45D9AFDFD0F8D8F18F10
:105A60009FA8CAF38809DAAF8FCBF8D8F2AD978D2B
:105A70000CD9A5DFF9BAA6F3FAF412F2D8950DD134
:105A8000D9BAA6F3FADAA5F2C1BAA6F3DFD8F1BA09
:105A9000B2B68696A6D0CAF349DAA6CBF8D8B0B487
:105AA000B8D8AD84F2C0DFF18FCBC3A8B2B686966A
:105AB000C8C1CBC3F3B0B48898A821DB718D9D71A8
:105AC000859521D9ADF2FAD88597A828D9F408D8B8
:105AD000F28D29DAF405D9F285A4C2F2D8A88D9402
