:020000040800F2
:1000000038050020A1010008B5040008E10300083C
:10001000B1040008150200085F0E0008000000008F
:10002000000000000000000000000000C106000801
:10003000190200080000000045050008F907000843
:10004000BB010008BB010008BB010008BB010008A0
:10005000BB010008BB010008BB010008BB01000890
:10006000BB010008BB010008BB010008BB01000880
:10007000BB010008BB010008BB010008BB01000870
:10008000BB010008BB010008BB010008BB01000860
:10009000BB010008BB010008BB010008BB01000850
:1000A000BB010008F5090008BB010008BB010008FE
:1000B000BB010008BB010008BB010008BB01000830
:1000C000BB010008BB010008BB010008BB01000820
:1000D000BB010008310C0008BB010008BB0100088F
:1000E000BB010008BB010008BB010008BB01000800
:1000F000BB010008BB010008BB010008BB010008F0
:10010000BB010008BB010008BB010008BB010008DF
:10011000BB010008BB010008BB010008BB010008CF
:10012000BB010008BB010008BB010008BB010008BF
:10013000BB010008BB010008BB010008BB010008AF
:10014000BB010008BB010008BB010008BB0100089F
:10015000BB010008BB010008BB010008BB0100088F
:10016000BB010008BB010008BB010008BB0100087F
:10017000BB010008BB010008BB010008BB0100086F
:10018000BB010008BB010008DFF810D000F030F818
:10019000004800471D110008AFF30080380500201B
:1001A0000648804706480047FEE7FEE7FEE7FEE711
:1001B000FEE7FEE7FEE7FEE7FEE7FEE76908000868
:1001C0008901000830B50B46014600202022012499
:1001D00009E021FA02F59D4205D303FA02F5491B15
:1001E00004FA02F52844151EA2F10102F1DC30BD2B
:1001F000064C074D06E0E06840F0010394E8070074
:1002000098471034AC42F6D3FFF7C2FF241200081F
:100210004412000800BFFEE7704701B54FF47A7240
:10022000009901FB02F000F001F808BD01B5044996
:100230000098086000BF024800680028FBD108BD94
:100240006000002030B589B005460C460121084603
:1002500000F08AF90121032000F076F9012205213E
:10026000214800F08DF801220321204800F088F891
:100270002020079002208DF8200000208DF8230018
:100280008DF8220003208DF8210007A9164800F000
:100290002FF80820079007A9144800F029F80595C1
:1002A000ADF810400020ADF81800ADF8120004A918
:1002B0004FF0804000F06EFC00231A4603214FF0FF
:1002C000804000F0CEFB01A800F02CFC0A20ADF825
:1002D0000C0001A9400700F0EEFB0121880700F0A7
:1002E000B4FB09B030BD0000000002400004024031
:1002F000F0B50A4600210023002400BF3DE001259F
:1003000005FA01F3156805EA03049C4234D1056837
:100310004F000326BE40B543056015794E00B54039
:100320000668354305601579012D02D01579022D37
:1003300016D185684F000326BE40B54385605579C8
:100340004E00B540866835438560456801268E407D
:10035000B5434560456896798E40B6B235434560F1
:10036000C5684F000326BE40B543C560D5794E0031
:10037000B540C6683543C560491C1029BFD3F0BDE0
:10038000F0B5002300244D07ED0E02FA05F3CE1060
:1003900000F1200555F826504E07F70E0F26BE40F7
:1003A000B543CF1000F1200646F82750CE1000F1DB
:1003B000200555F8265045EA0304CE1000F120052B
:1003C00045F82640F0BD0246002013690B400BB1F2
:1003D000012000E00020704741837047018370478F
:1003E00000BFFEE70246881A00EE100AB8EEC00A07
:1003F000154880ED000A90ED000A1448D0ED000A7F
:1004000030EE600A1248D0ED000A20EE200A1148B2
:10041000D0ED000A0C4890ED001A00EE810A0E485B
:10042000D0ED000A30EE200A80ED000A064890ED7B
:10043000000A064880ED000A074890ED000ABDEE6C
:10044000C00A10EE100A704740000020480000204B
:1004500034000020380000204400002070B50A2538
:100460000A2000F0DDFD0446012C05D10F4800688C
:1004700028440E49086006E0022C04D10B480068AD
:10048000401B0A49086009480068282803DD282025
:100490000649086008E00548006810F1280F03DAF3
:1004A0006FF027000149086070BD000020000020A7
:1004B00000BFFEE77047000070B5002100230F2247
:1004C000C4781CB3174C246804F4E064C4F5E064F9
:1004D000C4F30721C1F10404E3B20A4144789C400B
:1004E000E1B28478144021430C07210E0E4C0578AC
:1004F0006155047804F01F050124AC4005786D11A6
:10050000AD0005F1E025C5F8004109E0047804F0EC
:100510001F050124AC40054D0678761145F82640AC
:1005200070BD00000CED00E000E400E080E100E0C0
:1005300002490143024A1160704700000000FA05B9
:100540000CED00E07047000029B1064A1268024332
:10055000044B1A6004E0034A12688243014B1A609C
:10056000704700003038024029B1064A1268024341
:10057000044B1A6004E0034A12688243014B1A607C
:10058000704700004038024029B1064A1268024311
:10059000044B1A6004E0034A12688243014B1A605C
:1005A0007047000044380240F0B5002100220024CA
:1005B000022500260223324F3F6807F00C0121B1CB
:1005C000042905D0082937D105E02E4F076036E011
:1005D0002D4F076033E02A4F3F1F3F68C7F3805617
:1005E000274F3F1F3F6807F03F036EB1264FB7FB11
:1005F000F3F7DFF88CC0ACF1040CDCF800C0CCF3EE
:10060000881C07FB0CF40CE01E4FB7FBF3F7DFF878
:1006100070C0ACF1040CDCF800C0CCF3881C07FB04
:100620000CF4174F3F1F3F68C7F301477F1C7D0045
:10063000B4FBF5F7076002E0124F076000BF00BF90
:100640000F4F3F6807F0F0010909104F7A5C076807
:10065000D74047600A4F3F6807F4E051890A0B4FC3
:100660007A5C4768D7408760054F3F6807F4604170
:10067000490B064F7A5C4768D740C760F0BD000061
:10068000083802400024F40000127A000000002024
:100690004FF08041486A41F2D001884202DDA0F566
:1006A0000050D03800214FF08042516270474FF027
:1006B0008041496A08B200214FF080425162704780
:1006C000704700000CB5002001900090344800688D
:1006D00040F480303249086000BF3148006800F4BF
:1006E000003000900198401C0190009818B90198C2
:1006F000B0F5A04FF1D12A48006800F4003010B1E5
:100700000120009001E0002000900098012846D1CF
:1007100023484030006840F0805021494031086053
:100720002048006840F440401E4908601C480830DA
:1007300000681B49083108600846006840F4004022
:1007400008600846006840F4A05008601648091F79
:100750000860081F006840F08070091F086000BF33
:100760000F48006800F000700028F9D040F20570D2
:100770000E4908600A480830006820F00300084964
:10078000083108600846006840F00200086000BFB9
:1007900003480830006800F00C000828F8D10CBDB0
:1007A000003802400070004008544007003C0240FE
:1007B00070B50446002C09DA4FF480710C48FFF73D
:1007C0000BFE80210A48FFF709FE08E08021084857
:1007D000FFF702FE4FF480710548FFF7FFFD20464A
:1007E00000F0BAFC05462946024800F0A4F970BDA5
:1007F000000402400008004010B500F00DFA10BDE2
:1008000030B515480068154AB0FBF2F1481EB0F14A
:10081000807F01D301201BE0481E4FF0E022506191
:1008200050170F22002807DA13071D0E0C4B00F09B
:100830000F04241F1D5503E013071C0E094B1C5405
:1008400000BF00204FF0E0229061072010610020DF
:1008500008B100BFFEE730BD4C00002040420F0051
:1008600018ED00E000E400E010B51548006840F421
:100870007000134908601348006840F001001149F6
:10088000086000200F49083108600E4800680E49D2
:1008900008400C4908600D48091D0860081F0068E1
:1008A00020F48020091F0860002006490C310860F0
:1008B000FFF708FF4FF0006001498039086010BD64
:1008C00088ED00E000380240FFFFF6FE1030002403
:1008D000F0B50C46154600210022068C4FF6FE7737
:1008E0003E400684018B028C4FF60C7631407E1C14
:1008F00006EA03162E4331434FF6F576324044F0B4
:100900000106324301830284F0BDF0B50C46154662
:10091000002100220026078C4FF6EF7C07EA0C0727
:100920000784018B028C4FF6FF7707EA041640F626
:10093000FF4739404FF6FF7707EA033739434FF651
:10094000FF7707EA052739434FF65F773A4046F0CD
:1009500010073A4301830284F0BDF0B50C461546FA
:10096000002100220026078C4FF6FF6C07EA0C07D7
:100970000784818B028C4FF6FF7707EA04264FF637
:100980000C7739404FF6FF7707EA03172F433943B7
:100990004FF2FF573A4046F480773A43818302840E
:1009A000F0BDF0B50C461546002100220026078C4C
:1009B0004EF6FF7C07EA0C070784818B028C4FF60A
:1009C000FF7707EA043640F6FF4739404FF6FF77D6
:1009D00007EA052739434FF6FF7707EA033739431C
:1009E00045F6FF773A4046F480573A4381830284C4
:1009F000F0BD000010B501210E4800F053F80128A9
:100A000017D101210B4800F01DF8FFF750FE0A49ED
:100A10000860FFF723FD0948016807480068FFF7F1
:100A2000E1FC0749086000F01DFA05480068FFF77F
:100A3000BFFE10BD000001401C000020200000206F
:100A400010000020CA430282704721B1028842F0A0
:100A50000102028004E002884FF6FE731A40028011
:100A60007047F0B50C4615461E46002100220023B3
:100A70000189028B038C4FF6F877394021434FF6FA
:100A8000FC473A4040F201173A434FF6DD773B40CE
:100A90004FF6FF7707EA06172F433B430181028396
:100AA0000384F0BD02460020138A0B400BB10120E5
:100AB00000E00020704770B505460C46208850B90C
:100AC0002389A28861882846FFF702FFE18828462B
:100AD00000F033F825E0208804280AD12389A28871
:100AE00061882846FFF711FFE188284600F02EF8BC
:100AF00017E0208808280AD12389A288618828461F
:100B0000FFF72BFFE188284600F02DF809E0238944
:100B1000A28861882846FFF744FFE188284600F054
:100B20002BF870BD002101804180012181800021CE
:100B3000C1800181704741637047028B4FF6F373A8
:100B40001A400283028B0A4302837047028B4FF2E2
:100B5000FF331A400283028B4FF6FF7303EA01232F
:100B60001A4302837047828B4FF6F3731A408283D5
:100B7000828B0A4382837047828B4FF2FF331A4085
:100B80008283828B4FF6FF7303EA01231A43828329
:100B90007047000000220288184B98420ED0184B74
:100BA00098420BD0B0F1804F08D0164B984205D038
:100BB000154B984202D0154B984204D14FF68F73D3
:100BC0001A404B881A43124B984207D0114B984257
:100BD00004D04FF6FF431A400B891A4302804B683A
:100BE000C3620B880385054B984202D0044B9842A0
:100BF00001D18B7A03860123838270470000014074
:100C0000000401400004004000080040000C0040C7
:100C100000100040001400400448006820B1034860
:100C20000068401E01490860704700006000002015
:100C300010B540F225511D4800F053F810B31B4881
:100C400000F008F9C4B21A48008800F40040C8B99E
:100C50001748008800F4804060B10A2C03D00020BF
:100C60001349088020E01248008840F400401049F1
:100C7000088019E00D2C06D10D48008840F4804012
:100C80000B49088010E00A480088C0F30D000949AC
:100C90000C5407480088401C054908800846008815
:100CA000C72801DD0020088010BD000000100140B1
:100CB000680000206C00002001F40072B2F5007F93
:100CC00000D100BFCA430280704721B1828942F43B
:100CD0000052828104E082894DF6FF731A408281BE
:100CE000704770B50246002400230025002040F61E
:100CF0006A16B14200D100BFC1F3421501F01F03D3
:100D0000012606FA03F3012D02D19689334006E04D
:100D1000022D02D1168A334001E0968A33400C122C
:100D2000012606FA04F41688344013B10CB10120F0
:100D300000E0002070BDF0B5034600240026002529
:100D4000002040F66A17B94200D100BF1846C1F32F
:100D5000421401F01F06012707FA06F5012C01D104
:100D60000C3004E0022C01D1103000E014301AB134
:100D700007682F43076002E00768AF430760F0BDD4
:100D80002DE9FF4705460E460024A14600BFA046B8
:100D9000B08900B100BF2C8A24F44054F088044389
:100DA0002C82AC8941F20C608443B08831890843BD
:100DB000718908430443AC81AC8A24F44074B0893F
:100DC0000443AC826846FFF7EFFB2048854202D01F
:100DD0001F48854202D1DDF80C9001E0DDF8089053
:100DE000A88900F4004040B109EBC90000EB0910EC
:100DF00031684900B0FBF1F707E009EBC90000EBEF
:100E0000091031688900B0FBF1F76420B7FBF0F0FE
:100E100004012009642101FB1078A88900F4004036
:100E200040B1322000EBC800B0FBF1F000F0070049
:100E3000044308E0322000EB08106421B0FBF1F01D
:100E400000F00F0004432C81BDE8FF870010014033
:100E50000014014001468888C0F30800704700BFB5
:100E6000FEE7000042F26C000749096842429142E5
:100E700002DA4142044A116003490968814201DDF6
:100E80000149086070470000100000200FB4054BB6
:100E900010B503A9044A029800F018F810BC5DF8D8
:100EA00014FB0000011100086400002002E008C8E3
:100EB000121F08C1002AFAD170477047002001E0D4
:100EC00001C1121F002AFBD1704700002DE9FF4F1E
:100ED00089B09B460446002506E025280BD05A46DB
:100EE0000B999047641C6D1C20780028F5D10DB03B
:100EF0002846BDE8F08F0027B8460122474900E0A8
:100F0000074314F8013F203B02FA03F00842F7D1EF
:100F100020782E2819D114F8010F47F004072A2849
:100F20000ED06FF02F022078A0F1300109290CD8E3
:100F300008EB880102EB410100EB0108641CF2E7B9
:100F40000A98641C50F8048B0A9020780028CED0B0
:100F5000642808D0692806D075281ED05A460B99F7
:100F600090476D1C58E00A994FF00A0901C90A918F
:100F7000002802DA40422D2102E0390504D52B2158
:100F80008DF82010012103E0F90704D02021F7E7B4
:100F90008A4608AE0DE00021FAE70A994FF00A09E7
:100FA00001C90A91F7E74946FFF70CF9303106F815
:100FB000011D0028F7D1ADEB060000F120097807EC
:100FC00001D44FF00108C84502DDA8EB090000E09C
:100FD00000208046002706E008A85A46C05D0B990D
:100FE00090476D1C7F1C5745F6DB04E030205A46C5
:100FF0000B9990476D1CB8F10001A8F10108F5DCD0
:1010000005E016F8010B5A460B9990476D1CB9F193
:101010000001A9F10109F4DC641C65E7092801005D
:1010200010B5044610213048FFF7CDF928B92F48F4
:101030000088401C2D49088002E000202B490880D0
:1010400010212948FFF7BFF928B92948007810B9BD
:1010500001202749087027480078B0B92448007853
:10106000012807D124480078401C2349087001203A
:101070002049087020480078022806D100201E4927
:1010800008701E490880022010BD10211648FFF785
:101090009AF9012804D100201549087015490870F3
:1010A0001548007801281CD114480088401C1349B9
:1010B000088008460088A0420ADD0C480088A0424B
:1010C00006DA00200C4908700C4908800120DBE793
:1010D00006480088A04204DD00200749087007493F
:1010E00008800020D0E70000001002402A00002005
:1010F00024000020250000202600002028000020D9
:1011000000BF054A128802F04002002AF9D0C2B29C
:10111000014B9A807047000000100140FFF770FB00
:101120004FF4E13000F020F803214FF6FF70FFF795
:1011300089F800240AE0FFF7ABFA0446214604A030
:10114000FFF7A4FE4FF4FA70FFF767F8F3E700002B
:1011500025640D0A000000000146002901DA48421A
:1011600000E008467047000010B588B00446012131
:101170000846FFF7E9F901211020FFF705FA0722D9
:1011800009212648FFF7FCF807220A212348FFF728
:10119000F7F84FF4C060069002208DF81C008DF81F
:1011A0001D0000208DF81E0001208DF81F0006A9EB
:1011B0001A48FFF79DF802940020ADF80C00ADF836
:1011C0000E00ADF81000ADF814000C20ADF81200C0
:1011D00002A91348FFF7D4FD01211148FFF775FD5F
:1011E00040210F48FFF768FD012240F225510C48CD
:1011F000FFF7A1FD4FF4A060FFF79AF925208DF8C5
:10120000040003208DF805008DF8060001208DF8FC
:10121000070001A8FFF750F908B010BD0000024018
:101220000010014044120008000000206C00000083
:10123000AC0E0008B01200086C000020CC040000C6
:10124000BC0E0008000000000102030401020304B8
:1012500006070809000000000A000000102700002F
:10126000000000000000000000000000000000007E
:101270000100000000000000000020420000F041DA
:10128000000000000000000000000000000000005E
:10129000007A030A000000000000000001020304BD
:1012A0000607080900000000000000000000000020
:040000050800018965
:00000001FF
