:020000040800F2
:10000000F0040020A10100084D0B0008B70700080C
:10001000490B0008E90100089B14000800000000DB
:10002000000000000000000000000000EB100008CD
:100030007D020008000000006D0C0008011200089D
:10004000BB010008BB010008BB010008BB010008A0
:10005000BB010008BB010008BB010008BB01000890
:10006000BB010008BB010008BB010008BB01000880
:10007000BB010008BB010008BB010008BB01000870
:10008000BB010008BB010008BB010008BB01000860
:10009000BB010008BB010008BB010008BB01000850
:1000A000BB010008BB010008BB010008BB01000840
:1000B000BB010008BB010008BB010008BB01000830
:1000C000BB010008BB010008BB010008BB01000820
:1000D000BB0100086D120008BB010008BB0100084D
:1000E000BB010008BB010008BB010008BB01000800
:1000F000BB010008BB010008BB010008BB010008F0
:10010000BB010008BB010008BB010008BB010008DF
:10011000BB010008BB010008BB010008BB010008CF
:10012000BB010008BB010008BB010008BB010008BF
:10013000BB010008BB010008BB010008BB010008AF
:10014000BB010008BB010008BB010008BB0100089F
:10015000BB010008BB010008BB010008BB0100088F
:10016000BB010008BB010008BB010008BB0100087F
:10017000BB010008BB010008BB010008BB0100086F
:10018000BB010008BB010008DFF810D000F01AF82E
:10019000004800477D150008AFF30080F004002000
:1001A0000648804706480047FEE7FEE7FEE7FEE711
:1001B000FEE7FEE7FEE7FEE7FEE7FEE705120008C2
:1001C00089010008064C074D06E0E06840F0010395
:1001D00094E8070098471034AC42F6D3FFF7D8FFF5
:1001E0006C3200088C32000800BFFEE738B50124ED
:1001F0004EF67D7000F0E2FA1CA04EF67D731F22D1
:100200000A210090142000F063F94FF4966001F089
:1002100073F925E04FF6FF7000F0D0FA4FF4FA7052
:1002200001F06AF9002000F0C9FA4FF4FA7001F009
:1002300063F94FF4784000F0C1FA4FF4FA7001F01E
:100240005BF94FF4FC6000F0B9FA4FF4FA7001F07A
:1002500053F91F2000F0B2FA4FF4FA7001F04CF994
:10026000201EA4F10101CCB2D4D138BDD1D5C9AB87
:10027000CCEEB3E4B2E2CAD4000000007047F8B597
:1002800006460F4614461D464FF6FF703B46224673
:1002900039460090304600F025FA4FF6FF702B46A5
:1002A000324639460090304600F01CFA48F21040C1
:1002B0006A1E93B291B2721C009090B2224600F076
:1002C00011FA44F208202B46224629460090304677
:1002D00000F008FA48F21040631E9AB27B1C99B2F3
:1002E000631E009098B22B4600F0FCF944F20820FF
:1002F0002B46224639460090204600F0F3F9F8BD1F
:1003000008B54EF67D7000F059FA23A04EF67D73C5
:100310001F220A210090102000F0DAF84FF47A70C2
:1003200001F0EAF84EF67D7000F048FA1EA04EF695
:100330007D734FF478421E210090102000F0C8F821
:100340001DA04EF67D731F2232210090102000F078
:10035000BFF81DA04EF67D734FF478424621009001
:10036000102000F0B5F81CA04EF67D731F2264210A
:100370000090002000F0ACF81BA04EF67D734FF407
:10038000784282210090002000F0A2F840F2DC5078
:1003900001F0B2F808BD0000CEC4D7D6CFD4CABE93
:1003A000B2E2CAD400000000C8ABB6AFB5E7D7D3FD
:1003B000BCBCCAF500000000D7A8D7A2D2BABEA71D
:1003C000C5FAB7A200000000C8ABB3CCBCBCCAF5EC
:1003D000D6A7B3D60000000054656C3A31353938E1
:1003E00039333133353038007777772E716474655F
:1003F00063682E6E65740000F0B50A460021002384
:10040000002400BF3DE0012505FA01F3156805EA67
:1004100003049C4234D105684F000326BE40B54317
:10042000056015794E00B5400668354305601579BD
:10043000012D02D01579022D16D185684F000326B3
:10044000BE40B543856055794E00B540866835435A
:100450008560456801268E40B543456045689679BC
:100460008E40B6B235434560C5684F000326BE4096
:10047000B543C560D5794E00B540C6683543C56003
:10048000491C1029BFD3F0BDF0B5002300244D074F
:10049000ED0E02FA05F3CE1000F1200555F82650B6
:1004A0004E07F70E0F26BE40B543CF1000F12006D1
:1004B00046F82750CE1000F1200555F8265045EAA1
:1004C0000304CE1000F1200545F82640F0BD0000E1
:1004D0002DE9F84F0746884693469A46DDF828905E
:1004E0000097B3E099F8000080283DDA99F80060A1
:1004F0000D2E05D1009F08F110001FFA80F830E0A2
:10050000202E03DDA6F1200086B200E000260024A4
:1005100022E000251CE004EB06105049085C802115
:100520002941084040B108EB040291B27A1990B217
:100530005A4600F034F909E0D34507D008EB04022D
:1005400091B27A1990B2524600F029F9681CC5B2EE
:10055000082DE0DB601CC4B2102CDADB07F10800C8
:1005600087B209F1010971E0002668E006EB061088
:100570003B4911F8100099F8001088425DD106EB54
:100580000610374901EB4000407899F80110884285
:1005900053D100244FE0002520E006EB061030493F
:1005A00001EB4000801C10F814108020284101400D
:1005B00041B108EB040291B27A1990B25A4600F0A8
:1005C000EEF809E0D34507D008EB040291B27A199E
:1005D00090B2524600F0E3F8681CC5B2082DDCDB8F
:1005E000002524E006EB06101D4901EB4000801CAD
:1005F000012101EB4401405C80212941084048B1C0
:1006000008EB040291B27A19083290B25A4600F00F
:10061000C6F80AE0D34508D008EB040291B27A1973
:10062000083290B2524600F0BAF8681CC5B2082DE4
:10063000D8DB601CC4B2102CADDB701C86B2322E2D
:1006400094DB09F1020907F1100087B299F8000064
:1006500000287FF447AFBDE8F88F00009418000829
:10066000062600082DE9F05F07468846924699461F
:10067000002531E000242BE019490A9801EBC01055
:1006800000EB850010F804B000261DE0802030410A
:1006900000EA0B0050B108EB050291B207EBC4026F
:1006A000324490B2524600F07AF80BE0CA4509D0C5
:1006B00008EB050291B207EBC402324490B24A46FD
:1006C00000F06DF8701CC6B2082EDFDB601CC4B2EF
:1006D000042CD1DB681CC5B2202DCBDBBDE8F09F1C
:1006E000851E00082DE9FF4F83B0804689464946A4
:1006F000404600F0CEF90598A0EB08050698A0EB5F
:100700000906002D02DB0120029003E04FF0FF30CC
:1007100002906D42002E02DB0120019003E04FF0B9
:10072000FF30019076424FEA450A4FEA460BB54248
:1007300019DDABEB0504002712E049464046109A4C
:1007400000F02DF8002C05DBA4EB0A0401984844C6
:100750001FFA80F95C44029840441FFA80F87F1C1D
:10076000AF42EADD18E0AAEB0604002712E0494692
:100770004046109A00F013F8002C05DBA4EB0B04A4
:10078000029840441FFA80F85444019848441FFAE4
:1007900080F97F1CB742EADD07B0BDE8F08F70B585
:1007A00005460E4614463146284600F072F92046AA
:1007B00000F0A2F970BD00BFFEE7000030B50446AE
:1007C0009F237F220021084600F048F91148008845
:1007D00040F400700F490880881E008840F4807043
:1007E000891E0880002508E021120B4800F06CFCEF
:1007F000E1B2094800F068FC6D1CB5F5A04FF3D3D9
:100800000448801E008840F400700249891E088058
:1008100030BD00001A0402400038004010B500F05E
:10082000AFFB00F003F9112000F070F9002000F098
:1008300043F9CF2000F06AF9002000F03DF9C12013
:1008400000F03AF9302000F037F9ED2000F05EF9C1
:10085000642000F031F9032000F02EF9122000F09E
:100860002BF9812000F028F9E82000F04FF98520CD
:1008700000F022F9112000F01FF9782000F01CF997
:10088000F62000F043F9012000F016F9302000F0C6
:1008900013F9002000F010F9CB2000F037F93920CF
:1008A00000F00AF92C2000F007F9002000F004F90C
:1008B000342000F001F9052000F0FEF8F72000F0E8
:1008C00025F9202000F0F8F8EA2000F01FF90020B8
:1008D00000F0F2F8002000F0EFF8C02000F016F968
:1008E000202000F0E9F8C12000F010F9112000F0FC
:1008F000E3F8C52000F00AF9312000F0DDF83C20D3
:1009000000F0DAF8C72000F001F9A92000F0D4F8CF
:100910003A2000F0FBF8552000F0CEF8362000F029
:10092000F5F8002000F0C8F8B12000F0EFF8002042
:1009300000F0C2F8182000F0BFF8B42000F0E6F88C
:10094000002000F0B9F8002000F0B6F8F22000F026
:10095000DDF8002000F0B0F8262000F0D7F80120E4
:1009600000F0AAF8E02000F0D1F80F2000F0A4F881
:10097000172000F0A1F8142000F09EF8092000F0E4
:100980009BF80C2000F098F8062000F095F8432022
:1009900000F092F8752000F08FF8362000F08CF807
:1009A000082000F089F8132000F086F8052000F0F8
:1009B00083F8102000F080F80B2000F07DF808206C
:1009C00000F07AF8E12000F0A1F8002000F074F8BF
:1009D0001F2000F071F8232000F06EF8032000F0D3
:1009E0006BF80E2000F068F8042000F065F839205C
:1009F00000F062F8252000F05FF84D2000F05CF870
:100A0000062000F059F80D2000F056F80B2000F0F9
:100A100053F8332000F050F8372000F04DF80F2045
:100A200000F04AF8292000F071F810BD10B50A480E
:100A3000008840F4805008490880642000F05CFD84
:100A40000548801E008840F480500349891E0880B4
:100A5000322000F051FD10BD1A040240F0B50746E7
:100A60000C4615461E462A2000F050F8384600F085
:100A700043F8284600F040F82B2000F047F82046C5
:100A800000F03AF8304600F037F82C2000F03EF83D
:100A9000F0BD30B505460C462A2000F037F8284650
:100AA00000F02AF82B2000F031F8204600F024F85E
:100AB0002C2000F02BF830BD00B503460C48008810
:100AC00040F400700A490880881E008840F4807055
:100AD000891E08801946074800F0F6FA0448801E6F
:100AE000008840F400700249891E088000BD0000A3
:100AF0001A0402400038004010B50446200AFFF7EF
:100B0000DBFFE0B2FFF7D8FF10BD000000B50346E1
:100B10000B48008840F400700949088008460088A6
:100B200040F4807008801946064800F0CDFA044869
:100B3000801E008840F400700149891E088000BDB5
:100B40001A0402400038004000BFFEE77047000072
:100B500070B5002100230F22C4781CB3174C246801
:100B600004F4E064C4F5E064C4F30721C1F10404B3
:100B7000E3B20A4144789C40E1B2847814402143B6
:100B80000C07210E0E4C05786155047804F01F0502
:100B90000124AC4005786D11AD0005F1E025C5F8E4
:100BA000004109E0047804F01F050124AC40054D24
:100BB0000678761145F8264070BD00000CED00E087
:100BC00000E400E080E100E002490143024A1160D4
:100BD000704700000000FA050CED00E0F8B50024B5
:100BE0004EF67D70FFF7EAFD1CA04EF67D734FF4C4
:100BF0007842142100901020FFF76AFC4FF47A70BD
:100C000000F07AFC4EF67D70FFF7D8FD00BF21E0C2
:100C1000032094FBF0F040011E3085B2032094FBCA
:100C2000F0F100FB114000EB80004FF6FF7101EA8C
:100C3000C0060D49601C085C4EF67D734FF4784287
:100C4000294600903046FFF70DFD642000F054FC6B
:100C5000601CC4B20A2CDBDBF8BD00004E756D20B1
:100C6000546573740000000000000020704710B548
:100C700000F0B0F8FFF7BAFAFFF7B0FFFFF740FB5C
:100C800040F2DC5000F038FC10BD000029B1064AEB
:100C900012680243044B1A6004E0034A126882435C
:100CA000014B1A60704700003038024029B1064AF3
:100CB00012680243044B1A6004E0034A126882433C
:100CC000014B1A60704700004038024029B1064AC3
:100CD00012680243044B1A6004E0034A126882431C
:100CE000014B1A607047000044380240F0B5002103
:100CF00000220024022500260223324F3F6807F01D
:100D00000C0121B1042905D0082937D105E02E4F67
:100D1000076036E02D4F076033E02A4F3F1F3F68E2
:100D2000C7F38056274F3F1F3F6807F03F036EB160
:100D3000264FB7FBF3F7DFF88CC0ACF1040CDCF8FE
:100D400000C0CCF3881C07FB0CF40CE01E4FB7FB73
:100D5000F3F7DFF870C0ACF1040CDCF800C0CCF3A2
:100D6000881C07FB0CF4174F3F1F3F68C7F3014770
:100D70007F1C7D00B4FBF5F7076002E0124F0760AF
:100D800000BF00BF0F4F3F6807F0F0010909104F87
:100D90007A5C0768D74047600A4F3F6807F4E05124
:100DA000890A0B4F7A5C4768D7408760054F3F68D8
:100DB00007F46041490B064F7A5C4768D740C7602B
:100DC000F0BD0000083802400024F40000127A0050
:100DD0000A00002008B54FF6E070FFF7EFFC51A0C5
:100DE0004EF67D731F22022100900846FFF770FB2C
:100DF00050A04EF67D734FF47842142100900220EB
:100E0000FFF766FB3A23712226210F20FFF737FAFE
:100E10004CA04EF67D734FF4FC6228210090102008
:100E2000FFF756FB5823712244210F20FFF727FAC2
:100E300048A04EF67D731F22462100901020FFF738
:100E400047FB7623712262210F20FFF718FA45A095
:100E50004EF67D734FF47842642100901020FFF726
:100E600037FB44A04EF67D734FF478428C210090FE
:100E70001020FFF72DFB414840794EF67D734FF46B
:100E800078427D2100906420FFF7ECFB4FF47A70EC
:100E900000F032FB394800794EF67D734FF478420A
:100EA0007D2100906420FFF7DDFB4FF47A7000F0A5
:100EB00023FB3248C0784EF67D734FF478427D2193
:100EC00000906420FFF7CEFB4FF47A7000F014FB23
:100ED0002A4880784EF67D734FF478427D21009049
:100EE0006420FFF7BFFB4FF47A7000F005FB234846
:100EF00040784EF67D734FF478427D210090642057
:100F0000FFF7B0FB4FF47A7000F0F6FA1B48007858
:100F10004EF67D734FF478427D2100906420FFF7F8
:100F2000A1FB08BDC8ABB6AFB5E7D7D3BCBCCAF50B
:100F300000000000D2BABEA7B2E2CAD4B3CCD0F24D
:100F400000000000D1D5C9ABCCEEB3E4B2E2CAD404
:100F500000000000CEC4D7D6CFD4CABEB2E2CAD4F5
:100F600000000000CDBCC6ACCFD4CABEB2E2CAD429
:100F70000000000057656C636F6D65000000002085
:100F800000B587B005220D213848FFF77DFA05220C
:100F90000E213648FFF778FA05220F213348FFF774
:100FA00073FA01210220FFF771FE4FF420400090F8
:100FB00003208DF8050002208DF8040000208DF834
:100FC000060001208DF8070069462848FFF714FA4B
:100FD0004FF48040009000208DF804008DF806004A
:100FE00001208DF8070003208DF8050069461F4891
:100FF000FFF702FA4FF49850009003208DF8050097
:1010000001208DF8040000208DF8060001208DF8E5
:10101000070069461548FFF7EFF901218803FFF73C
:1010200045FE0020ADF808004FF48270ADF80A00CC
:101030000020ADF80C000220ADF80E000120ADF844
:1010400010004002ADF812000020ADF81400ADF819
:1010500016000720ADF8180002A9054800F016F8A0
:101060000121034800F006F807B000BD000402406B
:101070000038004021B1028842F04002028004E0C2
:1010800002884FF6BF731A400280704710B50022E5
:10109000028802F441520B884C8823438C882343F6
:1010A000CC8823430C8923434C8923438C892343D5
:1010B000CC8923431A430280838B4FF2FF74234071
:1010C00083830B8A038210BD024600BF108900F0A3
:1010D00002000028FAD0918100BF108900F00100C1
:1010E0000028FAD09089C0B2704770470CB5002034
:1010F000019000903448006840F480303249086024
:1011000000BF3148006800F4003000900198401C96
:101110000190009818B90198B0F5A04FF1D12A4874
:10112000006800F4003010B10120009001E00020C0
:1011300000900098012846D123484030006840F0D4
:1011400080502149403108602048006840F4404008
:101150001E4908601C48083000681B4908310860B7
:101160000846006840F4004008600846006840F403
:10117000A05008601648091F0860081F006840F06A
:101180008070091F086000BF0F48006800F0007001
:101190000028F9D040F205700E4908600A4808306E
:1011A000006820F00300084908310860084600681C
:1011B00040F00200086000BF03480830006800F0FB
:1011C0000C000828F8D10CBD003802400070004027
:1011D00008544007003C0240042808D14FF0E021A9
:1011E000096941F004014FF0E022116107E04FF07E
:1011F000E021096921F004014FF0E02211617047FC
:101200007047000010B51548006840F4700013499D
:1012100008601348006840F0010011490860002090
:101220000F49083108600E4800680E4908400C4913
:1012300008600D48091D0860081F006820F4802020
:10124000091F0860002006490C310860FFF74EFFB7
:101250004FF0006001498039086010BD88ED00E062
:1012600000380240FFFFF6FE1030002410B540F2B7
:1012700025511D4800F053F810B31B4800F008F941
:10128000C4B21A48008800F40040C8B91748008862
:1012900000F4804060B10A2C03D00020134908807C
:1012A00020E01248008840F400401049088019E00E
:1012B0000D2C06D10D48008840F480400B49088071
:1012C00010E00A480088C0F30D0009490C54074893
:1012D0000088401C0549088008460088C72801DDB1
:1012E0000020088010BD00000010014024000020F4
:1012F0002800002001F40072B2F5007F00D100BF89
:10130000CA430280704721B1828942F4005282812F
:1013100004E082894DF6FF731A408281704770B5F0
:101320000246002400230025002040F66A16B14240
:1013300000D100BFC1F3421501F01F03012606FAD8
:1013400003F3012D02D19689334006E0022D02D12C
:10135000168A334001E0968A33400C12012606FAC1
:1013600004F41688344013B10CB1012000E00020D1
:1013700070BDF0B50346002400260025002040F68D
:101380006A17B94200D100BF1846C1F3421401F0F8
:101390001F06012707FA06F5012C01D10C3004E0E5
:1013A000022C01D1103000E014301AB107682F432D
:1013B000076002E00768AF430760F0BD2DE9FF4713
:1013C00005460E460024A14600BFA046B08900B1E4
:1013D00000BF2C8A24F44054F08804432C82AC894A
:1013E00041F20C608443B088318908437189084315
:1013F0000443AC81AC8A24F44074B0890443AC82C9
:101400006846FFF773FC2048854202D01F4885429A
:1014100002D1DDF80C9001E0DDF80890A88900F415
:10142000004040B109EBC90000EB091031684900E8
:10143000B0FBF1F707E009EBC90000EB09103168D8
:101440008900B0FBF1F76420B7FBF0F0040120093C
:10145000642101FB1078A88900F4004040B13220DB
:1014600000EBC800B0FBF1F000F00700044308E017
:10147000322000EB08106421B0FBF1F000F00F0007
:1014800004432C81BDE8FF87001001400014014097
:1014900001468888C0F30800704700BFFEE702E0FD
:1014A00008C8121F08C1002AFAD1704770470020EF
:1014B00001E001C1121F002AFBD1704710B504469C
:1014C0006FF00400FFF788FEE11704EB5171C1F3E0
:1014D000C701074A11701046007800EB4001C1EBCC
:1014E000C0104FF6FF7101EAC0000249088010BD2C
:1014F0001A0000201C00002070B504464FF407704D
:1015000094FBF0F0C6B24FF4077094FBF0F100FBCF
:10151000114085B205E04FF4077000F009F8701E25
:10152000C6B2002EF7D115B1284600F001F870BD03
:101530000146114A12884A434FF0E0235A610022C3
:101540009A611A46126942F001021A6100BF4FF017
:10155000E022106900F001021AB100F48032002A82
:10156000F5D04FF0E022126922F001024FF0E023A3
:101570001A6100229A6170471C0000204FF4A0609D
:10158000FFF722FBA820FFF799FF4FF4E13000F0AE
:1015900007F8FFF743F901E0FFF769FBFCE70000FC
:1015A00010B588B0044601210846FFF76FFB012102
:1015B0001020FFF78BFB072209212448FEF764FF68
:1015C00007220A212148FEF75FFF4FF4C060069012
:1015D00002208DF81C008DF81D0000208DF81E00E3
:1015E00001208DF81F0006A91848FEF705FF029498
:1015F0000020ADF80C00ADF80E00ADF81000ADF80D
:1016000014000C20ADF8120002A91148FFF7D6FE15
:1016100001210F48FFF777FE40210D48FFF76AFED2
:10162000012240F225510A48FFF7A3FE25208DF83C
:10163000040003208DF805008DF8060001208DF8C8
:10164000070001A8FFF784FA08B010BD00000240AF
:10165000001001400000000000005C0000000000DD
:10166000060006000000287C287C28005C54FE54FC
:1016700074004420100844002854542050000600F0
:101680000000000038440000000044380000000062
:1016900002070200000010107C101000C0000000C3
:1016A000000010101010100040000000000060103A
:1016B0000C0000007C64544C7C00487C400000001E
:1016C000645454544800445454546C003C207020DA
:1016D00020005C54545424007C545454740004047A
:1016E00064140C007C5454547C005C5454547C00AE
:1016F000440000000000C400000000001028440066
:101700000000282828282800442810000000080489
:10171000540800007C4454545C007C2424247C0045
:101720007C5454546C007C44444444007C44444401
:1017300038007C54545444007C14141404007C4439
:10174000445474007C1010107C0044447C444400D9
:10175000604040447C007C10102844007C404040A5
:1017600040007C0810087C007C0810207C00384475
:10177000444438007C14141408003C2464243C00C5
:101780007C14141468005C545454740004047C04E5
:1017900004007C4040407C000C3040300C003C4059
:1017A00030403C004428102844000C1060100C000D
:1017B0004464544C44007C44000000000C10600061
:1017C0000000447C000000000001000100004040D7
:1017D000404040400001000000007C2424247C00A4
:1017E0007C5454546C007C44444444007C44444441
:1017F00038007C54545444007C14141404007C4479
:10180000445474007C1010107C0044447C44440018
:10181000604040447C007C10102844007C404040E4
:1018200040007C0810087C007C0810207C003844B4
:10183000444438007C14141408003C2464243C0004
:101840007C14141468005C545454740004047C0424
:1018500004007C4040407C000C3040300C003C4098
:1018600030403C004428102844000C1060100C004C
:101870004464544C4400107C440000006C000000A0
:101880000000447C10000000020102010000000082
:101890000000000000000000000000000000000048
:1018A00000000000001010101010101010100000A8
:1018B0001010000000006C6C2424000000000100E7
:1018C000000000000024242424FE48484848FC90DE
:1018D0009090900000103C54929050381412129244
:1018E000547810000000225C94A8481010242A525A
:1018F00054880000000030484850206E54948C8872
:101900008A74000000003030101000000000000059
:1019100000000000000408101020202020202010CB
:10192000100804000080402020101010101010201B
:10193000204080000000000010543810385410007F
:101940000000000000000010101010FE1010101019
:101950000000000000000000000000000000000087
:101960001010200000000000000000FE0000000039
:101970000000000000000000000000000000000067
:10198000101000000000040408081010202040403F
:1019900080800000000038448282828282828282BB
:1019A00044380000000010701010101010101010BB
:1019B000107C00000000384482820408102040821D
:1019C00084FC0000000038448202043804020282D1
:1019D000443800000000040C141424244444FE0481
:1019E000040E00000000FC808080B8C482020282E5
:1019F0008478000000003C428280B8C482828282E7
:101A00004438000000007E428204040808081010D8
:101A100010100000000038448282443844828282E0
:101A2000443800000000384482828282463A0282B2
:101A300044380000000000001010000000001010EA
:101A40000000000000000000101000000000001066
:101A500010200000000000000618608060180600DA
:101A600000000000000000000000FE0000FE00007A
:101A70000000000000000000C0300C020C30C0006C
:101A80000000000000384482820204081010100098
:101A90001010000000003844829AAAAAAAAAAA96A6
:101AA00080423C00000010101028282844447C4448
:101AB00044EE00000000FC424242427C424242426C
:101AC00042FC000000003C44828080808080828252
:101AD000443800000000F84442424242424242423E
:101AE00044F800000000FC444240447C4440404232
:101AF00044FC00000000FC444240447C4440404020
:101B000040F000000000344C828080808E84848409
:101B10004C3400000000EE444444447C44444444BB
:101B200044EE000000007C10101010101010101077
:101B3000107C000000003E08080808080808088813
:101B4000887000000000EE44484850605048484407
:101B500044EE00000000E040404040404040404231
:101B600044FC00000000C6446C6C6C545454444463
:101B700044EE00000000CE4464646454544C4C4C69
:101B800044E40000000038448282828282828282A1
:101B9000443800000000F84442424244784040404B
:101BA00040E000000000384482828282828282BA51
:101BB000443C02000000F048444444487048444417
:101BC00044E6000000003C44828040300C02028267
:101BD0004478000000007C54921010101010101077
:101BE000103800000000EE4444444444444444445B
:101BF000443800000000EE444444442828282810BB
:101C0000101000000000EE4454545454545428283A
:101C1000282800000000EE444428281010282844FA
:101C200044EE00000000EE44442828281010101054
:101C30001038000000007E448408081020204082F4
:101C400084FC0000001C1010101010101010101058
:101C500010101C000000EE445454FE545454282824
:101C60002828000000701010101010101010101014
:101C700010107000003048840000000000000000D8
:101C80000000000000000000000000000000000054
:101C90000000FE00004020000000000000000000E6
:101CA000000000000000000000007884047C8484B0
:101CB0008C7600000000C0404040586442424242DE
:101CC00064580000000000000000384480808080DC
:101CD0004438000000000C040404344C84848484E0
:101CE0004C360000000000000000788484FC8080F6
:101CF00084780000000018242020F82020202020D4
:101D0000207000000000000000003A444478807C0D
:101D100082827C000000C0404040586444444444F7
:101D200044EE0000000010100000301010101010E1
:101D300010380000000010100000301010101010BB
:101D4000109060000000C04040405C485060504827
:101D500044EE000000003010101010111010101090
:101D600010390000000000000000ACD29292929264
:101D700092D6000000000000000058E444444444AF
:101D800044EE00000000000000003844828282829D
:101D900044380000000000000000D8644242426461
:101DA0005840E000000000000000364C8484844C61
:101DB00034040E000000000000006C3020202020C1
:101DC0002070000000000000000078888460188403
:101DD00044780000000000202020F820202020204F
:101DE00024180000000000000000C64242424242A7
:101DF000463A0000000000000000EE444428282875
:101E000010100000000000000000EE44445454286C
:101E100028280000000000000000EE4428101028D0
:101E200044EE0000000000000000EE4444282810AA
:101E300010A0C0000000000000007E448810204276
:101E400084FC0000000C1010101010601010101016
:101E500010100C00001010101010101010101010A6
:101E60001010100000C0202020202018202020204A
:101E70002020C00000000000000000728C00000064
:101E8000000000000000000000001FE000003FF024
:101E900000003FF000001FE0000180060003C00FBB
:101EA0000003C00F0003C00F0003C00F0003C00FEA
:101EB0000003C00F0003C00F0003C00F00030003A6
:101EC000000000000000000000000000000300030C
:101ED0000003C00F0003C00F0003C00F0003C00FBA
:101EE0000003C00F0003C00F0003C00F0003C00FAA
:101EF0000001800600001FE000003FF000003FF0FE
:101F000000001FE000000000000000000000008052
:101F100000000180000003800000078000000780AF
:101F20000000078000000780000007800000078095
:101F3000000007800000078000000780000001808B
:101F40000000000000000000000000000000018010
:101F50000000078000000780000007800000078065
:101F60000000078000000780000007800000078055
:101F70000000078000000380000001800000008056
:101F8000000000000000000000001FE000003FF023
:101F90000000FFF00001FFE0000000060000000F5D
:101FA0000000000F0000000F0000000F0000000FF5
:101FB0000000000F0000000F0000000F00001FE3F2
:101FC00000007FF800007FF800001FE00003000021
:101FD0000003C0000003C0000003C0000003C000F5
:101FE0000003C0000003C0000003C0000003C000E5
:101FF0000001800000001FF000003FF800003FFCDF
:1020000000001FFE000000000003FF800001FFC071
:102010000000FFC000007F80000000180000003CAE
:102020000000003C0000003C0000003C0000003CC0
:102030000000003C0000003C0000003C00007F8CE1
:102040000001FFE00001FFF000007F800000000CB5
:102050000000003C0000003C0000003C0000003C90
:102060000000003C0000003C0000003C0000003C80
:102070000000001800007F800000FFC00001FFC0CA
:102080000003FF80000000000000000000020001CB
:1020900000030003000380070003C00F0003C00F0C
:1020A0000003C00F0003C00F0003C00F0003C00FE8
:1020B0000003C00F0003C00F0003C00F00031FE3A5
:1020C00000007FF800007FFC00001FE0000000031C
:1020D0000000000F0000000F0000000F0000000FC4
:1020E0000000000F0000000F0000000F0000000FB4
:1020F0000000000F000000070000000300000001C6
:10210000000000000000000000001FFC00003FF87D
:1021100000003FF000001FE0000180000003C0004D
:102120000003C0000003C0000003C0000003C000A3
:102130000003C0000003C0000003C00000031FE054
:1021400000007FF800007FF800001FE0000000039F
:102150000000000F0000000F0000000F0000000F43
:102160000000000F0000000F0000000F0000000F33
:102170000000000600003FE000007FF00000FFF0DC
:102180000001FFE00000000000001FFC00003FF81D
:1021900000003FF000001FE0000180000003C000CD
:1021A0000003C0000003C0000003C0000003C00023
:1021B0000003C0000003C0000003C00000031FE0D4
:1021C00000007FF800007FFC00001FE00003000318
:1021D0000003C00F0003C00F0003C00F0003C00FB7
:1021E0000003C00F0003C00F0003C00F0003C00FA7
:1021F0000001800600001FE000003FF000003FF0FB
:1022000000001FE0000000000007FFE00003FFC027
:102210000001FF880000FF1800000038000000786F
:1022200000000078000000780000007800000078CE
:10223000000000780000007800000078000000181E
:102240000000000000000000000000000000001876
:10225000000000780000007800000078000000789E
:10226000000000780000007800000078000000788E
:10227000000000780000003800000018000000088E
:10228000000000000000000000001FE000003FF020
:1022900000003FF000001FE0000180060003C00FB7
:1022A0000003C00F0003C00F0003C00F0003C00FE6
:1022B0000003C00F0003C00F0003C00F00031FE3A3
:1022C00000007FF800007FFC00001FE00003000317
:1022D0000003C00F0003C00F0003C00F0003C00FB6
:1022E0000003C00F0003C00F0003C00F0003C00FA6
:1022F0000001800600001FE000003FF000003FF0FA
:1023000000001FE00000000000001FE000003FF0A0
:1023100000003FF000001FE0000180060003C00F36
:102320000003C00F0003C00F0003C00F0003C00F65
:102330000003C00F0003C00F0003C00F00031FE322
:1023400000007FF800007FFC00001FE00000000399
:102350000000000F0000000F0000000F0000000F41
:102360000000000F0000000F0000000F0000000F31
:102370000000000600001FE000003FF000007FF0BA
:102380000000FFE00000000000000000000000006E
:10239000000000000000000000000000000000003D
:1023A000000000000000000000000000000000002D
:1023B000000000000000000000000000000000001D
:1023C000000000000000000000000000000000000D
:1023D000000000000000000000007800000078000D
:1023E000000078000000780000007800000078000D
:1023F00000000000000000000000000000000000DD
:1024000000000000000000000000000000000000CC
:1024100000000000000000000000000000000000BC
:10242000000000000000070000000F8000000F8087
:1024300000000F8000000700000000000000000006
:10244000000000000000000000000000000000008C
:102450000000070000000F8000000F8000000F80C8
:102460000000070000000000000000000000000065
:10247000000000000000000000000000000000005C
:10248000000000000000000000000000000000004C
:10249000000000000007C006000FE0060000000C6E
:1024A000003018180030181800301830003018307C
:1024B00000301860003008C00007C0C0000FE08086
:1024C000000000000000000FE0000607C00006301A
:1024D00018000C3018000C3018001830180030307C
:1024E00018003030180060000000C00FE000C00786
:1024F000C00000000000000000000000000000001C
:1025000000000000000000000000000000000000CB
:10251000000000000000000000000000000700E0D4
:10252000000887FC00088E03000898018007180047
:1025300080003000000030000000700000006000EB
:10254000000060000000600000006000000060000B
:102550000000700000003000000030000000380073
:102560000000180100000C03000007FC000001F04F
:10257000000000000000000000000000000000005B
:10258000000000000000000000000000000000004B
:10259000000000000000000000000000000000003B
:1025A000000000000000000000000000000000002B
:1025B000000000000000000000000000000000001B
:1025C00000003FF000007FF000007FE00000FFC04F
:1025D00000000000000000000000000000000000FB
:1025E00000000000000000000000000000000000EB
:1025F00000000000000000000000000000000000DB
:10260000000000000000B5E70200020002007FF0B9
:10261000421042107FF0421042107FF04200020848
:10262000020801F800000000D7D37FF0002000402E
:10263000008001000200FFF8020002000200020018
:10264000020002000E0000000000C8AB0100010003
:1026500002800440082010102FE8C106010001008C
:102660001FF00100010001007FFC0000B6AF004038
:1026700000407C40004001FC0044FE4420442044D3
:10268000208448844484FD04450402280410BCBC12
:1026900010201020102013FEFC201020102015FC0C
:1026A00018843088D04810501020105051882606C9
:1026B000CAF501000120011001107FFC03800540D4
:1026C0000540092011102108410401020100010008
:1026D0000100D2BA0080404027F8114001408278C2
:1026E000424816A81AD02350222042204250028885
:1026F00000000000BEA73FE020203FE020203FE098
:102700000000FDF885088508FDF885088508FDF8B6
:10271000850800000000B2E200084F8828880AA857
:102720008AA84AA80AA82AA82AA84228450884886C
:102730008888103800000000CAD44050204820404B
:102740000FF80040E04027402240224022202A2863
:1027500033A82E18000800000000B3CC00001BF0C6
:10276000E210221023F0F800200033F0688060802F
:10277000A3F02080208027F800000000D0F20200A3
:1027800001003FF820002FF02020224021803FF858
:102790002088209040804080838000000000D1D5B8
:1027A000200010F87E20444028F87E8848A850A8D1
:1027B00064A848A872A88450188861080000000026
:1027C000C9AB100010003FE0404080807FF0421015
:1027D000421042107FF04000400840083FF80000DF
:1027E0000000CCEE20802FF8208027F0F41027F096
:1027F000241027F0241027F03410CFF80220041002
:1028000000000000B3E404000200FFF808001040DC
:1028100020207FF008900880088008801088208899
:10282000C07800000000CEC4040002000200FFF8DF
:102830001040104008800880050002000500088054
:102840003060C01800000000D7D604000200FFF876
:10285000800880083FC0008001000200FFF80200ED
:10286000020002000E0000000000CFD43FE0202054
:1028700020203FE0202020203FE008804890289042
:1028800028A008800880FFF800000000CABE0000F1
:102890003FE0000000000000FFF80200124012209C
:1028A00022104208820802000E0000000000CDBC89
:1028B0007FF84008440847C84848548843084CC833
:1028C000733840884C08430840887FF800000000B7
:1028D000C6AC00802080208020803FF020002000B7
:1028E00020003FC020402040204040408040000069
:1028F0000000B4A520403840484091F07D5055502C
:1029000055507D5055F054407C40545057F88C0839
:1029100000000000C3FE2220222027F8FA2027F022
:10292000241027F03410E7F020802FF821402220D7
:10293000EC1800000000CAE440804140F22044103E
:102940008BE8A000F78824A827A834A8E7A824A823
:10295000248825B800000000C8EB0800040004002B
:1029600002000200050005000880088010401040A9
:1029700020204010800800000000C8AB02000200C8
:102980000500088010402020DFD8020002001FC090
:10299000020002000200FFF800000000B3CC0000BB
:1029A0001BF0E210221023F0F800200033F06880C2
:1029B0006080A3F02080208027F800000000BCBCCD
:1029C000208020802080F7F02080208027E03220A7
:1029D000E2202140208021402220EC18000000004D
:1029E000CAF50200024002200200FFF807000A8038
:1029F0000A801240222042108208020002000000D9
:102A00000000D6A702000200FFF8020002007FE0EB
:102A100010201040088005000200050018C0E038B2
:102A200000000000B3D62080208023F0F8802080B2
:102A300027F828203020E7F82020222021202020FD
:102A4000E0E000000000D7A8020002007FF00400D0
:102A50000400FFF8080010003FE0002000401C8048
:102A60000300008000000000D7A201004080200089
:102A700017F0008080804080008017F01080208058
:102A8000208040804FF800000000C5FA204024401C
:102A90002440F4482450276024403440E44024403B
:102AA000244025482648E43800000000B7A2020070
:102AB0002220221044007FF8040008000FE01420B8
:102AC00024404280810006C0383800000000B3C9AD
:102AD00000A0009000807FF8408040907C9044905F
:102AE00044A044A0444858A84118820800000000AF
:102AF000B9A601000100F90023F0211021102110D6
:102B0000211021103910C2100210041008600000BA
:102B10000000D2C60000002000780CE4790451685F
:102B200010307E6019981A3C2FE448E408380030D1
:102B300000600000D1A100000120012003FC622000
:102B40003420042003FC240021B021202220323E26
:102B500018000FE00000D4F10000000010FC130486
:102B6000110C3DF8703E10D015907CF0503E1810BE
:102B70001BFE023000200000CFEE0000000003FE2C
:102B800000607C4012FC11041106113611241F4410
:102B9000794400C0009C01860000C4BF0000000012
:102BA0000FE03C18200820043E04600460047E040A
:102BB0006004200C20081FF001800000B6CC00004B
:102BC000080011FC103E3EF82D8C2904490409042C
:102BD0003E8C50FC10881EC811FC100E0000B0B4D2
:102BE00000000040006012FE13023A427F4410C40D
:102BF0001BFE3C987190113011A00078004C000031
:102C0000C8B70000004000F878C41F8C313821ECB0
:102C10002126413A7DE2272225FA3D26012401049E
:102C20000000B6A80000010001705FFC70042004E1
:102C30002FF801001100113821C431003F0063E07A
:102C400040380000B3A4000000000818086008C065
:102C50000B001E00181C7FF01000118010E01838C7
:102C6000098E0F000000B0B400000040006012FEAA
:102C700013023A427F4410C41BFE3C9871901130FD
:102C800011A00078004C0000B7B50000000007F864
:102C90000600240014F8078C04042408261825F0E4
:102CA000647C64C220801FC00000BBD8000000000C
:102CB0001FF030182008278C2C44284428442CC4AA
:102CC00027842004300C1FF803800000000000005F
:102CD00000000000000000000000000000000000F4
:102CE0000000000000000000000000000000B4BF71
:102CF000000000000000020100063FC00C3FE01889
:102D000003001002003336603726203E66301C6414
:102D10003018642031FEE03F1FC01C0C00000C0086
:102D20000704003E07F00001C000000000000000A2
:102D30000000000000000000C9AB0000000000001F
:102D400001FE0003E3000703000C03001C3F003BEF
:102D5000FFC03F30600C30200C30200C10200C10D5
:102D6000600FFFC0083F000800000800600E3FE051
:102D700007FC000000000000000000000000000050
:102D80000000CCEE00000000000000030000FFE0A7
:102D90000C07F00C06000CFF803FF0E01FC0600C39
:102DA000FE300CCC3004F83004FF2004C0201FFE9D
:102DB000603EC06001FFF001FFF000606000400075
:102DC000000000000000000000000000B3E400006C
:102DD0000000000000200000300007FFF03FFFE08F
:102DE0000300000601800C01800801C01807E00FF5
:102DF000FE7007E00002060006040004040004045C
:102E0000000C06700C07E00000000000000000004D
:102E1000000000000000B2E200000000000000001E
:102E20003039FC301FCC300706B00F06F01907B060
:102E30003137B03136F01F27F00167F001E5F001BE
:102E4000E1F00041F00CF8B03CD830008C3000804C
:102E50003000000000000000000000000000000042
:102E6000CAD40000000000000803600C03700C03CB
:102E700030003FE0003F800801003C0180047F807B
:102E8000047D800C00800C10C00C10C00C18400C8D
:102E90001C600F7E600670300000300000000000F3
:102EA00000000000000000000000CEC40000000090
:102EB000C00000E00000700001FFE01FFFC018012B
:102EC00000000300000600000E00001C000E1800A9
:102ED00007300001E00000F00000FC00018F00035B
:102EE00003C00201E000000000000000000000003C
:102EF00000000000D7D60000000000000020000005
:102F00003F0031FFE03FC02038003030FE2033C6A4
:102F100060100200000C00001800001800000C00F7
:102F200007FFE03FFFE0000400000C00000C000081
:102F30000000000000000000000000000000CFD4EE
:102F400000000000000007FF000F03C00C00401F3E
:102F5000F8601800600800400E01C007FF00000084
:102F6000000184000184001987800F8CE0078C2009
:102F700000CC0003FFE01FFFC000000000000000C5
:102F80000000000000000000CABE000000000000B9
:102F90000E00001FFFC0007FE000000000000000E6
:102FA0000000000000003FC03FFFE00030000030A4
:102FB000000030000613000C13C00C18F0181800A5
:102FC00018180000000000000000000000000000D1
:102FD0000000CDBC00000000000007FF000F0380D0
:102FE0001CC0C019FC6011C66033062033E63036C1
:102FF000FF30301FF030703030FC30339F303600FF
:103000002010E060187C400E01C003FF0000380073
:10301000000000000000000000000000C6AC00003E
:103020000000000008180018080018080018080020
:10303000180C201FFFF01FF80018000010000010EF
:10304000F8001FFE001E0300100300100300100311
:103050000010030018020000000000000000000043
:10306000000000000000CFD400000000000007FFB7
:10307000000F03C00C00401FF860180060080040FB
:103080000E01C007FF000000000184000184001948
:1030900087800F8CE0078C2000CC0003FFE01FFF2F
:1030A000C000000000000000000000000000000060
:1030B000CABE0000000000000E00001FFFC0007F1D
:1030C000E0000000000000000000000000003FC021
:1030D0003FFFE00030000030000030000613000C1D
:1030E00013C00C18F0181800181800000000000099
:1030F00000000000000000000000B4A50000000077
:1031000000000601800FC1801E6180304FC020CFBB
:10311000E0078D303FC9303379303379303FFB30B1
:1031200037FF203267E03FE3803FE3C03263603225
:1031300067F0304FB0000000000000000000000009
:1031400000000000C3FE0000000000000030C000CE
:10315000FFF00C79C00C1F800C7FE03FE0600CC0DA
:10316000300CFC3004C03007C0301E60603C3FC0F3
:10317000041C00047FE000FFE00030C0006060003D
:103180000000000000000000000000000000CAE491
:103190000000000000000C03800C0FC0081C703FF2
:1031A00070001F9FC0101FC0100000367C3017E653
:1031B000301FE3B0067FB00277F007E3F03F7FF007
:1031C0001336F00326300326300000000000000014
:1031D0000000000000000000C8EB0000000000003C
:1031E00006000003800001C00000E0000070000045
:1031F000780000CC0000C6000183000301800700B6
:10320000C00600E00C00701800301800003000000C
:1032100000000000000000000000000000000000AE
:10322000000000000000000000000000000000009E
:10323000000000000000000000000000000000008E
:10324000000000000000000000000000000000007E
:10325000000000000000000000000000000000006E
:103260000000000000000000000000008C32000898
:1032700000000020280000009E140008B43200085E
:1032800028000020C8040000AE140008000102035A
:1032900004050607080900000000010203040102FA
:1032A00003040607080900000000000000000000F9
:0432B000000000001A
:040000050800018965
:00000001FF
