:020000040800F2
:10000000D0110020050100086D7900086F79000803
:1000100073790008777900087B79000800000000F8
:100020000000000000000000000000007F790008D0
:1000300081790008000000008379000885790008B4
:100040001F0100081F0100081F0100081F01000810
:100050001F0100081F0100081F0100081F01000800
:100060001F0100081F0100081F0100081F010008F0
:100070001F0100081F0100081F0100081F010008E0
:100080001F0100081F0100081F0100081F010008D0
:100090001F0100081F0100081F0100081F010008C0
:1000A0001F0100081F0100081F0100081F010008B0
:1000B0001F0100081F0100081F0100081F010008A0
:1000C0001F0100081F0100081F0100081F01000890
:1000D0001F0100081F0100081F0100081F01000880
:1000E000B17900081F0100081F010008DFF810D0D7
:1000F0000AF018FF004800470D750008AFF30080B4
:10010000D01100200648804706480047FEE7FEE77A
:10011000FEE7FEE7FEE7FEE7FEE7FEE7FEE7FEE7B7
:1001200007020008ED0000080CB5002001900090C7
:100130006C48006840F480306A49086000BF694834
:10014000006800F4003000900198401C0190009875
:1001500018B90198B0F5A06FF1D16248006800F4B9
:10016000003010B10120009001E0002000900098C4
:10017000012843D15C48006840F010005A490860EB
:100180000846006820F0030008600846006840F058
:100190000200086053484068524948600846406879
:1001A00048600846406840F48060486008464068FF
:1001B00020F47C1048600846406840F4E81048602D
:1001C0000846006840F08070086000BF454800683D
:1001D00000F000700028F9D04248406820F0030089
:1001E000404948600846406840F00200486000BF4F
:1001F0003C48406800F00C000828F9D10CBD10B54F
:10020000FFF792FF10BD10B53648006840F00100BE
:10021000344908600846406834490840314948601C
:1002200008460068324908402E49086008460068C0
:1002300020F4802008600846406820F4FE004860F2
:100240004FF41F008860FFF7DAFF4FF00060294984
:10025000086010BD10B5002100200022214B5B6812
:1002600003F00C0121B1042906D0082928D107E0A8
:10027000214B224C236027E01F4B204C236023E0BE
:10028000184B5B6803F47010164B5B6803F4803204
:10029000022303EB904022B9194B4343174C2360D0
:1002A0000DE0104B5B6803F4003323B1144B434360
:1002B000124C236003E0104B4343104C236003E0D7
:1002C0000D4B0E4C236000BF00BF064B5B68C3F3B1
:1002D00003130C4CE15C094B1B68CB40074C2360BB
:1002E00010BD000000100240002002400000FFF896
:1002F000FFFFF6FE08ED00E000127A00000000208B
:1003000000093D000400002031490143314A1160D9
:10031000704770B5002100230F22C47804B32D4C20
:10032000246804F4E064C4F5E064210AC1F1040324
:10033000CA40447804FA03F1847814402143090147
:10034000254C0678A155047804F01F050124AC4023
:1003500005786D11AD0005F1E025C5F8004109E013
:10036000047804F01F050124AC401C4D067876117A
:1003700045F8264070BD1A4A0A400243154B1B1F20
:100380001A60704739B1134A121D12680243114BAB
:100390001B1D1A6006E00F4A121D126882430D4BA6
:1003A0001B1D1A607047042808D14FF0E02109692D
:1003B00041F004014FF0E022116107E04FF0E0212D
:1003C000096921F004014FF0E0221161704700003B
:1003D0000000FA050CED00E000E400E080E100E040
:1003E00080FFFF1F002044490860091D0860091DA7
:1003F0000860091D086041483F4914310860704792
:1004000000213D498279002A3AD00A4612680368E1
:100410009A430B461A600A1D126803689A430B1D23
:100420001A60027911440A6803681A430A60324A62
:100430000832126803689A432F4B08331A601A1D5A
:10044000126803689A432C4B0C331A604279102AC5
:100450000ED11A1F126803681A43274B08331A601B
:100460001A1D126803681A43234B0C331A600DE0FF
:100470002149427911440A6803681A430A6005E079
:10048000027911440A6803689A430A6070470021A0
:10049000016001710C214171002181717047164981
:1004A000103109680143144A103211607047014647
:1004B0000020114A143212680A400AB1012000E0FB
:1004C000002070470C491431086070470146002035
:1004D0000022094B1B6803EA0102074B14331B6817
:1004E0000B4013B10AB1012000E00020704702491F
:1004F000143108607047000000040140FFFF0F0046
:1005000010B50446CC48844208D10121042000F0F3
:100510002FFD0021042000F02BFD46E0C748844257
:1005200008D10121082000F023FD0021082000F05F
:100530001FFD3AE0C248844208D10121102000F09A
:1005400017FD0021102000F013FD2EE0BD4884426D
:1005500008D10121202000F00BFD0021202000F017
:1005600007FD22E0B848844208D10121402000F074
:10057000FFFC0021402000F0FBFC16E0B348844261
:1005800008D10121802000F0F3FC0021802000F040
:10059000EFFC0AE0AE48844207D10121801500F04B
:1005A000E7FC0021A01500F0E3FC10BD10B501210F
:1005B000084600F0DDFC0021012000F0D9FC10BD50
:1005C0002DE9F041024600250026002000230024EA
:1005D000002791F803C00CF00F0591F803C00CF050
:1005E000100CBCF1000F03D091F802C04CEA0505D5
:1005F00091F800C0BCF1000F31D0146800202BE04E
:100600004FF0010C0CFA00F3B1F800C00CEA03063D
:100610009E4220D183004FF00F0C0CFA03F7BC432D
:1006200005FA03FC4CEA040491F803C0BCF1280F5E
:1006300006D14FF0010C0CFA00FCC2F814C00AE01D
:1006400091F803C0BCF1480F05D14FF0010C0CFA32
:1006500000FCC2F810C0401C0828D1D31460B1F8C7
:1006600000C0BCF1FF0F34DD546800202EE000F123
:10067000080C4FF0010808FA0CF3B1F800C00CEABE
:1006800003069E4221D183004FF00F0C0CFA03F7B2
:10069000BC4305FA03FC4CEA040491F803C0BCF126
:1006A000280F05D100F1080C08FA0CF8C2F81480E4
:1006B00091F803C0BCF1480F07D100F1080C4FF0CE
:1006C000010808FA0CF8C2F81080401C0828CED3A4
:1006D0005460BDE8F0814FF6FF7101800221817006
:1006E0000421C17070470246002093680B400BB193
:1006F000012000E0002070470146886880B2704702
:1007000002460020D3680B400BB1012000E000201E
:1007100070470146C86880B2704701617047416107
:1007200070470AB1016100E041617047C1607047E4
:100730004FF480320A4382618161826182698269F9
:10074000704702460020434B18684FF680731840EC
:1007500040EA021008433F4B186070473E49C861A9
:100760007047F0B50A46002300240021002500F060
:100770000046B6F1004F02D1364EF16901E0354E28
:100780007168C0F3034583B200F44016B6F5401F0C
:1007900008D121F070612F4E766826F070662D4FDB
:1007A0007E6012E000F48016B6F5801F06D10326A5
:1007B00006FA05F4A14341F0706106E0460D3601EA
:1007C00003FA06F6B14341F0706122B1460D3601DD
:1007D00003FA06F6314300F00046B6F1004F02D1AD
:1007E0001C4EF16101E01B4E7160F0BD30B500227E
:1007F0008B071C0F0F2303FA04F2164B08338C10DF
:1008000053F824309343134C08348D1044F82530AA
:1008100023468C1053F824308C07240F00FA04F47C
:1008200023430C4C08348D1044F8253030BD0A4960
:10083000DC3108607047000000080140000C0140F6
:10084000001001400014014000180140001C01404C
:1008500000200140000001400000204210B5044685
:10086000F748844209D10121480500F08EFB0021A0
:100870004FF4001000F089FB08E00121880500F02A
:1008800084FB00214FF4800000F07FFB10BD2DE9B8
:10089000F04385B004460D460026B1460427DFF834
:1008A000A483A6884FF6C0700640684600F0D9FAC7
:1008B000DDF80880E448B8FBF0F01FFA80F946EA5A
:1008C0000906A68020884FF6FE7108402080002689
:1008D000DE49286888420CD828684000B8FBF0F050
:1008E00087B2042F00DA04273E4309F10100208477
:1008F00027E0E8884BF6FF71884206D1286800EBB4
:100900004000B8FBF0F087B209E0286800EBC001B6
:1009100001EB0010B8FBF0F087B247F48047C7F353
:100920000B0008B947F0010747F4004006434FF4B5
:10093000967009FB00F04FF47A7190FBF1F0401CC7
:100940002084A683208840F00100208026884FF66E
:10095000F5300640A8886989084306432680A8899F
:1009600029890843208105B0BDE8F08341F2883130
:100970000160002181804BF6FF71C180002101815F
:1009800041814FF480418181704721B1028842F05A
:100990000102028004E002884FF6FE731A400280D2
:1009A000704721B1828842F40062828004E082882C
:1009B0004FF2FF731A408280704721B1828842F45F
:1009C0008052828004E082884EF6FF731A40828053
:1009D000704721B1028842F48072028004E00288EC
:1009E0004FF6FF631A400280704721B1028842F43B
:1009F0000072028004E002884FF6FF531A40028022
:100A0000704721B1028842F48062028004E00288CB
:100A10004FF6FF331A40028070470A460021818951
:100A20004FF60173194002F0FE03194381817047AC
:100A300021B1828942F00102828104E082894FF66D
:100A4000FE731A408281704721B1028842F0400251
:100A5000028004E002884FF6BF731A40028070479C
:100A60001AB183880B43838002E083888B438380A1
:100A70007047018270470146088AC0B2704712B1C0
:100A800041F0010102E04FF6FE7319400182704708
:100A900008B502460020009000920098084400909B
:100AA0000098008808BD21B1028842F4004202800B
:100AB00003E00288C2F30E0202807047B1F5006FB6
:100AC00004D1028842F40062028004E002884FF2FE
:100AD000FF731A4002807047B1F5005F04D10288AD
:100AE00042F40052028004E002884DF6FF731A407F
:100AF0000280704721B1028842F48052028004E0F3
:100B000002884EF6FF731A4002807047B1F5006FFD
:100B100004D1028842F40062028004E002884FF2AD
:100B2000FF731A400280704721B1028842F0200210
:100B3000028004E002884FF6DF731A40028070479B
:100B40000146088B0012704721B1028842F0100262
:100B5000028004E002884FF6EF731A40028070476B
:100B600021B9028842F08002028004E002884FF638
:100B70007F731A4002807047B1F5804F05D0828B99
:100B80004BF6FF731A40828303E0828B42F480426B
:100B90008283704770B502460024002500230020A0
:100BA000958A138B1B0445EA030626F07F4404EA6A
:100BB00001068E4201D1012000E0002070BD10B579
:100BC00001460020002300228B8A0A8B120443EA8C
:100BD000020424F07F4010BD0CB502460020002323
:100BE0000193009300920B0F019321F07F41019B31
:100BF0001BB1009B1433009303E0090C009B1833D6
:100C00000093009B1B680B400BB1012000E000200B
:100C10000CBD002221F07F42D3438382704730B560
:100C2000024600200023948801F0E06504EA1543A1
:100C300021F07F41948A0C4054B14BB1012008E06F
:100C40000054004000127A0040420F00A0860100CC
:100C5000002030BD002221F07F42D34383827047C1
:100C6000DF48006840F00100DD4908600846406840
:100C7000DC490840DA49486008460068DA4908401B
:100C8000D74908600846006820F4802008600846BC
:100C9000406820F4FE0048604FF41F0088607047F1
:100CA000CF49096821F48031CD4A116011460968A5
:100CB00021F480211160B0F5803F03D0B0F5802F82
:100CC0000ED106E0C649096841F48031C44A11607A
:100CD00007E0C349096841F4A021C14A116000E05E
:100CE00000BF00BF704710B501460022002300205E
:100CF0004A11012A02D1BA4C236806E0022A02D125
:100D0000B74C236A01E0B64C636A01F01F0201246C
:100D100094401C400CB1012000E0002010BD38B50B
:100D2000002000900024002500BF3120FFF7DBFFEA
:100D300005460098401C00900098B0F5A06F01D0C7
:100D4000002DF2D03120FFF7CEFF08B1012400E0E2
:100D50000024204638BD01460020A14A106820F03A
:100D6000F80040EAC10010607047A0490860704771
:100D7000024600209A4B586820F47C1042EA010396
:100D80001843974B5860704798490866704701466A
:100D90000020934A506820F00300084350607047D9
:100DA0008F48406800F00C007047014600208C4AD4
:100DB000506820F0F0000843506070470146002062
:100DC000874A506820F4E06008435060704701464D
:100DD0000020834A506820F4605040EAC10050600F
:100DE000704729B17E4A527A02437D4B5A7204E021
:100DF0007B4A527A82437A4B5A7270477B49D83188
:100E00000860704701460020754A506820F4404051
:100E10000843506070470021714A20321170704AB7
:100E200082F82010012802D004280AD104E0012110
:100E30006B4A2032117005E00521694A2032117099
:100E400000E000BF00BF704769490860704764490F
:100E5000096A0143624A1162704765494439086072
:100E6000704730B500210022002400235C4D6D68DE
:100E700005F00C0121B1042905D0082923D105E092
:100E80005C4D056022E05B4D05601FE0544D6D68D0
:100E900005F47012524D6D6805F48034022505EB9F
:100EA00092421CB9544D554305600BE04C4D6D68A2
:100EB00005F400351DB1504D5543056002E04D4D20
:100EC0005543056002E04B4D056000BF00BF444D37
:100ED0006D6805F0F0010909484D6B5C0568DD405F
:100EE00045603F4D6D6805F4E061090A434D6B5C58
:100EF0004568DD4085603A4D6D6805F46051C90A6A
:100F00003E4D6B5C4568DD40C560354D6D6805F450
:100F10004041890B3A4D6B5CC568B5FBF3F5056143
:100F200030BD29B12E4A526902432D4B5A6104E06B
:100F30002B4A526982432A4B5A61704729B1284A89
:100F400092690243264B9A6104E0254A92698243E2
:100F5000234B9A61704729B1214AD2690243204B41
:100F6000DA6104E01E4AD26982431D4BDA617047A0
:100F700029B11B4AD2680243194BDA6004E0184ACF
:100F8000D2688243164BDA60704729B1144A12695D
:100F90000243134B1A6104E0114A12698243104B59
:100FA0001A61704712494039086070470F49C86498
:100FB00070470B49C87170470948406A40F080701B
:100FC00007494862704701460020054A92680A4076
:100FD0000AB1012000E00020704701498872704783
:100FE000001002400000FFF8FFFFF6FE0000424242
:100FF0008004424200127A0000093D0014000020E3
:101000002400002010B50446FB48844209D1012188
:101010008803FFF7ADFF00214FF48040FFF7A8FFE2
:1010200032E0F648844209D101214804FFF7ADFFC0
:1010300000214FF40030FFF7A8FF25E0F04884427C
:1010400009D101218804FFF7A0FF00214FF480207F
:10105000FFF79BFF18E0EB48844209D10121C80447
:10106000FFF793FF00214FF40020FFF78EFF0BE006
:10107000E548844208D101210805FFF786FF0021D9
:101080004FF48010FFF781FF10BD2DE9F04786B0C7
:1010900005460E460024A24600BFA1460027B0899F
:1010A00000B100BF2F462C8A4CF6FF700440F08838
:1010B00004432C82AC894EF6F3100440B088318989
:1010C0000843718908430443AC81AC8A4FF6FF4062
:1010D0000440B0890443AC8201A8FFF7C2FEC648B1
:1010E000874202D1DDF810A001E0DDF80CA0A8894C
:1010F00000F4004040B10AEBCA0000EB0A1031686E
:101100004900B0FBF1F807E00AEBCA0000EB0A1057
:1011100031688900B0FBF1F86420B8FBF0F00401FD
:101120002009642101FB1089A88900F4004040B126
:10113000322000EBC900B0FBF1F000F007000443DF
:1011400008E0322000EB09106421B0FBF1F000F060
:101150000F0004432C8106B0BDE8F0874FF4165110
:10116000016000218180C18001810C214181002129
:101170008181704710B502460020108A4FF2FF03AC
:1011800018400B884C8823438C882343CC88234306
:101190001843108210BD0021018041808180C180F0
:1011A000704721B1828942F40052828104E0828931
:1011B0004DF6FF731A4082817047F0B50346002454
:1011C00000260025002040F66A17B94200D100BF72
:1011D0001846C1F3421401F01F06012707FA06F56D
:1011E000012C01D10C3004E0022C01D1103000E0C0
:1011F00014301AB107682F43076002E00768AF4355
:101200000760F0BD1AB1838A0B43838202E0838AB0
:101210008B4383827047028A4FF6F0731A40028232
:10122000028A0A430282704782894FF2FF731A4092
:10123000828182890A438281704721B1828942F08A
:101240000202828104E082894FF6FD731A40828196
:101250007047028A4FF6DF731A400282028A0A43FD
:101260000282704721B1028A42F48042028204E085
:10127000028A4BF6FF731A4002827047C1F30802DC
:101280008280704701468888C0F3080070478189D2
:1012900041F0010181817047028BD2B20283028B3F
:1012A00042EA012202837047028B02F47F420283EA
:1012B000028B0A430283704721B1828A42F02002E6
:1012C000828204E0828A4FF6DF731A40828270477E
:1012D00021B1828A42F01002828204E0828A4FF6B3
:1012E000EF731A408282704721B1828A42F008026D
:1012F000828204E0828A4FF6F7731A408282704736
:1013000021B1828942F40042828103E08289C2F3E2
:101310000E028281704721B1828A42F40062828289
:1013200004E0828A4FF2FF731A4082827047828AF9
:101330004FF6FB731A408282828A0A438282704788
:1013400021B1828A42F00202828204E0828A4FF650
:10135000FD731A408282704702460020B1F5007F7B
:1013600000D100BF13880B400BB1012000E000202A
:10137000704701F40072B2F5007F00D100BFCA438C
:101380000280704770B5024600240023002500202B
:1013900040F66A16B14200D100BFC1F3421501F018
:1013A0001F03012606FA03F3012D02D1968933406B
:1013B00006E0022D02D1168A334001E0968A3340BE
:1013C0000C12012606FA04F41688344013B10CB14D
:1013D000012000E0002070BD10B50022002340F67F
:1013E0006A14A14200D100BF0A1201249440A3B2A2
:1013F000DC43048010BD0000003801400044004080
:1014000000480040004C00400050004038B5044601
:10141000F84890F82400C0B114B10220009001E017
:1014200000200090F34A1268517CF24A526810780A
:101430006B46012206F060FB10B14FF0FF3038BD63
:101440009DF80010EB48417423E0EA48807A10B917
:101450004FF0FF30F3E724B1E648407C08B10020AC
:10146000EDE714B10120009001E000200090E14A76
:101470001268517CDF4A526810786B46012206F0F0
:101480003BFB10B14FF0FF30D9E79DF80010D94871
:1014900041740020D3E71CB5002422E0D548006841
:1014A000407BA04204D0D3480068007EA04200D117
:1014B00015E0D0494968087801AB0122214606F0C1
:1014C0000DFB10B14FF0FF301CBD9DF8040023460A
:1014D000C9A200210090042002F0C8FD00BF601CDA
:1014E000C4B2C44840680079A042D7DC0020EBE7D2
:1014F00070B504460D46BF480068407BA04204D04A
:10150000BC480068007EA04202D14FF0FF3070BDA1
:10151000B84840680079A04202DC4FF0FF30F6E79F
:10152000B449496808782B460122214606F0D6FACC
:10153000EDE738B50446AF4890F82300A04201D14A
:10154000002038BD14B13020009001E00020009050
:10155000A848807C20B19DF8000040F00200009077
:10156000A44890F8220020B19DF8000040F08000CF
:101570000090A04A1268D17D9E4A526810786B464E
:10158000012206F0B9FA10B14FF0FF30D9E79948BF
:1015900080F823400020D4E738B5044604F07000FA
:1015A00010B10120009005E014B10020009001E08E
:1015B000402000908F4A1268517D8E4A5268107800
:1015C0006B46012206F098FA20B100218948817209
:1015D000481E38BD9DF8000020F040018548017389
:1015E0000020009004F0400020B99DF8000040F079
:1015F0000400009004F0200020B99DF8000040F0A5
:101600000200009004F0100020B99DF8000040F0A6
:101610000100009004F0080020B99DF8000040F09F
:1016200038000090734A1268917D724A52681078AF
:101630006B46012206F060FA20B100216D488172EC
:10164000481EC6E724B1082C02D00020FFF771FF26
:101650006848847200210175322006F017FA0020D4
:10166000B7E738B504466348807CA04201D100202A
:1016700038BD002C46D05F4A126811795D4A526825
:1016800010786B46012206F029FA10B14FF0FF30B6
:10169000EEE79DF8000020F020000090554A126807
:1016A0001179544A526810786B46012206F024FAE8
:1016B00010B14FF0FF30DBE7032006F0E7F902201E
:1016C00000904C4890F8220020B19DF8000040F0B6
:1016D00080000090474890F8230020B19DF800005A
:1016E00040F030000090434A1268D17D414A526870
:1016F00010786B46012206F0FFF9002851D04FF018
:10170000FF30B5E73B4A126811793A4A52681078BF
:101710006B46012206F0E2F910B14FF0FF30A7E767
:101720003448807A00F0010028B19DF8000040F0B4
:101730002000009004E09DF8000020F020000090C0
:101740002C4A126811792B4A526810786B46012294
:1017500006F0D2F910B14FF0FF3089E7032006F010
:1017600095F9244890F8220010B18020009001E003
:10177000002000901F4890F8230020B19DF8000041
:1017800040F0300000901B4A1268D17D194A52681F
:1017900010786B46012206F0AFF910B14FF0FF3020
:1017A00066E714488474002062E708B51148807A1F
:1017B00010B94FF0FF3008BD002000900D4A1268AC
:1017C000517C0C4A526810786B46012206F094F95D
:1017D00010B14FF0FF30EEE7064A12685179054A22
:1017E000526810786B46012206F086F960B14FF01E
:1017F000FF30E0E728000020252335783A20252314
:1018000035780D0A00000000F84A12681179F74A8D
:10181000526810786B46012206F06EF910B14FF055
:10182000FF30C8E7F14890F82400002853D00C207E
:101830000090EE4A12681179EC4A526810786B46B3
:10184000012206F059F910B14FF0FF30B3E7322012
:1018500006F01CF9C0200090E448807A00F00100F6
:1018600020B19DF8000040F020000090DF4A12688F
:101870001179DE4A526810786B46012206F03CF975
:1018800010B14FF0FF3096E7D848407C10B10220ED
:10189000009001E000200090D44A1268517CD34AA5
:1018A000526810786B46012206F026F910B14FF00D
:1018B000FF3080E700200090CC4A12685179CB4A73
:1018C000526810786B46012206F016F9002855D0B0
:1018D0004FF0FF306FE704200090C44A126811797E
:1018E000C24A526810786B46012206F005F910B121
:1018F0004FF0FF305FE7BD48807C20B9BB48807A5D
:1019000000F0010010B94020009001E0602000903C
:10191000B64A12681179B54A526810786B460122AE
:1019200006F0EAF810B14FF0FF3044E7322006F03D
:10193000ADF8AE48407C10B10120009001E00020DD
:101940000090AA4A1268517CA84A526810786B46E7
:10195000012206F0D1F810B14FF0FF302BE7A34A77
:1019600012685179A14A52681078A04B10330122B5
:1019700006F0C2F810B14FF0FF301CE700201AE764
:1019800070B50446002624F00104984890F824001D
:1019900008B1002070BD9548807A10B94FF0FF3033
:1019A000F8E79248057C807A204090490874084600
:1019B000007CA04202D04FF0FF3600E0002614B9B0
:1019C0008A48007D18B10120FFF720FD02E00020C9
:1019D000FFF71CFD3CB1FFF7E8FE20B1834805741A
:1019E0004FF0FF30D6E73046D4E738B504467F489D
:1019F000807A10B94FF0FF3038BDBC2C02DB0120DB
:101A0000009015E0622C02DB0220009010E02A2CEE
:101A100002DB032000900BE0142C02DB042000907A
:101A200006E00A2C02DB0520009001E00620009071
:101A30006E48C07A9DF80010884201D10020DBE793
:101A40006A4A12689178694A526810786B46012296
:101A500006F052F810B14FF0FF30CDE79DF80010BE
:101A60006248C1720020C7E738B50446282C02DD61
:101A70004FF0FF3038BDDCB90020FFF75AFD0020E1
:101A80008DF8000007208DF80100584A1268517D3A
:101A9000564A526810786B46022206F02DF810B1B3
:101AA0004FF0FF30E6E70021504801750020E1E7E4
:101AB0000120FFF73EFD20208DF80000012C06D10B
:101AC00000208DF801000520FFF78FFF17E0052C9F
:101AD00006DC01208DF801000520FFF786FF0EE0EF
:101AE000142C06DC02208DF801000A20FFF77DFF90
:101AF00005E003208DF801001420FFF776FF9DF824
:101B00000100072101EB8010C0B28DF80100374AB7
:101B10001268517D354A526810786B46022205F0F2
:101B2000EBFF10B14FF0FF30A4E708212F4881727E
:101B300000210173012101750020FFF721FF002022
:101B400098E738B504462948807A10B94FF0FF303D
:101B500038BD264890F8240010B14FF0FF30F7E769
:101B60002248007D50B134B1282C04DC2046FFF718
:101B70007BFF0020ECE70020FFF776FF042C01DA62
:101B8000042404E0B4F57A7F01DD4FF47A744FF455
:101B90007A7090FBF4F0401EC0B20090134A1268B5
:101BA0005178124A526810786B46012205F0A4FF62
:101BB00010B14FF0FF30CBE79DF80000401C4FF410
:101BC0007A7191FBF0F081B20848C1810146C98960
:101BD0004810FFF70AFF0020BAE738B5044603486B
:101BE000807A28B94FF0FF3038BD0000280000206F
:101BF000022C06D0042C07D0082C08D0102C0CD1B5
:101C000008E0002000900BE00820009008E0102081
:101C1000009005E01820009002E04FF0FF30E3E76D
:101C200000BFF748407A9DF80010B0EBE10F01D1FA
:101C30000020D9E7F24A1268D179F14A5268107847
:101C40006B46012205F058FF10B14FF0FF30CBE793
:101C50009DF80000C110EA4841720020C4E738B581
:101C60000446E748807A10B94FF0FF3038BDFA2CAF
:101C700009D0B4F5FA7F09D0B4F57A7F09D0B4F56C
:101C8000FA6F0CD108E0002000900BE008200090D3
:101C900008E01020009005E01820009002E04FF0CE
:101CA000FF30E3E700BFD648007A9DF80010B0EBA4
:101CB000E10F01D10020D9E7D14A12689179D04AC9
:101CC000526810786B46012205F016FF10B14FF0F4
:101CD000FF30CBE79DF80000C010C9490872002012
:101CE000C4E71CB5044680208DF80000C44A126881
:101CF000517DC34A526810786B46012205F0FCFE04
:101D000010B14FF0FF301CBD642005F0BFFE002075
:101D10008DF80000BA4A1268517DB94A52681078AD
:101D20006B46012205F0E8FE10B14FF0FF30EAE704
:101D30000021B348C174FF218172FF20B0490872AD
:101D4000FF21AF484172C1724FF6FF71C181FF217F
:101D5000017481740121017380F82210002180F840
:101D6000231041750175163001604160816016389D
:101D700080F8241080F82510C1844FF4FA60FFF732
:101D80006EFF10B14FF0FF30BDE70220FFF725FFD7
:101D900010B14FF0FF30B6E72A20FFF726FE10B152
:101DA0004FF0FF30AFE73220FFF7CBFE10B14FF01E
:101DB000FF30A8E70020FFF7E3FD10B14FF0FF3040
:101DC000A1E70020FFF74DFC10B14FF0FF309AE77C
:101DD0000020FFF7E1FB002095E77CB504460D46A7
:101DE0008748807A00F0700010B94FF0FF307CBD5A
:101DF000834A1268917B824A526810786B460622A9
:101E000005F06CFE10B14FF0FF30F0E79DF80100D7
:101E10009DF8001040EA012000B220809DF80300E8
:101E20009DF8021040EA012000B260809DF8050094
:101E30009DF8041040EA012000B2A08015B12846A8
:101E400005F02CFE0020D2E77CB504460D466C4818
:101E5000807A00F0080010B94FF0FF307CBD684A6E
:101E60001268D17B664A526810786B46062205F0EC
:101E700035FE10B14FF0FF30F0E79DF801009DF8FE
:101E8000001040EA012000B220809DF803009DF878
:101E9000021040EA012000B260809DF805009DF824
:101EA000041040EA012000B2A08015B1284605F0D8
:101EB000F5FD0020D2E72DE9FE4F05460C465048BF
:101EC000807A18B94FF0FF30BDE8FE8F4C4A126897
:101ED000117C4B4A5268107802AB022205F0FEFDDD
:101EE00010B14FF0FF30EFE79DF809009DF80810A2
:101EF00040EA012006B214B1204605F0CFFD40496A
:101F00004968C88808F05FFD3D4901904968B1F90A
:101F1000080008F04FFD8346304608F04BFD594657
:101F2000009008F026FB8246019908F05AFB814692
:101F3000344908F0CCFA80464FF08F4108F01FFB7F
:101F4000074608F06CFD28600020BDE71CB504467C
:101F50002B49496808786B460222772105F0BEFDBF
:101F600010B14FF0FF301CBD2549496808780DF1CC
:101F7000020302227A2105F0B1FD10B14FF0FF30CB
:101F8000F1E71F494968087801AB02227D2105F07D
:101F9000A5FD10B14FF0FF30E5E79DF801009DF879
:101FA000001040EA012020609DF803009DF8021017
:101FB00040EA012060609DF805009DF8041040EAA9
:101FC0000120A0600020CEE71CB504460C494968FA
:101FD00008786B460222062105F080FD10B14FF013
:101FE000FF301CBD0649496808780DF10203022242
:101FF000082105F073FD38B14FF0FF30F1E7000024
:102000002800002000000C42F7494968087801AB1D
:1020100002220A2105F062FD10B14FF0FF30E0E727
:102020009DF801009DF8001040EA012020609DF815
:1020300003009DF8021040EA012060609DF8050051
:102040009DF8041040EA0120A0600020C9E71CB5FB
:102050000446E549496808786B460222132105F0D9
:102060003DFD10B14FF0FF301CBDDF4949680878D5
:102070000DF102030222152105F030FD10B14FF0E1
:10208000FF30F1E7D8494968087801AB02221721EF
:1020900005F024FD10B14FF0FF30E5E79DF8010099
:1020A0009DF8001040EA012020609DF803009DF893
:1020B000021040EA012060609DF805009DF80410C0
:1020C00040EA0120A0600020CEE77CB50446002055
:1020D00000900190002500BF05E054F82500404223
:1020E00044F825006D1C032DF7DB2088000A8DF8CD
:1020F000000020788DF80100A088000A8DF8020009
:1021000020798DF803002089000A8DF80400207AD8
:102110008DF80500B449496808786B4602221321FE
:1021200005F0EAFC10B14FF0FF307CBDAE494968C4
:1021300008780DF102030222152105F0DDFC10B133
:102140004FF0FF30F1E7A8494968087801AB022257
:10215000172105F0D1FC10B14FF0FF30E5E700206A
:10216000E3E710B586B00446002004900590019086
:102170000290039001A8FFF727FF18B14FF0FF303E
:1021800006B010BD0198216821F00101401A0190AC
:102190000298616821F00101401A02900398A16839
:1021A00021F00101401A03900198000A8DF81000F7
:1021B0000198C0B28DF811000298000A8DF8120043
:1021C0000298C0B28DF813000398000A8DF814002D
:1021D0000398C0B28DF8150083494968087804ABAC
:1021E0000222062105F088FC10B14FF0FF30C7E74E
:1021F0007D49496808780DF112030222082105F093
:102200007BFC10B14FF0FF30BAE777494968087896
:1022100005AB02220A2105F06FFC10B14FF0FF3030
:10222000AEE70020ACE710B586B00446002004906D
:10223000059001900290039001A8FFF787FE18B166
:102240004FF0FF3006B010BD0198216821F0010168
:10225000401A01900298616821F00101401A029031
:102260000398A16821F00101401A03900198000A27
:102270008DF810000198C0B28DF811000298000A84
:102280008DF812000298C0B28DF813000398000A6E
:102290008DF814000398C0B28DF8150052494968B2
:1022A000087804AB0222772105F026FC10B14FF02C
:1022B000FF30C7E74C49496808780DF11203022244
:1022C0007A2105F019FC10B14FF0FF30BAE746490A
:1022D0004968087805AB02227D2105F00DFC10B19C
:1022E0004FF0FF30AEE70020ACE701463E48007AF1
:1022F00030B1012807D0022809D003280FD10AE005
:10230000FA2008800EE04FF4FA7008800AE04FF4DB
:102310007A70088006E04FF4FA60088002E000203E
:10232000088000BF00BF0020704701462E48407A59
:1023300030B1012807D0022808D003280CD108E0CA
:10234000022008700BE00420087008E008200870E4
:1023500005E01020087002E04FF0FF30704700BF2A
:102360002148C07C18B108784006000E0870002093
:10237000F4E701461C48C07A082817D2DFE800F0CD
:102380001704070A0D101318BC20088013E0622000
:10239000088010E02A2008800DE0142008800AE060
:1023A0000A20088007E00520088004E000BF00BF85
:1023B0000020088000BF00BF0020704701460A4887
:1023C00090F8240010B14FF0FF3070470648C089E4
:1023D00008800020F9E7014600200880401E704771
:1023E00001464FF0FF307047280000200146FE48AC
:1023F000007A30B1012807D0022808D003280CD178
:1024000008E0FA4808600BE0F948086008E0F9487D
:10241000086005E0F848086002E04FF0FF307047C0
:1024200000BF0020FBE70146EF48407A30B10128A9
:1024300008D002280AD0032810D10BE04FF48040C6
:1024400008800EE04FF4005008800AE04FF48050FE
:10245000088006E04FF40060088002E04FF0FF3093
:10246000704700BFE048C07C10B108884010088069
:102470000020F5E70146DC48007C0870002070472A
:102480000146D948807A10B10120087001E000208F
:1024900008700020704738B50446D348807A10B9D8
:1024A0004FF0FF3038BDD04A1268917CCE4A526856
:1024B00010786B46022205F011FB10B14FF0FF308F
:1024C000F0E79DF801009DF8001040EA012000B2FD
:1024D00020800020E6E72DE9FE4F07468846924619
:1024E0001D46DDF830B000260024BF4890F82400D7
:1024F00010B1601EBDE8FE8F00202870BA48807AB7
:1025000010B94FF0FF30F5E7B748007C10B94FF035
:10251000FF30EFE7B448007C00F0400008B1B01C89
:10252000C6B2B148007C00F0200008B1B01CC6B2B1
:10253000AD48007C00F0100008B1B01CC6B2AA483B
:10254000007C00F0080008B1B01DC6B2A64A1268AF
:10255000117BA54A526810786B46022205F0BEFA3C
:1025600010B14FF0FF30C5E79DF801009DF8001055
:1025700040EA0129B14501DA0020BBE79A484068EA
:102580004088B9EB600F17DD974A1268D17C964AF4
:10259000526810786B46012205F0A0FA10B14FF096
:1025A000FF30A7E79DF8000000F0100020B1FFF712
:1025B000FCF86FF001009DE7504605F06FFA8A4A7B
:1025C0001268517B884A526810786B46324605F093
:1025D00085FA10B14FF0FF308CE799FBF6F0401E02
:1025E0008BF8000000202870B4422AD07E48007C7E
:1025F00000F0080028B3601C1DF800001DF804104E
:1026000040EA012000B2A8F80000E01C1DF800100C
:10261000A01C1DF8000041EA002000B2A8F802004A
:10262000601D1DF80010201D1DF8000041EA00206B
:1026300000B2A8F80400287840F008002870A01D17
:1026400084B2B44213D06848007C00F0400070B1FE
:10265000601C1DF800001DF8041040EA012000B2C3
:102660003880287840F040002870A01C84B2B44222
:1026700013D05D48007C00F0200070B1601C1DF894
:1026800000001DF8041040EA012000B2788028788C
:1026900040F020002870A01C84B2B44213D05248ED
:1026A000007C00F0100070B1601C1DF800001DF8E7
:1026B000041040EA012000B2B880287840F01000F1
:1026C0002870A01C84B2002014E7F8B504460F4619
:1026D0001646454890F8240010B94FF0FF30F8BD79
:1026E0004148807A10B94FF0FF30F8E73E4A12684F
:1026F000117B3D4A526810786B46022205F0EEF9D4
:1027000010B14FF0FF30EAE79DF801009DF800108E
:1027100040EA0125A54203DA00203070401EDEE7C2
:10272000314840684088B5EB600F17DD2E4A1268CB
:10273000D17C2D4A526810786B46012205F0CEF903
:1027400010B14FF0FF30CAE79DF8000000F0100014
:1027500020B1FFF72AF86FF00100C0E7224A1268A3
:10276000517B214A526810783B46224605F0B6F963
:1027700010B14FF0FF30B2E795FBF4F0401E30701F
:102780000020ACE70146184880F82210002070476E
:102790007CB5054614494968087801AB04220D212F
:1027A00005F09CF908B107207CBD9DF80700C0F337
:1027B00001109DF8041001F0E00140EAE1008DF8FD
:1027C00000009DF80700C0F381009DF8051001F09E
:1027D000E00140EAE1008DF801009DF8070000F0FB
:1027E00003009DF8061009E02800002000000343C4
:1027F00000008342333303423333834101F0E0016D
:1028000040EAE1008DF8020000241CE01DF80400FD
:1028100018B9002045F8240013E0FC4845F82400CE
:1028200006E055F82400FA4907F0A9FE45F824000F
:102830001DF80400401EC0B20DF804000028F0D1BD
:1028400000BF601CC4B2032CE0DB0020ACE72DE924
:10285000F04F85B006468946002502A8FFF798FF8D
:1028600000244BE056F8240059F82410471A002F92
:1028700001DB394600E07942084608F09BF88046C3
:102880004FF08F4107F0ADFE824602A951F82400B7
:10289000002108F091F921D002A850F824105046E8
:1028A00007F09FFE07464FF07E5107F062FE834619
:1028B000D849486A08F020F907468846584608F083
:1028C0001BF921F000413A464346CDE9000108F0EA
:1028D0003FF912D20120A04005430EE0CD48C16966
:1028E000504608F069F905D3CA48016A504608F015
:1028F0006DF902D20120A0400543641C032CB1DB1A
:10290000284605B0BDE8F08F2DE9F04F85B00646AA
:102910000F460025C0494968087804AB03220D2101
:1029200005F0DCF818B1072005B0BDE8F08F9DF880
:10293000100000F01F008DF810009DF8110000F04D
:102940001F008DF811009DF8120000F01F008DF897
:102950001200002461E056F8240057F82410A0EB80
:10296000010BBBF1000F01DB594601E0CBF1000187
:10297000084608F01FF84FF08F41039007F031FE32
:10298000814604A8005DB8B3A249086808F01BF8A6
:1029900083465946A14807F024FE804604E0A0493A
:1029A000404607F0ECFD804604A8005D401EC0B222
:1029B00004A908550028F2D14146484607F011FE07
:1029C00083464FF07E5107F0D4FD824691498869D5
:1029D00008F092F8CDE90201504608F08DF821F098
:1029E0000041CDE90001DDE9022308F0B1F813D27E
:1029F0000120A04005430FE0FFE7864801694846F3
:102A000008F0DAF805D383484169484608F0DEF853
:102A100002D20120A0400543641C032C9BDB284606
:102A200082E72DE9F04F87B005460C46914601201C
:102A30008DF8100000208DF81100774A1268517D42
:102A4000754A5268107804AB022205F055F820B19F
:102A50004FF0FF3007B0BDE8F08FC82005F016F842
:102A600000208DF810006C4A1268517C6A4A526846
:102A7000107804AB012205F03FF810B14FF0FF30A1
:102A8000E8E7654A12685179634A5268107804ABE6
:102A9000012205F031F810B14FF0FF30DAE75E4A5D
:102AA0001268517D5C4A5268107804AB012205F02F
:102AB00023F810B14FF0FF30CCE7574A1268917EEF
:102AC000554A5268107804AB012205F015F810B190
:102AD0004FF0FF30BEE7504A126811794E4A5268F3
:102AE000107804AB012205F007F810B14FF0FF3069
:102AF000B0E70C208DF81000474A12681179464A59
:102B00005268107804AB012204F0F6FF10B14FF0C8
:102B1000FF309FE70F2004F0B9FF3F48806A407AFA
:102B20008DF810003C4A126891783B4A5268107840
:102B300004AB012204F0E0FF10B14FF0FF3089E751
:102B40003548806A007A8DF81000334A126851784F
:102B5000314A5268107804AB012204F0CDFF10B165
:102B60004FF0FF3076E7B9F1000F07D02A48806AAE
:102B7000807A40F0E0008DF8100004E02648806A7A
:102B8000807A8DF81000244A12689179224A52689E
:102B9000107804AB012204F0AFFF10B14FF0FF300A
:102BA00058E7B9F1000F07D01B48806AC07A40F09F
:102BB000E0008DF8100003E01648C07A8DF8100090
:102BC000154A1268D179144A5268107804AB012270
:102BD00004F092FF10B14FF0FF303BE7B9F1000F66
:102BE00002D0C82004F052FF40208DF810000A4A9D
:102BF00012681179084A5268107804AB012204F077
:102C00007BFF78B14FF0FF3024E700007B14AE3E2D
:102C10001D5A843FBCC500082800002000B04C4568
:102C200054E3853F78208DF81000FE4A12685179F0
:102C3000FC4A5268107804AB012204F05DFF10B129
:102C40004FF0FF3006E7F849888904F01FFF0020A5
:102C50008DF81000F34A12685179F24A52681078E0
:102C600004AB012204F048FF10B14FF0FF30F1E651
:102C7000EC4A1268117BEB4A5268107804AB0222CE
:102C800004F02CFF10B14FF0FF30E3E69DF8110087
:102C90009DF8101040EA012B0C209BFBF0F0C6B20F
:102CA0000020A86068602860A060606020608246A4
:102CB00065E0DC4A1268517BDA4A5268107804AB4E
:102CC0000C2204F00BFF10B14FF0FF30C2E69DF86C
:102CD00011009DF8101040EA012000B2ADF8080084
:102CE0009DF813009DF8121040EA012000B2ADF8E3
:102CF0000A009DF815009DF8141040EA012000B26A
:102D0000ADF80C00BDF90810206808442060BDF93A
:102D10000A10606808446060BDF90C10A06808449F
:102D2000A0609DF817009DF8161040EA012000B23F
:102D3000ADF800009DF819009DF8181040EA012038
:102D400000B2ADF802009DF81B009DF81A1040EA91
:102D5000012000B2ADF80400BDF900102868084455
:102D60002860BDF90210686808446860BDF9041065
:102D7000A8680844A8600AF1010000F0FF0AB24503
:102D800097DBA948D0F800C02868C117090441EAB8
:102D90001041070462460023384607F007FB32461D
:102DA0000023CDE9020107F001FB28609E48D0F81E
:102DB00000C06868C117090441EA1041070462466F
:102DC0000023384607F0F2FA32460023CDE902012B
:102DD00007F0ECFA68609448D0F800C0A868C11702
:102DE000090441EA1041070462460023384607F00F
:102DF000DDFA32460023CDE9020107F0D7FAA860D8
:102E00008948D0F804C02068C117090441EA10417C
:102E1000070462460023384607F0C8FA324600230A
:102E2000CDE9020107F0C2FA20607F48D0F804C063
:102E30006068C117090441EA104107046246002393
:102E4000384607F0B3FA32460023CDE9020107F015
:102E5000ADFA60607448D0F804C0A068C1170904D6
:102E600041EA1041070462460023384607F09EFA03
:102E700032460023CDE9020107F098FAA060A0686D
:102E8000002804DDA068A0F58030A06003E0A06801
:102E900000F58030A0600020DCE538B504466148CC
:102EA00090F82400A04201D1002038BD24B35D4831
:102EB00090F8250010B94FF0FF30F6E70020FEF73C
:102EC000A5FA0020FEF7CDFB5649C88CFEF739FE67
:102ED000002000905349496808786B46012223215D
:102EE00004F00AFE01214F4880F824100120FEF76B
:102EF0008DFAFEF75AFC13E00020FEF787FA4948E6
:102F0000007C00904749496808786B4601222321DC
:102F100004F0F2FD0021434880F82410FEF745FC40
:102F20000020C2E72DE9F04F8DB083460F46022006
:102F30000C903C4890F8240020B10020FFF7ADFF32
:102F4000012600E0002603A8FFF7CFF905A8FFF748
:102F5000ECF901A8FFF70DFA02A8FFF72FFA3148A4
:102F600090F80AA004A8FFF785FA002407E00022E1
:102F700039465846FFF755FD00B902E0641C022CA3
:102F8000F5DB00BF022C01D100252AE0002407E078
:102F9000012206A909A8FFF744FD00B902E0641C5C
:102FA000022CF5DB00BF022C01D1002519E006A997
:102FB0003846FFF74CFC00F0FF0809A95846FFF718
:102FC000A3FC00F0FF090025B9F1000F01D145F085
:102FD0000105B8F1000F01D145F0020545F00405E7
:102FE00000BFFF200F490872FF210E484172C172D5
:102FF0004FF6FF71C181FF218172017401210173BC
:10300000BDF80C00FEF72BFE9DF81400FEF7E5FD61
:10301000BDF80400FEF7E9FCBDF80800FEF791FDDD
:10302000504603E028000020BCC50008FEF7B4FAB3
:103030009DF81000FEF7A4FC16B10120FFF72DFF4C
:1030400028460DB0BDE8F08FF8B504460D4616468B
:1030500016B94FF0FF30F8BDA648807A10B94FF08E
:10306000FF30F8E720128DF80000E0B28DF8010083
:103070009DF8010028449F4949684989884202DD3A
:103080004FF0FF30E7E79B4A1268D17E994A5268B9
:1030900010786B46022204F02FFD10B14FF0FF3084
:1030A000D9E7944A1268117E924A526810783346E2
:1030B0002A4604F021FD10B14FF0FF30CBE700208D
:1030C000C9E7F8B504460D46164616B94FF0FF306D
:1030D000F8BD8848807A10B94FF0FF30F8E7201229
:1030E0008DF80000E0B28DF801009DF80100284441
:1030F000804949684989884202DD4FF0FF30E7E79F
:103100007C4A1268D17E7B4A526810786B46022254
:1031100004F0F2FC10B14FF0FF30D9E7754A1268A5
:10312000117E744A5268107833462A4604F0D6FC61
:1031300010B14FF0FF30CBE70020C9E72DE9F04395
:1031400085B005460E46904699466A4890F8250097
:1031500020B14FF0FF3005B0BDE8F08316B94FF055
:10316000FF30F8E7002423E0281B102801DD1020A1
:1031700000E0281B87B2321939462046FFF764FF6A
:1031800010B14FF0FF30E6E701AA39462046FFF7BD
:1031900098FF10B14FF0FF30DDE730193A4601A932
:1031A00007F088F910B16FF00100D4E7E01984B29C
:1031B000AC42D9DB4FEA28208DF8000008F0FF0070
:1031C0008DF801004B4A1268517F4A4A52681078C4
:1031D0006B46022204F090FC10B14FF0FF30BAE7CA
:1031E0000121444880F82510A0F826900020B2E77D
:1031F0000146404890F824000870002070470246BD
:103200004FF0FF30704701464FF0FF30704770B508
:1032100006460C46154665B304B901243548407D81
:10322000002833D1334890F8240038B10020FFF74C
:1032300034FE01212F4880F8201003E000212D48A2
:1032400080F820102B481630FFF74FF82948183027
:10325000FFF76BF827481A30FFF78BF825481C302A
:10326000FFF7ACF82348817A81771F30FFF702F926
:103270000CE0204A1632002103E0505C00B106E069
:10328000491C0C29F9D34FF0FF3070BD00BFFF205F
:1032900018490872FF2117484172C1724FF6FF7139
:1032A000C181FF2181720174012101730146887F70
:1032B000FEF772F90F49C88AFEF7D1FC0D49087E66
:1032C000FEF78BFC0B49488BFEF78FFB0949888B77
:1032D000FEF737FC0749C87FFEF752FB054890F818
:1032E000200010B10120FFF7D8FD002101484175F1
:1032F0000020CAE72800002010B5C8234FF48062E0
:10330000F84940F6F630FFF719FF10BD10B586B04A
:103310000446F5A000680390F4A000680290F4A0B1
:1033200000680190F3A00068009004F0030003A976
:10333000085C8DF8140003A8C4F3C101405C8DF84B
:10334000150003A8C4F38111405C8DF8160004F049
:10335000030002A9085C8DF8100002A8C4F3C101A3
:10336000405C8DF8110002A8C4F38111405C8DF817
:10337000120005AA032140F22640FFF765FE18B1AE
:103380004FF0FF3006B010BD04AA032140F22A40DE
:10339000FFF75AFE10B14FF0FF30F3E701980590A8
:1033A0000098049004F0040058B19DF8140040F017
:1033B00001008DF814009DF8100040F001008DF818
:1033C000100004F0200058B19DF8150040F00100F5
:1033D0008DF815009DF8110040F001008DF81100E6
:1033E00004F4807058B19DF8160040F001008DF88B
:1033F00016009DF8120040F001008DF8120005AA99
:1034000003214FF48860FFF71FFE10B14FF0FF302B
:10341000B8E704AA032140F23140FFF715FE10B1CE
:103420004FF0FF30AEE7B44804810020AAE71FB593
:103430000446B148007A00F0030054F820000190DF
:10344000AD48007A00F0040010B1019840420190AC
:10345000A948007AC0F3C10054F820000290A648A1
:10346000007A00F0200010B1029840420290A24879
:10347000007AC0F3811054F8200003909E48008920
:1034800000F4807010B10398404203909B4901986A
:1034900080FB0101800F40EA81000190974902986A
:1034A00080FB0110820042EA9170029093490398D8
:1034B00080FB0110820042EA917003900198000E97
:1034C0008DF800000198000C8DF801000198000AA9
:1034D0008DF802000198C0B28DF803006A460421FD
:1034E0004FF47470FFF7B0FD18B14FF0FF3004B027
:1034F00010BD0298000E8DF800000298000C8DF8A7
:1035000001000298000A8DF802000298C0B28DF8FE
:1035100003006A4604214FF47570FFF795FD10B162
:103520004FF0FF30E3E70398000E8DF8000003989A
:10353000000C8DF801000398000A8DF80200039832
:10354000C0B28DF803006A4604214FF47670FFF78D
:103550007BFDCCE770B588B0064601A8FEF763FF97
:10356000BDF804000021C90341EA5045C40300BF6F
:103570006148007A00F0030056F8200005905E488C
:10358000007A00F0040010B10598404205905A48B6
:10359000007AC0F3C10056F8200006905648007A21
:1035A00000F0200010B10698404206905248007A80
:1035B000C0F3811056F8200007904F48008900F4AE
:1035C000807010B10798404207900598C117A0FB82
:1035D000042301FB043100FB0510810041EA9270D5
:1035E00005900698C117A0FB042301FB043100FBE2
:1035F0000510810041EA927006900798C117A0FB60
:10360000042301FB043100FB0510810041EA9270A4
:1036100007900598000E8DF808000598000C8DF8AD
:1036200009000598000A8DF80A000598C0B28DF8C7
:103630000B000698000E8DF80C000698000C8DF813
:103640000D000698000A8DF80E000698C0B28DF89D
:103650000F000798000E8DF810000798000C8DF8E9
:1036600011000798000A8DF812000798C0B28DF873
:10367000130002AA0C214FF42570FFF7E5FC08B0F7
:1036800070BD30B585B004461DA207CA02AB07C3A2
:10369000C82C03DD4FF0FF3005B030BDC82090FBD3
:1036A000F4F0401E85B2280A8DF80000E8B28DF8CB
:1036B00001006A46022140F21620FFF7C5FC10B156
:1036C0004FF0FF30E8E702AA0C2140F6C120FFF7D7
:1036D000BBFC10B14FF0FF30DEE7074884810020CB
:1036E000DAE70000E4C500084CCD6C000CC92C00E2
:1036F0003656760026466600A000002009E3CA027E
:10370000FEF2ABC4AAF1DFDFBBAFDFDF0146FC484E
:1037100080890880002070472DE9FC4706460F4647
:1037200006F0070010B1B7F5C86F03DD4FF0FF30AA
:10373000BDE8FC87384607F046F98146F14906F0B6
:1037400050FF80466846FEF7F0FD9DF80000022815
:1037500006D0042816D0082826D0102848D135E0F5
:103760004FF08D41404606F00AFF814607F070F9A0
:1037700084B2E549404606F002FF814607F068F949
:1037800085B238E04FF08C41404606F0F8FE8146A5
:1037900007F05EF984B2DD49404606F0F0FE81464E
:1037A00007F056F985B226E04FF08B41404606F00F
:1037B000E6FE814607F04CF984B2D549404606F052
:1037C000DEFE814607F044F985B214E04FF08A41ED
:1037D000404606F0D4FE814607F03AF984B2CD495E
:1037E000404606F0CCFE814607F032F985B202E091
:1037F0004FF0FF309CE700BF20128DF80400E0B2CC
:103800008DF8050028128DF80600E8B28DF8070043
:1038100006F00100A0B101AA02214FF4EA70FFF7FF
:1038200013FC10B14FF0FF3082E70DF106020221C8
:103830004FF49270FFF708FC10B14FF0FF3077E7BC
:1038400006F00200A0B101AA02214FF4EC70FFF7CC
:10385000FBFB10B14FF0FF306AE70DF106020221C9
:103860004FF49470FFF7F0FB10B14FF0FF305FE7BB
:1038700006F00400A0B101AA02214FF4EE70FFF798
:10388000E3FB10B14FF0FF3052E70DF106020221C9
:103890004FF49670FFF7D8FB10B14FF0FF3047E7B9
:1038A000002045E738B504460020009004F00100F0
:1038B00020B19DF8000040F03000009004F00200BC
:1038C00020B19DF8000040F00C00009004F00400CE
:1038D00020B19DF8000040F0030000906A460121ED
:1038E0004FF4A470FFF7B0FB38BD38B50446012C87
:1038F00001DA012402E0042C00DD0424601EC0B2C1
:1039000000906A46012140F24F10FFF79DFB38BD41
:1039100038B50446052094FBF0F085B228128DF8E6
:103920000000E8B28DF801006A4602214FF4EF7002
:10393000FFF78AFB38BD38B50446052094FBF0F04C
:1039400085B228128DF80000E8B28DF801006A46B1
:1039500002214FF4ED70FFF777FB38BDF8B505464F
:103960000E464FF47A7095FBF0F000FB06F4200E43
:103970008DF80000200C8DF80100200A8DF802005F
:10398000E0B28DF803006A4604214FF4AE70FFF7F1
:103990005BFBF8BD38B50446052094FBF0F084B21B
:1039A00020128DF80000E0B28DF801006A46022175
:1039B0004FF4AD70FFF748FB38BD38B5044605201D
:1039C00094FBF0F084B220128DF80000E0B28DF884
:1039D00001006A4602214FF4AC70FFF735FB38BD99
:1039E00038B5044614B94FF0FF3038BD6A4604219B
:1039F0004FF45870FFF765FB10B14FF0FF30F4E75C
:103A00009DF8000000069DF8011040EA01409DF875
:103A1000021040EA01209DF80310084320600020B6
:103A2000E3E738B50446200E8DF80000200C8DF831
:103A30000100200A8DF80200E0B28DF803006A460A
:103A400004214FF45870FFF7FFFA38BD38B504462B
:103A500014B94FF0FF3038BD6A4604214FF471703D
:103A6000FFF72FFB10B14FF0FF30F4E79DF8000097
:103A700000069DF8011040EA01409DF8021040EA5E
:103A800001209DF80310084300EB800080002060B7
:103A90000020E0E738B504461420B4FBF0F4200E13
:103AA0008DF80000200C8DF80100200A8DF802002E
:103AB000E0B28DF803006A4604214FF47170FFF7FD
:103AC000C3FA38BD38B5044664B120208DF8000033
:103AD00028208DF8010030208DF8020038208DF864
:103AE000030004E0A3220421684606F0D1FC6A46E4
:103AF000042140F69E20FFF7A7FAFDF756FE38BDD9
:103B0000A000002000004843000040460000C045DF
:103B1000000040450000C04438B5044664B1C020F0
:103B20008DF80000C2208DF80100C4208DF802003D
:103B3000C6208DF8030004E08B220421684606F0BD
:103B4000A7FC6A46042140F69820FFF77DFAFDF7AE
:103B50002CFE38BD3EB504466CB1FDA1D1E9002074
:103B60008968CDE9002002916A4609214FF49760E7
:103B7000FFF76AFA3EBDF9A2D2E900109268CDE9DA
:103B8000010200916A4609214FF49760FFF75CFA41
:103B9000F0E73EB5044602208DF80000CA208DF8FB
:103BA0000100E3208DF8020009208DF803006A4629
:103BB00004216820FFF748FAA3208DF8000004F0E4
:103BC000400048B1C0208DF80100C8208DF80200E7
:103BD000C2208DF8030006E0A3208DF801008DF8C7
:103BE00002008DF8030004F4C07048B1C4208DF8C1
:103BF0000400CC208DF80500C6208DF8060006E0F4
:103C0000A3208DF804008DF805008DF80600A32090
:103C10008DF807008DF808008DF809006A460A2122
:103C200040F6A720FFF710FA04F0030018B1202097
:103C30008DF8000002E0D8208DF800006A460121CE
:103C400040F6B620FFF700FA04F0200018B101207A
:103C5000FFF780FF02E00020FFF77CFF04F4C07054
:103C600008B304F4807060B1B2208DF800008B209E
:103C70008DF80100B6208DF802009B208DF803001E
:103C80000BE0B0208DF8000080208DF80100B420FA
:103C90008DF8020090208DF803006A46042140F65A
:103CA000A220FFF7D1F904F0010020B3F8208DF82D
:103CB00000006A4601214FF40B60FFF7C5F9FA21B5
:103CC0000720FFF729FD0720FFF7ECFD0120FFF794
:103CD0000CFE6420FFF71CFE4FF4FA70FFF72BFE7A
:103CE000C821A148FFF73AFE2820FFF753FE0A201B
:103CF000FFF763FE08E0D8208DF800006A46012136
:103D00004FF40B60FFF7A0F904F0020018B1D920BE
:103D10008DF8000002E0D8208DF800006A460121ED
:103D200040F23D70FFF790F904F0040018B1012053
:103D3000FFF7F2FE02E00020FFF7EEFE04F01000B5
:103D400018B10120FFF7BEFE02E00020FFF7BAFE27
:103D500044F0080085494881FDF727FD002083498C
:103D6000887304F0400018B10846807B801D88737A
:103D700004F4C07020B17D48807B801D7B4988732E
:103D800004F0140020B17948807B103077498873A3
:103D900004F0030020B17548807B001D73498873CF
:103DA00000203EBD014671484089088000207047D0
:103DB0002DE9F0410446E07800F0C006E07800F01C
:103DC0003F05607800F0010098B1EF102846E91730
:103DD00005EB5171C910A5EBC101491C01F0FF08A9
:103DE0006248006820B16148414602683846904701
:103DF00000BF607800F0080030B15C48406818B13E
:103E0000B0115A4A516888470020BDE8F08110B5CA
:103E100086B0044656A207CA03AB07C357A207CA17
:103E20008DE80700012C09D0022C0ED103AA0B212A
:103E300040F68220FFF708F906B010BD6A460B2154
:103E400040F68220FFF700F9F6E74FF0FF30F3E786
:103E50002DE9F04F8DB00746884615469946DDE9B5
:103E6000166B0024002030804049887B5A4605A903
:103E7000FEF72BFC18B1601E0DB0BDE8F08F3B487B
:103E8000807A00F01400002861D09DF8140000062C
:103E90009DF8151040EA01409DF8161040EA0120F7
:103EA0009DF81710084328609DF8180000069DF83B
:103EB000191040EA01409DF81A1040EA01209DF8CF
:103EC0001B10084368609DF81C0000069DF81D103B
:103ED00040EA01409DF81E1040EA01209DF81F10A5
:103EE0000843A8609DF8200000069DF8211040EAD4
:103EF00001409DF8221040EA01209DF8231008435C
:103F0000E86004F11000C4B22868001401906868E9
:103F100000140290A86800140390E868001404904C
:103F200001984043029901FB0100039901FB010044
:103F3000049901FB010ABAF1706F02DBBAF1885FE4
:103F400022DDFDF732FC00203080401E94E721E0A6
:103F5000B8AAB38DB4980D355D000000B8AAAAAA1E
:103F6000B088C3C5C700000009E3CA02A000002052
:103F7000D8B1B9F38BA391B609B4D900DAB1B9F3CA
:103F80008BA391B6DAB4DA00B6F9000040F4807081
:103F9000308000BF3448807A00F0400020B305A98B
:103FA000601C085C095D40EA012000B2A8F800002E
:103FB00005A9E01C095C05AAA01C105C41EA0020D0
:103FC00000B2A8F8020005A9601D095C201D105C64
:103FD00041EA002000B2A8F80400A01DC4B2B6F95E
:103FE000000040F0080030801F48408900F4C07095
:103FF00008B305A9601C085C095D40EA012000B215
:10400000388005A9E01C095C05AAA01C105C41EAE7
:10401000002000B2788005A9601D095C201D105C9D
:1040200041EA002000B2B880A01DC4B2B6F9000079
:1040300040F0700030800C48807A00F0030018B126
:1040400005A90819FFF7B4FE484603F027FD002034
:1040500012E701460448016000207047014602480B
:104060004160002070470000A00000200FB42DE93F
:10407000F043C7B006468946092E0ED2DFE806F0A7
:1040800005060708090A0B0D0C0000BF00BF00BFA2
:1040900000BF00BF00BF00BF05E0002047B0BDE883
:1040A000F0035DF814FB00BF51A8469006A8469A9D
:1040B000509906F059FF0446002C03DC002046907E
:1040C0002046EBE71821684606F0E9F924208DF830
:1040D000000001208DF80100F0B28DF802000D20E3
:1040E0008DF815000A208DF8160000251DE0601BD4
:1040F000122801DA601B00E0122000F0FF081221F4
:104100000DF1030006F0CBF906A841194246153817
:1041100006F09EF9002705E01DF807109A48FDF704
:10412000ADF87F1C172FF7DB1235A542DFDB00202F
:10413000469000BFB2E730B587B004460CB907B06F
:1041400030BD182101A806F0AAF924208DF804003A
:1041500002208DF805002068000E8DF80700206809
:10416000000C8DF808002088000A8DF809002078DE
:104170008DF80A006068000E8DF80B006068000C76
:104180008DF80C00A088000A8DF80D0020798DF8BC
:104190000E00A068000E8DF80F00A068000C8DF8CE
:1041A00010002089000A8DF81100207A8DF8120085
:1041B000E068000E8DF81300E068000C8DF8140024
:1041C000A089000A8DF81500207B8DF816000D20BF
:1041D0008DF819000A208DF81A00002505E001A8C5
:1041E000415D6948FDF74AF86D1C172DF7DB00BFEC
:1041F000A5E770B586B005460C460CB906B070BD93
:104200001821684606F04BF924208DF800000320A1
:104210008DF801008DF802500D208DF815000A2050
:104220008DF81600072D7DD2DFE805F05D5E5F4D4D
:10423000600490002068000E8DF803002068000CD8
:104240008DF804006068000E8DF805006068000CB1
:104250008DF80600A068000E8DF80700A068000C1D
:104260008DF80800E068000E8DF80900E068000C89
:104270008DF80A002069000E8DF80B002069000CF3
:104280008DF80C006069000E8DF80D006069000C5F
:104290008DF80E00A069000E8DF80F00A069000CCB
:1042A0008DF81000E069000E8DF81100E069000C37
:1042B0008DF81200206A000E8DF81300206A000CA1
:1042C0008DF8140053E0E068000E8DF80F00E068F0
:1042D000000C8DF81000A089000A8DF81100207BD9
:1042E0008DF8120000BF00BF00BF00BF2068000EA5
:1042F0008DF803002068000C8DF804002088000A67
:104300008DF8050020788DF806006068000E8DF8A5
:1043100007006068000C8DF80800A088000A8DF87E
:10432000090000E022E020798DF80A00A068000E64
:104330008DF80B00A068000C8DF80C002089000A95
:104340008DF80D00207A8DF80E0010E02068000E28
:104350008DF803002068000C8DF804002088000A06
:104360008DF8050020788DF8060000E046E700BFD4
:10437000002605E01DF806100348FCF77FFF761CB9
:10438000172EF7DB00BF39E70038014070B504464F
:104390000D46164632462946204600F09EFFFE484E
:1043A000007E00F0400008B1012070BD0020FCE755
:1043B00070B504460D46164632462946204600F0A2
:1043C000A0FFF548007D00F0400008B1012070BD5D
:1043D0000020FCE770B504460D46164632462946D5
:1043E000204600F0B6FFEC48007F00F0400008B126
:1043F000012070BD0020FCE770B50346E64E71CE8B
:1044000083E87100E448007C40B20870E248406AEA
:104410001060E148006A70BD2DE9F04F87B0044696
:104420000D461646DC4A1168106801F0ABFC814667
:10443000D94AD168106801F0A5FC0690D64A916867
:10444000506801F09FFC0590D34A9168906801F094
:1044500099FC8246DDE90501471A0AEB0900A0F143
:104460008048404606F0A6FA0290384606F0A2FAC6
:104470000190029907F07CFD8346C84906F07FF859
:10448000C749039006F0ADF804900021049806F0A7
:1044900093FB04D2C349049806F019F804904FF036
:1044A0008F41049806F06BF8834606F0B8FA206056
:1044B000B948007C40B22870B748406A3060B648BE
:1044C000006A07B0BDE8F08F2DE9F04F95B00446C3
:1044D0000E461746B04A1168106801F053FC0546B5
:1044E000AD4A5168106801F04DFC1290AA4A9168DB
:1044F000106801F047FC8146A74AD168106801F0B6
:1045000041FC8246A44A5168506801F03BFC11907E
:10451000A14A9168506801F035FC83469E4AD168F3
:10452000506801F02FFC10909B4A9168906801F050
:1045300029FC0F90984AD168906801F023FC0E90F6
:10454000954AD168D06801F01DFC0D90ABEB0A00D4
:1045500014900F982844A0F18048404606F02AFAAB
:104560000790149806F026FA0690079907F000FDC8
:1045700080F000408949089006F001F888490990C8
:1045800006F02FF80C9012990E98084413904046AC
:1045900006F010FA0290404606F00CFA01900299DB
:1045A00005F0EDFF0490149806F004FA02901498B8
:1045B00006F000FA0190029905F0E1FF03900499DA
:1045C00005F085FF059007F0CDFF0790139806F0E2
:1045D000F1F90690079907F0CBFC7049089005F0B7
:1045E000CEFF6F49099005F0FCFF0A900D98284412
:1045F000A0F18048B8F1000F0FDA00210A9806F008
:10460000E5FA05D865480A9905F0B3FF0A9004E079
:1046100065480A9905F0ADFF0A9011982844A0F169
:10462000804014900BEB0A081098A0EB090013903F
:104630001099A1EB090006F0BDF906900D992944E7
:10464000A1F1804006F0B6F90590069907F090FCBC
:104650005249079005F093FF5149089005F0C1FFBA
:104660005249099005F085FF0B9050490B9806F0D0
:10467000ADFA04D849480B9905F07BFF0B904C49E3
:104680000B9806F099FA04D247480B9905F071FF90
:104690000B904FF08F410A9805F071FF099006F0DA
:1046A000BEF920604FF08F410B9805F068FF09902C
:1046B00006F0B5F960604FF08F410C9805F05FFF90
:1046C000099006F0ACF9A0603348007C40B230702D
:1046D0003148406A38603048006A15B0BDE8F08F54
:1046E00070B504460E46154621462B4801F004FEDF
:1046F0002948007C40B230702748406A286026482C
:10470000006A70BD70B504464FF47A75224A2432AF
:10471000A2F11401204802F03CFB1F49206B4861C4
:10472000606F8861B8200059C861208E00F48070E5
:1047300008B1E56A00267420005B00F4807020B1A7
:10474000206FA84201DA256F0126B820005B00F433
:10475000807030B1B4200059A84202DAB420055963
:1047600002264FF49070005B00F4807040B14FF46B
:1047700096700059A84203DA4FF496700559032643
:1047800036B1012E1DD0022E24D0032E2CD000BF16
:1047900094F830000EE00000B00000200000344328
:1047A000DB0F49400000B443000034C30000B442B2
:1047B0000000B4C2C0F3801027490862A06B4862B1
:1047C0001EE094F87400C0F3801023490862E06F83
:1047D000486215E094F8B800C0F380101E490862E2
:1047E000C020005948620BE04FF49070005DC0F3A8
:1047F0008010194908624FF492700059486200BF56
:1048000000BF002070BD10B5072240F2833113486D
:1048100000F0DFFB10BD10B5104800F055FC10BDD6
:1048200010B528210C4805F03AFE002010BD10B547
:10483000FFF7F6FF04460CB1204610BDAFF2390079
:1048400002F0E6FBF9E710B5FFF7E5FFAFF249002C
:1048500002F0B3FB10BD0000B000002005470008C7
:1048600010B5044648222146F64805F0F1FDF5480A
:10487000F438D0F83001F4494863F248F438D0F8FD
:104880003411F1488167EF48F438D0F83811EE4818
:10489000C0F8BC10D0F8BC00032802D1012002F0FF
:1048A000D8FA002010BD10B504464822E54920463C
:1048B00005F0CEFD002010BD0021E348C0F89011A6
:1048C000704710B5002404E00021E04840F82410AF
:1048D000641C092CF8DB2421DC48243805F0DFFDBA
:1048E00000240CE04FF07E51A200D84840F822107E
:1048F0004FF08041A200243840F82210641C032CA1
:10490000F0DBFFF7D9FF10BD10B54FF4A071CD4813
:10491000F43805F0C4FD4FF4CC71CB4805F0BFFD71
:10492000FFF7CFFF4DF293034822C949C94802F06F
:10493000A3FB10BDC448406A7047C348806E7047EF
:10494000C148D0F8AC00704742620160704710B5B2
:1049500003460C4622461946BB48FFF7F5FF10BD3B
:10496000B94988624FF47A7190FBF1F1B64AD1628D
:104970001146096C19B9B84991FBF0F111647047FF
:10498000B149C8664FF47A7190FBF1F2AE490A67FB
:10499000D1F8841029B9B04991FBF0F2AA49C1F8C5
:1049A00084207047A849C1F8B0004FF47A7190FB99
:1049B000F1F2A549C1F8B420D1F8C81029B9A64927
:1049C00091FBF0F2A049C1F8C82070479E49C96A1E
:1049D000016070479C49096F016070479A49D1F89E
:1049E000B410016070479849C1F828014FF47A71FA
:1049F00090FBF1F29449C1F82C2170479249086468
:104A000070479149C1F8840070478F49C1F8C800C8
:104A100070478D48B0F8B800C0F3002070478A484E
:104A2000008EC0F3002070478748B0F87400C0F3D0
:104A30000020704700208449B1F8741001F480719F
:104A400009B18149C86F8049098E01F4807129B18B
:104A50007D49896B814201D97B49886B7A49B1F8DC
:104A6000B81001F4807139B17749D1F8C010814292
:104A700002D97549D1F8C0007349B1F8FC1001F4AE
:104A8000807139B17049D1F80411814202D96E495F
:104A9000D1F80401704710B503460C46224619466A
:104AA00069484430FFF750FF10BD10B503460C466F
:104AB0002246194664488830FFF746FF10BD2DE9AD
:104AC000F04104460D4616462968206801F08DF82D
:104AD00007466968606801F088F80744A968A0681B
:104AE00001F083F8384430602968E06801F07DF80F
:104AF00007466968206901F078F80744A968606989
:104B000001F073F8384470602968A06901F06DF80D
:104B100007466968E06901F068F80744A968206AF7
:104B200001F063F83844B060BDE8F0813EB504465A
:104B30000D46B4F90400C0030090B4F90600C003A8
:104B40000190B4F90800C0030290626A5100228803
:104B500090B204F10C036A4601F08FFE00982968B8
:104B6000A0EB6100009001986968A0EB61000190E2
:104B70000298A968A0EB61000290626A5100228845
:104B800090B204F118036A4601F077FE206B40F002
:104B9000200020633EBD38B12A497439D1E91D2374
:104BA000C96FC0E900238160704770B504460D46A7
:104BB0000C222146234805F07DFC50B12148743871
:104BC00094E80E0074300EC01E491F488830FFF76D
:104BD000ADFF1D48C0F8BC501A48F438C0F8385131
:104BE00000220821084600F0BFFF70BD1549F439C6
:104BF000C1F83C0170471348F438D0F83C017047C5
:104C000070B504460D468CB10C2221460D4820306B
:104C100005F050FC50B10B4894E80E0020300EC057
:104C2000A0F10C0108484430FFF780FF0648856773
:104C30000448F438C0F8345100221021084600F02E
:104C400093FF70BDCC0100201802002084030020D7
:104C5000A74800086148000840420F0010B504460C
:104C6000FC488467FC48C0F8344100221021084603
:104C700000F07AFF10BD70B504460E461546CCB163
:104C800005F0010018B1F4482168C0F8141105F0CE
:104C9000020018B1F0486168C0F8181105F004006E
:104CA00018B1ED48A168C0F81C11EC49E94844303E
:104CB000FFF73CFFE7488667E748C0F83461002209
:104CC0001021084600F050FF70BD70B504460D4637
:104CD0008CB10C222146E148143805F0EBFB50B1B1
:104CE000DE48203894E80E000C300EC0A0F10C0114
:104CF000D848FFF71BFFD7484563D748C0F8305165
:104D0000D448D0F8E40030B1D248D0F8E410D2480A
:104D1000C0F80C1104E04FF4D811CF48C0F80C11C2
:104D200000220421084600F01FFF0121CA48C0F8F4
:104D3000101170BDC849D1F81011012900D100E04F
:104D4000002108460022C449C1F81021704710B55F
:104D500038B1C24A203AD2E903345269C0E900347A
:104D6000826019B1BC4AD2F80C210A6010BD10B59E
:104D700038B1BA4A203AD2E90834926AC0E900341C
:104D8000826019B1B44AD2F820210A6010BD70B512
:104D900004460D46164605F02000C0B9208801B231
:104DA000AC48A0F84810A08801B2AA48A0F84A1060
:104DB000208901B2A748A0F84C10406F40F0800154
:104DC000A4484167A5494430FFF7B0FE13E0A1486D
:104DD0002168C16561680166A1684166406F40F065
:104DE00020019C48416705F00301816705F003013C
:104DF0009948C0F834119748406F40F4A071954825
:104E00004167C16FC0F88010C667002070BD70B5E3
:104E100004460D468F4821684160A1880181006BDE
:104E200040F4E0708B4908630846806BC86308460D
:104E300085638A491439FFF779FE002070BD014669
:104E4000002005E0864A52F8202041F82020401C2E
:104E50000328F7DB704770B50546002406E055F8D7
:104E600024107F480C3840F82410641C032CF6DB17
:104E70007848D0F89001012806D1794A294602F1F4
:104E80000C0001F0E3FD09E0002405E055F82410D2
:104E9000734840F82410641C032CF7DB70BDFEB58A
:104EA00004460D46164605F0200010BB2046FFF7CD
:104EB000D2FF6846FFF7C3FF009801B26548A0F82B
:104EC0008C10019801B26348A0F88E10029801B2CC
:104ED0006048A0F89010614920398830FFF726FE1D
:104EE0005C48D0F8B80040F080015A48C0F8B810CB
:104EF00019E058482168C0F8A0106168C0F8A410F3
:104F0000A168C0F8A810D0F8B80040F020015148BE
:104F1000C0F8B81005F00301C0F8BC1005F003019B
:104F20004D48C0F838114B48D0F8C010C0F8C41034
:104F3000C0F8C060D0F8B80040F4A0714548C0F88F
:104F4000B8100020FEBD02464248C0F8E420D0F868
:104F5000FC0040F4E0733F48C0F8FC30D0F8043166
:104F6000C0F80831C0F8041100207047F0B50346BE
:104F70003B483C3893E8F0001030F0C03548C0F8AA
:104F80002421D0F8200140F4E0743248C0F82041D8
:104F9000D0F8200101F4007420432E4CC4F8200105
:104FA0000020F0BD00212B484167704700212948AF
:104FB000C0F8B810704700212648C0F8201170478B
:104FC000002024490863704700212248C0F8FC10E3
:104FD00070472DE9F04707460E4690464FF000090E
:104FE000002414E004EB44011B48001D50F821008C
:104FF000B84208D004EB44011748001D00EB8100C3
:105000004068B04202D10520BDE8F087641C124818
:105010000068A042E6DC1048006813284BDC00243E
:105020000D48006870B300E0641C0B480068A042A3
:1050300008DD04EB44010848001D00EB81004068D6
:10504000B042F1DB04480068A0421BD0024805686A
:1050500016E0000018020020D8000020EC0100201B
:105060005403002005EB4501F94800EB8101681E5F
:1050700000EB4002F64800EB82030DCB0DC16D1E24
:10508000A542EFDC04EB4401F14840F8217004EB49
:10509000440100EB8100466004EB4401EC4800EB66
:1050A0008100C0F80880EA48001F0068401CE849F9
:1050B000091F086006E0E74AE7A10620FEF7D6FFD1
:1050C0004FF0060948469FE770B50346002224E0EA
:1050D00002EB4204DE4850F8240098421CD1511CD7
:1050E0000CE0481E00EB4004D94800EB840401EBBF
:1050F000410500EB850661CE61C4491CD448001F00
:1051000000688842EDDCD248001F0068401ED04C89
:10511000241F2060002070BD521CCD48001F006875
:105120009042D5DC0020F6E70020CC4991F8301001
:1051300001F0400139B1C949096B41F01001C74A7A
:1051400011631146886BC54991F8741001F0400154
:1051500069B1C249496F41F01002C0494A67C96F3D
:10516000814201D2014601E0BC49C96F0846BB49F2
:1051700091F8B81001F0400189B1B849D1F8B810E0
:1051800041F01002B549C1F8B820D1F8C0108142F1
:1051900001D2014602E0B149D1F8C0100846AF493A
:1051A00091F8FC1001F0400189B1AC49D1F8FC1034
:1051B00041F01002A949C1F8FC20D1F80411814244
:1051C00001D2014602E0A549D1F804110846A349DD
:1051D00091F8201101F0400189B1A049D1F82011C6
:1051E00041F010029D49C1F82021D1F824118142DB
:1051F00001D2014602E09949D1F8241108469749A5
:10520000096B21F04001954A11631146496F21F065
:10521000400292494A67D1F8B81021F040028F4904
:10522000C1F8B820D1F8FC1021F040028B49C1F838
:10523000FC20D1F8201121F040028849C1F820213A
:1052400070472DE9F0410024844890F8300000F0C8
:10525000400008B144F00204804890F8740000F067
:10526000400008B144F001047C4890F8B80000F018
:10527000400008B144F00404784890F8FC0000F0C5
:10528000400008B144F00804744890F8200100F090
:10529000400008B144F010040027002513E005EB9E
:1052A00045016B4800EB81008068204050B105EB60
:1052B0004502674850F822106848884706460EB1F4
:1052C00007B937466D1C6248001F0068A842E6DC3B
:1052D000FFF72AFF3846BDE8F08130B530B15F4BAB
:1052E000D3E917455B6EC0E90045836012B15B4BA3
:1052F000DB6F136021B1594B93F878305BB20B70C0
:1053000030BD30B5554D183538CD80E8380012B174
:10531000524B9B6B136021B1504B93F834305BB20E
:105320000B7030BD30B54D4D0C3538CD80E83800B0
:1053300012B14A4B9B6B136021B1484B93F8343048
:105340005BB20B7030BD454B18330ECB80E80E00BE
:10535000704730B5414B8833D3E906451B6AC0E935
:10536000004583601AB13D4BD3F8C030136061B182
:10537000374B1B1FD3F83C3113B100230B7004E0F3
:10538000364B93F8BC305BB20B7030BD334BD3F867
:10539000E43003601AB1314BD3F80431136019B112
:1053A0002E4BD3F800310B6070472C48406B704790
:1053B0002748001FD0F83C0108B10020704727485B
:1053C000D0F8BC00FAE72548806F704701462348B3
:1053D000006808600020704701462048406C086063
:1053E000002070470146002005E01D4A52F82020A9
:1053F00041F82020401C0928F7DB70472DE9F041D7
:105400000546002413E055F82410154840F82410F0
:1054100055F82460304605F0CDFA07464FF09D411F
:1054200005F0DFF80E49243141F82400641C092CF2
:10543000E9DBBDE8F0810146002006E0084A24329D
:1054400052F8202041F82020401C0928F6DB704744
:10545000DC00002080D600084D504C0018020020CF
:105460006003002070B50546002413E055F82410B1
:10547000134840F8241055F824004FF09D4105F0E2
:105480007EF8064605F0CBFA01460D48243840F870
:105490002410641C092CE9DB70BD0146002006E0E5
:1054A000074A3C3A52F8202041F82020401C0328AB
:1054B000F6DB704701210348C0F8901170470000E7
:1054C00084030020180200202DE9FE4304460E4606
:1054D00017463A4631466846FFF7FFFE009805F04A
:1054E00069FA8046F94905F04AF82060019805F00C
:1054F00061FA8046F54905F042F86060029805F0CF
:1055000059FA8046F14905F03AF8A060F04890F861
:10551000280000F0400008B1012500E000252846E1
:10552000BDE8FE83F0B587B004460D461646324608
:10553000294601A8FFF7D1FE04A801F0C0FB049999
:105540000198A0EBA130019005990298A0EBA13041
:10555000029006990398A0EBA1300390019805F002
:1055600029FA0746D94905F00AF82060029805F0A3
:1055700021FA0746D54905F002F86060039805F066
:1055800019FA0746D14904F0FAFFA060012007B0DC
:10559000F0BDFEB504460D461646CD48007940B232
:1055A0002870CB4880683060684601F088FB00991D
:1055B000881305F0FFF90746C44904F0E0FF2060B6
:1055C0000199881305F0F6F90746C04904F0D7FFA2
:1055D00060600299881305F0EDF90746BB4904F0B5
:1055E000CEFFA0600120FEBD2DE9FE4304460E461D
:1055F00017463A4631466846FFF783FE009805F0A5
:10560000D9F98046B34904F0BAFF2060019805F04B
:10561000D1F98046AF4904F0B2FF6060029805F00E
:10562000C9F98046AB4904F0AAFFA060A84890F8E9
:10563000240000F0400008B1012500E000252846C4
:10564000BDE8FE832DE9FE4304460E4617463A4662
:1056500031466846FFF766FE009805F0ABF98046D4
:105660009C4904F08CFF2060019805F0A3F9804666
:10567000984904F084FF6060029805F09BF9804629
:10568000944904F07CFFA060914890F8240000F059
:10569000400008B1012500E000252846BDE8FE8352
:1056A0002DE9F04104460D4616468948007940B27E
:1056B000287087488068306085484069002828DB6A
:1056C0008349886905F076F907464FF0425104F0A6
:1056D00056FF20607E49C86905F06CF907464FF017
:1056E000425104F04CFF60607949086A05F062F9A4
:1056F00007464FF0425104F042FFA06074494869E8
:1057000005F058F907464FF0425104F038FFE060C9
:105710002BE06F498969484205F04CF907464FF084
:10572000425104F02CFF20606949C969484205F0E4
:1057300041F907464FF0425104F021FF606064498F
:10574000096A484205F036F907464FF0425104F025
:1057500016FFA0605E494969484205F02BF90746EB
:105760004FF0425104F00BFFE06001F0EFFB2061CD
:105770005748006BBDE8F08170B503460C46544DA8
:105780002D691560524D2D786DB22570002106E00F
:105790004F4DB83555F8215043F82150491C032985
:1057A000F6DB4B4D95F82C5005F040050DB101206E
:1057B00000E000200025464EF56270BD70B58AB04D
:1057C00004464FF0425501A94148143000F094FDC1
:1057D000019805F0EFF80646294604F0D0FE206057
:1057E000029805F0E7F80646294604F0C8FE606016
:1057F000039805F0DFF80646294604F0C0FEA060D5
:10580000049805F0D7F80646294604F0B8FEE06093
:10581000059805F0CFF80646294604F0B0FE206151
:10582000069805F0C7F80646294604F0A8FE606110
:10583000079805F0BFF80646294604F0A0FEA061CF
:10584000089805F0B7F80646294604F098FEE0618E
:10585000099805F0AFF80646294604F090FE20624C
:105860000AB070BDF0B589B004461B4D6846FFF71D
:10587000A5FF039880F000473846009906F078FBB2
:105880000646294604F07BFE2060079880F000471A
:105890003846089906F06CFB0646294604F06FFE70
:1058A0006060069806F0D2FA0646294604F067FEC4
:1058B000A0600021206805F07FF904D20749206824
:1058C00004F005FE206009B0F0BD00000AE81C39B4
:1058D000B003002035FA8E34E12E65420000B44357
:1058E00070B506460C4615469D48007940B22070BA
:1058F0009B48806828603046FFF7B4FF9848006BEB
:1059000070BD2DE9FF47044600274FF47A76944A8C
:105910000832111F01F1100001F03BFA9049206B91
:105920004862606F8862B8200059C862208E00F417
:10593000807008B1E66A00BF7420005B00F48070DC
:1059400020B1206FB04201DA266F0127B820005B3A
:1059500000F4807030B1B4200059B04202DAB420B3
:10596000065902274FF49070005B00F4807040B13C
:105970004FF496700059B04203DA4FF4967006590E
:1059800003274FF49070005B00F4807050B17420D6
:10599000005BB821095B084000F4807070B94FF0DB
:1059A000FF370BE0208E7421095B0840B821095BAA
:1059B000084000F4807008B94FF0FF3737B1012F6D
:1059C0000DD0022F14D0032F28D11BE094F8300003
:1059D000C0F3801062490863A06B886022E094F8ED
:1059E0007400C0F380105E490863E06F886019E0BE
:1059F00094F8B800C0F3801059490863C0200059DA
:105A000088600FE04FF49070005DC0F3801054493F
:105A100008634FF492700059886003E000205049F9
:105A2000086300BF00BF4E4A1032694601A8FFF765
:105A300090FC9DF900004A49086000254CE094F86C
:105A4000B80000F05000402810D101A951F82500FD
:105A500004F0B0FF804605EB450101EBC50240496B
:105A6000343101EB8200414600F072FF94F8B80037
:105A700000F0C000C0281AD101A951F8250004F097
:105A800099FF814605EB450101EBC50234493431EC
:105A900001EB8200494600F074FF80464FF05E51F2
:105AA00004F06DFD2E49B83141F8250013E094F85B
:105AB000B80000F0400040280DD101A951F82500A0
:105AC00004F078FF80464FF05E5104F058FD244901
:105AD000B83141F825006D1C032DB0DB002004B067
