:020000040800F2
:10000000F8040020A1010008570700084F07000866
:100010005307000863050008370D000800000000C2
:1000200000000000000000000000000011090008AE
:100030006705000800000000E5070008290A00081D
:10004000BB010008BB010008BB010008BB010008A0
:10005000BB010008BB010008BB01000869050008DE
:10006000BB010008BB010008BB010008BB01000880
:10007000BB010008BB010008BB010008BB01000870
:10008000BB010008BB010008BB010008BB01000860
:10009000BB010008BB010008BB010008BB01000850
:1000A000BB010008BB010008BB010008BB01000840
:1000B000950A0008BB010008BB010008BB0100084D
:1000C000BB010008BB010008BB010008BB01000820
:1000D000BB010008090B0008BB010008BB010008B8
:1000E000BB010008BB010008BB010008BB01000800
:1000F000BB010008BB010008BB010008BB010008F0
:10010000BB010008BB010008BB010008BB010008DF
:10011000BB010008BB010008BB010008BB010008CF
:10012000BB010008BB010008BB010008BB010008BF
:10013000BB010008BB010008BB010008BB010008AF
:10014000BB010008BB010008BB010008BB0100089F
:10015000BB010008BB010008BB010008BB0100088F
:10016000BB010008BB010008BB010008BB0100087F
:10017000BB010008BB010008BB010008BB0100086F
:10018000BB010008BB010008DFF810D000F0B8F98F
:1001900000480047690E0008AFF30080F804002013
:1001A0000648804706480047FEE7FEE7FEE7FEE711
:1001B000FEE7FEE7FEE7FEE7FEE7FEE72D0A0008A2
:1001C000890100082DE9FE4F81EA030404F0004490
:1001D00021F0004100944FF0000B23F0004350EA5F
:1001E00001045ED052EA03045BD0C3F30A54C1F3A6
:1001F0000A552C44A4F2F3340194A0FB0254C1F339
:10020000130141F48011C3F3130343F4801301FB82
:10021000024400FB034E840A970A44EA815447EAE9
:100220008357A4FB076802958D0A05FB07854FEAF3
:10023000932C04FB0C542705029D4FEA065847EA0D
:100240001637B5EB08056EEB070C870E920E47EAE2
:10025000811742EA8312A7FB0201B6EB0B0164EBA4
:1002600000042B0D43EA0C335E1844EB1C50DA46B5
:100270005146E7FB0201C5F313044FEA0B3343EA8F
:1002800014534FEA0432019C43EA0603A4F10C0420
:100290000294009CCDE900B400F0E4F803B0BDE89E
:1002A000F08F00200146F9E72DE9F04D81EA0304C3
:1002B00004F0004B21F0004514464FF0000A23F0F3
:1002C000004150EA050220D054EA01021DD0C5F3D6
:1002D0000A570246C5F31303C1F31300C1F30A56CC
:1002E00040F4801543F48013A7EB0608101BD64694
:1002F00008F2FD3873EB050002D308F1010801E0B4
:1003000092185B41B8F1000F03DA00200146BDE806
:10031000F08D00204FF48011064684460EE0171B36
:1003200073EB050705D3121B63EB050306434CEA89
:10033000010C49084FEA300092185B4150EA01076E
:10034000EDD152EA030012D082EA040083EA0501EB
:10035000084305D0101BAB4106D20122002306E062
:1003600000224FF0004302E06FF0010253101AEB3D
:1003700006004CEB085110EB0A0041EB0B01BDE805
:10038000F04D00F060B80EB540F23341029100210B
:10039000CDE900110A460B4600F064F803B000BD39
:1003A00001F0004330B421F0004150EA010206D0D0
:1003B0000A0DA2F56072C1F31301002A02DC30BC01
:1003C00000207047440F44EAC104C100E01830BC6B
:1003D00000EBC250AFF300800029A8BF7047401C5B
:1003E000490008BF20F00100704710B4B0FA80FC4B
:1003F00000FA0CF050EA010404BF10BC704749B188
:10040000CCF1200421FA04F411FA0CF118BF0121F7
:1004100021430843A3EB0C01CB1D4FEA00614FEAD7
:10042000102042BF002010BC704700EBC3501044A6
:100430000029A4BF10BC7047401C490008BF20F031
:10044000010010BC704710B5141E73F1000408DAE7
:10045000401C41F1000192185B411A4301D120F088
:10046000010010BD2DE9F04D92469B4611B1B1FA45
:1004700081F202E0B0FA80F22032904600F052F8A9
:1004800004460F4640EA0A0041EA0B0153465A4629
:10049000084313D0114653EA010019D0C8F14002B5
:1004A000504600F04EF805460E4650465946424624
:1004B00000F038F8084305D0012004E02046394612
:1004C000BDE8F08D0020054346EAE0762C43374333
:1004D0000A986305E40AA0EB08000022FD0A44EA3A
:1004E00047540A3002D500200146E9E701051019FA
:1004F0006941DDE9084500196941BDE8F04DA2E711
:10050000064C074D06E0E06840F0010394E8070060
:1005100098471034AC42F6D3FFF73AFE680F000854
:10052000880F0008202A04DB203A00FA02F100209C
:1005300070479140C2F1200320FA03F31943904021
:100540007047202A04DB203A21FA02F0002170478C
:1005500021FA02F3D040C2F120029140084319462B
:10056000704700BFFEE7704710B52DED0A8B0220E3
:1005700000F076F8012852D12A48007880B900208E
:10058000294908602949086001202649087000218E
:10059000800700F0B6FA0121880700F092FA3BE0EC
:1005A00020480078012837D10021800700F089FA1F
:1005B00000201C4908704FF0804000F08EFA1A4964
:1005C000096801EBC10202EB011100EB8100174940
:1005D000086008460068FFF7D6FE9FED150B53EC48
:1005E000102BFFF761FE9FED140B53EC102BFFF760
:1005F000E9FD9FED130B53EC102BFFF755FE9FED1C
:10060000120B53EC102BFFF7DDFDFFF7C9FE10496D
:100610000860002005490860022000F01BF8BDECCE
:100620000A8B10BD000000200400002008000020FC
:100630000000000080842E41000000000040754052
:1006400000000000000000400000000000005940D1
:100650000C0000200149086070470000143C014074
:1006600001460020034A12680A400AB1012000E056
:1006700000207047143C0140F0B50A4600210023D9
:10068000002400BF3DE0012505FA01F3156805EAE5
:1006900003049C4234D105684F000326BE40B54395
:1006A000056015794E00B54006683543056015793B
:1006B000012D02D01579022D16D185684F00032631
:1006C000BE40B543856055794E00B54086683543D8
:1006D0008560456801268E40B5434560456896793A
:1006E0008E40B6B235434560C5684F000326BE4014
:1006F000B543C560D5794E00B540C6683543C56081
:10070000491C1029BFD3F0BDF0B5002300244D07CC
:10071000ED0E02FA05F3CE1000F1200555F8265033
:100720004E07F70E0F26BE40B543CF1000F120064E
:1007300046F82750CE1000F1200555F8265045EA1E
:100740000304CE1000F1200545F82640F0BD00BF9F
:10075000FEE700BFFEE7704770B5002100230F22BF
:10076000C4781CB3174C246804F4E064C4F5E06456
:10077000C4F30721C1F10404E3B20A4144789C4068
:10078000E1B28478144021430C07210E0E4C057809
:100790006155047804F01F050124AC4005786D1103
:1007A000AD0005F1E025C5F8004109E0047804F04A
:1007B0001F050124AC40054D0678761145F826400A
:1007C00070BD00000CED00E000E400E080E100E01E
:1007D00002490143024A1160704700000000FA0517
:1007E0000CED00E07047000029B1064A1268024390
:1007F000044B1A6004E0034A12688243014B1A60FA
:10080000704700003038024029B1064A126802439E
:10081000044B1A6004E0034A12688243014B1A60D9
:100820007047000044380240F0B500210022002447
:10083000022500260223324F3F6807F00C0121B148
:10084000042905D0082937D105E02E4F076036E08E
:100850002D4F076033E02A4F3F1F3F68C7F3805694
:10086000274F3F1F3F6807F03F036EB1264FB7FB8E
:10087000F3F7DFF88CC0ACF1040CDCF800C0CCF36B
:10088000881C07FB0CF40CE01E4FB7FBF3F7DFF8F6
:1008900070C0ACF1040CDCF800C0CCF3881C07FB82
:1008A0000CF4174F3F1F3F68C7F301477F1C7D00C3
:1008B000B4FBF5F7076002E0124F076000BF00BF0E
:1008C0000F4F3F6807F0F0010909104F7A5C076885
:1008D000D74047600A4F3F6807F4E051890A0B4F41
:1008E0007A5C4768D7408760054F3F6807F46041EE
:1008F000490B064F7A5C4768D740C760F0BD0000DF
:10090000083802400024F40000127A001A00002087
:10091000704700000CB5002001900090344800683A
:1009200040F480303249086000BF3148006800F46C
:10093000003000900198401C0190009818B901986F
:10094000B0F5A04FF1D12A48006800F4003010B192
:100950000120009001E0002000900098012846D17D
:1009600023484030006840F0805021494031086001
:100970002048006840F440401E4908601C48083088
:1009800000681B49083108600846006840F40040D0
:1009900008600846006840F4A05008601648091F27
:1009A0000860081F006840F08070091F086000BFE1
:1009B0000F48006800F000700028F9D040F2057080
:1009C0000E4908600A480830006820F00300084912
:1009D000083108600846006840F00200086000BF67
:1009E00003480830006800F00C000828F8D10CBD5E
:1009F000003802400070004008544007003C0240AC
:100A0000042808D14FF0E021096941F004014FF0BA
:100A1000E022116107E04FF0E021096921F00401B3
:100A20004FF0E022116170477047000010B5154883
:100A3000006840F47000134908601348006840F0F3
:100A400001001149086000200F49083108600E4874
:100A500000680E4908400C4908600D48091D0860EF
:100A6000081F006820F48020091F08600020064944
:100A70000C310860FFF74EFF4FF0006001498039EC
:100A8000086010BD88ED00E000380240FFFFF6FE70
:100A90001030002410B50121880700F021F801284A
:100AA00008D105480068401C0349086001218807F7
:100AB00000F004F810BD000004000020CA430282C8
:100AC000704721B1028842F00102028004E00288EE
:100AD0004FF6FE731A40028070470146486A70471D
:100AE00030B50246002000230024158A05EA0103E0
:100AF000958905EA010413B10CB1012000E0002042
:100B000030BD41627047000010B540F225511D48CC
:100B100000F053F810B31B4800F008F9C4B21A48AB
:100B2000008800F40040C8B91748008800F48040ED
:100B300060B10A2C03D000201349088020E012483D
:100B4000008840F400401049088019E00D2C06D1BF
:100B50000D48008840F480400B49088010E00A48A6
:100B60000088C0F30D0009490C5407480088401C58
:100B70000549088008460088C72801DD0020088054
:100B800010BD000000100140180000202C000020C3
:100B900001F40072B2F5007F00D100BFCA430280A9
:100BA000704721B1828942F40052828104E0828937
:100BB0004DF6FF731A408281704770B502460024DB
:100BC00000230025002040F66A16B14200D100BF84
:100BD000C1F3421501F01F03012606FA03F3012DAC
:100BE00002D19689334006E0022D02D1168A3340A5
:100BF00001E0968A33400C12012606FA04F41688A6
:100C0000344013B10CB1012000E0002070BDF0B5FC
:100C10000346002400260025002040F66A17B9424A
:100C200000D100BF1846C1F3421401F01F0601278E
:100C300007FA06F5012C01D10C3004E0022C01D199
:100C4000103000E014301AB107682F43076002E04B
:100C50000768AF430760F0BD2DE9FF4705460E4624
:100C60000024A14600BFA046B08900B100BF2C8A75
:100C700024F44054F08804432C82AC8941F20C6087
:100C80008443B08831890843718908430443AC81A7
:100C9000AC8A24F44074B0890443AC826846FFF700
:100CA000C3FD2048854202D01F48854202D1DDF8AD
:100CB0000C9001E0DDF80890A88900F4004040B1F4
:100CC00009EBC90000EB091031684900B0FBF1F7EE
:100CD00007E009EBC90000EB091031688900B0FB9F
:100CE000F1F76420B7FBF0F004012009642101FB57
:100CF0001078A88900F4004040B1322000EBC80011
:100D0000B0FBF1F000F00700044308E0322000EBF4
:100D100008106421B0FBF1F000F00F0004432C81B7
:100D2000BDE8FF870010014000140140014688889B
:100D3000C0F30800704700BFFEE70000014A024907
:100D400000F013B84D0E00081400002002E008C89F
:100D5000121F08C1002AFAD170477047002001E035
:100D600001C1121F002AFBD170472DE9F041164640
:100D70000F460446002503E03946B047641C6D1C4D
:100D800020780028F8D12846BDE8F08110B5044647
:100D90006FF00400FFF734FEE11704EB5171C1F36B
:100DA000C701074A11701046007800EB4001C1EB03
:100DB000C0104FF6FF7101EAC0000249088010BD63
:100DC000100000201200002070B504464FF4077098
:100DD00094FBF0F0C6B24FF4077094FBF0F100FB07
:100DE000114085B205E04FF4077000F009F8701E5D
:100DF000C6B2002EF7D115B1284600F001F870BD3B
:100E00000146114A12884A434FF0E0235A610022FA
:100E10009A611A46126942F001021A6100BF4FF04E
:100E2000E022106900F001021AB100F48032002AB9
:100E3000F5D04FF0E022126922F001024FF0E023DA
:100E40001A6100229A6170471200002000BF054A13
:100E5000128802F04002002AF9D0C2B2014B9A80F7
:100E6000704700000010014000BFA820FFF78EFF70
:100E70004FF4E13000F01AF805A0FFF75FFF06E03D
:100E800008A0FFF75BFF4FF4FA60FFF79DFFF7E75D
:100E900068632D73723034207374617274210D0A8B
:100EA0000000000068656C6C6F0D0A0010B588B01A
:100EB000044601210846FFF797FC01211020FFF7A7
:100EC000A3FC072209212648FFF71EFC07220A215E
:100ED0002348FFF719FC4FF4C060069002208DF8FC
:100EE0001C008DF81D0000208DF81E0001208DF8DB
:100EF0001F0006A91A48FFF7BFFB02940020ADF8B7
:100F00000C00ADF80E00ADF81000ADF814000C2088
:100F1000ADF8120002A91348FFF79EFE0121114807
:100F2000FFF73FFE40210F48FFF732FE012240F25B
:100F300025510C48FFF76BFE4FF4A060FFF748FC0B
:100F400025208DF8040003208DF805008DF806009B
:100F500001208DF8070001A8FFF7FEFB08B010BDC7
:100F60000000024000100140880F0008000000202F
:100F70002C0000004C0D0008B40F00082C000020CD
:100F8000CC0400005C0D0008000000000000000020
:100F90000000000000000000000000000000000051
:100FA0000000000000000102030401020304060720
:040FB000080900002C
:040000050800018965
:00000001FF
