:020000040800F2
:100000001047002051280008E5040008E704000814
:10001000EB040008EF040008F304000800000000EF
:10002000000000000000000000000000F7040008CD
:10003000F904000800000000FB040008FD040008AB
:100040006B2800086B2800086B2800086B28000844
:100050006B2800086B2800080B0500086B280008B7
:100060006B2800086B2800086B2800086B28000824
:100070006B2800086B280008D30500086B280008CF
:100080006B2800086B2800086B2800086B28000804
:100090006B2800086B2800086B2800086B280008F4
:1000A0006B2800086B2800086B2800086B280008E4
:1000B0006B28000815050008FF0400086B280008DD
:1000C0006B2800086B2800086B2800086B280008C4
:1000D0006B28000817050008EF0500086B280008CA
:1000E0006B2800086B2800086B28000800F002F855
:1000F00000F0B4F80AA090E8000C82448344AAF10E
:100100000107DA4501D100F0A9F8AFF2090EBAE80B
:100110000F0013F0010F18BFFB1A43F0010318473B
:100120006C9100008C91000010F8013B0A4413F020
:10013000030408BF10F8014B1D1108BF10F8015B44
:10014000641E05D010F8016B641E01F8016BF9D133
:10015000002D15D010F8014B03F00C030C2BA1EB74
:1001600004040ABF10F8013BA4EB8314A4EB03249E
:1001700005F1010314F8016B5B1E01F8016BF9D561
:10018000914238BF10F8013BD1D3704700230024BF
:1001900000250026103A28BF78C1FBD8520728BF97
:1001A00030C148BF0B6070476E2904F0C9847029C4
:1001B00005F02380662908F03784652908F0348427
:1001C000672908F03184612908F0308403681B0A2C
:1001D00028BF41F08001692904F07684642904F085
:1001E0007384752904F070846F2904F0B08778292E
:1001F00004F0EF87E92904F04B87E42904F04887ED
:10020000F52904F04587EF2904F0AD87F82904F0BB
:10021000EE870368DB0928BF41F08001632905F000
:100220004383732905F04883E32905F05383F329B9
:1002300005F05883002070471FB505F0C1F8040091
:100240000020002107F0ECFC401C60600020002131
:1002500007F0FCFCE0601FBD10B510BD05F006FC0A
:100260001146FFF7E9FF00F009F805F0A1FE03B41D
:10027000FFF7F2FF03BC02F0C3F9000090B04FF4A7
:10028000A06002F005FB4FF4E13002F0C7F902F084
:1002900011FA02F059FA4FF4E13000F039FF02F0A0
:1002A00045F900F010FE00F0A9FB0C2378A2002114
:1002B000382000F00BFD0C2377A219461E2000F019
:1002C00005FD0C2376A21946502000F0FFFC4FF4E8
:1002D000AF61754802F028FA4FF4C86172481430D3
:1002E00000F05FFFD2E07148007800285DD0002464
:1002F0006F48807A6E49497A40EA01240C20042331
:10030000224600210090012000F00DFD40F2DC505B
:10031000844203DB002065490870B7E02246644947
:100320000C31644804F0C3FA2146624802F0BCF87C
:1003300008B36148007870BB01205F49087021460E
:100340005948143802F045FA0C20032300905B480A
:1003500002780C21362000F0E6FC5848007864282A
:1003600003DD0020554908701BE054480078401C0C
:100370005249087015E00C20032300905048027881
:100380000C21682000F0CFFC4D480078642803DD84
:1003900000204B49087004E049480078401C484957
:1003A000087000204149087000BF464800780028C6
:1003B0006BD000200E9000210C910D910A910B91B1
:1003C0000C2320220221762000F015FC36485838F4
:1003D000006FC0F5C8600E900E9882B23A493B4853
:1003E00001F0ABFE4FF4C8612F48143000F0D9FE85
:1003F0000020344908703648006808B9012000E040
:1004000000203349086030480C3801F0C0FF00B1CB
:100410003CE00AA80CA9CDE900102B488C30D0E9AB
:10042000004308382246D0E90061304601F06CFBF9
:100430000C20009024480C3801230021D0F8A8207B
:10044000762000F070FC002006900790089009903C
:1004500002900390049005901EA106A8DDE90C23EC
:1004600004F0EAF80C2306AA2421012000F02EFC57
:100470001AA102A8DDE90A2304F0DEF80C2302AA7F
:100480003021012000F022FC00BF00BF2BE700005C
:1004900054657374000000006A616D3A000000004A
:1004A0006372633A000000005800024044200020BC
:1004B000D03600205831002045200020000C0020BC
:1004C000010C00201C14002074200020A025002016
:1004D000B40122426C61743A256600006C6F6E3A7A
:1004E00025660000704700BFFEE700BFFEE700BFC3
:1004F000FEE700BFFEE7704770477047704710B5D2
:100500000121484803F0D9FF10BD10B5012004F0C7
:100510005DF810BD704710B5002440F224414248F8
:1005200002F064FF002853D03F48001D00883E4879
:1005300000883E48C06DC0F5AF6422463CA13F48EC
:1005400002F05BF9A8B13E48007890B93D480078C8
:1005500020B100203C4908603A4908703A480460DC
:1005600022463649394804F0A2F90120354908707D
:1005700028E03448007828B333480068204440F22B
:10058000DC51884205DD00202F4908602D490870A4
:1005900018E02E492C4A126888182246274904F090
:1005A00086F922462AA1254802F027F928B1002021
:1005B000244908700120224908702348006820441B
:1005C000214908604FF4AF611848583002F0ACF888
:1005D00010BD10B51548006800F4005030B14FF45C
:1005E000005003F043F800201C49087010BD10B5FE
:1005F00040F224411A4802F0F9FE88B118480088F8
:100600001748001D00881748007830B14FF4C861C2
:1006100006486C3000F0C5FD02E001201149087069
:1006200010BD0000000800400038014000000240FA
:100630007274636D5F48656164000000E02B002008
:10064000442000200610002048200020D036002042
:100650007274636D5F456E640D0A000045200020D2
:10066000004400401C1400200CB5002001900090B4
:100670006C48006840F480306A49086000BF6948EF
:10068000006800F4003000900198401C0190009830
:1006900018B90198B0F5A06FF1D16248006800F474
:1006A000003010B10120009001E00020009000987F
:1006B000012843D15C48006840F010005A490860A6
:1006C0000846006820F0030008600846006840F013
:1006D0000200086053484068524948600846406834
:1006E00048600846406840F48060486008464068BA
:1006F00020F47C1048600846406840F4E8104860E8
:100700000846006840F08070086000BF45480068F7
:1007100000F000700028F9D04248406820F0030043
:10072000404948600846406840F00200486000BF09
:100730003C48406800F00C000828F9D10CBD10B509
:10074000FFF792FF10BD10B53648006840F0010079
:1007500034490860084640683449084031494860D7
:1007600008460068324908402E490860084600687B
:1007700020F4802008600846406820F4FE004860AD
:100780004FF41F008860FFF7DAFF4FF0006029493F
:10079000086010BD10B5002100200022214B5B68CD
:1007A00003F00C0121B1042906D0082928D107E063
:1007B000214B224C236027E01F4B204C236023E079
:1007C000184B5B6803F47010164B5B6803F48032BF
:1007D000022303EB904022B9194B4343174C23608B
:1007E0000DE0104B5B6803F4003323B1144B43431B
:1007F000124C236003E0104B4343104C236003E092
:100800000D4B0E4C236000BF00BF064B5B68C3F36B
:1008100003130C4CE15C094B1B68CB40074C236075
:1008200010BD000000100240002002400000FFF850
:10083000FFFFF6FE08ED00E000127A00081000202D
:1008400000093D000C10002010B54FF48071F748EE
:1008500002F099F94FF40071F44802F096F94FF460
:100860000071F24802F08FF910BD10B54FF480719D
:10087000EE4802F088F94FF48071EC4802F085F9F7
:1008800010BD70B50446002520E04FF48071E748A4
:1008900002F07BF904F0800028B14FF40071E348C6
:1008A00002F071F904E04FF40071E04802F06DF9D4
:1008B0004FF48071DD4802F066F94FF48071DB4837
:1008C00002F063F96006040E681CC5B2082DDCDB7B
:1008D00070BD10B54FF40071D44802F054F94FF4D4
:1008E0008071D24802F04FF94FF40071CF4802F006
:1008F0004CF94FF48071CD4802F047F910BD70B546
:1009000005460C46FFF7E5FF7820FFF7BAFFFFF733
:10091000ACFF1CB14020FFF7B4FF02E00020FFF75E
:10092000B0FFFFF7A2FF2846FFF7ABFFFFF79DFFE1
:10093000FFF78AFF70BD10B504461CB90021A62040
:10094000FFF7DDFF012C03D10021A720FFF7D7FF20
:1009500010BD10B504463CB90021C820FFF7CFFFF9
:100960000021A120FFF7CBFF012C07D10021C020DF
:10097000FFF7C5FF0021A020FFF7C1FF10BD10B594
:1009800000218D20FFF7BBFF00211420FFF7B7FFE8
:100990000021AF20FFF7B3FF10BD10B500218D205F
:1009A000FFF7ADFF00211020FFF7A9FF0021AF20C6
:1009B000FFF7A5FF10BD70B500241CE004F1B001E5
:1009C000C8B20021FFF79BFF00210846FFF797FF01
:1009D00000211020FFF793FF002508E0944901EB68
:1009E000C501085D0121FFF78AFF681CC5B2802D93
:1009F000F4DB601CC4B2082CE0DB70BD70B50024D1
:100A00000CE0002506E00020894901EBC5010855EE
:100A1000681CC5B2802DF6DB601CC4B2082CF0DB6C
:100A2000FFF7C9FF70BD70B50A46CE1701EB5676C9
:100A3000C6F3C703CE1701EB5676F610A1EBC60638
:100A4000F4B20122A240D5B2794A02EBC002D25CD4
:100A50002A43774E06EBC006F25470BD70B50B46C4
:100A6000CE1701EB5676C6F3C702CE1701EB5676CA
:100A7000F610A1EBC606F4B20123A340DDB26C4B25
:100A800003EBC0039B5CDB43694E06EBC006B3542B
:100A9000674B03EBC0039B5C2B43654E06EBC00624
:100AA000B354634B03EBC0039B5CDB43604E06EB2C
:100AB000C006B35470BD2DE9F84F05460E461746E3
:100AC0009846802F06DCB8F1400F03DCBD4201DC04
:100AD000464501DDBDE8F88FBD420DD1002406E09A
:100AE0003019C1B22846FFF79EFF601CC4B2A8EBC4
:100AF0000600A042F4DC30E046450CD1002406E0BC
:100B00002919C8B23146FFF78EFF601CC4B2781BAA
:100B1000A042F5DC21E0A8EB060000F0FF0A781BFC
:100B200000F0FF0B0AEB8A00400090FBFBF000F0A6
:100B3000FF0900240EE004FB09F00A2190FBF1F00C
:100B40003044C0B229190090C8B20099FFF76BFF7A
:100B5000601CC4B2781BA042EDDC00BFBAE72DE9EF
:100B6000F04306460F469046002544463BE03A1BBC
:100B7000D1B27219D0B2FFF756FF3A1BD1B2721B35
:100B8000D0B2FFF750FF3A19D1B2721BD0B2FFF7C3
:100B90004AFF3A19D1B27219D0B2FFF744FF7A195D
:100BA000D1B23219D0B2FFF73EFF7A1BD1B232195F
:100BB000D0B2FFF738FF7A1BD1B2321BD0B2FFF7A9
:100BC00032FF7A19D1B2321BD0B2FFF72CFF6D1C65
:100BD00005FB05F004FB040008FB1809B9F1000F40
:100BE00001DD641E6D1E6000604308FB08F1884251
:100BF000BDDABDE8F0832DE9FF4F81B007460D4611
:100C00001C4600952046E31704EB5373DB10214686
:100C10004FEAE47C04EB5C7C4FEAEC0CA4EBCC0CDC
:100C2000BCF1000F06D04FF0010C05E0000C0140B4
:100C3000202100204FF0000C6344224604EBD27CBC
:100C40004FEA6C0C03FB0CF303F0FF0A0398203807
:100C500000F0FF0B002633E00C2C07D10BEB4B0010
:100C6000FE4901EB800010F8069002E005B0BDE8F7
:100C7000F08F4FF000081DE009F0800020B12946F8
:100C80003846FFF7D0FE03E029463846FFF7E6FE78
:100C90004FEA49604FEA1069681CC5B20098281AEB
:100CA000A04203D1009D781CC7B206E008F1010004
:100CB00000F0FF08B8F1080FDEDB00BF701CC6B201
:100CC0005645C9DBFFF777FE00BFCFE72DE9F041BE
:100CD00006460F4614461D4613E022782B46394639
:100CE0003046FFF788FF284605EBD07106EB61011F
:100CF000CEB2C5F18000B04202DA0026B81CC7B2FD
:100D0000641C2078202802DB20787E28E5DDBDE801
:100D1000F08110B50246012000E050430B1EA1F106
:100D20000101FAD110BD2DE9F05F06468A469146D1
:100D30001F460A9C00252BE0781B411E0A20FFF766
:100D4000E8FFB9FBF0F00A21B0FBF1F201FB120859
:100D5000B8F1000F0CD1A34604EBDB71491001FB85
:100D60000561C8B2234630225146FFF744FF0DE02B
:100D7000A34604EBDB71491001FB0561C8B208F121
:100D80003001CAB223465146FFF735FF681CC5B291
:100D9000BD42D1DBBDE8F09F2DE9F047064689460C
:100DA00090461F46002421E0381B411E1020FFF70B
:100DB000B0FFB8FBF0F000F00F050A2D0ADA05F1DC
:100DC0003001CAB206EBC401C8B210234946FFF78E
:100DD00012FF09E005F13701CAB206EBC401C8B23F
:100DE00010234946FFF707FF601CC4B2BC42DBDB9F
:100DF000BDE8F0872DE9F0470646884617461D46B0
:100E0000002414E0281B411E0220FFF782FFB7FBDD
:100E1000F0F000F0010000F1300906EBC401C8B2A7
:100E200010234A464146FFF7E6FE601CC4B2AC42BE
:100E3000E8DBBDE8F08770B504460D4605F1B0016A
:100E4000C8B20021FFF75BFD102141EA1410002118
:100E5000FFF755FD04F00F0141F001000021FFF7FD
:100E60004EFD70BD2DE9F05F05460E4617469846CB
:100E7000DDF828B04FF00009CA460024E11704EB62
:100E80005171C910A4EBC10101B901E0601CC4B2E9
:100E9000344614E021462846FFF7CDFFAA460AE073
:100EA0001BF809000121FFF72AFD09F101090AF1E8
:100EB000010000F0FF0ABA45F2DB601CC4B24445F1
:100EC000E8DBBDE8F09F08B50121082002F06AF8D0
:100ED0004FF44070ADF8000010208DF8030003209F
:100EE0008DF8020069465E4801F0A0FD4FF44071A4
:100EF0005B4801F048FE0121082002F053F803206E
:100F0000ADF8000010208DF8030003208DF80200DA
:100F10006946534801F08AFD0321514801F033FE30
:100F20000121102002F03EF84FF40050ADF800000F
:100F300010208DF8030003208DF80200694649480F
:100F400001F074FD4FF40051464801F01CFE0121F0
:100F5000434801F018FE642001F025FB01214048C0
:100F600001F013FEC82001F01EFB01213C4801F0F6
:100F70000AFE02213A4801F008FE0021AE20FFF7E8
:100F8000BEFC00210846FFF7BAFC00211020FFF745
:100F9000B6FC00214020FFF7B2FC00218120FFF7C2
:100FA000AEFC0021CF20FFF7AAFC0021A120FFF713
:100FB000A6FC0021C820FFF7A2FC0021A620FFF715
:100FC0009EFC0021A820FFF79AFC00213F20FFF79C
:100FD00096FC0021D320FFF792FC00210846FFF782
:100FE0008EFC0021D520FFF78AFC00218020FFF72E
:100FF00086FC0021D920FFF782FC0021F120FFF7B9
:101000007EFC0021DA20FFF77AFC00211220FFF796
:1010100076FC0021DB20FFF772FC00214020FFF767
:101020006EFC00212020FFF76AFC00210220FFF760
:1010300066FC00218D20FFF762FC00211420FFF7E1
:101040005EFC0021A420FFF75AFC0021A620FFF738
:1010500056FC0021AF20FFF752FC05E02C8B000866
:10106000000C014000100140FFF7C8FC08BD000063
:1010700010B586B004460121042001F093FF012140
:10108000480401F09CFF0420ADF8140018208DF8EE
:10109000170003208DF8160005A9854801F0C6FC4D
:1010A0000820ADF8140004208DF8170003208DF8F7
:1010B000160005A97E4801F0B9FC01940C20ADF89A
:1010C0000E000020ADF80A00ADF80800ADF80C00E5
:1010D000ADF8100001A9774802F00BF826208DF832
:1010E000000003208DF801008DF8020001208DF82A
:1010F0000300684601F0D1FB012240F224416D4813
:1011000002F08FF801216B4802F07FF806B010BDA5
:1011100010B58CB004462046FFF7AAFF012108460F
:1011200001F033FF0021644802F071FA624802F0D6
:10113000A1F910208DF82C0001208DF82F0002203D
:101140008DF82D008DF82E000BA801F0A6FB0020D5
:1011500002904FF4C86003905648001D0090002094
:10116000049006905548019080200590002007903B
:1011700008904FF48050099000200A9069464E482C
:1011800002F01AFA012240214A4802F06FF84FF4A7
:10119000801002F06BFA0121474802F038FA0CB0D7
:1011A00010BD70B504460D460021204602F02FFA0E
:1011B0002946204602F040FA0121204602F027FA93
:1011C00070BD70B504460D462946204602F08AF8E7
:1011D00000BF8021204602F0F3F80028F9D070BD4E
:1011E0002DE9F04106460C462712E5B2F9B2304629
:1011F000FFF7E7FF29463046FFF7E3FFBDE8F08140
:1012000070B504460D4616462088A08804E015F8FF
:10121000011B2046FFF7D5FF301EA6F101018EB25B
:10122000F5D100BF4021204602F0CAF80028F9D0CD
:1012300070BD2DE9F04104460D4616460027208872
:10124000A0880DE015F8011B204602F04BF800BF06
:101250004021204602F0B4F80028F9D0781C87B26B
:10126000B742EFDBBDE8F0810FB430B5CBB0054637
:1012700001AC50A800904FF4947101A8009B4F9AC4
:1012800003F0C0F9002000900BE014F8011B284681
:1012900002F028F800BF4021284602F091F800280B
:1012A000F9D020780028F0D14BB030BC5DF814FBA9
:1012B00000080140004400406C000240A0250020CE
:1012C0002DE9F04F8FB004460D4616461F46B04636
:1012D000B946A246AB46FE480CC85046594606F0F1
:1012E000E3FFCDE9020106F025FCFA4AFA4BCDE90D
:1012F000040106F0D9FF52465B46CDE9080150468D
:10130000594606F0D1FF42464B46CDE90201404620
:10131000494606F0C9FFCDE90001DDE9022306F0E8
:10132000DDFCCDE9040106F055FCCDE90601DDE95F
:10133000082306F0D3FCCDE90C01E5480CC8404673
:10134000494606F0B1FFCDE9020106F087FAE34A0B
:10135000E34BCDE9040106F0A7FF42464B46CDE939
:1013600008015046594606F0A3F9CDE90601DDE92A
:10137000082306F0B3FCCDE90A01DDE90A0106F015
:101380006DFACDE90601DDE90C2306F08DFFD54AA3
:10139000D54BCDE9080106F0A1FC199A03C2DDE99D
:1013A0000A0106F0C7FBCDE90601DDE90C2306F0D2
:1013B0007BFFCE4ACE4BCDE9080106F08FFC189A90
:1013C00003C200200FB0BDE8F08F2DE9F04F8FB0C1
:1013D00004460D469046994600BF25F00040CDE9F1
:1013E00008402046099906F0F5FB8246C14AC24BE7
:1013F00006F05AFFBF4AC04BCDE90C0120462946F2
:1014000006F052FF824642464B4606F04DFFB94A6F
:10141000B94BCDE908012046294606F045FF824632
:1014200022462B4606F040FF42464B46CDE90401DA
:1014300000204FF0804106F037FF82468B460022A5
:10144000AE4B2046294606F049FC52465B46CDE9A4
:10145000000106F043FCCDE90201DDE9042306F0BA
:101460003DFCCDE90601DDE9082306F037FCCDE9B6
:101470000A01DDE90C2306F031FC06460F46002286
:101480004FF080432046294606F00EFFCDE90001CB
:101490009B480CC8009806F007FF824606F04AFBFE
:1014A0000022984BCDE9020106F0FEFE0022964B89
:1014B000CDE906012046294606F0F6FE8246904810
:1014C0000CC8504606F0F0FECDE9000106F032FBF4
:1014D00000228C4BCDE9020106F0E6FECDE90401C5
:1014E000DDE9062306F0FAFB00224FF08043CDE948
:1014F000080106F0D9FE0022844BCDE90A0106F06E
:10150000A9FC32463B46CDE90C0106F0E7FB064656
:101510000F4600227D4B2046294606F09BFC824662
:1015200077480CC8504606F0BFFECDE9000106F032
:1015300001FB0022764BCDE9020106F0B5FECDE9B4
:1015400006016F480CC82046294606F0ADFECDE9DD
:10155000020106F0EFFA824600226A4B06F0A4FE72
:10156000CDE90401DDE9062306F0B8FB00224FF0C7
:101570008043CDE9080106F097FE0022634BCDE9D8
:101580000A0106F067FC32463B46CDE90C0106F045
:10159000A5FB06460F4600225E4B2046294606F074
:1015A00059FCCDE9000156480CC8009806F07CFEB5
:1015B000CDE9020106F0BEFA824600224F4B06F04A
:1015C00073FE0022544BCDE906012046294606F061
:1015D00041FC82464A480CC8504606F065FECDE9FB
:1015E000000106F0A7FA00224C4BCDE9020106F0FB
:1015F0005BFECDE90401DDE9062306F06FFB002266
:101600004FF08043CDE9080106F04EFE00223F4B2B
:10161000CDE90A0106F01EFC32463B46CDE90C013D
:1016200006F05CFB06460F46304639460FB0BDE873
:10163000F08F2DE9F04F91B004460D4616461F4637
:1016400000BF25F00040CDE90A4020460B9906F086
:10165000C1FA8246274A324B06F026FE254A264B1F
:10166000CDE90E012046294606F01EFE824632468E
:101670003B4606F019FE32463B46CDE90A011D48BD
:10168000274906F011FE824632463B4606F00CFE24
:1016900032463B46CDE9060100201C4906F004FE17
:1016A00000224FF08043CDE902012046294606F092
:1016B000FBFD824600221B4B06F010FBCDE900012A
:1016C000DDE9022306F00AFBCDE904012CE000006D
:1016D00038180020F168E388B5F8F43E54E410713E
:1016E000732AC93E39B4C876BE9F7A3FFA7E6ABC77
:1016F0007493783F9A9999999999B93F00C072402B
:10170000201800200000344000001840000008406D
:101710000000444000003E400000284000C06240FD
:101720009999C93F000059C0DDE9062306F0D6FAB1
:10173000CDE90801DDE90A2306F0D0FACDE90C0174
:10174000DDE90E2306F0CAFA8046894600224FF0F2
:1017500080432046294606F0A7FD8246FC480CC877
:10176000504606F0A1FDCDE9020106F0E3F90022A2
:10177000F84BCDE9040106F097FD0022F64BCDE9C8
:1017800008012046294606F08FFD8246F0480CC825
:10179000504606F089FDCDE9020106F0CBF90022A2
:1017A000EC4BCDE9040106F07FFDCDE90601DDE952
:1017B000082306F093FA00224FF08043CDE90A0196
:1017C00006F072FD0022E54BCDE90C0106F042FB6C
:1017D00042464B46CDE90E0106F080FA8046894626
:1017E0000022DE4B3046394606F034FB8246D848AC
:1017F0000CC8504606F058FDCDE9020106F09AF9F2
:101800000022D74BCDE9040106F04EFDCDE90801D9
:10181000CF480CC83046394606F046FDCDE90401F4
:1018200006F088F982460022CA4B06F03DFDCDE95C
:101830000601DDE9082306F051FA00224FF080434B
:10184000CDE90A0106F030FD0022C44BCDE90C01C0
:1018500006F000FB42464B46CDE90E0106F03EFA8B
:1018600080468946BA480CC83046394606F01CFD09
:1018700082460022BB4B06F0EDFACDE9020106F0EC
:1018800059F90022B84BCDE9040106F00DFD002204
:10189000B64BCDE908013046394606F0DBFA824600
:1018A000AB480CC8504606F0FFFCCDE9020106F03B
:1018B00041F90022AE4BCDE9040106F0F5FCCDE97B
:1018C0000601DDE9082306F009FA00224FF0804303
:1018D000CDE90A0106F0E8FC0022A04BCDE90C019D
:1018E00006F0B8FA42464B46CDE90E0106F0F6F98D
:1018F000804689464046494611B0BDE8F08F2DE943
:10190000F04104460D4616461F469A4A9A4B204619
:10191000294606F06FFE17D2984A994B2046294671
:1019200006F086FC10D232463B469648964906F0B1
:101930007FFC09D2954A964B3046394606F078FC32
:1019400002D20020BDE8F0810120FBE72DE9F04F35
:1019500093B004460D4616461F4632463B46204687
:101960002946FFF7CCFF38B11C9830C01D98C0C085
:10197000002013B0BDE8F08F0022864B2046294698
:1019800006F060FF0022844BCDE90A01304639465B
:1019900006F058FFCDE90801DDE90A23FFF749FE0B
:1019A000CDE9100100227B4B2046294606F04AFF74
:1019B0000022794BCDE90A013046394606F042FF54
:1019C000CDE90801DDE90A23FFF7FFFCCDE90E01AF
:1019D0000022724B2046294606F03CFACDE90A0166
:1019E0005B480CC80A9806F05FFC82468B4650465E
:1019F000594606F09FF88046894642464B4668495C
:101A000003C906F051FC42464B46CDE9080106F0F9
:101A10004BFC0022634BCDE90A0106F021FE804613
:101A200089464046494606F0D5F8CDE90C014046C6
:101A30004946DDE90C2306F037FCCDE9040158489E
:101A40000CC80020574906F0FDFECDE900015648BC
:101A50000CC8009806F028FCCDE90201DDE904235A
:101A600006F0F8F9CDE9060139480CC8069806F0E9
:101A70001BFC0022494BCDE90A01DDE9100106F00B
:101A800013FCCDE90801DDE90A2306F0E3F9CDE90D
:101A900010015046594605F0E1FECDE904014249E6
:101AA000DDE90C2303C906F0D5F9CDE90201DDE932
:101AB000042306F0F9FBCDE9060125480CC8069879
:101AC00006F0F2FB0022354BCDE90A01DDE90E01FB
:101AD00006F0EAFBCDE90801DDE90A2306F0BAF9D0
:101AE000CDE90E0120462946DDE9102306F0F6F87F
:101AF0001C9A03C230463946DDE90E2306F0EEF8A3
:101B00001D9A03C2002034E72DE9F04387B0044654
:101B10000D4616461F46DDE90E8900210491059108
:101B20000291039102A804A932463B46CDE9001078
:101B300020462946FFF70AFFCDE90089DDE90223A7
:101B4000DDE90401FFF7BCFB002007B0BDE8F0832E
:101B50002018002000003440000018400000084019
:101B60000000444000003E40000074400000284057
:101B70000000644014AE47E17A140C400AD7A37009
:101B80003DAA4A4085EB51B81E5552409A99999901
:101B900099E160400080414000405A40008066402A
:101BA000301800200000F03F281800202DE9FF5FCA
:101BB0008CB082468B46FE4AFE4BDDE90E0106F0F4
:101BC00041FE04460D46FC4AFC4B5046594606F081
:101BD00039FE06460F46FA480CC83046394606F02C
:101BE00063FBCDE9020105F0A5FFF64AF64BCDE90E
:101BF000040106F059FB32463B46CDE90801304668
:101C0000394606F051FB22462B46CDE9020120461B
:101C1000294606F049FBCDE90001DDE9022306F083
:101C20005DF8CDE9040105F0D5FFCDE90601DDE958
:101C3000082306F007FECDE90A01E1480CC820465A
:101C4000294606F031FBCDE9020105F007FEDF4A27
:101C5000DF4BCDE9040106F027FB22462B46CDE9F8
:101C600008013046394605F023FDCDE90601DDE9DE
:101C7000082306F0E7FD804689464046494605F0C0
:101C8000EDFDCDE90801DDE90A2306F00DFB1B9A05
:101C900003C24046494605F04DFFCDE90801DDE9A4
:101CA0000A2306F001FB1A9A03C2002010B0BDE817
:101CB000F09F2DE9F04F97B004460D4690469946A7
:101CC000002012901390149015900022C14B2046D2
:101CD000294606F0B7FD0022BF4BCDE90A01404678
:101CE000494606F0AFFDCDE90801DDE90A23FFF71B
:101CF000A0FC82468B460022B64B2046294606F0C1
:101D0000A1FD0022B44BCDE90A014046494606F048
:101D100099FDCDE90801DDE90A23FFF756FBCDE97E
:101D200010010022AD4B2046294606F093F8CDE97C
:101D30000A01AB480CC80A9806F0B6FACDE90E01C4
:101D4000DDE90E0105F0F6FE06460F4632463B463B
:101D5000A44903C906F0A8FA32463B46CDE908017A
:101D600006F0A2FA0022A04BCDE90A0106F078FCA9
:101D700006460F463046394605F02CFFCDE90C01EA
:101D800030463946DDE90C2306F08EFACDE9040130
:101D900094480CC80020944906F054FDCDE9000198
:101DA00092480CC8009806F07FFACDE90201DDE9FF
:101DB000042306F04FF8CDE9060189480CC80698BF
:101DC00006F072FA0022854BCDE90A0150465946C9
:101DD00006F06AFACDE90801DDE90A2306F03AF8CF
:101DE00082468B46DDE90E0105F038FDCDE90401A0
:101DF0007E49DDE90C2303C906F02CF8CDE9020188
:101E0000DDE9042306F050FACDE9060174480CC858
:101E1000069806F049FA0022704BCDE90A01DDE987
:101E2000100106F041FACDE90801DDE90A2306F0C8
:101E300011F8CDE91001CDE912ABDDE91001CDE9D2
:101E4000140112A817B0BDE8F08F2DE9F05F044629
:101E50000D4616461F46DDE90A9A32463B462046A5
:101E60002946FFF74CFD30B1C9E90045CAE90067D2
:101E70000020BDE8F09F32463B4620462946FFF74A
:101E800018FF8046D8E900B35A462046294606F096
:101E9000D9FCC9E90001D8E902B35A4630463946AF
:101EA00006F0D0FCCAE900010020E2E72DE9FF5F5F
:101EB00094B014A80FC8FFF722FD68B1229ADDE99B
:101EC0001410C2E90010239ADDE91610C2E90010CF
:101ED000002018B0BDE8F09FDFF81481DFF81491FE
:101EE00045494648CDE9121044464D4626462F4600
:101EF00022462B46DDE9140106F0A4FCCDE91001D1
:101F000034463D4622462B46DDE9160106F09AFC92
:101F1000CDE90E0122462B46DDE9140105F0DEFE77
:101F2000CDE90C0132463B46DDE9160105F0D6FE4F
:101F3000CDE90A0100BF00BF00210691079104917D
:101F4000059102910391A4E0DDE90C23DDE9100184
:101F500005F0C4FE00224FF08043CDE9000105F0FA
:101F600079FF82468B46DDE90A23DDE90E0105F0A3
:101F7000B5FE00224FF08043CDE9000105F06AFF75
:101F8000CDE9080102A804A9CDE900105046594640
:101F9000DDE90823FFF7DAFCDDE91623DDE90201BC
:101FA00006F050FC06460F46DDE9042328E0000059
:101FB00039B4C876BE9F7A3FFA7E6ABC7493783F84
:101FC00038180020F168E388B5F8F43E54E4107145
:101FD000732AC93E0080414000405A40008066405C
:101FE00020180020301800200000F03F28180020A2
:101FF0007B14AE47E17A843F95D626E80B2E113E3E
:10200000DDE9140106F02CFB04460D4625F00040E6
:10201000CDE900402046DDE91223019906F008F9D8
:102020000BD227F00040CDE900603046DDE91223F5
:10203000019906F0FDF800D22CE00022134620465C
:10204000294606F0D7FA02D2CDE90CAB01E0CDE982
:1020500010AB002213463046394606F0CBFA04D2C4
:10206000DDE90801CDE90A0103E0DDE90801CDE978
:102070000E010022FC4BDDE9060105F02FFECDE943
:1020800006010022F94BCDE9000106F0B3FA00D2B7
:1020900000E059E700BF2298C0E900AB239ADDE9D0
:1020A0000810C2E90010002013E72DE9F04387B0C3
:1020B00004460D4616461F46DDE90E8900210491AF
:1020C00005910291039102A804A932463B46CDE94D
:1020D000001020462946FFF769FDCDE90089DDE9BA
:1020E0000223DDE90401FFF7B0FE002007B0BDE8E0
:1020F000F0832DE9F04387B004460D4616461F468F
:10210000DDE90E890021049105910291039102A855
:1021100004A932463B46CDE9001020462946FFF788
:1021200045FDCDE90089DDE90223DDE90401FFF782
:10213000BDFE002007B0BDE8F0832DE9F041064662
:102140000D46174600248021284602F0F5FBC8A161
:10215000304602F09AFB0446ECB1002000BF14F8B0
:10216000013B0146421CD0B26B5421782A29F6D19A
:1021700014F8013B0146421CD0B26B5414F8013BE9
:102180000146421CD0B26B5414F8013B0146421C7C
:10219000D0B26B5400BFBDE8F0812DE9F05F04467A
:1021A0000D460022B44B2046294605F013FC064696
:1021B0000022B24B05F04EFE804689460022AE4B0F
:1021C0002046294605F046FE064605F095FB824668
:1021D00042464B4605F082FDBDE8F09F2DE9F04FE9
:1021E00095B006460D46914600211291139110912B
:1021F00011910E910F910C910D9100200A900B906E
:1022000008900990069107914E2005904520049072
:1022100020200390029000200190009000245DE0B7
:102220000D2C59D2DFE804F0070E151A21262C32A6
:102230003940454C510055F8240005F0F9FACDE934
:10224000120149E055F8240005F0F2FACDE9100139
:1022500042E055F82400007805903DE055F8240050
:1022600005F0E6FACDE90E0136E055F824000078D5
:10227000049031E055F8240002F0B8FA01902BE008
:1022800055F8240002F0B2FA009025E055F8240039
:1022900005F0CEFACDE90C011EE055F8240005F05A
:1022A000C7FACDE90A0117E055F824000078039039
:1022B00012E055F8240005F0BBFACDE908010BE067
:1022C00055F824000078029006E055F8240005F047
:1022D000AFFACDE9060100BF00BF641C4C459FDB8F
:1022E0009DF814004E2803D09DF81400532807D100
:1022F0009DF81000452807D09DF81000572803D0FE
:10230000012015B0BDE8F08FDDE91001FFF745FFB2
:1023100082468B469DF814004E2802D10020524977
:1023200001E00020564907463A460B4650465946BA
:1023300005F0BAFFC6E92401DDE90E01FFF72DFF24
:1023400082468B469DF81000452802D10020464960
:1023500001E000204A4907463A460B465046594696
:1023600005F0A2FF46F8980F7160DDE90823DDE96A
:102370000A0105F0B3FCC6E9020100987061414909
:10238000019851F820003061983E0020B9E72DE90E
:10239000F047A0B00746002607F10D04B04603E061
:1023A000207880EA0808641C207810B120782A2858
:1023B000F6D1641C10220021204602F024FA00F01D
:1023C000FF09C84503D0012020B0BDE8F08707F120
:1023D0000C0514E02C21284602F04DFA041E05D10C
:1023E0002A21284602F047FA041E06D03046761C01
:1023F0004DF820500020207000E004E0651C287893
:1024000008B1202EE6DB00BF012E01DA0120DBE758
:10241000721E01A93846FFF7E1FE00F0FF0A5046A0
:10242000D2E778B502460C46002100250DE012F8EF
:10243000010B80EA2140144B53F820006FF07F43DA
:1024400003EA012380EA03016D1CE01EA842EEDCD2
:10245000080C8DF80000080A8DF80100C8B28DF84C
:10246000020000231CE000000000F03F0088C34091
:1024700024474E47474100000000594000004E40AD
:102480000000F0BFA08F00082014002012F8016B9C
:102490001DF80300864201D0012078BD581CC3B24C
:1024A000032BF3DB0020F8E72DE9F041FEB00546F1
:1024B0000E464FF00008002700244FF4FA7101A8DF
:1024C00002F05CFA2AE025E0285DD32820D1601CC8
:1024D000285C00F0FC0040B9A01C295C601C285C52
:1024E00041EA0020801D87B203E040467EB0BDE88F
:1024F000F08129193A4601A802F0D9F9394601A814
:10250000FFF78FFF08B14046F0E7E01984B201E021
:102510004046EBE7B442D7DB4FF00108B8F1000FBB
:1025200001D1002ECFDC4046E0E7000010B56FF08F
:10253000040000F0FCF92E4800682E49B0FBF1F0D1
:102540002D4908700846007800EB4001C1EBC0102F
:102550004FF6FF7101EAC0002849088010BD01460E
:10256000254A12784A434FF0E0235A6100229A61CB
:102570001A46126942F001021A6100BF4FF0E022D0
:10258000106900F001021AB100F48032002AF5D07F
:102590004FF0E022126922F001024FF0E0231A61AD
:1025A00000229A6170470146144A12884A434FF04C
:1025B000E0235A6100229A611A46126942F0010230
:1025C0001A6100BF4FF0E022106900F001021AB159
:1025D00000F48032002AF5D04FF0E022126922F098
:1025E00001024FF0E0231A6100229A617047000057
:1025F0000810002000127A00401C0020421C00201D
:1026000000BF704700BF8D4A128802F04002002AC6
:10261000F9D0C2B2894B1B1D1A80704710B586B025
:102620000446012144F2050000F0BCFC4FF40070A8
:10263000ADF8140003208DF8160018208DF817004F
:1026400005A97F4800F0F2F94FF48060ADF814005E
:1026500004208DF8170005A9794800F0E7F9252036
:102660008DF8000003208DF801008DF80200012094
:102670008DF80300684600F010F901940020ADF8D1
:102680000800ADF80A00ADF80C00ADF810000C2001
:10269000ADF80E0001A9694800F02BFD012240F2BF
:1026A0002441664800F0BDFD0121644800F0ADFD05
:1026B00006B010BD00B58DB00121084600F065FCE4
:1026C0000021604800F0A3FF5E4800F0D3FE0F2019
:1026D0008DF8300001208DF8330002208DF8310094
:1026E0008DF832000CA800F0D8F800200390534871
:1026F000001D019000200590079053480290802013
:1027000006900020089009904FF480500A90002015
:102710000B9001A94B4800F04FFF01224021474890
:1027200000F0A4FD0DB000BD70B504460D460021BB
:10273000204600F06CFF2946204600F07DFF012175
:10274000204600F064FF70BD00B58DB00121084641
:1027500000F01BFC00213B48143800F058FF3948BA
:10276000143800F087FE0E208DF8300001208DF81F
:10277000330002208DF831008DF832000CA800F0F3
:102780008CF8102003902D48001D0190002005902A
:1027900007902E4802908020069000200890099013
:1027A0004FF480500A9000200B9001A9254814385E
:1027B00000F002FF23485838406C40F002002149E5
:1027C00058394864012280211C4800F04FFD0DB0AB
:1027D00000BD70B504460D460021204600F017FFED
:1027E0002946204600F028FF4FF4005000F03EFF3D
:1027F0000121204600F00BFF70BDF0B504460D46E8
:102800001646002100E0491C685C0028FBD100232B
:102810000EE0002200E0521C8A4204D29818205C8C
:10282000AF5CB842F7D08A4201D1E018F0BD5B1C22
:10283000701A9842EDD20020F8E7000000380140FD
:102840000008014058000240E02B002058310020D1
:102850000948804709480047FEE7FEE7FEE7FEE734
:10286000FEE7FEE7FEE7FEE7FEE7FEE70448054970
:10287000054A064B7047000047070008ED000008B6
:10288000103D002010470020103F0020103F002086
:1028900031490143314A1160704770B5002100236E
:1028A0000F22C47804B32D4C246804F4E064C4F50A
:1028B000E064210AC1F10403CA40447804FA03F138
:1028C0008478144021430901254C0678A1550478E9
:1028D00004F01F050124AC4005786D11AD0005F131
:1028E000E025C5F8004109E0047804F01F05012443
:1028F000AC401C4D0678761145F8264070BD1A4A4A
:102900000A400243154B1B1F1A60704739B1134A26
:10291000121D12680243114B1B1D1A6006E00F4A7C
:10292000121D126882430D4B1B1D1A60704704284C
:1029300008D14FF0E021096941F004014FF0E02295
:10294000116107E04FF0E021096921F004014FF027
:10295000E0221161704700000000FA050CED00E074
:1029600000E400E080E100E080FFFF1F10B50446B6
:10297000CC48844208D10121042000F02DFB002125
:10298000042000F029FB46E0C748844208D1012119
:10299000082000F021FB0021082000F01DFB3AE098
:1029A000C248844208D10121102000F015FB00210B
:1029B000102000F011FB2EE0BD48844208D1012117
:1029C000202000F009FB0021202000F005FB22E080
:1029D000B848844208D10121402000F0FDFA0021CE
:1029E000402000F0F9FA16E0B348844208D10121F2
:1029F000802000F0F1FA0021802000F0EDFA0AE0DA
:102A0000AE48844207D10121801500F0E5FA00218B
:102A1000A01500F0E1FA10BD10B50121084600F044
:102A2000DBFA0021012000F0D7FA10BD2DE9F041BA
:102A3000024600250026002000230024002791F8EC
:102A400003C00CF00F0591F803C00CF0100CBCF1A2
:102A5000000F03D091F802C04CEA050591F800C0C0
:102A6000BCF1000F31D0146800202BE04FF0010CB6
:102A70000CFA00F3B1F800C00CEA03069E4220D124
:102A800083004FF00F0C0CFA03F7BC4305FA03FC6C
:102A90004CEA040491F803C0BCF1280F06D14FF0B2
:102AA000010C0CFA00FCC2F814C00AE091F803C053
:102AB000BCF1480F05D14FF0010C0CFA00FCC2F834
:102AC00010C0401C0828D1D31460B1F800C0BCF17C
:102AD000FF0F34DD546800202EE000F1080C4FF0A9
:102AE000010808FA0CF3B1F800C00CEA03069E4294
:102AF00021D183004FF00F0C0CFA03F7BC4305FA09
:102B000003FC4CEA040491F803C0BCF1280F05D182
:102B100000F1080C08FA0CF8C2F8148091F803C010
:102B2000BCF1480F07D100F1080C4FF0010808FA7A
:102B30000CF8C2F81080401C0828CED35460BDE8C1
:102B4000F0814FF6FF710180022181700421C17074
:102B500070470246002093680B400BB1012000E053
:102B6000002070470146886880B270470246002006
:102B7000D3680B400BB1012000E0002070470146F4
:102B8000C86880B2704701617047416170470AB1FF
:102B9000016100E041617047C16070474FF48032CD
:102BA0000A4382618161826182698269704702465B
:102BB0000020434B18684FF68073184040EA02101B
:102BC00008433F4B186070473E49C8617047F0B5F5
:102BD0000A46002300240021002500F00046B6F13B
:102BE000004F02D1364EF16901E0354E7168C0F3F5
:102BF000034583B200F44016B6F5401F08D121F01A
:102C000070612F4E766826F070662D4F7E6012E060
:102C100000F48016B6F5801F06D1032606FA05F4E7
:102C2000A14341F0706106E0460D360103FA06F655
:102C3000B14341F0706122B1460D360103FA06F648
:102C4000314300F00046B6F1004F02D11C4EF16155
:102C500001E01B4E7160F0BD30B500228B071C0FE8
:102C60000F2303FA04F2164B08338C1053F8243068
:102C70009343134C08348D1044F8253023468C10B0
:102C800053F824308C07240F00FA04F423430C4C2F
:102C900008348D1044F8253030BD0A49DC31086015
:102CA0007047000000080140000C01400010014086
:102CB0000014014000180140001C014000200140A8
:102CC0000000014000002042DF48006840F00100A1
:102CD000DD49086008464068DC490840DA49486038
:102CE00008460068DA490840D74908600846006885
:102CF00020F4802008600846406820F4FE00486008
:102D00004FF41F0088607047CF49096821F4803173
:102D1000CD4A11601146096821F480211160B0F597
:102D2000803F03D0B0F5802F0ED106E0C649096878
:102D300041F48031C44A116007E0C349096841F495
:102D4000A021C14A116000E000BF00BF704710B56C
:102D500001460022002300204A11012A02D1BA4C68
:102D6000236806E0022A02D1B74C236A01E0B64C80
:102D7000636A01F01F02012494401C400CB1012041
:102D800000E0002010BD38B5002000900024002590
:102D900000BF3120FFF7DBFF05460098401C009084
:102DA0000098B0F5A06F01D0002DF2D03120FFF7D0
:102DB000CEFF08B1012400E00024204638BD0146C2
:102DC0000020A14A106820F0F80040EAC10010601D
:102DD0007047A04908607047024600209A4B586827
:102DE00020F47C1042EA01031843974B5860704767
:102DF00098490866704701460020934A506820F0C1
:102E000003000843506070478F48406800F00C0092
:102E10007047014600208C4A506820F0F0000843BB
:102E20005060704701460020874A506820F4E060F7
:102E300008435060704701460020834A506820F4E0
:102E4000605040EAC1005060704729B17E4A527A12
:102E500002437D4B5A7204E07B4A527A82437A4B9A
:102E60005A7270477B49D83108607047014600208C
:102E7000754A506820F44040084350607047002174
:102E8000714A20321170704A82F82010012802D055
:102E900004280AD104E001216B4A2032117005E0B8
:102EA0000521694A2032117000E000BF00BF704761
:102EB0006949086070476449096A0143624A1162BE
:102EC0007047654944390860704730B500210022D9
:102ED000002400235C4D6D6805F00C0121B104292C
:102EE00005D0082923D105E05C4D056022E05B4D4B
:102EF00005601FE0544D6D6805F47012524D6D6809
:102F000005F48034022505EB92421CB9544D55431B
:102F100005600BE04C4D6D6805F400351DB1504D5A
:102F20005543056002E04D4D5543056002E04B4DB1
:102F3000056000BF00BF444D6D6805F0F001090950
:102F4000484D6B5C0568DD4045603F4D6D6805F49C
:102F5000E061090A434D6B5C4568DD4085603A4D90
:102F60006D6805F46051C90A3E4D6B5C4568DD40F3
:102F7000C560354D6D6805F44041890B3A4D6B5C79
:102F8000C568B5FBF3F5056130BD29B12E4A52691C
:102F900002432D4B5A6104E02B4A526982432A4B6B
:102FA0005A61704729B1284A92690243264B9A61B7
:102FB00004E0254A92698243234B9A61704729B104
:102FC000214AD2690243204BDA6104E01E4AD269E9
:102FD00082431D4BDA61704729B11B4AD268024314
:102FE000194BDA6004E0184AD2688243164BDA6063
:102FF000704729B1144A12690243134B1A6104E065
:10300000114A12698243104B1A61704712494039C4
:10301000086070470F49C86470470B49C871704712
:103020000948406A40F0807007494862704701468D
:103030000020054A92680A400AB1012000E0002001
:103040007047014988727047001002400000FFF885
:10305000FFFFF6FE000042428004424200127A0066
:1030600000093D00522000206220002010B50446D7
:10307000FB48844209D101218803FFF7ADFF0021FD
:103080004FF48040FFF7A8FF32E0F648844209D1B0
:1030900001214804FFF7ADFF00214FF40030FFF796
:1030A000A8FF25E0F048844209D101218804FFF7F8
:1030B000A0FF00214FF48020FFF79BFF18E0EB48B2
:1030C000844209D10121C804FFF793FF00214FF486
:1030D0000020FFF78EFF0BE0E548844208D1012174
:1030E0000805FFF786FF00214FF48010FFF781FFEE
:1030F00010BD2DE9F04786B005460E460024A246D5
:1031000000BFA1460027B08900B100BF2F462C8A1E
:103110004CF6FF700440F08804432C82AC894EF6D4
:10312000F3100440B088318908437189084304438F
:10313000AC81AC8A4FF6FF400440B0890443AC82B6
:1031400001A8FFF7C2FEC648874202D1DDF810A0F1
:1031500001E0DDF80CA0A88900F4004040B10AEBC2
:10316000CA0000EB0A1031684900B0FBF1F807E033
:103170000AEBCA0000EB0A1031688900B0FBF1F8D5
:103180006420B8FBF0F004012009642101FB1089E0
:10319000A88900F4004040B1322000EBC900B0FB28
:1031A000F1F000F00700044308E0322000EB0910C2
:1031B0006421B0FBF1F000F00F0004432C8106B055
:1031C000BDE8F0874FF41651016000218180C18075
:1031D00001810C21418100218181704710B5024697
:1031E0000020108A4FF2FF0318400B884C882343BD
:1031F0008C882343CC8823431843108210BD0021C0
:10320000018041808180C180704721B1828942F470
:103210000052828104E082894DF6FF731A40828158
:103220007047F0B50346002400260025002040F634
:103230006A17B94200D100BF1846C1F3421401F029
:103240001F06012707FA06F5012C01D10C3004E016
:10325000022C01D1103000E014301AB107682F435E
:10326000076002E00768AF430760F0BD1AB1838AC8
:103270000B43838202E0838A8B4383827047028AF6
:103280004FF6F0731A400282028A0A4302827047A4
:1032900082894FF2FF731A40828182890A438281B8
:1032A000704721B1828942F00202828104E0828962
:1032B0004FF6FD731A4082817047028A4FF6DF7322
:1032C0001A400282028A0A430282704721B1028AAE
:1032D00042F48042028204E0028A4BF6FF731A40F5
:1032E00002827047C1F308028280704701468888D5
:1032F000C0F308007047818941F001018181704766
:10330000028BD2B20283028B42EA0122028370470F
:10331000028B02F47F420283028B0A4302837047CE
:1033200021B1828A42F02002828204E0828A4FF632
:10333000DF731A408282704721B1828A42F0100204
:10334000828204E0828A4FF6EF731A4082827047CD
:1033500021B1828A42F00802828204E0828A4FF61A
:10336000F7731A408282704721B1828942F4004289
:10337000828103E08289C2F30E028281704721B10B
:10338000828A42F40062828204E0828A4FF2FF73F2
:103390001A4082827047828A4FF6FB731A408282FB
:1033A000828A0A438282704721B1828A42F00202F5
:1033B000828204E0828A4FF6FD731A40828270474F
:1033C00002460020B1F5007F00D100BF13880B40FA
:1033D0000BB1012000E00020704701F40072B2F54B
:1033E000007F00D100BFCA430280704770B502461B
:1033F000002400230025002040F66A16B14200D1C7
:1034000000BFC1F3421501F01F03012606FA03F3C2
:10341000012D02D19689334006E0022D02D1168A91
:10342000334001E0968A33400C12012606FA04F478
:103430001688344013B10CB1012000E0002070BDAB
:1034400010B50022002340F66A14A14200D100BF4B
:103450000A1201249440A3B2DC43048010BD000092
:10346000003801400044004000480040004C00404B
:103470000050004001684FF6FE72114001600021CB
:10348000016041608160C1608D49884208D18C49EA
:103490000839496841F00F01894A083A51608AE0C9
:1034A00087491431884208D185490839496841F073
:1034B000F001834A083A51607DE081492831884211
:1034C00008D17F490839496841F470617C4A083A5B
:1034D000516070E07A493C31884208D17849083916
:1034E000496841F47041764A083A516063E0744992
:1034F0005031884208D172490839496841F4702135
:103500006F4A083A516056E06D496431884208D1EB
:103510006B490839496841F47001694A083A5160B9
:1035200049E067497831884208D1654908394968D6
:1035300041F07061624A083A51603CE0614988425A
:1035400006D1011F096841F00F01021F116032E02E
:103550005C491431884208D15A49091F096841F071
:10356000F001584A121F116025E05649283188425F
:1035700008D15449091F096841F47061514A121F6A
:10358000116018E04F493C31884208D14D49091F6C
:10359000096841F470414B4A121F11600BE0494920
:1035A0005031884207D14749091F096841F4702109
:1035B000444A121F1160704710B50022026847F696
:1035C000F0739A430C6A8B6823430C6923434C695C
:1035D00023438C692343CC6923434C6A23438C6A7D
:1035E00023431A430260CB6843600B6883604B68D7
:1035F000C36010BD0021016041608160C160016154
:1036000041618161C161016241628162704721B1A2
:10361000026842F00102026004E002684FF6FE73A5
:103620001A40026070471AB103680B43036002E05E
:1036300003688B43036070474160704701464868E8
:1036400080B2704701460020002201F080531BB178
:103650001C4B083B1A6802E0194B083B1A6802EA47
:1036600001030BB1012000E00020704700F0805101
:1036700019B11449091F086002E01149083948606E
:10368000704701460020002201F080531BB10D4B12
:10369000083B1A6802E00A4B083B1A6802EA010379
:1036A0000BB1012000E00020704700F0805119B1FB
:1036B0000449091F086002E0014908394860704761
:1036C000080002400804024010B50446FE48844247
:1036D00008D10121C014FFF77FFC0021E014FFF79F
:1036E0007BFCC4E0B4F1804F08D101210846FFF70C
:1036F00080FC00210120FFF77CFCB8E0F348844205
:1037000008D101210220FFF774FC00210220FFF7FD
:1037100070FCACE0EE48844208D101210420FFF7A0
:1037200068FC00210420FFF764FCA0E0E948844223
:1037300008D101210820FFF75CFC00210820FFF7D9
:1037400058FC94E0E448844208D101211020FFF79E
:1037500050FC00211020FFF74CFC88E0DF48844239
:1037600008D101212020FFF744FC00212020FFF791
:1037700040FC7CE0DA48844208D101214014FFF784
:103780002BFC00216014FFF727FC70E0D548844231
:1037900009D10121C804FFF71FFC00214FF40020CC
:1037A000FFF71AFC63E0D048844209D101210805E3
:1037B000FFF712FC00214FF48010FFF70DFC56E0DC
:1037C000CA48844209D101214805FFF705FC0021C0
:1037D0004FF40010FFF700FC49E0C548844208D1CF
:1037E00001214020FFF705FC00214020FFF701FCEC
:1037F0003DE0C048844208D101218020FFF7F9FB59
:1038000000218020FFF7F5FB31E0BB48844208D15E
:1038100001218015FFF7EDFB0021A015FFF7E9FB63
:1038200025E0B648844209D101210804FFF7D4FB02
:1038300000214FF48030FFF7CFFB18E0B0488442FE
:1038400009D101214804FFF7C7FB00214FF40030E4
:10385000FFF7C2FB0BE0AB48844208D1012188048A
:10386000FFF7BAFB00214FF48020FFF7B5FB10BD36
:1038700000220288944B98420ED0994B98420BD06C
:10388000B0F1804F08D0914B984205D0904B9842B0
:1038900002D0904B984204D14FF68F731A404B8858
:1038A0001A438D4B984207D08C4B984204D04FF668
:1038B000FF431A40CB881A4302808B8883850B888C
:1038C0000385814B98420BD0854B984208D08B4B97
:1038D000984205D08A4B984202D08A4B984201D137
:1038E0000B7A038601238382704770B5002400227F
:1038F0000023058C4FF6FE7635400584028C8388C4
:10390000048B4FF68F752C40B51E2C400D882C4330
:10391000751E2A400D892A434D882A436A4DA842C4
:103920000BD06F4DA84208D0744DA84205D0744DFD
:10393000A84202D0734DA84213D14FF6F7752A4022
:103940004D892A434FF6FB752A408D882A434FF64E
:10395000FF652B404FF6FF552B408D892B43CD89BA
:103960002B4383800483CD888586028470BD70B527
:10397000002400220023058C4FF6EF7635400584A5
:10398000028C8388048B48F6FF752C404FF6FF4568
:103990002C400D884FF6FF7606EA05252C434FF69E
:1039A000DF752A400D8906EA05152A434D8806EA87
:1039B00005152A43444DA84202D0494DA8421DD1C5
:1039C0004FF67F752A404D894FF6FF7606EA0515BA
:1039D0002A434FF6BF752A408D8806EA05152A430B
:1039E0004FF6FF352B404FF2FF752B408D8906EACD
:1039F00085052B43CD8906EA85052B438380048307
:103A0000CD880587028470BD70B500240022002394
:103A1000058C4FF6FF6635400584028C8388848BC5
:103A20004FF68F752C404FF6FC752C400D882C43BB
:103A30004FF6FF552A400D894FF6FF7606EA052519
:103A40002A434D8806EA05252A431F4DA84202D085
:103A5000234DA8421DD14FF2FF752A404D894FF6E4
:103A6000FF7606EA05252A434FF6FF352A408D8862
:103A700006EA05252A434EF6FF752B404DF6FF75E5
:103A80002B408D8906EA05152B43CD8906EA0515DD
:103A90002B4383808483CD888587028470BD70B575
:103AA000002200230024058C4EF6FF763540058465
:103AB000038C8488828B48F6FF752A404FF6FF45B9
:103AC0002A400D8820E00000002C01400004004046
:103AD00000080040000C00400010004000140040AE
:103AE00000340140004C01400050014000540140AE
:103AF00000180040001C0040002000400040014031
:103B000000440140004801404FF6FF7606EA0525D3
:103B10002A434DF6FF752B400D8906EA05352B43E8
:103B20004D8806EA05352B43FA4DA84202D0FA4DDE
:103B3000A84208D14BF6FF752C408D894FF6FF76D1
:103B400006EA85152C4384808283CD88A0F84050F6
:103B5000038470BD828B4FF2FF331A408283828BC5
:103B60004FF6FF7303EA01231A4382837047F0B5CF
:103B70000C461546002200210026078C4EF6FF7CDD
:103B800007EA0C070784828B018C4FF6FF7707EA60
:103B9000043640F6FF473A404FF6FF7707EA05271D
:103BA0003A434FF6FF7707EA03373A43D94FB84213
:103BB0000ED0D94FB8420BD0B0F1804F08D0D74FBC
:103BC000B84205D0D64FB84202D0D64FB84206D13F
:103BD0004DF6FF77394046F48057394305E047F604
:103BE000FF57394044F48057394382830184F0BD44
:103BF000828B4FF6F3731A408283828B0A4382834F
:103C00007047F0B50C461546002200210026078CAF
:103C10004FF6FF6C07EA0C070784828B018C4FF686
:103C2000FF7707EA04264FF60C773A404FF6FF7706
:103C300007EA03172F433A43B64FB8420ED0B64FA8
:103C4000B8420BD0B0F1804F08D0B44FB84205D085
:103C5000B34FB84202D0B34FB84206D14FF6FF5728
:103C6000394046F48077394305E04FF2FF57394039
:103C700044F48077394382830184F0BD028B4FF294
:103C8000FF331A400283028B4FF6FF7303EA0123CE
:103C90001A4302837047F0B50C46154600220021F6
:103CA0000026078C4FF6EF7C07EA0C070784028B8F
:103CB000018C4FF6FF7707EA041640F6FF473A40BB
:103CC0004FF6FF7707EA03373A434FF6FF7707EAE5
:103CD00005273A438F4FB8420ED08F4FB8420BD0D2
:103CE000B0F1804F08D08D4FB84205D08C4FB8420C
:103CF00002D08C4FB84206D14FF6DF77394046F0FC
:103D00001007394305E04FF65F77394044F010075C
:103D1000394302830184F0BD028B4FF6F3731A40DE
:103D20000283028B0A4302837047F0B50C461546A6
:103D300000220021068C4FF6FE773E400684028B5F
:103D4000018C4FF60C7632407E1C06EA03162E4399
:103D50003243704EB0420ED06F4EB0420BD0B0F135
:103D6000804F08D06D4EB04205D06D4EB04202D0AB
:103D70006C4EB04206D14FF6FD76314044F001065C
:103D8000314305E04FF6F576314044F0010631430A
:103D900002830184F0BD70B505460C465D4885423E
:103DA0000ED05D4885420BD0B5F1804F08D05B48FE
:103DB000854205D05A48854202D05A48854200D1F2
:103DC00000E000BF208850B92389A2886188284676
:103DD000FFF7ABFFE1882846FFF79EFF25E020882C
:103DE00004280AD12389A28861882846FFF753FF57
:103DF000E1882846FFF742FF17E0208808280AD10B
:103E00002389A28861882846FFF7FBFEE1882846BF
:103E1000FFF7EEFE09E02389A28861882846FFF7B4
:103E2000A6FEE1882846FFF795FE70BD2DE9F0411A
:103E300005460C4600260127608808B9022600E0E6
:103E40000026A088012801D1022700E00127208850
:103E5000A0B92389A28861882846FFF766FFE18818
:103E60002846FFF759FF23893A4631462846FFF78F
:103E700012FFE1882846FFF701FF13E02389A2889B
:103E800061882846FFF707FFE1882846FFF7F6FE1E
:103E900023893A4631462846FFF747FFE1882846FE
:103EA000FFF73AFFBDE8F0810A884B881A438B88F8
:103EB0001A43CB881A430B891A434B891A438B89BF
:103EC0001A43A0F8442070474FF6FF71818000210B
:103ED0000180C180418001727047002101804180D2
:103EE0008180C180018141818181C1817047002130
:103EF00001804180012181800021C18001817047C2
:103F00000021018041808180C180018141818181C6
:103F100070470000002C01400034014000040040C4
:103F200000080040000C004021B1028842F001026C
:103F3000028004E002884FF6FE731A400280704748
:103F400031B1B0F8442042F40042A0F8442005E02A
:103F5000B0F84420C2F30E02A0F8442070471AB112
:103F600083890B43838102E083898B43838170477C
:103F70008182704741EA0203A0F8483070471AB1C5
:103F800083890B43838102E083898B43838170475C
:103F900001894FF6F8721140018170470A460021ED
:103FA00001894FF68F73194011430181704730B575
:103FB00004460D4629462046FFF7F0FF208940F0D1
:103FC0000700208130BD2DE9F04104460D4616461C
:103FD0001F46602D06D13B46012231462046FFF7A1
:103FE0005AFE05E03B46012231462046FFF79DFE82
:103FF00029462046FFF7D2FF208940F007002081A4
:10400000BDE8F08130B50C4600210189C9B24FF6F8
:10401000FF7505EA0325154325432943018130BD7A
:104020002DE9F04105460E461746984600244346C2
:104030003A4631462846FFF7E5FF2C894FF6F870DF
:10404000044044F007044FF68F70044044F07004BD
:104050002C81BDE8F081F0B504460D4616461F469A
:104060003B46324629462046FFF7CCFF208940F4E4
:1040700080402081F0BD0185828270470A46002180
:1040800001884FF68F731940114301807047F0B5D6
:104090000C4615461E460021002200230189028B92
:1040A000038C4FF6F877394021434FF6FC473A40EE
:1040B00040F201173A434FF6DD773B404FF6FF776A
:1040C00007EA06172F433B43018102830384F0BDB7
:1040D0000A460021018B4FF68F731940114301836B
:1040E00070470A460021018B48F6FF7319404FF6CE
:1040F000FF7303EA02231943018370470A46002134
:10410000818B4FF68F7319401143818370470A46A4
:104110000021818B48F6FF7319404FF6FF7303EAC5
:10412000022319438183704721B1028842F0800243
:10413000028004E002884FF67F731A4002807047C5
:1041400021B1828842F00402828004E082884FF626
:10415000FB731A408280704721B1828842F00802C6
:10416000828004E082884FF6F7731A40828070479D
:1041700021B1828842F00102828004E082884FF6F9
:10418000FE731A40828070470A460021018B4FF669
:10419000F77319401143018370470A460021018BD0
:1041A0004FF2FF7319404FF6FF7303EA02231943DE
:1041B000018370470A460021818B4FF6F77319403F
:1041C0001143818370470A460021818B4FF2FF73B0
:1041D00019404FF6FF7303EA0223194381837047A6
:1041E0000A460021018B4FF6FB73194011430183EE
:1041F00070470A460021018B4FF6FF3319404FF6F6
:10420000FF7303EA02231943018370470A46002122
:10421000818B4FF6FB7319401143818370470A4627
:104220000021818B4FF6FF3319404FF6FF7303EAED
:1042300002231943818370470A460021018B4FF600
:104240007F7319401143018370470A460021018B97
:10425000C1F30E014FF6FF7303EA022319430183F2
:1042600070470A460021818B4FF67F731940114336
:10427000818370470A460021818BC1F30E014FF6FE
:10428000FF7303EA02231943818370470A46002122
:10429000018C4FF6FD7319401143018470470A46A3
:1042A0000021018C4FF6F7731940114301847047C8
:1042B0000A460021018C4FF6DF7319404FF6FF7359
:1042C00003EA02131943018470470A460021018C56
:1042D0004FF67F7319404FF6FF7303EA0213194339
:1042E000018470470A460021018C4FF6FF531940A4
:1042F0004FF6FF7303EA02231943018470470A460D
:104300000021018C4FF2FF7319404FF6FF7303EA4F
:1043100002231943018470470A460021018C4DF69F
:10432000FF7319404FF6FF7303EA02331943018408
:10433000704730B5002301248C40A3B2048C9C4309
:104340000484048C02FA01F5ADB22C43048430BD20
:1043500030B5002304248C40A3B2048C9C43048415
:10436000048C02FA01F5ADB22C43048430BD70B563
:104370000346002000241846183001258D40ACB2B9
:104380001D8CA5431D8409B1082909D100EB6100EA
:10439000056825F0700505600568154305600EE0A9
:1043A0000D1FC5F34E052844056825F4E04505605A
:1043B00005684FF6FF7606EA02263543056070BDB4
:1043C00021B1028842F00202028004E002884FF626
:1043D000FD731A400280704721B1028842F0040246
:1043E000028004E002884FF6FB731A400280704797
:1043F00021B1828842F08002828004E082884FF6F8
:104400007F731A408280704702884FF6F7731A4014
:10441000028002880A430280704782884FF68F73B9
:104420001A40828082880A438280704702894FF650
:10443000F8731A40028102890A4302817047028997
:104440004FF67F731A40028102890A430281704746
:1044500081847047818570478186704701877047E6
:1044600081877047A0F84010704702884FF6FF43DD
:104470001A40028002880A43028070470146888EF3
:1044800070470146088F70470146888F7047014684
:10449000B1F8400070470146888C70470146088D8E
:1044A000704702460020138A0B400BB1012000E048
:1044B00000207047CA430282704730B50246002090
:1044C00000230024158A05EA0103958905EA010401
:1044D00013B10CB1012000E0002030BDCA430282BC
:1044E00070470000002044490860091D0860091D4C
:1044F0000860091D086041483F4914310860704751
:1045000000213D498279002A3AD00A4612680368A0
:104510009A430B461A600A1D126803689A430B1DE2
:104520001A60027911440A6803681A430A60324A21
:104530000832126803689A432F4B08331A601A1D19
:10454000126803689A432C4B0C331A604279102A84
:104550000ED11A1F126803681A43274B08331A60DA
:104560001A1D126803681A43234B0C331A600DE0BE
:104570002149427911440A6803681A430A6005E038
:10458000027911440A6803689A430A60704700215F
:10459000016001710C214171002181717047164940
:1045A000103109680143144A103211607047014606
:1045B0000020114A143212680A400AB1012000E0BA
:1045C000002070470C4914310860704701460020F4
:1045D0000022094B1B6803EA0102074B14331B68D6
:1045E0000B4013B10AB1012000E0002070470249DE
:1045F000143108607047000000040140FFFF0F0005
:10460000704700007CB51D4616460C00009001D096
:104610002044401E074B7B442A46694601903046A1
:1046200000F0B7FC05461CB10020694600F0C4FC50
:1046300028467CBDA90900000FB41CB5084B06AA8A
:104640007B4469460090059800F0A3FC04460020D6
:10465000694600F0B1FC20461CBC5DF814FB00006C
:10466000750900002DE9F05F894604464FF0000A05
:10467000DFF874B1FB44C0F820A02046E168884709
:10468000002874D0252806D0D4E901219047206A5B
:10469000401C2062F1E700265F462046E16888471B
:1046A0002028054607DB312D05D2781910F8200C9B
:1046B00008B10643F1E7B00701D526F00406C4F8B7
:1046C0001CA00027C4F818A02A2D09D0284602F003
:1046D000D8FE38B304EB8708303DC8F8185019E00D
:1046E00059F8041B204604EB87029161E168884772
:1046F000012F054618D1E069002820DA26F02006AF
:104700001DE0D8F8180000EB800005EB40003038C1
:10471000C8F818002046E1688847054602F0B1FE57
:104720000028EED1012F0AD02E2D08D12046E168B5
:1047300088477F1C0546022F46F02006C4DBA0698F
:10474000002803DA404246F00106A061F00701D0DC
:1047500026F010066C2D0BD0682D09D04C2D39D0C9
:104760006A2D35D0742D35D07A2D33D016E038E04F
:10477000E1682F4620468847B842054609D16C2F8C
:1047800026D04FF48060E1680643204688470546FE
:1047900004E06C2F1AD04FF4807006430DB3A5F1DE
:1047A0004100192802D8203546F400664A462946B9
:1047B000204626604E46FBF7F7FC80B101280BD05F
:1047C000F61D26F0070000F1080956E74020E4E74F
:1047D0008020D8E70020D6E706F104094DE72846F7
:1047E00052E7206ABDE8F09F5049000070B50646C8
:1047F00000F0F8F80468054630460A22002100F06F
:1048000002F82C6070BD2DE9F04791460F468046B6
:104810000446002614F8015B2DB100F0DBF80068B7
:10482000405DC007F6D12B2D02D02D2D18D0641E6F
:104830004A463946204600F0EBFC27B13968A142D0
:1048400001D1C7F800804FF0020471050BD540423A
:10485000002803DD00F0C6F80460A007BDE8F0877B
:1048600046F48066E4E70028F8DA00F0BBF804605C
:104870006FF00040F2E7401ECAB210F8011F8A42F2
:1048800002D00029F9D10020704730B505460B460B
:104890002A4613F8014B12F8010B08B1A042F8D0D8
:1048A0001CB1002802D06D1CF1E7284630BD032A58
:1048B00040F2308010F0030C00F0158011F8013B3D
:1048C000BCF1020F624498BF11F801CB00F8013B24
:1048D00038BF11F8013BA2F1040298BF00F801CBE8
:1048E00038BF00F8013B11F0030300F03385083AAC
:1048F000C0F0088051F8043B083A51F804CBA0E816
:104900000810F5E7121D5CBF51F8043B40F8043B6A
:10491000AFF30080D20724BF11F8013B11F801CB9F
:1049200048BF11F8012B24BF00F8013B00F801CB70
:1049300048BF00F8012B70474FF000020429C0F077
:10494000128010F0030C00F01B80CCF1040CBCF1C1
:10495000020F18BF00F8012BA8BF20F8022BA1EB13
:104960000C0100F00DB85FEAC17C24BF00F8012BF8
:1049700000F8012B48BF00F8012B70474FF00002F0
:1049800000B5134694469646203922BFA0E80C5045
:10499000A0E80C50B1F12001BFF4F7AF090728BF20
:1049A000A0E80C5048BF0CC05DF804EB890028BF9C
:1049B00040F8042B08BF704748BF20F8022B11F0C5
:1049C000804F18BF00F8012B704770477047704741
:1049D0007047000010B500F0F3FC001D10BD00BFD3
:1049E0004132000000487047AC3C002010B5FFF792
:1049F000F9FF006810BD10B50446FFF7F3FF04602F
:104A000010BD70B5044685690068C10601D5302621
:104A100000E02026C00707D070BDD4E90121304650
:104A20009047206A401C20626D1EF6D570BD70B59F
:104A3000044685690078C00707D170BDD4E901211B
:104A400020209047206A401C20626D1EF6D570BD64
:104A500009684A0501D540B27047C905FCD500B2C6
:104A6000704709684A0501D5C0B27047C905FCD531
:104A700080B2704770B50C460546012A05D02878EB
:104A8000800600D5EA69002302E0012305E05B1CF3
:104A9000934202D2E05C0028F9D1A869E618C01A56
:104AA000A861286A184428622846FFF7AAFF04E094
:104AB000D5E9012114F8010B9047B442F8D32846F8
:104AC000FFF7B5FF70BD00002DE9F0410646002458
:104AD00010687529314616A510D0FFF7B9FF0028D8
:104AE00002DA404213A507E031688A0701D512A512
:104AF00002E0490704D511A5012401E0FFF7B1FF49
:104B000000210A2206F1240709E0B0FBF2FCB0FB09
:104B1000F2F302FB1C00303078541846491C002880
:104B2000F3D123462A463046BDE8F04100F09ABC56
:104B3000000000002D0000002B00000020000000FD
:104B400011680268006A530501D508700AE0D305B0
:104B500001D5088006E0130603D5C217C1E900029B
:104B600000E008600120704770472DE9FF4F0C46B8
:104B70001E464FF0FF378BB0D2E90001DDF86080B0
:104B80000A908A46C1F30A5505B93D4600210846F8
:104B90004FF00000BAF1000F00F4400005DA00EB1E
:104BA00080004FF4400101EA50004FEA9059B9F1FA
:104BB000010F00DDB9460A9850EA4A000ED044F6CB
:104BC0001050A5F2FF3545432F14B8F1000F1ED049
:104BD0007542291E1EDDC9F100021CE0B8F1010F6B
:104BE0004FF0000001D0302103E0F24305E02154F2
:104BF000401CB042FBDB30460022002121540B99BF
:104C0000C1F80880C1E900200FB0BDE8F08FBD1BDE
:104C10006D1CDEE74A4600DA694206A800F094FE01
:104C200006AB93E8070003AB83E8070050460A99F8
:104C300001F045FC8DE80700A0F500501F380090FA
:104C40000398002D0ADD42F21F014A460844002362
:104C500003A90390684601F0F1FE09E0A0F50050B9
:104C60004A461F38002303A90390684601F010FF4D
:104C70008DE807000004000C03D04FF0FF3041081E
:104C800000E01046B8F1000F03D000220092154654
:104C90001EE0751E05D400F097FB303262556D1E84
:104CA000F9D5B3460122084302D000227F1C04E05C
:104CB0002078302801D100227F1E002A099784D055
:104CC0001DE0112D07DA00F07FFB303262556D1CBC
:104CD00050EA0102F5D1084302D00098C8B10EE0B5
:104CE0000021681E05E0235C625C63542254401E70
:104CF000491C8142F7DBAB46A81B401E09900020EF
:104D000004F80B000B98099AC0F80880C0E9002B42
:104D10007AE711264FF0000857E72DE9F04F884653
:104D20000446D21D22F0070191B0D1E90001CDE97E
:104D30000A0101F0F9FF02460B98C00F01D02D20A7
:104D400007E02068810701D52B2002E0202101EA3D
:104D5000C000032A099001D0072A05DB034641461B
:104D6000204600F057FD0BE12078800601D5E06970
:104D700000E00620B8F1650F814606D0B8F1660F55
:104D800018D0B8F1670F70D131E00020B9F1110FE0
:104D9000009001DB112301E009F101030AAA01A936
:104DA0000CA8FFF7E2FEDDE90C70002609F1010511
:104DB000834647E001204B4600904FF000470AAA87
:104DC00001A90CA8FFF7D1FEDDE90DB00C995D46F5
:104DD000002610B909F101000D18B9EB050003D444
:104DE000C0F1FF3609F10105A5EB09002BE0B9F18F
:104DF000010F01DA4FF001090020B9F1110F009005
:104E0000484601DD112300E003460AAA01A90CA8C7
:104E1000FFF7ABFEDDE90C704D4600268346207897
:104E200000070AD4AB4500DA5D4601A8012D04DD78
:104E3000411911F8011C302907D04F4502DA17F14A
:104E4000040F04DA012082460FE06D1EEEE7002F0A
:104E500002DCED1B3E4403E0781CA84200DD7D1C13
:104E6000B81B00F1010A4FF000472078000703D477
:104E7000AA4501DB4FF0FF3A0021B7F1004F0DF1D9
:104E800043088DF8431024D002202B23002F01DA91
:104E90007F422D230A21021EA0F1010000DC5FB138
:104EA00097FBF1FC97FBF1F201FB1C7C17460CF120
:104EB000300C08F801CDEEE7A8F10100037021885D
:104EC000090501D5452100E06521A0F1010800F8A0
:104ED000011C09980FA9A1EB0807FF1D00B10120D3
:104EE000411901EBEA70A1693844081A401EA0611B
:104EF0002078C00602D42046FFF783FD099828B128
:104F0000D4E901219047206A401C20622078C00625
:104F100022D52046FFF775FD1EE0002E04DBB345C9
:104F200002DD01A8805D00E03020D4E90121904736
:104F3000206A401C2062761CAAF101005FEA000A88
:104F40000AD100F03DFAC0680168405CD4E9012153
:104F50009047206A401C2062281EA5F10105DCDC78
:104F600007E0D4E9012118F8010B9047206A401CA2
:104F70002062381EA7F10107F3DC2046FFF757FD3A
:104F8000032011B041E6000001694A1C0261087863
:104F9000704700B58FB0CDE9013100210591054979
:104FA0007944CDE9031011466846FFF75BFB0FB06B
:104FB00000BD0000E5FFFFFF0A6802F8010B0A6070
:104FC0007047D1E900239A4202D2531C0B60107043
:104FD000704700002DE9FF5F15468A460446DFF85A
:104FE000AC80F8440027D8E900103E46CDE9001017
:104FF00010E03AF816106A4602A800F017FD411CAE
:1050000007D02178890603D5E269391891420DD875
:105010000744761C2078800602D5E069B84205DD99
:10502000AE42E6DB3AF816000028E2D1A069C01BC8
:10503000A0612046FFF7E5FCD8E90010CDE900109B
:10504000002017E03AF818106A4602A800F0EEFCBB
:10505000B0F1FF3F81460BD000250DF1080B05E0B4
:10506000D4E901211BF8050090476D1C4D45F7D38D
:1050700008F10100B0428046E4DB206A3844206237
:105080002046FFF7D4FCBDE8FF9F0000F63F00007C
:105090002DE9F0418046D21D22F007020025D2E919
:1050A0000002F52915A614D0011E72F1000106DADE
:1050B0000023D0EB030063EB020211A608E0D8F84E
:1050C00000108B0701D50FA602E0490701D50EA6F7
:1050D00001251146002408F1240704E000F074F9CA
:1050E00030323A55641C50EA0102F7D12B46324661
:1050F00021464046BDE8F04100F0B4B90000000090
:105100002D0000002B0000002000000030B4002122
:1051100000F1240408E002F00705D208303542EA25
:105120004372DB086554491C52EA0305F3D1046855
:10513000002310A2250707D5A40600D421B1C46915
:1051400001230DA2641EC46130BC00F08BB910B500
:10515000044621461068FFF784FC02462046BDE85D
:1051600010400023D2E7D21D22F00701D1E900232D
:10517000CCE700000000000030000000F0B40D4655
:105180000188090502D5214C7C4402E01F4C7C4477
:105190000E34002100F1240608E002F00F07120986
:1051A000E75D42EA03721B097754491C52EA030780
:1051B000F3D102780023120704D5702D06D009B16F
:1051C000022311342246F0BC00F04CB90123103404
:1051D000F8E770B504460D4621461068FFF741FC1C
:1051E000024629462046BDE870400023C6E7D21D8E
:1051F00022F00703D3E90023C0E70368126843F0F5
:10520000200303600823C3610023B7E7583E000072
:105210002DE9F05F824615468B4600270AF101040E
:10522000B9460078302801D09DB113E014F8010B85
:105230000127782803D0582801D045B10AE00DB1E4
:10524000102D07D1002714F8010B102502E00825C6
:1052500000E00A250026B0460EE005FB080005FB2D
:1052600006F101271FFA80F801EB1046B6F5803FE2
:1052700000D3B94614F8010B294600F037FB00288B
:10528000EBDABBF1000F05D00FB1641E00E054460D
:10529000CBF80040B9F1000F06D0FFF7A3FB0221C5
:1052A0000160C81EBDE8F09F48EA0640FAE700002A
:1052B0000FB4002300B589B00CA900910B99CB6005
:1052C000214B7B440693214B7B44079304236FF0CF
:1052D0000042CDE901321E4A7A446B4608920246EA
:1052E000002003F005FC09B05DF814FB70B506461C
:1052F0004FF0FF3015460C46324686B00091CDE99E
:10530000010169460020049004A8FFF7D1FF02467E
:105310000498211825B108B1084600E0204628600D
:10532000049800280DD0002A02DD0098884208D099
:105330003246081B69460094CDE9010404A8FFF732
:10534000B7FF06B070BD0000430600005B0600001A
:105350007701000010B5203AC0F00B80B1E818507A
:10536000203AA0E81850B1E81850A0E81850BFF44F
:10537000F5AF5FEA027C24BFB1E81850A0E81850EE
:1053800044BF18C918C0BDE810405FEA827C24BF42
:1053900051F8043B40F8043B08BF7047D20728BFD0
:1053A00031F8023B48BF11F8012B28BF20F8023B1F
:1053B00048BF00F8012B704700487047AC3C002004
:1053C00000487047CC3C002030B5B0F10A024FEAEB
:1053D000900E71F100034EEA817EB0EB0E0061EB9E
:1053E00091014FEA101E4EEA017E10EB0E0041EBD8
:1053F00011114FEA102E4EEA016E10EB0E0041EB38
:1054000011214FEA104E4EEA014E10EB0E0041EB17
:105410001141401841F100014FEAD00040EA4170CB
:105420004FEAD10110EB80054FEA810444EA907401
:1054300044EB01046D1944EB0404521BA3414FF0EB
:10544000000348BF0A3200D530BD401C41F10001C5
:1054500030BD10B50446FFF7BDFA0068005D00F0EE
:10546000010010BD2DE9F0470D46994692460446CD
:1054700000F124080168880604D5E06921F01001D4
:10548000216000E00120A84201DD471B00E0002769
:10549000A1697A1902EB0900081AA0612078C006F8
:1054A00002D42046FFF7ADFA002608E0D4E9012136
:1054B0001AF806009047206A401C761C20624E4570
:1054C000F4DB2078C0060AD52046FFF79AFA06E0FA
:1054D000D4E9012130209047206A401C2062381E08
:1054E000A7F10107F4DC07E0D4E9012118F8050071
:1054F0009047206A401C2062281EA5F10105F3DCBC
:105500002046FFF794FA2078000602D50220BDE875
:10551000F0870120FBE700002DE9F04F04460D461F
:10552000D21D22F0070089B0D0E9009748463946DD
:1055300001F0FAFB0246F80F01D02D2307E02068A6
:10554000810701D52B2302E0202101EAC0038DF859
:1055500020300BB1012000E00020032A824601D058
:10556000072A04DB2946204600F054F93FE1207861
:10557000800601D40D2500E0E569C7F30A560D2D1C
:1055800049DA00214FEA175B08464FF00000002F70
:1055900000F4400007DA00EB80004FF4400100EB1C
:1055A000D07001EA60008115012901DD4FF0FF3163
:1055B00000224FEA850CBCF1180F06D31346ACF15C
:1055C00018004FF08052C24003E04FF4801323FADA
:1055D0000CF30CF10C0CBCF1200F04D3ACF1200C3B
:1055E00009FA0CF001E007FA0CF000294FF000482E
:1055F00001DD18B90FE00ED140450CD319EB0209BB
:105600005F4121B9404502D19F4329EA0209BBEB22
:10561000175F00D0761C2088000502D57B487844AF
:1056200002E07A487844193808AA302302F80A3090
:10563000037C0AF10101002E0AF1020A53546A4662
:1056400002DC4FF0300101E04FF031014FF0010872
:105650008DF8001002D0A6F2FF3603E059EA4701A8
:1056600000D06B4E002D02DC2178090704D54FF0E5
:1056700002082E218DF80110C44600210BE0C7F36B
:1056800003433F01C35C491C6D1E02F80830052925
:1056900008F1010801DA002DF1DC00210CE000EB3B
:1056A0001973491C1B786D1E082902F808304FEA4F
:1056B000091908F1010801DA002DF0DC21688B06D8
:1056C00002D516E0A8F10108E04505DD02EB08036C
:1056D00013F8013C302BF5D0B8F1000F09DD02EBD7
:1056E000080313F8013C2E2B03D1090701D4A8F1BC
:1056F0000108002D05DD3E2102F808106D1E08F19D
:105700000108407C002E02F8080008F1010804DAC4
:105710002D20764202F8080002E02B2002F8080053
:105720000A214FF47A70864208F101080BDB96FBE0
:10573000F0F3303302F8083096FBF0F308F101087B
:1057400000FB136601E0642E0CDB642096FBF0F393
:10575000303302F8083096FBF0F308F1010800FB43
:10576000136601E00A2E06DB96FBF1F0303002F8FA
:10577000080008F1010896FBF1F001FB10603030E1
:1057800002F80800A16908F1010808EB050202EB24
:105790000A00081AA0612078C00602D42046FFF74C
:1057A00030F9216A08AE01EB0A00206204E0D4E976
:1057B000012116F8010B9047BAF1010AF7D22078BF
:1057C000C00602D52046FFF71CF96E4609E016F820
:1057D000010B3E280FD0D4E901219047206A401CDC
:1057E0002062B8F10108F2D22046FFF720F909B093
:1057F0000320BDE8F08F206A2844206203E0D4E94A
:105800000121302090476D1EEBD3F8E7C13B00002B
:1058100002FCFFFF2DE9F0411F4604460326016804
:10582000072A01F4006004DB08B116A505E016A5FF
:1058300003E008B115A500E015A521F010002060D7
:10584000A069C01EA0610FB1401EA0612046FFF7F5
:10585000D8F84FB1D4E9012138469047206A401C5E
:105860002062C01C206206E0206AFAE7D4E9012128
:1058700015F8010B9047761EF8D22046FFF7D7F8AF
:10588000BDE8F0814E414E006E616E00494E46000B
:10589000696E660010B5436913B1AFF3008001E093
:1058A000FFF7E8F8012010BD127800F124010A701A
:1058B00000224A700122EDE711684FF0FF32E9E75C
:1058C00010B5436913B1AFF3008001E0FFF782FB2D
:1058D000012010BD128800F1240182840022C284BC
:1058E0000122EDE711684FF0FF32E9E73A2800D2D4
:1058F000303820F02002412A01D3A2F1370088423B
:1059000001D34FF0FF307047426842B1016811F88F
:10591000013B23B1521EC0E9001218467047012115
:10592000C160881E704742685AB1C368016843B9B4
:1059300083688B4205D0491E521CC0E9001200202A
:1059400070474FF0FF3070472DE9F047814616460B
:105950008AB0354878440DC88DE80D003248784447
:10596000801C03AC0DC884E80D0041F69B30084450
:10597000372190FBF1F290FBF1F5A5F1800501FBD9
:1059800012041B3C02D56442012000E00020DFF835
:1059900098A080460027FA44AAF1BE0A0EE0E0076C
:1059A0000AD03246684607EB470101230AEB810122
:1059B00001F06EF88DE8070064107F1C002CEED11A
:1059C000194F7F44AE3F19E0E80715D007EB0410EC
:1059D0000DF1180A90E80E008AE80E00C068F04247
:1059E00001D1981908903246012306A903A801F0B5
:1059F0004FF803AB83E807006D10641C002DE3D162
:105A00004FF0010332466946B8F1000F03A802D0F7
:105A100001F014F801E001F03BF8C9E90001C9F810
:105A200008200AB0BDE8F0871C39000070B51646A2
:105A30000C460546FEF7CEFF036893F801010128E6
:105A400006D0FF2C0FD8185D68B101202C7070BDF6
:105A5000D3F807013246214603F2071303442846D0
:105A6000BDE8704018474FF0FF3070BD7546FFF736
:105A7000A3FCAE4605006946534620F00700854664
:105A800018B020B5FCF7F2FEBDE820404FF000064C
:105A90004FF000074FF000084FF0000B21F0070116
:105AA000AC46ACE8C009ACE8C009ACE8C009ACE859
:105AB000C0098D46704700002DE9FF4F06468BB0A8
:105AC0000878FF2806D0491C2D2805D000244FF067
:105AD000000908E000200CE00124F8E709EB890345
