:020000040800F2
:100000000805002055030008590100085B0100089D
:100010005F0100086301000867010008000000009C
:100020000000000000000000000000006B0100085C
:100030006D010008000000006F0100087101000858
:100040006F0300086F0300086F0300086F030008C8
:100050006F0300086F0300086F0300086F030008B8
:100060006F0300086F0300086F0300086F030008A8
:100070006F0300086F0300086F0300086F03000898
:100080006F0300086F0300086F0300086F03000888
:100090006F0300086F0300086F0300086F03000878
:1000A0006F0300086F0300086F0300086F03000868
:1000B0006F0300086F0300086F0300086F03000858
:1000C0006F0300086F0300086F0300086F03000848
:1000D0006F030008EB1400086F0300086F030008AB
:1000E0006F0300086F0300086F030008DFF810D0EB
:1000F00002F070F80048004705010008AFF30080E7
:10010000080500204FF4E13001F0A3F901F028F9CF
:1001100001F030FA01F0AEFC12E001F0BCFC052069
:1001200001F037F90748006801F0B9FE044622469D
:100130000B4605A002F060F84FF4FA7001F04DF99B
:10014000EBE7000038000020616E676C65203D2001
:10015000252E32660D0A0000704700BFFEE700BF83
:10016000FEE700BFFEE700BFFEE77047704770473D
:10017000704700000CB50020019000906C480068AA
:1001800040F480306A49086000BF6948006800F4A4
:10019000003000900198401C0190009818B9019817
:1001A000B0F5A06FF1D16248006800F4003010B1E2
:1001B0000120009001E0002000900098012843D128
:1001C0005C48006840F010005A4908600846006822
:1001D00020F0030008600846006840F00200086054
:1001E000534840685249486008464068486008469D
:1001F000406840F4806048600846406820F47C1005
:1002000048600846406840F4E810486008460068C6
:1002100040F08070086000BF4548006800F0007042
:100220000028F9D04248406820F003004049486067
:100230000846406840F00200486000BF3C48406803
:1002400000F00C000828F9D10CBD10B5FFF792FFA3
:1002500010BD10B53648006840F001003449086010
:1002600008464068344908403149486008460068FB
:10027000324908402E4908600846006820F4802072
:1002800008600846406820F4FE0048604FF41F00F4
:100290008860FFF7DAFF4FF000602949086010BD61
:1002A00010B5002100200022214B5B6803F00C01F7
:1002B00021B1042906D0082928D107E0214B224C7E
:1002C000236027E01F4B204C236023E0184B5B6822
:1002D00003F47010164B5B6803F48032022303EBC7
:1002E000904022B9194B4343174C23600DE0104B4B
:1002F0005B6803F4003323B1144B4343124C236077
:1003000003E0104B4343104C236003E00D4B0E4CB5
:10031000236000BF00BF064B5B68C3F303130C4CA4
:10032000E15C094B1B68CB40074C236010BD00000B
:1003300000100240002002400000FFF8FFFFF6FE20
:1003400008ED00E000127A000000002000093D00E6
:10035000040000200648804706480047FEE7FEE705
:10036000FEE7FEE7FEE7FEE7FEE7FEE7FEE7FEE765
:1003700053020008ED00000831490143314A116081
:10038000704770B5002100230F22C47804B32D4CB0
:10039000246804F4E064C4F5E064210AC1F10403B4
:1003A000CA40447804FA03F18478144021430901D7
:1003B000254C0678A155047804F01F050124AC40B3
:1003C00005786D11AD0005F1E025C5F8004109E0A3
:1003D000047804F01F050124AC401C4D067876110A
:1003E00045F8264070BD1A4A0A400243154B1B1FB0
:1003F0001A60704739B1134A121D12680243114B3B
:100400001B1D1A6006E00F4A121D126882430D4B35
:100410001B1D1A607047042808D14FF0E0210969BC
:1004200041F004014FF0E022116107E04FF0E021BC
:10043000096921F004014FF0E022116170470000CA
:100440000000FA050CED00E000E400E080E100E0CF
:1004500080FFFF1F10B50446CC48844208D101211B
:10046000042000F02DFB0021042000F029FB46E0D1
:10047000C748844208D10121082000F021FB002157
:10048000082000F01DFB3AE0C248844208D1012157
:10049000102000F015FB0021102000F011FB2EE0D1
:1004A000BD48844208D10121202000F009FB002131
:1004B000202000F005FB22E0B848844208D1012149
:1004C000402000F0FDFA0021402000F0F9FA16E08B
:1004D000B348844208D10121802000F0F1FA0021C4
:1004E000802000F0EDFA0AE0AE48844207D10121F5
:1004F000801500F0E5FA0021A01500F0E1FA10BD2A
:1005000010B50121084600F0DBFA0021012000F0BF
:10051000D7FA10BD2DE9F041024600250026002043
:1005200000230024002791F803C00CF00F0591F878
:1005300003C00CF0100CBCF1000F03D091F802C006
:100540004CEA050591F800C0BCF1000F31D01468E9
:1005500000202BE04FF0010C0CFA00F3B1F800C0C2
:100560000CEA03069E4220D183004FF00F0C0CFAD8
:1005700003F7BC4305FA03FC4CEA040491F803C0FA
:10058000BCF1280F06D14FF0010C0CFA00FCC2F8A8
:1005900014C00AE091F803C0BCF1480F05D14FF038
:1005A000010C0CFA00FCC2F810C0401C0828D1D382
:1005B0001460B1F800C0BCF1FF0F34DD54680020B6
:1005C0002EE000F1080C4FF0010808FA0CF3B1F826
:1005D00000C00CEA03069E4221D183004FF00F0CAD
:1005E0000CFA03F7BC4305FA03FC4CEA040491F847
:1005F00003C0BCF1280F05D100F1080C08FA0CF873
:10060000C2F8148091F803C0BCF1480F07D100F183
:10061000080C4FF0010808FA0CF8C2F81080401CD2
:100620000828CED35460BDE8F0814FF6FF710180F9
:10063000022181700421C170704702460020936836
:100640000B400BB1012000E0002070470146886894
:1006500080B2704702460020D3680B400BB10120E6
:1006600000E0002070470146C86880B27047016111
:100670007047416170470AB1016100E04161704714
:10068000C16070474FF480320A43826181618261A8
:1006900082698269704702460020434B18684FF612
:1006A0008073184040EA021008433F4B18607047BF
:1006B0003E49C8617047F0B50A4600230024002176
:1006C000002500F00046B6F1004F02D1364EF16928
:1006D00001E0354E7168C0F3034583B200F4401663
:1006E000B6F5401F08D121F070612F4E766826F0D4
:1006F00070662D4F7E6012E000F48016B6F5801F04
:1007000006D1032606FA05F4A14341F0706106E024
:10071000460D360103FA06F6B14341F0706122B18D
:10072000460D360103FA06F6314300F00046B6F1F5
:10073000004F02D11C4EF16101E01B4E7160F0BD13
:1007400030B500228B071C0F0F2303FA04F2164B5F
:1007500008338C1053F824309343134C08348D1015
:1007600044F8253023468C1053F824308C07240F8E
:1007700000FA04F423430C4C08348D1044F825305F
:1007800030BD0A49DC3108607047000000080140B4
:10079000000C01400010014000140140001801400D
:1007A000001C0140002001400000014000002042E8
:1007B000DF48006840F00100DD49086008464068F5
:1007C000DC490840DA49486008460068DA490840D0
:1007D000D74908600846006820F480200860084671
:1007E000406820F4FE0048604FF41F0088607047A6
:1007F000CF49096821F48031CD4A1160114609685A
:1008000021F480211160B0F5803F03D0B0F5802F36
:100810000ED106E0C649096841F48031C44A11602E
:1008200007E0C349096841F4A021C14A116000E012
:1008300000BF00BF704710B5014600220023002012
:100840004A11012A02D1BA4C236806E0022A02D1D9
:10085000B74C236A01E0B64C636A01F01F02012421
:1008600094401C400CB1012000E0002010BD38B5C0
:10087000002000900024002500BF3120FFF7DBFF9F
:1008800005460098401C00900098B0F5A06F01D07C
:10089000002DF2D03120FFF7CEFF08B1012400E097
:1008A0000024204638BD01460020A14A106820F0EF
:1008B000F80040EAC10010607047A0490860704726
:1008C000024600209A4B586820F47C1042EA01034B
:1008D0001843974B5860704798490866704701461F
:1008E0000020934A506820F003000843506070478E
:1008F0008F48406800F00C007047014600208C4A89
:10090000506820F0F0000843506070470146002016
:10091000874A506820F4E060084350607047014601
:100920000020834A506820F4605040EAC1005060C3
:10093000704729B17E4A527A02437D4B5A7204E0D5
:100940007B4A527A82437A4B5A7270477B49D8313C
:100950000860704701460020754A506820F4404006
:100960000843506070470021714A20321170704A6C
:1009700082F82010012802D004280AD104E00121C5
:100980006B4A2032117005E00521694A203211704E
:1009900000E000BF00BF70476949086070476449C4
:1009A000096A0143624A1162704765494439086027
:1009B000704730B500210022002400235C4D6D6893
:1009C00005F00C0121B1042905D0082923D105E047
:1009D0005C4D056022E05B4D05601FE0544D6D6885
:1009E00005F47012524D6D6805F48034022505EB54
:1009F00092421CB9544D554305600BE04C4D6D6857
:100A000005F400351DB1504D5543056002E04D4DD4
:100A10005543056002E04B4D056000BF00BF444DEB
:100A20006D6805F0F0010909484D6B5C0568DD4013
:100A300045603F4D6D6805F4E061090A434D6B5C0C
:100A40004568DD4085603A4D6D6805F46051C90A1E
:100A50003E4D6B5C4568DD40C560354D6D6805F405
:100A60004041890B3A4D6B5CC568B5FBF3F50561F8
:100A700030BD29B12E4A526902432D4B5A6104E020
:100A80002B4A526982432A4B5A61704729B1284A3E
:100A900092690243264B9A6104E0254A9269824397
:100AA000234B9A61704729B1214AD2690243204BF6
:100AB000DA6104E01E4AD26982431D4BDA61704755
:100AC00029B11B4AD2680243194BDA6004E0184A84
:100AD000D2688243164BDA60704729B1144A126912
:100AE0000243134B1A6104E0114A12698243104B0E
:100AF0001A61704712494039086070470F49C8644D
:100B000070470B49C87170470948406A40F08070CF
:100B100007494862704701460020054A92680A402A
:100B20000AB1012000E00020704701498872704737
:100B3000001002400000FFF8FFFFF6FE00004242F6
:100B40008004424200127A0000093D001400002097
:100B50002400002010B50446FB48844209D101213D
:100B60008803FFF7ADFF00214FF48040FFF7A8FF97
:100B700032E0F648844209D101214804FFF7ADFF75
:100B800000214FF40030FFF7A8FF25E0F048844231
:100B900009D101218804FFF7A0FF00214FF4802034
:100BA000FFF79BFF18E0EB48844209D10121C804FC
:100BB000FFF793FF00214FF40020FFF78EFF0BE0BB
:100BC000E548844208D101210805FFF786FF00218E
:100BD0004FF48010FFF781FF10BD2DE9F04786B07C
:100BE00005460E460024A24600BFA1460027B08954
:100BF00000B100BF2F462C8A4CF6FF700440F088ED
:100C000004432C82AC894EF6F3100440B08831893D
:100C10000843718908430443AC81AC8A4FF6FF4016
:100C20000440B0890443AC8201A8FFF7C2FEC64865
:100C3000874202D1DDF810A001E0DDF80CA0A88900
:100C400000F4004040B10AEBCA0000EB0A10316822
:100C50004900B0FBF1F807E00AEBCA0000EB0A100C
:100C600031688900B0FBF1F86420B8FBF0F00401B2
:100C70002009642101FB1089A88900F4004040B1DB
:100C8000322000EBC900B0FBF1F000F00700044394
:100C900008E0322000EB09106421B0FBF1F000F015
:100CA0000F0004432C8106B0BDE8F0874FF41651C5
:100CB000016000218180C18001810C2141810021DE
:100CC0008181704710B502460020108A4FF2FF0361
:100CD00018400B884C8823438C882343CC882343BB
:100CE0001843108210BD0021018041808180C180A5
:100CF000704721B1828942F40052828104E08289E6
:100D00004DF6FF731A4082817047F0B50346002408
:100D100000260025002040F66A17B94200D100BF26
:100D20001846C1F3421401F01F06012707FA06F521
:100D3000012C01D10C3004E0022C01D1103000E074
:100D400014301AB107682F43076002E00768AF4309
:100D50000760F0BD1AB1838A0B43838202E0838A65
:100D60008B4383827047028A4FF6F0731A400282E7
:100D7000028A0A430282704782894FF2FF731A4047
:100D8000828182890A438281704721B1828942F03F
:100D90000202828104E082894FF6FD731A4082814B
:100DA0007047028A4FF6DF731A400282028A0A43B2
:100DB0000282704721B1028A42F48042028204E03A
:100DC000028A4BF6FF731A4002827047C1F3080291
:100DD0008280704701468888C0F308007047818987
:100DE00041F0010181817047028BD2B20283028BF4
:100DF00042EA012202837047028B02F47F4202839F
:100E0000028B0A430283704721B1828A42F020029A
:100E1000828204E0828A4FF6DF731A408282704732
:100E200021B1828A42F01002828204E0828A4FF667
:100E3000EF731A408282704721B1828A42F0080221
:100E4000828204E0828A4FF6F7731A4082827047EA
:100E500021B1828942F40042828103E08289C2F397
:100E60000E028281704721B1828A42F4006282823E
:100E700004E0828A4FF2FF731A4082827047828AAE
:100E80004FF6FB731A408282828A0A43828270473D
:100E900021B1828A42F00202828204E0828A4FF605
:100EA000FD731A408282704702460020B1F5007F30
:100EB00000D100BF13880B400BB1012000E00020DF
:100EC000704701F40072B2F5007F00D100BFCA4341
:100ED0000280704770B502460024002300250020E0
:100EE00040F66A16B14200D100BFC1F3421501F0CD
:100EF0001F03012606FA03F3012D02D19689334020
:100F000006E0022D02D1168A334001E0968A334072
:100F10000C12012606FA04F41688344013B10CB101
:100F2000012000E0002070BD10B50022002340F633
:100F30006A14A14200D100BF0A1201249440A3B256
:100F4000DC43048010BD0000003801400044004034
:100F500000480040004C00400050004010B50446DE
:100F6000F748844209D101214805FFF7B6FD002169
:100F70004FF40010FFF7B1FD08E001218805FFF7ED
:100F8000ACFD00214FF48000FFF7A7FD10BD2DE957
:100F9000F04385B004460D460026B1460427DFF82D
:100FA000A483A6884FF6C07006406846FFF701FD8F
:100FB000DDF80880E448B8FBF0F01FFA80F946EA53
:100FC0000906A68020884FF6FE7108402080002682
:100FD000DE49286888420CD828684000B8FBF0F049
:100FE00087B2042F00DA04273E4309F10100208470
:100FF00027E0E8884BF6FF71884206D1286800EBAD
:101000004000B8FBF0F087B209E0286800EBC001AF
:1010100001EB0010B8FBF0F087B247F48047C7F34C
:101020000B0008B947F0010747F4004006434FF4AE
:10103000967009FB00F04FF47A7190FBF1F0401CC0
:101040002084A683208840F00100208026884FF667
:10105000F5300640A8886989084306432680A88998
:1010600029890843208105B0BDE8F08341F2883129
:101070000160002181804BF6FF71C1800021018158
:1010800041814FF480418181704721B1028842F053
:101090000102028004E002884FF6FE731A400280CB
:1010A000704721B1828842F40062828004E0828825
:1010B0004FF2FF731A408280704721B1828842F458
:1010C0008052828004E082884EF6FF731A4082804C
:1010D000704721B1028842F48072028004E00288E5
:1010E0004FF6FF631A400280704721B1028842F434
:1010F0000072028004E002884FF6FF531A4002801B
:10110000704721B1028842F48062028004E00288C4
:101110004FF6FF331A40028070470A46002181894A
:101120004FF60173194002F0FE03194381817047A5
:1011300021B1828942F00102828104E082894FF666
:10114000FE731A408281704721B1028842F040024A
:10115000028004E002884FF6BF731A400280704795
:101160001AB183880B43838002E083888B4383809A
:101170007047018270470146088AC0B2704712B1B9
:1011800041F0010102E04FF6FE7319400182704701
:1011900008B5024600200090009200980844009094
:1011A0000098008808BD21B1028842F40042028004
:1011B00003E00288C2F30E0202807047B1F5006FAF
:1011C00004D1028842F40062028004E002884FF2F7
:1011D000FF731A4002807047B1F5005F04D10288A6
:1011E00042F40052028004E002884DF6FF731A4078
:1011F0000280704721B1028842F48052028004E0EC
:1012000002884EF6FF731A4002807047B1F5006FF6
:1012100004D1028842F40062028004E002884FF2A6
:10122000FF731A400280704721B1028842F0200209
:10123000028004E002884FF6DF731A400280704794
:101240000146088B0012704721B1028842F010025B
:10125000028004E002884FF6EF731A400280704764
:1012600021B9028842F08002028004E002884FF631
:101270007F731A4002807047B1F5804F05D0828B92
:101280004BF6FF731A40828303E0828B42F4804264
:101290008283704770B50246002400250023002099
:1012A000958A138B1B0445EA030626F07F4404EA63
:1012B00001068E4201D1012000E0002070BD10B572
:1012C00001460020002300228B8A0A8B120443EA85
:1012D000020424F07F4010BD0CB50246002000231C
:1012E0000193009300920B0F019321F07F41019B2A
:1012F0001BB1009B1433009303E0090C009B1833CF
:101300000093009B1B680B400BB1012000E0002004
:101310000CBD002221F07F42D3438382704730B559
:10132000024600200023948801F0E06504EA15439A
:1013300021F07F41948A0C4054B14BB1012008E068
:101340000054004000127A0040420F00A0860100C5
:10135000002030BD002221F07F42D34383827047BA
:1013600010B56FF00400FFF756F82E4800682E49BC
:10137000B0FBF1F02D4908700846007800EB400101
:10138000C1EBC0104FF6FF7101EAC0002849088088
:1013900010BD0146254A12784A434FF0E0235A61B6
:1013A00000229A611A46126942F001021A6100BFD6
:1013B0004FF0E022106900F001021AB100F480320F
:1013C000002AF5D04FF0E022126922F001024FF01E
:1013D000E0231A6100229A6170470146144A12887C
:1013E0004A434FF0E0235A6100229A611A4612697B
:1013F00042F001021A6100BF4FF0E022106900F0D4
:1014000001021AB100F48032002AF5D04FF0E02238
:10141000126922F001024FF0E0231A6100229A6162
:10142000704700000000002000127A002800002011
:101430002A000020014600BF704700BF494A1288B9
:1014400002F04002002AF9D0C2B2464B1B1D1A809E
:10145000704710B586B00446012144F20400FFF73E
:1014600015FB4FF40070ADF8140003208DF8160042
:1014700018208DF8170005A93B48FFF74BF84FF4EB
:101480008060ADF8140004208DF8170005A93648D7
:10149000FFF740F825208DF8000003208DF80100AB
:1014A0008DF8020001208DF803006846FEF769FF01
:1014B00001940020ADF80800ADF80A00ADF80C006A
:1014C000ADF810000C20ADF80E0001A92548FFF77B
:1014D00084FB012240F225512248FFF716FC01212E
:1014E0002048FFF706FC06B010BD10B540F22551AC
:1014F0001C48FFF7EFFC10B31A48FFF76BFCC4B2AF
:101500001A48008800F40040C8B91848008800F460
:10151000804060B10A2C03D000201449088020E0EC
:101520001248008840F400401049088019E00D2C52
:1015300006D10E48008840F480400C49088010E035
:101540000A480088C0F30D0009490C540748008878
:10155000401C0649088008460088C72801DD002095
:10156000088010BD00380140000801403000002014
:101570004000002000B585B001218805FFF793FAEF
:101580000020ADF804004FF48060ADF80A00F74881
:1015900000904BF6FF70ADF806000A20ADF8080089
:1015A0004FF48040ADF80C006946F148FFF7EFFCBE
:1015B0000121EF48FFF769FD01210820FFF766FAD6
:1015C0001C208DF813004FF44060ADF8100003208C
:1015D0008DF8120004A9E748FEF79CFF05B000BD96
:1015E00070B504460E4615460220FFF7F6FE0121AF
:1015F000DF48FFF76EFD4FF48050DF49086007E0D9
:10160000DD490868411EDC4A116008B9012070BD3F
:10161000DA49D748FFF73EFE0028F1D04FF480505A
:10162000D549086000222146D148FFF7A8FD07E010
:10163000D1490868411ED04A116008B90220E6E786
:10164000CF49CB48FFF726FE0028F1D03146C848E5
:10165000FFF78FFD4FF48050C749086007E0C64987
:101660000868411EC44A116008B90320CFE7C44985
:10167000891CBF48FFF70EFE0028F0D02946BC4861
:10168000FFF777FD4FF48050BB49086007E0BA4987
:101690000868411EB84A116008B90420B7E7B84984
:1016A000891CB348FFF7F6FD0028F0D00121B048AF
:1016B000FFF71BFD0020AAE72DE9F04105460F4684
:1016C00016461C460220FFF788FE0121A848FFF7B6
:1016D00000FD4FF48050A849086008E0A64908685A
:1016E000411EA54A116010B90120BDE8F081A3494F
:1016F0009F48FFF7CFFD0028F0D0002229469C48E4
:10170000FFF73DFD4FF480509B49086007E09A4980
:101710000868411E984A116008B90220E5E7984917
:101720009348FFF7B7FD0028F1D039469048FFF7FE
:1017300020FD4FF480509049086007E08E4908680A
:10174000411E8D4A116008B90320CEE78C49891CDF
:101750008748FFF79FFD0028F0D018E021788448E3
:10176000FFF707FD641C4FF480508349086007E0D1
:1017700081490868411E804A116008B90420B4E715
:101780007F49891C7A48FFF785FD0028F0D0301E7C
:10179000A6F10101CEB2E1D101217548FFF7A5FC08
:1017A0000020A2E72DE9F04106460F4614461D46EB
:1017B0000220FFF712FE4FF480506F49086008E0E6
:1017C0006D490868411E6C4A116010B90120BDE8DE
:1017D000F0814FF400316648FFF77EFD0028EFD11D
:1017E00001216348FFF775FC4FF48050624908609F
:1017F00007E061490868411E5F4A116008B902208C
:10180000E5E75E495A48FFF745FD0028F1D0002280
:1018100031465748FFF7B3FC4FF4805056490860F3
:1018200007E055490868411E534A116008B9032072
:10183000CDE753494E48FFF72DFD0028F1D039463A
:101840004B48FFF796FC4FF480504B49086007E087
:1018500049490868411E484A116008B90420B6E7A2
:101860004749891C4248FFF715FD0028F0D00121A7
:101870003F48FFF72EFC4FF480503F49086007E0D7
:101880003D490868411E3C4A116008B905209EE7A1
:101890003A493748FFF7FEFC0028F1D001223146D3
:1018A0003348FFF76CFC4FF480503349086007E081
:1018B00031490868411E304A116008B9062086E7A0
:1018C0002E49491C2A48FFF7E5FC0028F0D016E015
:1018D000012C07D100212648FFF713FC01212448E1
:1018E000FFF703FC25493F312148FFF7D3FC30B116
:1018F0001F48FFF740FC28706D1C601EC4B2002C0E
:10190000E6D101211A48FFF7FCFB00205FE770B524
:1019100004460D460220FFF760FD01211448FFF741
:10192000D8FB4FF480501449086000BF1349104899
:10193000FFF7B0FC0028F9D00F490868411E0E4A95
:10194000116008B9012070BD002221460848FFF748
:1019500016FC4FF480500849086013E006490868F7
:10196000411E054A116068B90220ECE7801A0600A2
:1019700000580040000C014034000020010003002A
:101980008200070038493948FFF784FC0028E5D079
:1019900029463648FFF7EDFB4FF480503449086084
:1019A00007E033490868411E314A116008B9032035
:1019B000C9E72D49891C2D48FFF76CFC0028F0D0A1
:1019C00001212A48FFF791FB0020BCE72DE9F843ED
:1019D0000746884614461E466B4601224146384655
:1019E000FFF7E0FE9DF800501EB10120A040284303
:1019F00003E00121A14025EA0100C5B22A46414683
:101A00003846FFF7EDFDBDE8F8832DE9F84F804635
:101A1000894614461D460A9E6B46012249464046A9
:101A2000FFF7C0FEF0B9601CFF2101FA00F0C4F11D
:101A300008012944491EFF220A41104300F0FF0A11
:101A4000C5F1080006FA00F0C6B2C4F1070006416D
:101A500007EA0A0737433A4649464046FFF7C0FDC2
:101A6000BDE8F88F0120FBE7820007000058004026
:101A70003400002010B5142200213D20FFF7B0FDF6
:101A8000002201213D20FFF7ABFD002202213D2075
:101A9000FFF7A6FD10BD2DE9F0478AB0002307220D
:101AA00019463D20FFF792FF06AB012209213D2098
:101AB000FFF778FE9DF8180000F00100002849D0DB
:101AC00007AB062203213D20FFF76CFE9DF81D00A9
:101AD0009DF81C1040EA01249DF81F009DF81E107F
:101AE00040EA012A9DF821009DF8201040EA0129D2
:101AF000B4F5004F02DBA4F57F44FF3CBAF5004F7C
:101B000003DBAAF57F4AAAF1FF0AB9F5004F03DB10
:101B1000A9F57F49A9F1FF09484600F0AFF9CDE9E1
:101B20000001204600F0AAF90746DDE9002301F094
:101B300055F90A4A0A4BCDE9020100F0BEF8054604
:101B40000022084B00F012F8CDE9040100F0BAF9C8
:101B5000054908600AB0BDE8F0870000775AF01A1E
:101B6000DCA54C4000806640380000202DE9FE4F87
:101B7000804681EA0300C00F0C46009021F000412E
:101B800023F00045B8EB0200A94105D240462146AA
:101B900090461C460B46024623F00040104347D0B7
:101BA000270DC7F30A00C3F30A510290401A0190AF
:101BB00040286BDAC3F3130040F4801B0098924670
:101BC00020B10023D2EB030A63EB0B0B01985946BB
:101BD000C0F14002504600F0D8F906460D46504686
:101BE0005946019A00F0F0F910EB08006141002419
:101BF00087EA115284EAE7731A4340D0009A62B32D
:101C0000019A012A4FEA075215DC001B61EB020121
:101C10004FF0004202EA0752CDE90042001C41F5B4
:101C2000801132462B4600F027FA03B0BDE8F08F52
:101C300040462146F9E7001B61EB0201001C41F51B
:101C4000801300185B412018A2F5001747EB030131
:101C500040EAD570B6196D4111E06D084FEA3606BD
:101C600045EAC0754FEA0752001B61EB0201001CF8
:101C700041F5801149084FEA3000001951413246C0
:101C80002B4603B0BDE8F04F00F0E7B90098012201
:101C900040000023D0EB020263EBE0730098214682
:101CA0004FEAE074B8EB000061EB0401E9E783F070
:101CB00000435BE781F0004158E72DE9FE4F81EAE0
:101CC000030404F0004421F0004100944FF0000BA5
:101CD00023F0004350EA01045ED052EA03045BD0D3
:101CE000C3F30A54C1F30A552C44A4F2F33401940B
:101CF000A0FB0254C1F3130141F48011C3F3130399
:101D000043F4801301FB024400FB034E840A970A4C
:101D100044EA815447EA8357A4FB076802958D0A79
:101D200005FB07854FEA932C04FB0C542705029D05
:101D30004FEA065847EA1637B5EB08056EEB070C75
:101D4000870E920E47EA811742EA8312A7FB02012F
:101D5000B6EB0B0164EB00042B0D43EA0C335E1869
:101D600044EB1C50DA465146E7FB0201C5F313046D
:101D70004FEA0B3343EA14534FEA0432019C43EA1F
:101D80000603A4F10C040294009CCDE900B400F019
:101D900073F903B0BDE8F08F00200146F9E72DE9A3
:101DA000F04D81EA030404F0004B21F00045144695
:101DB0004FF0000A23F0004150EA050220D054EA17
:101DC00001021DD0C5F30A570246C5F31303C1F340
:101DD0001300C1F30A5640F4801543F48013A7EBB7
:101DE0000608101BD64608F2FD3873EB050002D337
:101DF00008F1010801E092185B41B8F1000F03DA25
:101E000000200146BDE8F08D00204FF48011064609
:101E100084460EE0171B73EB050705D3121B63EB1B
:101E2000050306434CEA010C49084FEA30009218BA
:101E30005B4150EA0107EDD152EA030012D082EA79
:101E4000040083EA0501084305D0101BAB4106D20C
:101E50000122002306E000224FF0004302E06FF071
:101E6000010253101AEB06004CEB085110EB0A006C
:101E700041EB0B01BDE8F04D00F0EFB80EB5C10F1E
:101E800080EAE0700844CA07002140F233438DE83D
:101E90000E000A460B4600F0EFF803B000BD00F05C
:101EA000004230F000400AD0C10D01F56071C0F36E
:101EB000160042EA0151C208400711437047002052
:101EC0000146704701F0004330B421F0004150EA70
:101ED000010206D00A0DA2F56072C1F31301002AB7
:101EE00002DC30BC00207047440F44EAC104C1004A
:101EF000E01830BC00EBC25000F078B830B50B46AB
:101F0000014600202022012409E021FA02F59D4229
:101F100005D303FA02F5491B04FA02F52844151EFD
:101F2000A2F10102F1DC30BD2DE9F05F0546002091
:101F300092469B4688460646814640241BE028463A
:101F400041464746224600F02FF853465A46C01AEB
:101F5000914110D311461846224600F016F82D1A6A
:101F600067EB01084F4622460120002100F00DF8E2
:101F700017EB00094E41201EA4F10104DFDC4846A6
:101F800031462A464346BDE8F09F202A04DB203A2A
:101F900000FA02F1002070479140C2F1200320FABC
:101FA00003F3194390407047202A04DB203A21FABA
:101FB00002F00021704721FA02F3D040C2F1200262
:101FC0009140084319467047202A06DBCB17203A78
:101FD00041FA02F043EAE07306E041FA02F3D0402E
:101FE000C2F1200291400843194670470029A8BF5A
:101FF0007047401C490008BF20F00100704710B432
:10200000B0FA80FC00FA0CF050EA010404BF10BCE6
:10201000704749B1CCF1200421FA04F411FA0CF113
:1020200018BF012121430843A3EB0C01CB1D4FEA4C
:1020300000614FEA102042BF002010BC704700EB47
:10204000C35010440029A4BF10BC7047401C490075
:1020500008BF20F0010010BC704710B5141E73F1CA
:10206000000408DA401C41F1000192185B411A4358
:1020700001D120F0010010BD2DE9F04D92469B46A4
:1020800011B1B1FA81F202E0B0FA80F2203290464A
:10209000FFF77BFF04460F4640EA0A0041EA0B01C6
:1020A00053465A46084313D0114653EA010019D04B
:1020B000C8F140025046FFF777FF05460E465046EE
:1020C00059464246FFF761FF084305D0012004E06E
:1020D00020463946BDE8F08D0020054346EAE0760B
:1020E0002C4337430A986305E40AA0EB080000225A
:1020F000FD0A44EA47540A3002D500200146E9E7C8
:10210000010510196941DDE9084500196941BDE87B
:10211000F04DA2E770B521F0004303430CD0C1F3AA
:102120000A550024D5EB040564EB0403D617AD1A59
:10213000B34102DB0020014670BD201841EB025183
:1021400070BDC1F30A52C1F3130140F2FF3341F4F1
:1021500080119A4202DA00200146704740F2334370
:102160009A42A2F2334202DC5242FFF71DBFFFF750
:102170000CBF000030B5041E71F1000404DB4FF009
:102180000044404264EB0101141E73F1000405DBBE
:102190001C464FF00043524263EB04038B4208BFDE
:1021A000824230BD30B5041E71F1000404DB4FF0F3
:1021B0000044404264EB0101141E73F1000405DB8E
:1021C0001C464FF00043524263EB0403994208BFA0
:1021D000904230BD064C074D06E0E06840F0010338
:1021E00094E8070098471034AC42F6D3FDF782FF1D
:1021F00018300008383000080FB4054B10B503A99B
:10220000044A029800F056F910BC5DF814FB000077
:102210003B1400082C000020490050EAC12018BFE0
:1022200004204A0D18BF40F0010040F2FF72B2EBEB
:10223000515F08BF40F00200012808BF0520704729
:102240002DE9F0414F1E00EBC7010446D1E9000122
:1022500015461E4637F006020DD02A463346FFF7D4
:102260002CFD7F1E04EBC703D3E90023FFF77EFCA0
:1022700037F00602F1D1022F25D0042F13D0062FFC
:1022800018BFBDE8F0812A463346FFF716FDD4E9B2
:102290000A23FFF76BFC2A463346FFF70EFDD4E90D
:1022A0000823FFF763FC2A463346FFF706FDD4E90F
:1022B0000623FFF75BFC2A463346FFF7FEFCD4E912
:1022C0000423FFF753FC2A463346FFF7F6FCD4E914
:1022D0000223FFF74BFC2A463346FFF7EEFCD4E916
:1022E0000023BDE8F041FFF741BC0122FFF712BF18
:1022F000FFF73CBC024A00201107FFF70BBF0000AC
:1023000001FDFFFF02E008C8121F08C1002AFAD130
:1023100070477047002001E001C1121F002AFBD165
:102320007047000001490860704700003C00002031
:102330002DE9FF5F82B00021DDE90430020DDDF8F8
:1023400040B0034318D044F61050A2F2FF3242438B
:102350001514119801281FD0A5EB0B00401C5FEA53
:10236000000A4FF000064E4FDFF83891B046504655
:1023700015D5CAF1000413E0119801244AA30128DD
:1023800001D16FEA0B010298119AC0E90031C0E94E
:10239000024206B0BDE8F09FCBF10000DFE7044643
:1023A0000021404A491842EB0450CDE9001012E0E8
:1023B000E00707D032463B4640464946FFF77DFCE2
:1023C0008046894632463B4610461946FFF775FC63
:1023D00006460F466410002CEAD1DDE90401DDE970
:1023E0000023BAF1000F06DAFFF767FC42464B46BE
:1023F000FFF763FC05E0FFF7D2FC42464B46FFF7D0
:10240000CEFC04460E460022284BFFF7CBFE03D835
:102410004FF0FF30014607E00022254B20463146B1
:10242000FFF7A4FBFFF78DFE102409E0002C0ADB68
:102430000A220023FFF778FD039B30321A55641EF1
:1024400050EA0102F2D1641C039AC4F1110314444E
:10245000119A012A03D0012208430DD10AE0084352
:1024600004D000204FF0110B119072E7A3EB0B0585
:102470006D1E0DE05B4504DD4FF0000205F1010526
:1024800004E003DA4FF00002A5F10105002AECD0C8
:1024900002981199C0E90231C0E9004579E70000CE
:1024A000000014400000F03F300000000000F04346
:1024B0000000E03F2DE9FF4F95B09A46884606465A
:1024C0000025EEE1252877D100242746F94A01218D
:1024D000039400E0044316F8013F203B01FA03F0A7
:1024E0001042F7D130782A2811D06FF02F033078BE
:1024F000A0F13002092A16D8039A44F0020402EB34
:10250000820203EB42021044761C0390EFE758F876
:10251000042B0392002A03DA504244F4005403903F
:1025200044F00204761C30782E2816D116F8010FDC
:1025300044F004042A280DD06FF02F023078A0F167
:102540003003092B09D807EB870302EB4303C718B5
:10255000761CF3E758F8047B761C30786C280FD093
:1025600006DC4C2817D068280DD06A2814D104E066
:10257000742810D07A280FD10DE044F400140AE03A
:1025800044F4801401E044F440147278824202D191
:1025900004F58014761C761C307866280BD013DC8A
:1025A000582877D009DC002875D04528F6D0462871
:1025B000F4D047281AD193E118E0632835D0642875
:1025C00079D0652812D18BE1702873D008DC672898
:1025D000F1D069286FD06E280DD06F2806D1ACE0FD
:1025E00073282CD0752874D0782853D05246179968
:1025F00090476D1C54E1C4F30250022809D003280F
:102600000DD0D8F8001004280DD00D6008F1040892
:1026100046E1D8F80010EA17C1E90052F6E7D8F809
:1026200000100D80F2E70D70F0E718F8041B8DF82C
:10263000001000208DF80100EB46012003E058F85F
:1026400004BB4FF0FF3061074FF0000102D40DE0F2
:1026500009F101018946B9420FDA8145F8DB1BF81F
:1026600009100029F4D108E009F1010189468142ED
:10267000FADB1BF809100029F6D103985346A0EBAA
:10268000090721463846179A00F080FA284400EBE3
:10269000090507E044E008E10DE01BF8010B524694
:1026A00017999047B9F10109F7D2534621463846A8
:1026B000179AF2E039E00A21C4F302524FF0000BFE
:1026C0000091022A06D058F8040BC117032A09D03A
:1026D0000AE023E008F1070020F00702F2E8020117
:1026E000904605E000B2C117042A01D140B2C117DB
:1026F000002906DA0A460021404261EB02012D2240
:1027000002E0220504D52B228DF80420012203E0EB
:10271000E20701D02022F7E7914657E00A2100E0C6
:1027200010214FF0000B00910BE010214FF0000B37
:1027300044F004040827009103E008204FF0000B48
:102740000090C4F30252022A05D058F8040B00216D
:10275000032A08D008E008F1070020F00702F2E899
:102760000201904603E080B2042A00D1C0B24FF0CB
:10277000000922072AD53278702A07D0DDF800C078
:102780008CF0100C5CEA0B0C05D00EE040228DF8AA
:102790000420012208E050EA010306D030238DF81E
:1027A00004308DF8052002229146009B83F0080337
:1027B00053EA0B030AD150EA010201D1620705D5A1
:1027C00030228DF804204FF001097F1E3278582AFC
:1027D00004D039A20C920CAA02920BE03BA2F9E7BA
:1027E0005B46009AFFF7A0FB0C9B9B5C029A521E73
:1027F0000292137050EA0102F2D1029804A9081A59
:1028000000F1200B600702D524F4803400E001279A
:102810005F4502DDA7EB0B0000E0002000EB0B01A1
:10282000009003984944401A0390E00306D45346AD
:102830002146179A039800F0A9F90544002706E0FD
:1028400001A85246C05D179990476D1C7F1C4F45EB
:10285000F6DBE0030CD553462146179A039800F0A7
:1028600095F9054404E030205246179990476D1CB5
:102870000099481E00900029F5DC08E002980299B2
:1028800052460078491C0291179990476D1CBBF184
:102890000001ABF1010BF1DC5BE100F065F90544EF
:1028A000761C307800287FF40DAE19B02846BDE8BC
:1028B000F08F0000092801003031323334353637CB
:1028C000383961626364656600000000303132337C
:1028D000343536373839414243444546000000001C
:1028E000600700D4062708F1070020F00700F0E891
:1028F0000223804603F0004C5FEA0C0001D097A051
:1029000009E0200501D596A005E0E00701D095A0DB
:1029100001E0AFF24C001390307823F000436528BB
:102920000CD006DC452809D046281DD047287FD189
:102930003BE0662818D067287AD136E00021112FB5
:1029400001DB112000E0781CCDE9000104A90CA8EE
:10295000FFF7EEFCDDE90D010C9A4FF0000B07F1DB
:102960000109109200914EE04FF000400097CDE930
:10297000011004A90CA8FFF7DBFCDDE90D020C9B9C
:102980000F994FF0000B91461093009211B9791CEA
:1029900000EB0109B7EB090003D4C0F1FF3B07F1DD
:1029A0000109A9EB0700019042E0012F00DA01279D
:1029B0000021112F01DD112000E03846CDE9000192
:1029C00004A90CA8FFF7B4FCDDE90D010C9A0091F5
:1029D0004FF0000BB946109221070FD4009A4A45D8
:1029E00003DA914601E0A9F10109B9F1010F05DD12
:1029F000109AA9F10101515C3029F4D0B84202DAF1
:102A000010F1040F03DA0121CDE9011010E00028D4
:102A100003DC8344A9EB000102E0411C494500DDD1
:102A20008946A0EB0B00401C01904FF00040029043
:102A3000200705D40198484502DB4FF0FF30019094
:102A400000208DF84B0002980DF14B07B0F1004FBC
:102A500025D002200C902B200D90029800280CDA33
:102A6000404202902D200D9007E00A210298FFF7C6
:102A700045FA3031029007F8011D0C99481E0C9060
:102A80000029F2DC02980028EFD1791E0D98087019
:102A9000307800F0200040F0450007F8020D11A842
:102AA000C01BC01D02901398007800B1012000EBFC
:102AB0000901019801EBE071029801440398401A62
:102AC000401E0390E00306D453462146179A03980C
:102AD00000F05CF805441398007818B15246179935
:102AE00090476D1CE00323D553462146179A03985F
:102AF00000F04CF805441BE0BBF1000F07DB009829
:102B0000584504DD1098179910F80B0001E017994B
:102B100030205246904701980BF1010B401E05F101
:102B20000105019004D12E205246179990476D1C43
:102B3000B9F10001A9F10109DEDC05E017F8010B8C
:102B40005246179990476D1C0299481E0290002921
:102B5000F4DC53462146179A03989EE62D000000A8
:102B60002B000000200000002DE9F0410446002564
:102B70001E461746880404D405E039462020B04795
:102B80006D1C641EF9D52846BDE8F0812DE9F041A1
:102B9000044600251E469046C80301D5302700E0B4
:102BA0002027880404D505E041463846B0476D1C0F
:102BB000641EF9D52846BDE8F08100002DE9F84FE4
:102BC00004460D4621F0004000917349814211DC1A
:102BD0007249884201DC06D12CB120462946BDE865
:102BE000F84FFFF782BB6E48002DCCBF6D496E4990
:102BF000BDE8F88F6D49814211DD6D498142D8BF32
:102C00004FF0FF366DDD20462946FFF705FB04280F
:102C100008BFFFF76FFB20462946BDE8F88F6549DE
:102C2000654F25F00045814233DD6449814219DD5D
:102C3000002632464FF0804320462946FEF796FF95
:102C400080468A46012220462946FFF763FA002281
:102C50003B46FFF72CF842465346FFF7A0F80446E0
:102C60000D463EE001260022BA463B462046294654
:102C7000FEF77CFF80460F46002253462046294639
:102C8000FFF715F842463B46FFF789F804460D4624
:102C900027E04B4981421BDDDFF828A102260022F4
:102CA000534620462946FFF708F800223B46FEF728
:102CB0005DFF80460F460022534620462946FEF718
:102CC000F6FF42463B46FFF76AF804460D4608E029
:102CD000032622462B4600203B49FFF760F80446B6
:102CE0000D4622462B4610461946FEF7E6FF8B4658
:102CF000824602460B46FEF7E0FF0746024633488F
:102D000088460B4606217844FFF79AFA52465B46FE
:102D1000FEF7D3FF82462E488B463A4643460521AE
:102D20007844FFF78DFA3A464346FEF7C6FF02465F
:102D30000B46002E504659460CDAFEF717FF224686
:102D40002B46FEF7BAFF01B022462B46BDE8F04FF6
:102D5000FEF7B0BFFEF70AFF22462B46FEF7ADFF97
:102D60001C4A7A4402EBC603D3E90023FEF79FFF17
:102D700022462B46FEF79BFF174A7A4402EBC60316
:102D8000D3E90023FEF796FF009A002AB8BF81F02E
:102D90000041BDE8F88F0000000010440000F07F03
:102DA000182D4454FB21F93FFB21F9BF0000DC3F03
:102DB0000000203E0000F33F0000F03F0000E63F2F
:102DC000008003400000F83F0000F0BFD602000082
:102DD0009402000032020000FA0100002DE9F04DDB
:102DE0009446CCF1000423F000464CEA0404594F09
:102DF00046EAD4749A46884621F00042BC4206D87E
:102E0000454240EA050442EAD474BC4204D9BDE814
:102E1000F04D6246FFF76CBAAAF14055A5F17F6507
:102E200055EA0C040BD0022404EAAA744A4DDFF8D8
:102E30002CE144EAD87452EA000B04D00CE0BDE85F
:102E4000F04DFFF7BBBE002C14BF012CBDE8F08D88
:102E5000022C30D0032C32D056EA0C0B0AD0BE42E2
:102E600020D1BA4209D126F0804622F08042334672
:102E7000114617E000291ADB25E0DFF8E4B0FB4437
:102E8000002C04BFDBE90001BDE8F08D012C02BF7E
:102E9000DBE9000181F00041BDE8F08D022C0AD091
:102EA000032C0CD0BA4212D1B8F1000F0BDA2A4829
:102EB0002C49BDE8F08D28462B49BDE8F08D284609
:102EC0007146BDE8F08D24482849BDE8F08D921B7D
:102ED00012153C2AC4BF204F244E10DCBAF1000F5B
:102EE000BEBF12F13C0F00273E4608DB6246FEF7EC
:102EF00056FF21F00041FFF761FE07460E4694B1F0
:102F0000012C08BF86F000460DD0194A194B022C3F
:102F10003846314615D0FEF7CAFE2A46BDE8F04DC8
:102F2000114BFEF7C4BE0022134638463146FFF768
:102F300021F904BF0220FFF7F5F938463146BDE814
:102F4000F08DFEF7B4FE2A46BDE8F04D064BFEF7C5
:102F5000B1BE00000000F07F182D4454FB2109C0D1
:102F60008E010000FB21F9BFFB210940FB21F93F45
:102F7000075C143326A6A13C4FBB610567ACDD3F5F
:102F8000182D4454FB21E93F9BF681D20B73EF3F90
:102F9000182D4454FB21F93FE2652F227F2B7A3C08
:102FA000075C143326A6813CBDCBF07A8807703CC1
:102FB000075C143326A6913CC4EB98999999C9BF34
:102FC000711623FEC671BCBF6D9A74AFF2B0B3BF69
:102FD0009AFDDE522DDEADBF2F6C6A2C44B4A2BF29
:102FE0000D5555555555D53FFF8300922449C23F95
:102FF0006E204CC5CD45B73F513DD0A0660DB13FC9
:10300000EB0D76244B7BA93F11DA22E33AAD903FDA
:103010000000000000000000383000080000002020
:103020004000000004230008783000084000002021
:10303000C80400001423000800A24A040000000095
:103040000000000001020304060708090000000058
:10305000010203040102030406070809020406082A
:1030600000000000000000000000000000A00000C0
:08307000000000000000000058
:04000005080000ED02
:00000001FF
