:020000040800F2
:10000000204200200501000801230008E50B00083C
:10001000FD2200088F0A00082734000800000000B5
:100020000000000000000000000000006125000842
:10003000930A000800000000B72300089D2C000868
:100040001F0100081F0100081F0100081F01000810
:100050001F0100081F0100081F0100081F01000800
:100060001F0100081F0100081F0100081F010008F0
:100070001F0100081F0100081F0100081F010008E0
:100080001F0100081F0100081F0100081F010008D0
:100090001F0100081F0100081F0100081F010008C0
:1000A0001F0100081F0100081F0100081F010008B0
:1000B000012D00081F0100081F0100081F01000892
:1000C0001F0100081F0100081F0100081F01000890
:1000D0001F010008053200081F0100081F01000869
:1000E0001F0100081F0100081F010008DFF810D0E1
:1000F00000F08AFC0048004751450008AFF300803B
:10010000204200200648804706480047FEE7FEE7F9
:10011000FEE7FEE7FEE7FEE7FEE7FEE7FEE7FEE7B7
:10012000A12C0008ED000008D2B201E000F8012B7C
:10013000491EFBD270470022F6E710B513460A4667
:1001400004461946FFF7F0FF204610BDF0B480EAE0
:100150000102D40F4200B2EB410F02D20246084620
:1001600011464A0042D0C30DDDB2C1F3C752AD1AE9
:10017000202D35DAC1F3160141F4000204B15242D8
:10018000C5F1200602FA06F12A411044B3EBD05F14
:1001900023D0C4B1012DA0EBC35009DCF0BC4FF05B
:1001A000004202EAC352DBB200F5000000F03EBAA2
:1001B000400000F1807000EBC350A0F1807040EA75
:1001C000D170490009E0490841EAC071A0EBC35071
:1001D00000F50000400800EBC350F0BC00F01DBA71
:1001E0006142012202EB4101001BF6E7F0BC7047BF
:1001F00081F00041AAE780F00040A7E780EA010211
:1002000010B502F00043400022D04A001FD0010E7A
:1002100001EB1261C0F35600C2F3560240F4000035
:1002200042F40002A0FB022000047F39140400D035
:10023000401C50EA124001D44000491EC2B20C06D4
:1002400004EBD010401C4008802A02D003E00020BC
:1002500010BD20F00100002900DA0020184310BD75
:1002600030B480EA010202F0004530F0004221F093
:10027000004013D090B1C30DD40DC2F31601C0F3EA
:100280001600E41A41F4000140F400027D3491426A
:1002900001D3641C00E04900002C02DA30BC0020CD
:1002A00070474FF400000023914201D3891A0343A1
:1002B00040084FEA4101F7D151B1914202D14FF0CC
:1002C000004105E002D24FF0010101E06FF00101B1
:1002D00003EBC450284430BC00F09FB92DE9FE4F19
:1002E00081EA030404F0004421F0004100944FF03F
:1002F000000B23F0004350EA01045ED052EA0304ED
:100300005BD0C3F30A54C1F30A552C44A4F2F3346E
:100310000194A0FB0254C1F3130141F48011C3F313
:10032000130343F4801301FB024400FB034E840AD1
:10033000970A44EA815447EA8357A4FB0768029569
:100340008D0A05FB07854FEA932C04FB0C54270507
:10035000029D4FEA065847EA1637B5EB08056EEBE3
:10036000070C870E920E47EA811742EA8312A7FB19
:100370000201B6EB0B0164EB00042B0D43EA0C33D6
:100380005E1844EB1C50DA465146E7FB0201C5F308
:1003900013044FEA0B3343EA14534FEA0432019C2F
:1003A00043EA0603A4F10C040294009CCDE900B4D6
:1003B00000F0B4F903B0BDE8F08F00200146F9E782
:1003C0002DE9F04D81EA030404F0004B21F00045D3
:1003D00014464FF0000A23F0004150EA050220D0F5
:1003E00054EA01021DD0C5F30A570246C5F31303B0
:1003F000C1F31300C1F30A5640F4801543F480138F
:10040000A7EB0608101BD64608F2FD3873EB050073
:1004100002D308F1010801E092185B41B8F1000F26
:1004200003DA00200146BDE8F08D00204FF4801172
:10043000064684460EE0171B73EB050705D3121B17
:1004400063EB050306434CEA010C49084FEA300010
:1004500092185B4150EA0107EDD152EA030012D035
:1004600082EA040083EA0501084305D0101BAB4172
:1004700006D20122002306E000224FF0004302E0F2
:100480006FF0010253101AEB06004CEB085110EB11
:100490000A0041EB0B01BDE8F04D00F030B9C10F8F
:1004A00080EAE0700844CA079623002100F0BEB835
:1004B0000EB5C10F80EAE0700844CA07002140F27F
:1004C00033438DE80E000A460B4600F027F903B0CF
:1004D00000BD00F0004220F00040C10DC0F3160046
:1004E00040F400007F2901DA00207047962903DCE0
:1004F000C1F19601C84001E096398840002AF4D045
:100500004042704700F0004230F000400AD0C10D78
:1005100001F56071C0F3160042EA0151C2084007BC
:100520001143704700200146704701F0004330B48A
:1005300021F0004150EA010206D00A0DA2F56072D6
:10054000C1F31301002A02DC30BC00207047440FC5
:1005500044EAC104C100E01830BC00EBC25000F016
:100560005CB80000002801DBC0F10040002901DB7D
:10057000C1F1004181427047002801DBC0F1004019
:10058000002901DBC1F100418842704730B50B46BC
:10059000014600202022012409E021FA02F59D42B3
:1005A00005D303FA02F5491B04FA02F52844151E87
:1005B000A2F10102F1DC30BD2DE9F05F054600201B
:1005C00092469B4688460646814640241BE02846C4
:1005D00041464746224600F038FA53465A46C01A6A
:1005E000914110D311461846224600F01FFA2D1AE9
:1005F00067EB01084F4622460120002100F016FA61
:1006000017EB00094E41201EA4F10104DFDC48462F
:1006100031462A464346BDE8F09F0029A8BF7047EF
:10062000401C490008BF20F00100704710B4B0FA28
:1006300080FC00FA0CF050EA010404BF10BC7047C3
:1006400049B1CCF1200421FA04F411FA0CF118BFDD
:10065000012121430843A3EB0C01CB1D4FEA0061AC
:100660004FEA102042BF002010BC704700EBC3507F
:1006700010440029A4BF10BC7047401C490008BFAB
:1006800020F0010010BC7047420005D0C0F3C752F3
:100690005242914201DC0020704700EBC15070478C
:1006A000F0B4002802DCF0BC00207047C0F3C75152
:1006B000C0F3160040F40000CA0701D14000491EF3
:1006C0003F2202EB6105002211464FF4000626FA94
:1006D00001F31344D418844201D8001B1A46400089
:1006E000491C1729F3DD5100814202D24FF0FF313E
:1006F00000E0002102EBC550F0BCFFF78EBF10B543
:10070000141E73F1000408DA401C41F10001921834
:100710005B411A4301D120F0010010BD2DE9F04DDD
:1007200092469B4611B1B1FA81F202E0B0FA80F232
:100730002032904600F07AF904460F4640EA0A005B
:1007400041EA0B0153465A46084313D0114653EA77
:10075000010019D0C8F14002504600F076F9054674
:100760000E4650465946424600F060F9084305D00F
:10077000012004E020463946BDE8F08D0020054305
:1007800046EAE0762C4337430A986305E40AA0EB77
:1007900008000022FD0A44EA47540A3002D500202E
:1007A0000146E9E7010510196941DDE9084500192D
:1007B0006941BDE8F04DA2E72DE9FE4F804681EA90
:1007C0000300C00F0C46009021F0004123F00045CB
:1007D000B8EB0200A94105D24046214690461C468E
:1007E0000B46024623F00040104347D0270DC7F3C5
:1007F0000A00C3F30A510290401A019040286BDAB4
:10080000C3F3130040F4801B0098924620B10023EC
:10081000D2EB030A63EB0B0B01985946C0F140027F
:10082000504600F003F906460D4650465946019AD7
:1008300000F01BF910EB08006141002487EA115217
:1008400084EAE7731A4340D0009A62B3019A012AFE
:100850004FEA075215DC001B61EB02014FF000422A
:1008600002EA0752CDE90042001C41F580113246F0
:100870002B46FFF753FF03B0BDE8F08F40462146FB
:10088000F9E7001B61EB0201001C41F58013001821
:100890005B412018A2F5001747EB030140EAD57031
:1008A000B6196D4111E06D084FEA360645EAC0758C
:1008B0004FEA0752001B61EB0201001C41F5801159
:1008C00049084FEA30000019514132462B4603B027
:1008D000BDE8F04FFFF713BF00980122400000234E
:1008E000D0EB020263EBE073009821464FEAE0741C
:1008F000B8EB000061EB0401E9E783F000435BE73C
:1009000081F0004158E72DE9F04D00231A461B1AEB
:100910008A4103DB00200146BDE8F08DC1F30A5295
:10092000C1F3130141F480154FF0000BD10702D140
:1009300000186D41521E0027044640F2FF11384650
:1009400001EB620A3E468046024600204FF48011C9
:1009500000F07BF8C2197141BB1846EB0100B4EB03
:10096000030C75EB000C04D3E41A65EB0005174685
:100970000E46241908F101006D4180463428E3DD5C
:10098000F91946EB0600091BA84103D24FF0FF32CC
:10099000134601E0002213461BEB070046EB0A5109
:1009A000BDE8F04DFFF7ABBEC1F30A52C1F313012E
:1009B00040F2FF3341F480119A4202DA00200146EE
:1009C000704740F233439A42A2F2334202DC524271
:1009D00000F03BB800F02AB830B5041E71F10004F5
:1009E00004DB4FF00044404264EB0101141E73F13C
:1009F000000405DB1C464FF00043524263EB040346
:100A0000994208BF904230BD064C074D06E0E068B1
:100A100040F0010394E8070098471034AC42F6D345
:100A2000FFF768FB6C4A00088C4A0008202A04DBA8
:100A3000203A00FA02F1002070479140C2F12003F1
:100A400020FA03F3194390407047202A04DB203A30
:100A500021FA02F00021704721FA02F3D040C2F1DE
:100A600020029140084319467047202A06DBCB1725
:100A7000203A41FA02F043EAE07306E041FA02F359
:100A8000D040C2F12002914008431946704700BF90
:100A9000FEE770472DE9F0410246002500260020C0
:100AA00000230024002791F803C00CF00F0591F8F3
:100AB00003C00CF0100CBCF1000F03D091F802C081
:100AC0004CEA050591F800C0BCF1000F31D0146864
:100AD00000202BE04FF0010C0CFA00F3B1F800C03D
:100AE0000CEA03069E4220D183004FF00F0C0CFA53
:100AF00003F7BC4305FA03FC4CEA040491F803C075
:100B0000BCF1280F06D14FF0010C0CFA00FCC2F822
:100B100014C00AE091F803C0BCF1480F05D14FF0B2
:100B2000010C0CFA00FCC2F810C0401C0828D1D3FC
:100B30001460B1F800C0BCF1FF0F34DD5468002030
:100B40002EE000F1080C4FF0010808FA0CF3B1F8A0
:100B500000C00CEA03069E4221D183004FF00F0C27
:100B60000CFA03F7BC4305FA03FC4CEA040491F8C1
:100B700003C0BCF1280F05D100F1080C08FA0CF8ED
:100B8000C2F8148091F803C0BCF1480F07D100F1FE
:100B9000080C4FF0010808FA0CF8C2F81080401C4D
:100BA0000828CED35460BDE8F08102460020936847
:100BB0000B400BB1012000E00020704741617047FD
:100BC00001617047F7B504460D46002602AB0122CD
:100BD0002946204601F055FE06460EB90020FEBD0E
:100BE0000220FCE700BFFEE710B501F01BFF142256
:100BF00000211E20FFF7E6FF002201211E20FFF743
:100C0000E1FF002202211E20FFF7DCFF10BD02469B
:100C1000002004E052F8203041F82030401C092820
:100C2000F8DB704730B5002103E0002240F82120B6
:100C3000491C0929F9DB002113E000220EE0914252
:100C400002D14FF07E5400E0002401EBC10500F119
:100C5000240303EB850343F82240521C092AEEDBF0
:100C6000491C0929E9DB002112E000220DE0914234
:100C700001D11C4C00E0002401EBC10500F5B47368
:100C800003EB850343F82240521C092AEFDB491C81
:100C90000929EADB144A4FF4F0710A50C0F808221F
:100CA000C0F83022002112E000220DE0914201D173
:100CB0000E4C00E0002401EBC10500F52B7303EBA3
:100CC000850343F82240521C092AEFDB491C0929FD
:100CD000EADB4FF07C52C0F89C23C0F8C423C0F874
:100CE000EC2330BD6F12833A6F12033BCDCCCC3D69
:100CF0002DE9F04106460F46002424E000251FE0C0
:100D000004EBC40206F5B47101EB820151F8250031
:100D10003946FFF773FA804604EBC40206F124005B
:100D200000EB820050F825104046FFF70FFA04EB65
:100D3000C40206F1240101EB820141F825006D1C7B
:100D4000092DDDDB641C092CD8DBBDE8F0812DE921
:100D5000F043ADF2BC7D05460F4600242EE0002690
:100D600029E004EBC40105F1240000EB810050F8F8
:100D7000260004EBC4010DF2345202EB810141F86C
:100D8000260004EBC40305F52B7202EB830252F834
:100D9000261004EBC40305F1240202EB830252F88F
:100DA0002600FFF7D3F904EBC401FCAA02EB810192
:100DB00041F82600761C092ED3DB641C092CCEDBFF
:100DC000ABA9FCA803F0EEFB00243AE0002635E0D6
:100DD000002004EBC4010DF5CF6202EB810141F864
:100DE0002600804626E008EBC802ABAB03EB82028C
:100DF00052F8261004EBC4020DF2345303EB8202C6
:100E000052F82800FFF7FAF9814604EBC4000DF50B
:100E1000CF6202EB800050F826104846FFF796F9A3
:100E200004EBC4010DF5CF6202EB810141F826000D
:100E300008F10108B8F1090FD5DB761C092EC7DBD4
:100E4000641C092CC2DB00241DE055F8241057F85F
:100E50002400FFF7CDF9A2A941F8240004EBC40255
:100E60000DF5CF6303EB820252F82400A2AA52F8D8
:100E70002410FFF7C3F9064655F82410FFF766F96A
:100E800045F82400641C092CDFDB002425E0002643
:100E900020E0B4420CD104EBC4000DF5CF6202EBAC
:100EA000800050F826104FF07E50FFF7A1F909E0BE
:100EB00004EBC4000DF5CF6101EB800050F8260073
:100EC00080F0004004EBC40151AA02EB810141F81B
:100ED0002600761C092EDCDB641C092CD7DB6A4655
:100EE00005F1240151A803F081FB002014E000214A
:100EF0000FE000EBC0026B4603EB820252F8213098
:100F000000EBC00405F1240202EB840242F8213018
:100F1000491C0929EDDB401C0928E8DB0DF2BC7DEA
:100F2000BDE8F0830FB5B3B000213A98FFF71AFB84
:100F300013D100213B98FFF715FB0ED100213C98FF
:100F4000FFF710FB09D1DDE93801CDE9000133A835
:100F50000FC800F0FDFE37B000BDFE4835990068AF
:100F6000FFF74CF90E90FC4834990068FFF746F9FA
:100F70000C90FA48006880F000400A903399FFF71F
:100F80003DF90B900C99FFF733F90D900E99FFF78F
:100F90002FF94FF07C510F90FFF730F92D90ED486D
:100FA00034990068FFF72AF90E90EB4835990068EC
:100FB000FFF724F90C90EA4801683398FFF71EF90F
:100FC0000B900C99FFF7C2F80D900E99FFF710F9EE
:100FD0004FF07C510F90FFF711F92C90DD4801681C
:100FE0003398FFF70BF90E90DC4835990068FFF74E
:100FF00005F90C90DA4834990068FFF7FFF80B9078
:101000000C99FFF7F5F80D900E99FFF79FF84FF048
:101010007C510F90FFF7F2F82B90CF48016833987E
:10102000FFF7ECF80E90CD4834990068FFF7E6F82A
:101030000C90CB4835990068FFF7E0F80B900C99BD
:10104000FFF784F80D900E99FFF7D2F84FF07C511E
:101050000F90FFF7D3F82A9000213698FFF782FA15
:1010600009D100213898FFF77DFA04D10021399881
:10107000FFF778FA7ED039990846FFF7BFF80E904F
:1010800038990846FFF7BAF80C9036990846FFF7EA
:10109000B5F80B900C99FFF759F80D900E99FFF7E2
:1010A00055F80F9003F02EFA329032993698FFF7E8
:1010B000A5F8369032993898FFF7A0F83890329911
:1010C0003998FFF79BF839903C990846FFF796F856
:1010D0000E903B990846FFF791F80C903A99084614
:1010E000FFF78CF80B900C99FFF730F80D900E99E4
:1010F000FFF72CF80F9003F005FA329032993A98E6
:10110000FFF77CF83A9032993B98FFF777F83B90DD
:1011100032993C98FFF772F83C90914801684FF083
:101120008040FFF76BF80F903A99FFF767F8279028
:101130008B4801684FF08040FFF760F80F903B99B3
:10114000FFF75CF82690864801684FF08040FFF773
:1011500055F80F903C99FFF751F825907F480168AA
:101160004FF08040FFF74AF80F903A99FFF746F8A2
:10117000249000E0FEE37A4801684FF08040FFF7DA
:101180003DF81F90754801684FF08040FFF736F832
:101190001E90714801684FF08040FFF72FF81D90B6
:1011A0006C4801684FF08040FFF728F81C906C48AD
:1011B00001684FF08040FFF721F80F906648016802
:1011C0000F98FFF71BF81B90634801684FF08040B1
:1011D000FFF714F80F905F4801680F98FFF70EF8BB
:1011E0001A905F4801680068FFF708F819905B489B
:1011F00001685B480068FFF701F8189056480168DD
:1012000057480068FEF7FAFF1790524801685448A3
:101210000068FEF7F3FF1690504801680068FEF77B
:10122000EDFF15904C4801684C480068FEF7E6FF5A
:1012300014904848016849480068FEF7DFFF1390A2
:10124000454801680068FEF7D9FF129041480168DF
:1012500041480068FEF7D2FF11903E4801680068DF
:10126000FEF7CCFF109010993A98FEF7C7FF0F9049
:1012700012993A98FEF7C2FF0D903C991E98FEF71E
:10128000BDFF0990334801680998FEF7B7FF0B903E
:101290003B991E98FEF7B2FF07902F480168079808
:1012A000FEF7ACFF099015993A98FEF7A7FF079053
:1012B000294801682598FEF7A1FF05902548016897
:1012C0002698FEF79BFF039019993A98FEF796FF30
:1012D00002900399FEF78CFF04900599FEF736FF04
:1012E00006900799FEF732FF08900999FEF72EFF46
:1012F0000A900B99FEF72AFF0C900D99FEF778FFE4
:101300000E900F99FEF774FF299010993B98FEF705
:1013100075FF0F903C991D98FEF770FF0B900D48DC
:1013200001680B98FEF76AFF0D9012993B98FEF743
:1013300065FF0B9015993B98FEF760FF09900648F2
:1013400001682498FEF75AFF079004480168259821
:1013500008E0000048000020440000204000002079
:101360003C000020FEF74AFF059019993B98FEF7D4
:1013700045FF0390FE4801682798FEF73FFF029063
:101380000399FEF7E3FE04900599FEF731FF0690FE
:101390000799FEF7DBFE08900999FEF729FF0A90EE
:1013A0000B99FEF7D3FE0C900D99FEF7CFFE0E9031
:1013B0000F99FEF71DFF289028990846FEF71EFF9B
:1013C0000A9029990846FEF719FF09900A99FEF735
:1013D000BDFE0B90FFF796F8CDE90C0103F0B9FACA
:1013E000CDE90E01FFF7A1F8239010993C98FEF784
:1013F00005FF0F9012993C98FEF700FF0D903B9966
:101400001D98FEF7FBFE0990D94801680998FEF780
:10141000F5FE0B9015993C98FEF7F0FE0990D44824
:1014200001682498FEF7EAFE079019993C98FEF7A8
:10143000E5FE0590CF4801682698FEF7DFFE039091
:10144000279880F000400190CB4801680198FEF792
:10145000D5FE02900399FEF779FE04900599FEF7F8
:1014600075FE06900799FEF771FE08900999FEF740
:10147000BFFE0A900B99FEF769FE0C900D99FEF7DE
:10148000B7FE0E900F99FEF761FE22904FF080405C
:101490002399FEF7B3FE21904FF080402299FEF78A
:1014A000ADFE20904FF07C501599FEF7A1FE0790FD
:1014B0001299FEF79DFE08902299FEF79FFE0A9072
:1014C00013991798FEF742FE08902399FEF796FEAF
:1014D00009900A99FEF73AFE0B903C99FEF788FEB8
:1014E0000D90A54801682398FEF788FE0C900D9991
:1014F000FEF784FE0F9011991898FEF727FE0690CC
:101500002299FEF77BFE089016991498FEF770FE5C
:1015100006902399FEF772FE07900899FEF716FED3
:1015200009903B99FEF764FE0B909248016822985F
:10153000FEF764FE0990239880F0004007908C48E5
:1015400001680798FEF75AFE08900999FEF7FEFD1C
:101550000A900B99FEF752FE0D9017991398FEF71B
:1015600047FE04902299FEF749FE06904FF07C500A
:101570001299FEF73DFE03901099FEF739FE049094
:101580002399FEF73BFE05900699FEF7DFFD0790D5
:101590003A99FEF72DFE0990774801682298FEF7E8
:1015A0002DFE08900999FEF729FE0B904FF0804020
:1015B0001899FEF723FE05901A99FEF7C7FD0690CD
:1015C0003899FEF715FE07901E99FEF717FE099051
:1015D0004FF080401399FEF711FE04901B99FEF71F
:1015E00007FE05903699FEF703FE07901D9880F0E0
:1015F000004006900799FEF701FE08900999FEF752
:10160000A5FD0A900B99FEF7F3FD0C900D99FEF7DE
:101610009DFD0E900F99FEF799FD31904FF07C5093
:101620001599FEF7E5FD07901299FEF7E1FD089088
:101630002299FEF7E3FD0A9013991798FEF786FDAD
:1016400008902399FEF7DAFD09900A99FEF77EFDCE
:101650000B903C99FEF7CCFD0D9046480168209810
:10166000FEF7CCFD0B90424801682398FEF7C6FDBB
:101670000A900B99FEF7BCFD0C900D99FEF7BEFD8C
:101680000F9011991898FEF761FD06902299FEF7C8
:10169000B5FD089016991498FEF7AAFD06902399B7
:1016A000FEF7ACFD07900899FEF750FD09903B99B5
:1016B000FEF79EFD0B90314801682298FEF79EFDD3
:1016C00009902D4801682398FEF798FD0890099924
:1016D000FEF73CFD0A900B99FEF790FD0D901799CF
:1016E0001398FEF785FD04902299FEF787FD06907A
:1016F0004FF07C501299FEF77BFD03901099FEF796
:1017000077FD04902399FEF779FD05900699FEF781
:101710001DFD07903A99FEF76BFD0990144801688A
:101720002298FEF76BFD08900999FEF767FD0B9074
:101730004FF080401299FEF761FD04904FF0804019
:101740001599FEF75BFD4FF07E510290FEF753FDB9
:1017500003900499FEF74CFD05903999FEF748FD7A
:101760000790044801684FF08140FEF747FD07E00D
:101770004800002040000020440000203C000020E1
:1017800006900799FEF73AFD09904FF080401899AE
:10179000FEF734FD03901A99FEF7D8FC04903899AF
:1017A000FEF726FD05901F99FEF728FD07904FF0E4
:1017B00080401399FEF722FD03901B99FEF718FD58
:1017C00004903699FEF714FD05901C99FEF716FD5E
:1017D00006900799FEF7BAFC08900999FEF708FDF4
:1017E0000A900B99FEF7B2FC0C900D99FEF7AEFC37
:1017F0000E900F99FEF7AAFC30904FF07C5015998F
:10180000FEF7F6FC07901299FEF7F2FC0890229979
:10181000FEF7F4FC0A9013991798FEF797FC0890CE
:101820002399FEF7EBFC09900A99FEF78FFC0B90C9
:101830003C99FEF7DDFC0D90FE4801682098FEF70C
:10184000DDFC0B90FC4801682398FEF7D7FC0A905A
:101850000B99FEF7CDFC0C900D99FEF7CFFC0F9085
:1018600011991898FEF772FC06902299FEF7C6FCB3
:10187000089016991498FEF7BBFC06902399FEF782
:10188000BDFC07900899FEF761FC09903B99FEF7B3
:10189000AFFC0B90E94801682298FEF7AFFC099075
:1018A000E74801682398FEF7A9FC08900999FEF71C
:1018B0004DFC0A900B99FEF7A1FC0D901799139817
:1018C000FEF796FC04902299FEF798FC06904FF0E4
:1018D0007C501299FEF78CFC03901099FEF788FC5F
:1018E00004902399FEF78AFC05900699FEF72EFCDA
:1018F00007903A99FEF77CFC0990CF48016822983E
:10190000FEF77CFC0790219880F000400590C948C4
:1019100001680598FEF772FC06900799FEF768FCCF
:1019200008900999FEF76AFC0B904FF080401299DD
:10193000FEF764FC04904FF080401599FEF75EFCC2
:101940004FF07E510290FEF756FC03900499FEF78B
:101950004FFC05903999FEF74BFC0790B54801689C
:101960004FF08140FEF74AFC06900799FEF746FCCF
:10197000099000E06BE14FF080401899FEF73EFCC3
:1019800003901A99FEF7E2FB04903899FEF730FCB9
:1019900005901C99FEF732FC07904FF08040139998
:1019A000FEF72CFC02901B99FEF722FC039036995F
:1019B000FEF71EFC05901F9880F0004004900599EA
:1019C000FEF71CFC06900799FEF7C0FB08900999EA
:1019D000FEF70EFC0A900B99FEF7B8FB0C900D99E0
:1019E000FEF7B4FB0E900F99FEF7B0FB2F904FF06F
:1019F0007C501599FEF7FCFB07901299FEF7F8FB57
:101A000008902299FEF7FAFB0A9013991798FEF7AF
:101A10009DFB08902399FEF7F1FB09900A99FEF7C8
:101A200095FB0B903C99FEF7E3FB0D908448016811
:101A30002398FEF7E3FB0C900D99FEF7DFFB0F9068
:101A400011991898FEF782FB06902299FEF7D6FBB3
:101A5000089016991498FEF7CBFB06902399FEF791
:101A6000CDFB07900899FEF771FB09903B99FEF7B3
:101A7000BFFB0B906F4801682298FEF7BFFB0990EF
:101A8000239880F0004007906B4801680798FEF7A4
:101A9000B5FB08900999FEF759FB0A900B99FEF7E0
:101AA000ADFB0D9017991398FEF7A2FB04902299B5
:101AB000FEF7A4FB06904FF07C501299FEF798FBBE
:101AC00003901099FEF794FB04902399FEF796FB80
:101AD00005900699FEF73AFB07903A99FEF788FBC6
:101AE0000990574801682298FEF788FB07902198D3
:101AF00080F000400590514801680598FEF77EFB94
:101B000006900799FEF722FB08900999FEF776FBED
:101B10000B904FF080401899FEF770FB05901A99D2
:101B2000FEF714FB06903899FEF762FB07901D99AB
:101B3000FEF764FB09904FF080401399FEF75EFBBF
:101B400005901B99FEF754FB06903699FEF750FB63
:101B500007901E99FEF752FB08900999FEF7F6FAD6
:101B60000A900B99FEF7F2FA0C900D99FEF7EEFA37
:101B70000E900F99FEF7EAFA2E902E990846FEF77E
:101B80003DFB0E902F990846FEF738FB0C903099DC
:101B90000846FEF733FB0A9031990846FEF72EFB04
:101BA00009900A99FEF7D2FA0B900C99FEF7CEFA3B
:101BB0000D900E99FEF7CAFA0F9002F0A3FC329036
:101BC000DDE93101FEF71AFB319032993098FEF7CA
:101BD00015FB309032992F98FEF710FB2F90329919
:101BE0002E98FEF70BFB2E90164831990068FEF7F1
:101BF00005FB0F902D99FEF7FEFA2D9011483099B4
:101C00000068FEF7FBFA0F902C99FEF7F4FA2C907F
:101C10000C482F990068FEF7F1FA0F902B99FEF708
:101C2000EAFA2B9007482E990068FEF7E7FA0F9022
:101C30002A9909E0440000203C00002048000020D0
:101C40004000002038000020FEF7D5FA2A903B49DA
:101C50002D98FEF7D3FA0F90394801680F98FEF7D8
:101C600075FA3749086035492C98FEF7C7FA0F9086
:101C7000344801680F98FEF769FA324908602F4925
:101C80002B98FEF7BBFA0F902F4801680F98FEF7CC
:101C90005DFA2D49086029492A98FEF7AFFA0F909E
:101CA0002A4801680F98FEF751FA2849086008464B
:101CB00001680068FEF7A2FA0E90234801680068E8
:101CC000FEF79CFA0C901F4801680068FEF796FA30
:101CD0000A901B4801680068FEF790FA09900A997B
:101CE000FEF734FA0B900C99FEF730FA0D900E992E
:101CF000FEF72CFA0F9002F005FC32901048329952
:101D00000068FEF77BFA0E4908600E4832990068B9
:101D1000FEF774FA0B4908600B4832990068FEF729
:101D20006DFA09490860094832990068FEF766FAB9
:101D30000649086000BFFFF70EB900000AD7233C30
:101D40003C0000204000002044000020480000200B
:101D50000FB5A5B0FE4827990068FEF74FFA0D9021
:101D6000FC4826990068FEF749FA0B90FA4800688B
:101D700080F0004009902599FEF740FA0A900B99EF
:101D8000FEF736FA0C900D99FEF732FA4FF07C51BF
:101D90000E90FEF733FA1F90ED4826990068FEF783
:101DA0002DFA0D90EB4827990068FEF727FA0B9063
:101DB000EA4801682598FEF721FA0A900B99FEF788
:101DC000C5F90C900D99FEF713FA4FF07C510E9067
:101DD000FEF714FA1E90DE4801682598FEF70EFA09
:101DE0000D90DD4827990068FEF708FA0B90DB4854
:101DF00026990068FEF702FA0A900B99FEF7F8F9A7
:101E00000C900D99FEF7A2F94FF07C510E90FEF761
:101E1000F5F91D90CF4801682598FEF7EFF90D9070
:101E2000CD4826990068FEF7E9F90B90CB48279931
:101E30000068FEF7E3F90A900B99FEF787F90C901A
:101E40000D99FEF7D5F94FF07C510E90FEF7D6F9BB
:101E50001C9000212898FEF785FB09D100212A98C3
:101E6000FEF780FB04D100212B98FEF77BFB7DD091
:101E70002B990846FEF7C2F90D902A990846FEF7FD
:101E8000BDF90B9028990846FEF7B8F90A900B990E
:101E9000FEF75CF90C900D99FEF758F90E9002F0E0
:101EA00031FB249024992898FEF7A8F928902499CA
:101EB0002A98FEF7A3F92A9024992B98FEF79EF909
:101EC0002B90A64801684FF08040FEF797F91B90D1
:101ED000A14801684FF08040FEF790F91A909D48A4
:101EE00001684FF08040FEF789F919909848016821
:101EF0004FF08040FEF782F91890984801684FF043
:101F00008140FEF77BF91790934801684FF08140BC
:101F1000FEF774F916908F4801684FF08140FEF784
:101F20006DF915908C4801684FF08240FEF766F914
:101F30001490884801684FF08240FEF75FF91390D3
:101F4000864801680068FEF759F9129082480168D6
:101F50000068FEF753F911907E4801680068FEF7AB
:101F60004DF910907A480168006800E044E1FEF7FE
:101F700045F90F902A991A98FEF740F90E90119999
:101F80001798FEF73BF90C9028991998FEF736F947
:101F90000A9010991798FEF731F909900A99FEF7FF
:101FA000D5F80B900C99FEF7D1F80D900E99FEF72D
:101FB0001FF923902B991698FEF720F90E9010998F
:101FC0001498FEF71BF90C9011991498FEF716F966
:101FD0000A902A991B98FEF711F907904FF081405B
:101FE0001299FEF70BF903905B4801680398FEF71E
:101FF00005F9059028991898FEF700F903900F99B4
:102000001698FEF7FBF802900399FEF7F1F804909A
:102010000599FEF79BF806900799FEF7E9F80890F6
:102020001699FEF7E5F809900A99FEF78FF80B90DC
:102030000C99FEF78BF80D900E99FEF787F8229019
:102040002B991598FEF7DAF80E9010991398FEF771
:10205000D5F80C9011991398FEF7D0F80A902A99A8
:102060001898FEF7CBF807900F991598FEF7C6F869
:10207000059028991B98FEF7C1F803904FF0814016
:102080001299FEF7BBF80190324801680198FEF7FB
:10209000B5F802900399FEF759F804900599FEF7F8
:1020A00055F806900799FEF7A3F808901599FEF7E2
:1020B0009FF809900A99FEF749F80B900C99FEF7E2
:1020C00045F80D900E99FEF741F821902A9919983C
:1020D000FEF794F80E904FF081401099FEF78EF8BD
:1020E0000A901B4801680A98FEF788F80C90289916
:1020F0001A98FEF783F80A904FF081401199FEF785
:102100007DF80890124801680898FEF777F8099062
:102110000A99FEF76DF80B900C99FEF717F80D90E1
:102120000E99FEF765F8209020990846FEF766F8AC
:102130000D9021990846FEF761F80B902299084608
:10214000FEF75CF8099023990846FEF757F807E078
:102150004800002044000020400000203C000020F7
:1021600008900999FDF7F2FF0A900B99FDF7EEFF31
:102170000C900D99FDF7EAFF0E9002F0C3F9249040
:10218000DDE92301FEF73AF8239024992298FEF71F
:1021900035F8229024992198FEF730F8219024995F
:1021A0002098FEF72BF820904E4823990068FEF700
:1021B00025F80E901F99FEF71EF81F9049482299A6
:1021C0000068FEF71BF80E901E99FEF714F81E909B
:1021D000444821990068FEF711F80E901D99FEF70A
:1021E0000AF81D903F4820990068FEF707F80E9006
:1021F0001C99FEF700F81C903B491F98FDF7FEFF65
:102200000E903A4801680E98FDF7A0FF3749086024
:1022100035491E98FDF7F2FF0E90354801680E987B
:10222000FDF794FF324908602F491D98FDF7E6FF3E
:102230000E90304801680E98FDF788FF2D49086020
:1022400029491C98FDF7DAFF0E902B4801680E987B
:10225000FDF77CFF28490860084601680068FDF723
:10226000CDFF0D90234801680068FDF7C7FF0B9074
:102270001F4801680068FDF7C1FF09901B4801680D
:102280000068FDF7BBFF08900999FDF75FFF0A9012
:102290000B99FDF75BFF0C900D99FDF757FF0E9022
:1022A00002F030F92490114824990068FDF7A6FF48
:1022B0000E4908600E4824990068FDF79FFF0C49FD
:1022C00008600C4824990068FDF798FF09490860E8
:1022D000094824990068FDF791FF0749086029B073
:1022E00000BD0000380000200AD7233C3C0000203D
:1022F00040000020440000204800002000BFFEE70E
:102300007047000070B5002100230F22C47804B389
:10231000154C246804F4E064C4F5E064210AC1F1BA
:102320000403CA40447804FA03F18478144021433A
:1023300009010E4C0678A155047804F01F0501240C
:10234000AC4005786D11AD0005F1E025C5F8004100
:1023500009E0047804F01F050124AC40044D067820
:10236000761145F8264070BD0CED00E000E400E079
:1023700080E100E02DE9F04104460D461646326842
:102380002968206801F051F8074600213846FEF719
:10239000F3F80ED239462068FDF762FF2060394617
:1023A0002868FDF75DFF286039463068FDF758FF63
:1023B0003060BDE8F081704729B1064AD269024316
:1023C000044BDA6104E0034AD2698243014BDA61CB
:1023D000704700000010024029B1064A926902438A
:1023E000044B9A6104E0034A92698243014B9A616B
:1023F000704700000010024030B500210022002488
:1024000000232D4D6D6805F00C0121B1042905D084
:10241000082923D105E0294D056022E0274D0560FC
:102420001FE0254D6D6805F47012234D6D6805F4AD
:102430008034022505EB92421CB9214D55430560BD
:102440000BE01D4D6D6805F400351DB11C4D554365
:10245000056002E0194D5543056002E0174D056027
:1024600000BF00BF144D6D6805F0F0010909154D5E
:102470006B5C0568DD4045600F4D6D6805F4E061FB
:10248000090A104D6B5C4568DD4085600A4D6D683A
:1024900005F46051C90A0B4D6B5C4568DD40C560B1
:1024A000054D6D6805F44041890B074D6B5CC568AF
:1024B000B5FBF3F5056130BD0010024000127A0053
:1024C00000093D0014000020240000202DE9FE43F7
:1024D0000746884691460023072219461E2000F031
:1024E00008FA6B46012209211E2000F085F99DF8AB
:1024F000000000F0010088B301AB062203211E207A
:1025000000F07AF99DF805009DF8041040EA0124D6
:102510009DF807009DF8061040EA01269DF8090085
:102520009DF8081040EA0125B4F5004F02DBA4F540
:102530007F44FF3CB6F5004F02DBA6F57F46FF3E29
:10254000B5F5004F02DBA5F57F45FF3D20B2388091
:1025500028B2A8F8000030B2A9F80000BDE8FE8358
:10256000704700002DE9FC5F04460D4616461F46E5
:10257000DDE90C89B4F90000FDF791FF01903D48B9
:1025800001680198FDF734FE83463A48C168584611
:10259000FDF734FE8246FDF79CFF00B23880B4F9A7
:1025A0000200FDF77CFF0190324841680198FDF779
:1025B0001FFE83462F4801695846FDF71FFE8246DD
:1025C000FDF787FF00B27880B4F90400FDF767FFDC
:1025D0000190284881680198FDF70AFE8346254846
:1025E00041695846FDF70AFE8246FDF772FF00B2C8
:1025F000B880B5F90000FDF752FF83461D48816998
:102600005846FDF7F5FD8246FDF763FF00B2A8F8D6
:102610000000B5F90200FDF742FF83461548C16985
:102620005846FDF7E5FD8246FDF753FF00B2A8F8D6
:102630000200B5F90400FDF732FF83460D48016A38
:102640005846FDF7D5FD8246FDF743FF00B2A8F8D6
:10265000040009F10400811ECDE90010B6F9042040
:10266000B6F90210B6F900004B4601F06FFDBDE867
:10267000FC9F00006C01002010B53C211648FDF7BE
:102680005AFD164814490860154848601548886086
:102690004FF07E50C86001460F4801614161124809
:1026A0000D49886111490C48C16111490162114805
:1026B000094948621049084881621049C1621048BE
:1026C000054908630F49044841630F4981630520A8
:1026D0000E49087010BD00006C010020000074C29B
:1026E0000000C2C2008004C4EC51B0416666C8411B
:1026F000000080C00000204100005AC2000048C213
:10270000713DAA3FB81EC53F6666064032000020F4
:1027100010B500F001F810BD0CB50020019000903C
:102720003348006840F480303149086000BF3048C9
:10273000006800F4003000900198401C019000985F
:1027400018B90198B0F5A06FF1D12948006800F4DC
:10275000003010B10120009001E0002000900098AE
:10276000012843D12348006840F010002149086047
:102770000846006820F0030008600846006840F042
:10278000020008601A4840681949486008464068D5
:1027900048600846406840F48060486008464068E9
:1027A00020F47C1048600846406840F4E810486017
:1027B0000846006840F08070086000BF0C48006860
:1027C00000F000700028F9D00948406820F00300AC
:1027D000074948600846406840F00200486000BF72
:1027E0000348406800F00C000828F9D10CBD000037
:1027F00000100240002002402DE9F04105460F463E
:1028000014461E4600F0BCF9002141EA4501C8B259
:1028100000F080F900F0FAF9012804D100F0D6F9AF
:102820000220BDE8F081384600F074F900F0EEF9BE
:10283000012803D100F0CAF90220F2E700F0A0F964
:10284000012101EB4501C8B200F064F900F0DEF9A6
:10285000012803D100F0BAF90220E2E70BE0012CD5
:1028600001DD012100E00021084600F023F930706D
:10287000601EC4B2761C002CF1D100F0A7F9002034
:10288000CFE72DE9F04105460E461746984600F081
:1028900077F9002141EA4501C8B200F03BF900F0A8
:1028A000B5F9012804D100F091F90220BDE8F081CA
:1028B000304600F02FF900F0A9F9012803D100F00B
:1028C00085F90220F2E700240DE018F8040000F07A
:1028D00021F900F09BF9012803D100F077F90220DB
:1028E000E4E7601CC4B2BC42EFDB00F06FF90020EB
:1028F000DCE72DE9F84304460F461646984600F0FB
:102900003FF9002141EA4401C8B200F003F900F0A8
:102910007DF9012803D100F059F9BDE8F883384664
:1029200000F0F8F800F072F9012802D100F04EF939
:10293000F3E700F025F9012101EB4401C8B200F0F2
:10294000E9F800F063F9012802D100F03FF9E4E76B
:10295000002000F0AFF8009000F038F99DF800502A
:10296000B8F1000F03D00120B040284303E001205C
:10297000B04025EA0000C5B200F002F9002141EAAA
:102980004401C8B200F0C6F800F040F9012802D1B5
:1029900000F01CF9C1E7384600F0BCF800F036F949
:1029A000012802D100F012F9B7E7284600F0B2F88A
:1029B00000F02CF9012802D100F008F9ADE700F091
:1029C00005F900BFA9E7000010B500BF4FF4006192
:1029D0001048FEF7F3F800BF00F01EF800BF4FF4F8
:1029E00080610C48FEF7ECF800BF00F015F800BF5E
:1029F0004FF480610748FEF7E1F800BF00F00CF8E3
:102A000000BF4FF400610348FEF7DAF800BF00F0A2
:102A100003F810BD000C014010B5022001F03EFD8E
:102A200010BD000008B500BF01210820FFF7D4FC4D
:102A300000BF00BF01210820FFF7CEFC00BF4FF40C
:102A40008060ADF8000014208DF8030003208DF89D
:102A5000020069460648FEF71DF84FF40060ADF825
:102A6000000069460248FEF715F800F0AFF808BD0F
:102A7000000C014010B500BF4FF400610C48FEF798
:102A80009FF800BFFFF7C8FF00BF4FF48061084800
:102A9000FEF796F800BFFFF7BFFF00BF4FF480615D
:102AA0000348FEF78BF800BFFFF7B6FF10BD00002C
:102AB000000C014070B50546002400261DE06006AC
:102AC000040E00BF4FF480611148FEF779F800BF93
:102AD000FFF7A2FF4FF400610D48FEF766F808B15A
:102AE000601CC4B200BF4FF480610948FEF766F86D
:102AF00000BFFFF791FF701CC6B2082EDFDB15B9CF
:102B0000FFF7B8FF01E0FFF75FFF204670BD000050
:102B1000000C014070B50446002524E000BFE00928
:102B200028B14FF400611548FEF74AF804E04FF46D
:102B300000611248FEF742F800BFFFF76DFF00BFCB
:102B40004FF480610D48FEF73BF800BFFFF764FFCC
:102B500000BF4FF480610948FEF730F800BF6006FF
:102B6000040E681CC5B2082DD8DB00BF4FF400610D
:102B70000248FEF725F800BF70BD0000000C0140C0
:102B800010B500BF4FF400610F48FEF719F800BF01
:102B900000BF4FF480610C48FEF712F800BFFFF74A
:102BA0003BFF00BF4FF400610748FEF707F800BF86
:102BB000FFF732FF00BF4FF480610348FDF7FEFFCF
:102BC00000BFFFF729FF10BD000C014010B500BF8A
:102BD0004FF400610C48FDF7F1FF00BFFFF71CFF49
:102BE00000BF4FF480610848FDF7EAFF00BFFFF720
:102BF00013FF00BF4FF400610348FDF7E1FF00BF82
:102C0000FFF70AFF10BD0000000C014070B5002462
:102C1000002500BF4FF400611548FDF7D1FF00BF4C
:102C2000FFF7FAFE00BF4FF480611148FDF7C8FFBF
:102C300000BFFFF7F1FE07E0601CC4B2FA2C03DD11
:102C4000FFF7C4FF012506E04FF400610848FDF7D7
:102C5000ACFF0028F0D100BF00BF4FF480610448F2
:102C6000FDF7ACFF00BFFFF7D7FE284670BD0000A0
:102C7000000C0140042808D14FF0E021096941F01F
:102C800004014FF0E022116107E04FF0E0210969F3
:102C900021F004014FF0E0221161704770470000FD
:102CA00010B51348006840F001001149086008465B
:102CB0004068104908400E494860084600680E49BF
:102CC00008400B4908600846006820F4802008602E
:102CD0000846406820F4FE0048604FF41F008860FA
:102CE000FFF716FD4FF000600449086010BD0000BA
:102CF000001002400000FFF8FFFFF6FE08ED00E0C4
:102D00002DE9F0438FB00121880700F0E8F9012890
:102D10007ED10121800700F0D3F9C74A911E881E99
:102D2000FFF7D4FBC54801F005FDC54A911E881E7A
:102D300001F0D8FCC34A911E881E01F0ABFCC248CA
:102D4000C249C34BBC4A121FCDE90010BC49091F40
:102D5000BC48001FFFF706FCBD49B1F90000FDF7B4
:102D6000A7FB06460022BB4BFDF72AFB0446FDF7F6
:102D7000DCFBB9490860B649B1F90200FDF798FBE0
:102D800006460022B34BFDF71BFB0446FDF7CDFBC7
:102D9000B1494860AE49B1F90400FDF789FB064628
:102DA0000022AC4BFDF70CFB0446FDF7BEFBAA4925
:102DB0008860A649B1F90000FDF77AFB06460022BB
:102DC000A44BFDF7FDFA0446FDF7AFFBA249C8602E
:102DD0009E49B1F90200FDF76BFB064600229D4BB0
:102DE000FDF7EEFA0446FDF7A0FB9B490861974901
:102DF000B1F90400FDF75CFB06460022954BFDF798
:102E0000DFFA0446FDF791FB934948618E4900E0E3
:102E10000FE1B1F90000FDF74BFB064600228D4B98
:102E2000FDF7CEFA0446FDF780FB8B4988618649A1
:102E3000B1F90200FDF73CFB06460022854BFDF789
:102E4000BFFA0446FDF771FB8349C8617E49B1F9B9
:102E50000400FDF72DFB064600227E4BFDF7B0FA7D
:102E60000446FDF762FB7C4908627C4801687C48A7
:102E7000FDF73EFF78497A48FDF769FF06A97848D3
:102E8000FDF7C5FE7249B1F90000FDF708FB0446E5
:102E90007449FDF7B3F9744908606D49B1F902004E
:102EA000FDF7FDFA04466F49FDF7A8F96E49486041
:102EB0006749B1F90400FDF7F2FA04466949FDF7E4
:102EC0009DF9694988606149B1F90000FDF7F0FAA0
:102ED0000646664A664BFDF701FA0446FDF725FBF8
:102EE000644908605949B1F90200FDF7E1FA064664
:102EF0005E4A5F4BFDF7F2F90446FDF716FB5D49AC
:102F000048605249B1F90400FDF7D2FA0646574A23
:102F1000574BFDF7E3F90446FDF707FB5549886079
:102F20004949B1F90000FDF7C3FA0646524A534B2E
:102F3000FDF7D4F90446FDF7F8FA51490860424913
:102F4000B1F90200FDF7B4FA06464B4A4B4BFDF7C8
:102F5000C5F90446FDF7E9FA494948603A49B1F92B
:102F60000400FDF7A5FA0646434A444BFDF7B6F9BF
:102F70000446FDF7DAFA424988603B4A0832111FDD
:102F8000081FFFF7F7F93E4A0832111F081FFFF725
:102F9000F1F9384988683B49FDF730F907463A4965
:102FA000FDF75EF90446334948683649FDF726F9CE
:102FB00007463549FDF754F905462E490868314959
:102FC000FDF71CF907463049FDF74AF906462C483B
:102FD000816800682A4A5268234B9B68CDE9013218
:102FE000CDE903012048406800901F482246294649
:102FF00003683046FDF796FF01F010F9234800689A
:10300000FDF780FA04460D4621480068FDF77AFA7C
:1030100006460F461F480068FDF774FA8046424690
:103020000B461DA0CDE90067CDE9024500F01EFA70
:1030300000BF0FB0BDE8F08384000020980000209E
:103040007E00002078000020920000208C000020EC
:10305000860000200000F03FFC3D00209C00002086
:103060000C3A0020D5FF7F38E8390020C79DD2C137
:10307000FA3FAF3FF439002052B81E85EB51E43FD0
:10308000003A0020C3F548400000344354000020BB
:103090004C00002050000020726F6C6C3A20252EEE
:1030A00032662C2070697463683A20252E32662CB3
:1030B000207961773A20252E32660D0A0000000043
:1030C000CA430282704721B1028842F001020280A5
:1030D00004E002884FF6FE731A40028070470246F1
:1030E0000020138A0B400BB1012000E00020704744
:1030F0001AB183890B43838102E083898B438381E7
:1031000070470000002202881D4B98420ED01D4BD4
:1031100098420BD0B0F1804F08D01B4B984205D09D
:103120001A4B984202D01A4B984204D14FF68F7333
:103130001A404B881A43174B984207D0164B9842B7
:1031400004D04FF6FF431A40CB881A4302808B8885
:1031500083850B8803850A4B98420BD0094B984214
:1031600008D00E4B984205D00D4B984202D00D4B23
:10317000984201D10B7A03860123838270470000B5
:10318000002C0140003401400004004000080040D1
:10319000000C0040001000400014004000400140BE
:1031A00000440140004801407FB505460C4601211E
:1031B0000846FFF701F9ADF80850ADF804400020CB
:1031C000ADF80A00ADF8060001A94FF08040FFF706
:1031D00099FF012211469007FFF78AFF1C208DF806
:1031E000000001208DF803008DF8010003208DF808
:1031F00002006846FFF786F801218807FFF763FFA2
:103200007FBD000010B540F225511D4800F04AF87E
:1032100010B31B4800F002F9C4B21A48008800F449
:103220000040C8B91748008800F4804060B10A2CFB
:1032300003D000201349088020E01248008840F4A1
:1032400000401049088019E00D2C06D10D48008877
:1032500040F480400B49088010E00A480088C0F321
:103260000D0009490C5407480088401C0549088096
:1032700008460088C72801DD0020088010BD000036
:103280000038014030000020A400002021B18289D4
:1032900042F40052828104E082894DF6FF731A40A5
:1032A0008281704770B5024600240023002500206B
:1032B00040F66A16B14200D100BFC1F3421501F0D9
:1032C0001F03012606FA03F3012D02D1968933402C
:1032D00006E0022D02D1168A334001E0968A33407F
:1032E0000C12012606FA04F41688344013B10CB10E
:1032F000012000E0002070BDF0B503460024002648
:103300000025002040F66A17B94200D100BF1846D8
:10331000C1F3421401F01F06012707FA06F5012C3C
:1033200001D10C3004E0022C01D1103000E0143047
:103330001AB107682F43076002E00768AF430760D0
:10334000F0BD00002DE9F04786B005460E4600248A
:10335000A24600BFA1460027B08900B100BF2F469A
:103360002C8A4CF6FF700440F08804432C82AC8910
:103370004EF6F3100440B088318908437189084340
:103380000443AC81AC8A4FF6FF400440B08904434B
:10339000AC8201A8FFF730F81F48874202D1DDF860
:1033A00010A001E0DDF80CA0A88900F4004040B1B5
:1033B0000AEBCA0000EB0A1031684900B0FBF1F8D3
:1033C00007E00AEBCA0000EB0A1031688900B0FB85
:1033D000F1F86420B8FBF0F004012009642101FB3E
:1033E0001089A88900F4004040B1322000EBC900E8
:1033F000B0FBF1F000F00700044308E0322000EBDE
:1034000009106421B0FBF1F000F00F0004432C819F
:1034100006B0BDE8F087000000380140014688880A
:10342000C0F30800704700BFFEE72DE9F05F0546D6
:103430000E46144621462046FCF7E0FE8146314602
:103440003046FCF7DBFE824629462846FCF7D6FECE
:1034500083465146FCF77AFE80464946FCF776FEE5
:10346000074601F09CFABDE8F09F00000FB4054B41
:1034700010B503A9044A029800F000F910BC5DF8E9
:1034800014FB0000E94400082C0000204100080261
:1034900018BF04200A0E18BF40F001004FF07F4211
:1034A00032EA010108BF40F00200012808BF0520F0
:1034B00070470121FDF7E8B8FCF748BE0021084637
:1034C000FCF7CEBE6FF05E010807FDF7DDB802E045
:1034D00008C8121F08C1002AFAD17047704700209F
:1034E00001E001C1121F002AFBD1704701490860A9
:1034F00070470000A00000202DE9FF5F82B000218E
:10350000DDE90430020DDDF840B0034318D044F685
:103510001050A2F2FF3242431514119801281FD017
:10352000A5EB0B00401C5FEA000A4FF000064E4F6F
:10353000DFF83891B046504615D5CAF1000413E0C3
:10354000119801244AA3012801D16FEA0B010298C6
:10355000119AC0E90031C0E9024206B0BDE8F09F0F
:10356000CBF10000DFE704460021404A491842EB56
:103570000450CDE9001012E0E00707D032463B4688
:1035800040464946FCF7AAFE8046894632463B46FD
:1035900010461946FCF7A2FE06460F466410002CA2
:1035A000EAD1DDE90401DDE90023BAF1000F06DA12
:1035B000FCF794FE42464B46FCF790FE05E0FCF714
:1035C000FFFE42464B46FCF7FBFE04460E46002239
:1035D000284BFDF701FA03D84FF0FF30014607E012
:1035E0000022254B20463146FDF7E6F8FDF7DCF9D1
:1035F000102409E0002C0ADB0A220023FCF7DCFF80
:10360000039B30321A55641E50EA0102F2D1641C49
:10361000039AC4F111031444119A012A03D0012220
:1036200008430DD10AE0084304D000204FF0110BED
:10363000119072E7A3EB0B056D1E0DE05B4504DDF9
:103640004FF0000205F1010504E003DA4FF000023B
:10365000A5F10105002AECD002981199C0E90231C8
:10366000C0E9004579E70000000014400000F03F89
:10367000300000000000F0430000E03F2DE9FF4F64
:1036800095B09A46884606460025EEE1252877D172
:1036900000242746F94A0121039400E0044316F868
:1036A000013F203B01FA03F01042F7D130782A287D
:1036B00011D06FF02F033078A0F13002092A16D80C
:1036C000039A44F0020402EB820203EB420210442C
:1036D000761C0390EFE758F8042B0392002A03DAD4
:1036E000504244F40054039044F00204761C3078B5
:1036F0002E2816D116F8010F44F004042A280DD004
:103700006FF02F023078A0F13003092B09D807EBB6
:10371000870302EB4303C718761CF3E758F8047BD2
:10372000761C30786C280FD006DC4C2817D068281F
:103730000DD06A2814D104E0742810D07A280FD153
:103740000DE044F400140AE044F4801401E044F471
:1037500040147278824202D104F58014761C761CE3
:10376000307866280BD013DC582877D009DC002885
:1037700075D04528F6D04628F4D047281AD193E1D1
:1037800018E0632835D0642879D0652812D18BE100
:10379000702873D008DC6728F1D069286FD06E28B4
:1037A0000DD06F2806D1ACE073282CD0752874D0CA
:1037B000782853D05246179990476D1C54E1C4F3B2
:1037C0000250022809D003280DD0D8F80010042890
:1037D0000DD00D6008F1040846E1D8F80010EA1792
:1037E000C1E90052F6E7D8F800100D80F2E70D703D
:1037F000F0E718F8041B8DF8001000208DF8010088
:10380000EB46012003E058F804BB4FF0FF3061079E
:103810004FF0000102D40DE009F101018946B942DF
:103820000FDA8145F8DB1BF809100029F4D108E014
:1038300009F1010189468142FADB1BF809100029D0
:10384000F6D103985346A0EB090721463846179A4C
:1038500000F080FA284400EB090507E044E008E1A5
:103860000DE01BF8010B524617999047B9F1010979
:10387000F7D2534621463846179AF2E039E00A213A
:10388000C4F302524FF0000B0091022A06D058F800
:10389000040BC117032A09D00AE023E008F107004E
:1038A00020F00702F2E80201904605E000B2C117DD
:1038B000042A01D140B2C117002906DA0A460021C4
:1038C000404261EB02012D2202E0220504D52B22A9
:1038D0008DF80420012203E0E20701D02022F7E75F
:1038E000914657E00A2100E010214FF0000B0091B3
:1038F0000BE010214FF0000B44F004040827009166
:1039000003E008204FF0000B0090C4F30252022A9B
:1039100005D058F8040B0021032A08D008E008F16C
:10392000070020F00702F2E80201904603E080B2AF
:10393000042A00D1C0B24FF0000922072AD53278FC
:10394000702A07D0DDF800C08CF0100C5CEA0B0C7C
:1039500005D00EE040228DF80420012208E050EA54
:10396000010306D030238DF804308DF805200222A3
:103970009146009B83F0080353EA0B030AD150EAF7
:10398000010201D1620705D530228DF804204FF0E5
:1039900001097F1E3278582A04D039A20C920CAA51
:1039A00002920BE03BA2F9E75B46009AFCF704FEAB
:1039B0000C9B9B5C029A521E0292137050EA010209
:1039C000F2D1029804A9081A00F1200B600702D571
:1039D00024F4803400E001275F4502DDA7EB0B00F3
:1039E00000E0002000EB0B01009003984944401ACE
:1039F0000390E00306D453462146179A039800F03B
:103A0000A9F90544002706E001A85246C05D1799B0
:103A100090476D1C7F1C4F45F6DBE0030CD55346E9
:103A20002146179A039800F095F9054404E03020E8
:103A30005246179990476D1C0099481E0090002926
:103A4000F5DC08E00298029952460078491C029180
:103A5000179990476D1CBBF10001ABF1010BF1DC34
:103A60005BE100F065F90544761C307800287FF4AE
:103A70000DAE19B02846BDE8F08F000009280100FE
:103A800030313233343536373839616263646566D4
:103A90000000000030313233343536373839414296
:103AA0004344454600000000600700D4062708F1A3
:103AB000070020F00700F0E80223804603F0004CE6
:103AC0005FEA0C0001D097A009E0200501D596A07F
:103AD00005E0E00701D095A001E0AFF24C001390A3
:103AE000307823F0004365280CD006DC452809D047
:103AF00046281DD047287FD13BE0662818D067288C
:103B00007AD136E00021112F01DB112000E0781C72
:103B1000CDE9000104A90CA8FFF7EEFCDDE90D01D9
:103B20000C9A4FF0000B07F10109109200914EE042
:103B30004FF000400097CDE9011004A90CA8FFF751
:103B4000DBFCDDE90D020C9B0F994FF0000B914659
:103B50001093009211B9791C00EB0109B7EB090031
:103B600003D4C0F1FF3B07F10109A9EB0700019065
:103B700042E0012F00DA01270021112F01DD112081
:103B800000E03846CDE9000104A90CA8FFF7B4FC19
:103B9000DDE90D010C9A00914FF0000BB94610922F
:103BA00021070FD4009A4A4503DA914601E0A9F1B2
:103BB0000109B9F1010F05DD109AA9F10101515C6C
:103BC0003029F4D0B84202DA10F1040F03DA0121EF
:103BD000CDE9011010E0002803DC8344A9EB0001CB
:103BE00002E0411C494500DD8946A0EB0B00401C6A
:103BF00001904FF000400290200705D401984845FD
:103C000002DB4FF0FF30019000208DF84B0002984E
:103C10000DF14B07B0F1004F25D002200C902B2066
:103C20000D90029800280CDA404202902D200D9051
:103C300007E00A210298FCF7A9FC3031029007F84E
:103C4000011D0C99481E0C900029F2DC02980028F6
:103C5000EFD1791E0D980870307800F0200040F008
:103C6000450007F8020D11A8C01BC01D0290139853
:103C7000007800B1012000EB0901019801EBE0712F
:103C8000029801440398401A401E0390E00306D4B2
:103C900053462146179A039800F05CF805441398A0
:103CA000007818B15246179990476D1CE00323D550
:103CB00053462146179A039800F04CF805441BE040
:103CC000BBF1000F07DB0098584504DD10981799E9
:103CD00010F80B0001E017993020524690470198E8
:103CE0000BF1010B401E05F10105019004D12E20BE
:103CF0005246179990476D1CB9F10001A9F10109CD
:103D0000DEDC05E017F8010B5246179990476D1C51
:103D10000299481E02900029F4DC53462146179A66
:103D200003989EE62D0000002B00000020000000FC
:103D30002DE9F041044600251E461746880404D4A8
:103D400005E039462020B0476D1C641EF9D5284691
:103D5000BDE8F0812DE9F041044600251E4690465D
:103D6000C80301D5302700E02027880404D505E0EA
:103D700041463846B0476D1C641EF9D52846BDE85B
:103D8000F08100002DE9F04104464FF00E4000EBB9
:103D90004400B0F1506F204655D84FF0FC41B1EBD4
:103DA000440F1CD224F000404FF07E51FCF723FA60
:103DB0004FF0FF31FCF768FC054600F0F0FD14F011
:103DC000004F1DBF2F4F304E80F000402F4F08BFD7
:103DD0002F4E4FF04041FCF711FA044605E0002752
:103DE0003E460146FCF70AFA05462A492846FCF7F2
:103DF00005FA2949FCF7AAF92946FCF7FFF92749F2
:103E0000FCF7A4F92946FCF7F9F92549FCF79EF9D6
:103E10002946FCF7F3F92349FCF798F9804629462F
:103E20002046FCF7EBF94146FCF7E8F90546314638
:103E30002046FCF78BF92946FCF788F93946BDE89E
:103E4000F041FCF783B94FF0E441B1EB440F08D9DE
:103E5000FFF71CFB042808BFFFF734FB2046BDE832
:103E6000F0814FF07F41B1EB440F03D2BDE8F04148
:103E7000FFF71FBB0120FFF739FBBDE8F041FFF75B
:103E80001DBB00000000C9BF22AAFDB90000C93F48
:103E900022AAFD3924FE1C3DC78AD83C1E67383D46
:103EA0001B93993DAFAA2A3E2DE9F0474FF0684297
:103EB00002EB40030C460546B3F1654F3CBF02EBF5
:103EC0004102B2F1654F80F0CD8000BFC0F3C75210
:103ED000C1F3C753D21A1B2A06DD10F0004F14BFDE
:103EE00087488848BDE8F08712F11A0F2FDA11F0E1
:103EF000004F06D010F0004F0CBF83488348BDE848
:103F0000F08721462846FCF7ABF90646FFF7BEFAD4
:103F1000042808BFFFF7D6FA2846FFF7B7FA054688
:103F20002046FFF7B3FA04463046FFF7AFFA042DF8
:103F300018BF052D08D1042C18BF052C04D100286A
:103F400004BF0220FFF7D2FA3046BDE8F0874200F6
:103F5000B2EB410F25D910F0004F19BF6C4F6D4ED9
:103F60006D4F6E4E224685F0004415460A4680F09D
:103F7000004110460A1A5200B2F1807F3ED24840FA
:103F80006749DFF8A0A110F0004F18D04FF03F486C
:103F90003846FCF72DF9074651463046FCF728F91C
:103FA00017E011F0004F04BF00263746E2D010F0B2
:103FB000004F19BF5C4F5D4E5D4F5E4EDAE74FF02C
:103FC0007C583846FCF7C2F8074651463046FCF7A5
:103FD000BDF8064641462846FCF710F92146FCF795
:103FE000B5F8824621464046FCF708F92946FCF719
:103FF00002F95146FCF734F9044604E0214628460C
:10400000FCF72EF904460146FCF7F8F880464A49C9
:10401000FCF7F4F84949FCF799F84146FCF7EEF84B
:104020004749FCF793F84146FCF7E8F84549FCF7A7
:104030008DF84146FCF7E2F84349FCF787F805465E
:1040400041462046FCF7DAF82946FCF7D7F8314616
:10405000FCF77CF82146FCF779F83946BDE8F047D3
:10406000FCF774B84FF07F42B2EB400F28BFB2EBC1
:10407000410F03D2BDE8F047FFF71EBA40EA010343
:104080005B0008BF44F0FF410AD0B2EB400F08BF0D
:10409000B2EB410F06D125F0804024F08041054667
:1040A0000C4613E7B2EB400F12BF5FEA410345F045
:1040B000FF4004F000413FF409AFB2EB410F12BFE3
:1040C0005FEA400205F0004044F0FF413FF4FEAEDD
:1040D0004A0092EA40033FF5F9AE002AACBF4FF028
:1040E0009F464FF03E563146FCF788F8054631466C
:1040F0002046FCF783F8044628462146E6E6000001
:10410000DB0FC9BFDB0FC93FDB0F4940DB0F49C0E5
:104110000000C9BF22AAFDB90000C93F22AAFD398B
:104120000060ED3EC30ACE37000049C022AA7DBA26
:104130000000494022AA7D3A2DAD65BD8FB8D53D1E
:104140000FB511BE61C84C3EA8AAAABE2DE9FC5FFE
:1041500081460D4616461C46DDE90C784846FCF7BC
:104160009EF900902C48416A0098FCF741F882467D
:104170002846FCF794F900902748816A0098FCF7DC
:1041800037F883463046FCF78AF900902248C16A26
:104190000098FCF72DF801901F48416A5046FCF743
:1041A0002DF80090FCF795F900B220801A48816A3A
:1041B0005846FCF723F80090FCF78BF900B23880E2
:1041C0001548C16A0198FCF719F80090FCF781F9CD
:1041D00000B2A8F800001048016B5046FCF70EF83A
:1041E0000090FCF776F900B220800B48416B5846EE
:1041F000FCF704F80090FCF76CF900B23880064830
:10420000816B0198FBF7FAFF0090FCF762F900B2AE
:10421000A8F80000BDE8FC9F6C0100202DE9F047E4
:10422000694801680068FBF7E9FF80466748016854
:104230000068FBF7E3FF81464FF07C51FBF7DBFFA3
:1042400007464146FBF7D4FF0546614801685E48D2
:104250000068FBF7D3FF07465C4801685D480068CB
:10426000FBF7CCFF80463946FBF770FF0646294630
:10427000FFF71AFE04465849FBF7C0FF574908608C
:104280005148016853480068FBF7B8FF074650489B
:1042900001684E480068FBF7B1FF80463946FBF7DE
:1042A000A7FF06464FF04041FBF7A8FF0546FFF782
:1042B00069FD04464849FBF7A1FF494908604448A5
:1042C00001680068FBF79AFF80463F480168006874
:1042D000FBF794FF81464FF07C51FBF78CFF0746BC
:1042E0004146FBF785FF05463948016839480068B3
:1042F000FBF784FF07463448016834480068FBF741
:104300007DFF80463946FBF721FF06462946FFF729
:10431000CBFD04463049FBF771FF324908600021AC
:1043200030480068FCF71EF906D22F492D48006876
:10433000FBF70CFF2B4908602C4926480068FBF767
:104340005DFF0446FCF7C5F82949086027491F4866
:104350000068FBF753FF0446FCF7BBF825490860EB
:10436000224919480068FBF749FF0446FCF7B1F8F9
:10437000214908601D4916480068FBF73FFF0446C5
:10438000FCF7A7F81D490860184915480068FBF7B5
:1043900035FF0446FCF79DF81949086013490F489A
:1043A0000068FBF72BFF0446FCF793F815490860FB
:1043B0000E490C480068FBF721FF0446FCF789F81A
:1043C00011490860BDE8F08744000020400000204B
:1043D000480000203C00002033336542500000209C
:1043E0004C000020540000200000B4430000C842EC
:1043F000580000205C0000206000002064000020C5
:10440000700000206C0000206800002010B56FF0E4
:104410000400FEF72FFC0A4800680A49B0FBF1F0DF
:10442000094908700846007800EB4001C1EBC01054
:104430004FF6FF7101EAC0000449088010BD00007A
:104440000000002000127A00280000202A0000202E
:104450000146114A12884A434FF0E0235A61002274
:104460009A611A46126942F001021A6100BF4FF0C8
:10447000E022106900F001021AB100F48032002A33
:10448000F5D04FF0E022126922F001024FF0E02354
:104490001A6100229A6170472A0000200146114AE1
:1044A00012784A434FF0E0235A6100229A611A467B
:1044B000126942F001021A6100BF4FF0E022106958
:1044C00000F001021AB100F48032002AF5D04FF05A
:1044D000E022126922F001024FF0E0231A6100226B
:1044E0009A6170472800002000BF054A128802F038
:1044F0004002002AF9D0C2B2014B1B1D1A8070473E
:10450000003801402DE9F04704464FF07C51204629
:10451000FBF774FE814625462E460C48A0EB660646
:10452000354629464846FBF769FE82462946FBF791
:1045300065FE80464FF07F51FBF75DFE074629463A
:10454000FBF75CFE05462846BDE8F087DF59375F7C
:1045500000244FF4E13000F039FAFFF757FF47210C
:1045600042F20F70FEF720FEFCF73EFB00F012F95E
:10457000044614B104A0FEF779FFFEF77DF8084861
:10458000FCF750FB00BFFEE74D505536303530206C
:10459000696E6974206661696C6564210D0A0000AA
:1045A0000C3A00202DE9F04106460F46002419E0A0
:1045B000002514E0AC420AD104EBC40006EB8000F5
:1045C00050F824104FF07E50FBF74AFE00E0002028
:1045D00004EBC40107EB810141F825006D1C092D96
:1045E000E8DB641C092CE3DBBDE8F0812DE9F04732
:1045F000D2B00746884691464FF4A27101A8FBF756
:104600009AFD00242AE0002525E0002620E006EBA4
:10461000C60208EB820252F8251004EBC40207EB35
:10462000820252F82600FBF7E9FD824604EBC40043
:1046300001AA02EB800050F825105046FBF786FDDA
:1046400004EBC40101AA02EB810141F82500761CAC
:10465000092EDCDB6D1C092DD7DB641C092CD2DB99
:10466000002012E000210DE000EBC00201AB03EBE3
:10467000820252F8212000EBC00309EB830343F8C8
:104680002120491C0929EFDB401C0928EADB52B034
:10469000BDE8F0872DE9FC4104460D4616466B4601
:1046A00006223B21682000F0B1F80746BFB99DF80B
:1046B00001009DF8001040EA012000B220809DF822
:1046C00003009DF8021040EA012000B228809DF806
:1046D00005009DF8041040EA012000B23080384601
:1046E000BDE8FC812DE9FC4104460D4616466B46AB
:1046F00006224321682000F089F80746BFB99DF8DB
:1047000001009DF8001040EA012000B220809DF8D1
:1047100003009DF8021040EA012000B228809DF8B5
:1047200005009DF8041040EA012000B230803846B0
:10473000BDE8FC812DE9F84F044600266B460222B5
:104740004121682000F062F80546D5B99DF80100C6
:104750009DF8001040EA012006B23046FBF79FFEAC
:1047600082460949FBF77CFD81460849FBF7EEFCD0
:1047700080460749FBF742FD0746FBF7AAFE00B259
:1047800020802846BDE8F88F0000AA43B81E1242D8
:104790000000C84208B5FEF745F900F0AAF803206A
:1047A00000F05FF8002000F053F8322000F07FF8AE
:1047B00000223821682000F0C2F800226A21682017
:1047C00000F0BDF800222321682000F0B8F8802214
:1047D0003721682000F0B3F86A467521682000F0A0
:1047E0002CF89DF80000682801D0012008BD0122A6
:1047F0006B21682000F0A3F800226C21682000F0F3
:104800009EF8322000F053F80020EFE72DE9F04148
:1048100004460D4616461F464FF000083B463246FA
:1048200029462046FDF7E8FF8046B8F1000F02D187
:104830000020BDE8F0810220FBE770B505460E467A
:1048400014462346012231462846FFF7DFFF70BD9C
:1048500010B50446E006020E1C21682000F06FF837
:1048600010BD10B50446E006020E1B21682000F0C2
:1048700066F810BD70B50546BC2D01DB012410E0C3
:10488000622D01DB02240CE02A2D01DB032408E069
:10489000142D01DB042404E00A2D01DB052400E0D3
:1048A000062422461A21682000F049F870BD70B530
:1048B0000446B4F57A7F01DD4FF47A74042C00DAF3
:1048C00004244FF47A7090FBF4F0401EC6B23246D6
:1048D0001921682000F033F805460DB1284670BD57
:1048E0006010FFF7C7FF05460DB12846F7E7002027
:1048F000F5E710B580226B21682000F020F86420D5
:10490000FFF7A6FD00226B21682000F018F810BD0B
:104910002DE9F04104460D4616461F464FF00008AB
:104920003B46324629462046FDF7ABFF8046B8F1AC
:10493000000F02D10020BDE8F0810220FBE737B56F
:1049400004460D4602AB012229462046FFF7E0FF50
:104950003EBD2DE9F04106460F46FBF7D4FF041E8D
:104960000D4618BF0120284320F00040C0F17F60B1
:1049700000F1E040C00F0ED0301C18BF01203843BA
:1049800020F00040C0F17F6000F1E040C00F04BFA4
:104990000120FEF7ABFD20462946BDE8F08170B549
:1049A0000546FBF77DFE044620F00040C0F1FF40C5
:1049B000C00F08D025F00040C0F1FF40C00F04BF79
:1049C0000120FEF793FD204670BD000010B586B0B3
:1049D0000446012144F20400FDF7FEFC4FF4007090
:1049E000ADF8140003208DF8160018208DF817007C
:1049F00005A91C48FCF74EF84FF48060ADF8140090
:104A000004208DF8170005A91648FCF743F8252067
:104A10008DF8000003208DF801008DF802000120C0
:104A20008DF803006846FDF76DFC01940020ADF899
:104A30000800ADF80A00ADF80C00ADF810000C202D
:104A4000ADF80E0001A90848FEF77CFC012240F2F7
:104A500025510548FEF750FC01210348FEF716FCDE
:104A600006B010BD00080140003801408C4A000823
:104A700000000020A4000000CE340008304B0008E5
:104A8000A40000207C410000DE34000800A24A049B
:104A900000000000000000000102030406070809EE
:104AA00000000000010203040102030406070809D4
:104AB00002040608000000000000000000000000E2
:104AC00000000000CDCCCC3D0000803F0000000085
:104AD00000000000000000000000000000000000D6
:104AE00000000000000000000000000000000000C6
:104AF00000000000000000000000000000000000B6
:104B000000000000000000000000000000000000A5
:104B10000000000000000000000000000000000095
:104B200000000000000000000AD7233C0000000045
:04000005080000ED02
:00000001FF
