:020000040800F2
:10000000E007002061020008BD200008B5200008BC
:10001000B9200008D91F00081727000800000000B9
:10002000000000000000000000000000992200080D
:10003000DD1F0008000000004D2100088923000892
:100040007B0200087B0200087B0200087B0200089C
:100050007B0200087B0200087B0200087B0200088C
:100060007B0200087B0200087B0200087B0200087C
:100070007B0200087B0200087B0200087B0200086C
:100080007B0200087B0200087B0200087B0200085C
:100090007B0200087B0200087B0200087B0200084C
:1000A0007B0200087B0200087B0200087B0200083C
:1000B0007B0200087B0200087B0200087B0200082C
:1000C0007B0200087B0200087B0200087B0200081C
:1000D0007B02000879240008012500087B02000843
:1000E0007B0200087B0200087B0200087B020008FC
:1000F0007B0200087B0200087B0200087B020008EC
:100100007B0200087B0200087B0200087B020008DB
:100110007B0200087B0200087B0200087B020008CB
:100120007B0200087B0200087B0200087B020008BB
:100130007B0200087B0200087B0200087B020008AB
:100140007B0200087B0200087B0200087B0200089B
:100150007B0200087B0200087B0200087B0200088B
:100160007B0200087B0200087B0200087B0200087B
:100170007B0200087B0200087B0200087B0200086B
:100180007B0200087B02000800F002F800F058F83B
:100190000AA090E8000C82448344AAF10107DA45E2
:1001A00001D100F04DF8AFF2090EBAE80F0013F0DC
:1001B000010F18BFFB1A43F0010318478C340000ED
:1001C000AC340000103A24BF78C878C1FAD852077E
:1001D00024BF30C830C144BF04680C6070470000C1
:1001E0000023002400250026103A28BF78C1FBD840
:1001F000520728BF30C148BF0B607047662903F023
:100200005981642900F0B880632900F0A083732924
:1002100000F0A583002070471FB503F03EF900F001
:10022000C3FB04000020002102F0BEFE401C606001
:100230000020002102F0A2FEE0601FBD10B510BD3D
:1002400000F020FD1146FFF7E7FF02F067FC00F029
:1002500072FD03B4FFF7F2FF03BC02F0A7FB00003E
:100260000948804709480047FEE7FEE7FEE7FEE74A
:10027000FEE7FEE7FEE7FEE7FEE7FEE70448054986
:10028000054A064B70470000F92300088901000861
:10029000E0010020E0070020E0030020E003002050
:1002A000704700000FB4044910B503AA029800F08B
:1002B0005BFB10BC5DF814FB1C0000202DE9F04135
:1002C0000E460446002020622046E168884730B38D
:1002D000252805D0D4E901219047206A401CF2E787
:1002E000E168204600278847050018D0A5F14100A5
:1002F000192802D820354FF4006732462946204697
:100300002760FFF77BFF40B1012804D0F61D26F0DF
:1003100007060836D8E7361DD6E72846DAE7206A0A
:10032000BDE8F08170B50C460546012A05D0287855
:10033000800600D5EA69002302E0012305E05B1C8A
:10034000934202D2E05C0028F9D1A869E618C01AED
:10035000A861286A184428622846AFF3008004E0A8
:10036000D5E9012114F8010B9047B442F8D328468F
:10037000AFF3008070BD00002DE9F0410646002477
:1003800010687529314616A510D0AFF300800028FB
:1003900002DA404213A507E031688A0701D512A5A9
:1003A00002E0490704D511A5012401E0AFF3008064
:1003B00000210A2206F1240709E0B0FBF2FCB0FBA1
:1003C000F2F302FB1C00303078541846491C002818
:1003D000F3D123462A463046BDE8F04100F045B847
:1003E000000000002D0000002B0000002000000095
:1003F00030B505460B462A4613F8014B12F8010B9F
:1004000008B1A042F8D01CB1002802D06D1CF1E761
:10041000284630BD4FF0000200B51346944696467C
:10042000203922BFA0E80C50A0E80C50B1F1200107
:10043000BFF4F7AF090728BFA0E80C5048BF0CC0B5
:100440005DF804EB890028BF40F8042B08BF704713
:1004500048BF20F8022B11F0804F18BF00F8012B85
:10046000704770477047704770472DE9F0470D4659
:1004700099469246044600F124080168880604D58E
:10048000E06921F01001216000E00120A84201DDB7
:10049000471B00E00027A1697A1902EB0900081A3E
:1004A000A0612078C00602D42046AFF30080002669
:1004B00008E0D4E901211AF806009047206A401CA0
:1004C000761C20624E45F4DB2078C0060AD5204613
:1004D000AFF3008006E0D4E9012130209047206A84
:1004E000401C2062381EA7F10107F4DC07E0D4E9C4
:1004F000012118F805009047206A401C2062281E40
:10050000A5F10105F3DC2046AFF30080207800065A
:1005100002D50220BDE8F0870120FBE770472DE9F6
:10052000FF4F0C461E464FF0FF378BB0D2E900015B
:10053000DDF860800A908A46C1F30A5505B93D4648
:10054000002108464FF00000BAF1000F00F440000F
:1005500005DA00EB80004FF4400101EA50004FEA59
:100560009059B9F1010F00DDB9460A9850EA4A00E6
:100570000ED044F61050A5F2FF3545432F14B8F1C4
:10058000000F1ED07542291E1EDDC9F100021CE0BD
:10059000B8F1010F4FF0000001D0302103E0F24329
:1005A00005E02154401CB042FBDB30460022002114
:1005B00021540B99C1F80880C1E900200FB0BDE8B3
:1005C000F08FBD1B6D1CDEE74A4600DA694206A8C3
:1005D00000F0DEFA06AB93E8070003AB83E8070000
:1005E00050460A9901F0C3F88DE80700A0F50050C5
:1005F0001F3800900398002D0ADD42F21F014A4681
:100600000844002303A90390684601F06FFB09E04A
:10061000A0F500504A461F38002303A903906846FE
:1006200001F08EFB8DE807000004000C03D04FF0B2
:10063000FF30410800E01046B8F1000F03D000225F
:10064000009215461EE0751E05D400F0B1F9303257
:1006500062556D1EF9D5B3460122084302D000222F
:100660007F1C04E02078302801D100227F1E002A60
:10067000099784D01DE0112D07DA00F099F9303286
:1006800062556D1C50EA0102F5D1084302D0009872
:10069000C8B10EE00021681E05E0235C625C635473
:1006A0002254401E491C8142F7DBAB46A81B401E6A
:1006B0000990002004F80B000B98099AC0F80880F4
:1006C000C0E9002B7AE711264FF0000857E72DE923
:1006D000F04F88460446D21D22F0070191B0D1E9BF
:1006E0000001CDE90A0102F018F802460B98C00F8C
:1006F00001D02D2007E02068810701D52B2002E0E2
:10070000202101EAC000032A099001D0072A05DB55
:1007100003464146204600F0A9F90BE12078800607
:1007200001D5E06900E00620B8F1650F814606D0EA
:10073000B8F1660F18D0B8F1670F70D131E0002022
:10074000B9F1110F009001DB112301E009F1010360
:100750000AAA01A90CA8FFF7E2FEDDE90C70002649
:1007600009F10105834647E001204B4600904FF018
:1007700000470AAA01A90CA8FFF7D1FEDDE90DB0D8
:100780000C995D46002610B909F101000D18B9EB6E
:10079000050003D4C0F1FF3609F10105A5EB0900FE
:1007A0002BE0B9F1010F01DA4FF001090020B9F196
:1007B000110F0090484601DD112300E003460AAA0C
:1007C00001A90CA8FFF7ABFEDDE90C704D46002631
:1007D0008346207800070AD4AB4500DA5D4601A8BD
:1007E000012D04DD411911F8011C302907D04F45B6
:1007F00002DA17F1040F04DA012082460FE06D1EC1
:10080000EEE7002F02DCED1B3E4403E0781CA8421B
:1008100000DD7D1CB81B00F1010A4FF00047207875
:10082000000703D4AA4501DB4FF0FF3A0021B7F1DE
:10083000004F0DF143088DF8431024D002202B23E4
:10084000002F01DA7F422D230A21021EA0F10100B0
:1008500000DC5FB197FBF1FC97FBF1F201FB1C7C24
:1008600017460CF1300C08F801CDEEE7A8F10100B5
:1008700003702188090501D5452100E06521A0F11B
:10088000010800F8011C09980FA9A1EB0807FF1D3A
:1008900000B10120411901EBEA70A1693844081A3E
:1008A000401EA0612078C00602D42046AFF300802D
:1008B000099828B1D4E901219047206A401C2062A0
:1008C0002078C00622D52046AFF300801EE0002E1F
:1008D00004DBB34502DD01A8805D00E03020D4E9EF
:1008E00001219047206A401C2062761CAAF1010079
:1008F0005FEA000A0AD100F057F8C0680168405C5E
:10090000D4E901219047206A401C2062281EA5F1ED
:100910000105DCDC07E0D4E9012118F8010B904760
:10092000206A401C2062381EA7F10107F3DC204634
:10093000AFF30080032011B041E610B5436913B155
:10094000AFF3008001E0FFF7EDFC012010BD12784D
:1009500000F124010A7000224A700122EDE71168BB
:100960004FF0FF32E9E70000074B70B50D467B44BE
:1009700000F069F80446284600F07CF910B14FF009
:10098000FF3070BD204670BD3F2000007CB505469D
:1009900000236846CDE9003300F0C6F869462846D2
:1009A00001F0EAFF7CBD000000487047A001002074
:1009B00030B5B0F10A024FEA900E71F100034EEA31
:1009C000817EB0EB0E0061EB91014FEA101E4EEA02
:1009D000017E10EB0E0041EB11114FEA102E4EEA92
:1009E000016E10EB0E0041EB11214FEA104E4EEA62
:1009F000014E10EB0E0041EB1141401841F1000196
:100A00004FEAD00040EA41704FEAD10110EB800577
:100A10004FEA810444EA907444EB01046D1944EBFD
:100A20000404521BA3414FF0000348BF0A3200D513
:100A300030BD401C41F1000130BD000001694A1C7D
:100A400002610878704700B58FB0CDE9013100210F
:100A5000059105497944CDE9031011466846FFF731
:100A60002DFC0FB000BD0000E5FFFFFF2DE9F041B8
:100A70001F46044603260168072A01F4006004DBD0
:100A800008B116A505E016A503E008B115A500E01C
:100A900015A521F010002060A069C01EA0610FB153
:100AA000401EA0612046AFF300804FB1D4E9012180
:100AB00038469047206A401C2062C01C206206E035
:100AC000206AFAE7D4E9012115F8010B9047761E58
:100AD000F8D22046AFF30080BDE8F0814E414E00D1
:100AE0006E616E00494E4600696E66000FB40023C9
:100AF00000B589B00CA900910B99CB60214B7B44C8
:100B00000693214B7B44079304236FF00042CDE909
:100B100001321E4A7A446B4608920246002002F0D7
:100B20002BFD09B05DF814FB70B506464FF0FF30A1
:100B300015460C46324686B00091CDE90101694662
:100B40000020049004A8FFF7D1FF02460498211862
:100B500025B108B1084600E0204628600498002826
:100B60000DD0002A02DD0098884208D03246081BCA
:100B700069460094CDE9010404A8FFF7B7FF06B069
:100B800070BD0000F50100000D020000CD01000065
:100B90002DE9F047814616468AB0354878440DC89D
:100BA0008DE80D0032487844801C03AC0DC884E801
:100BB0000D0041F69B300844372190FBF1F290FB89
:100BC000F1F5A5F1800501FB12041B3C02D564423E
:100BD000012000E00020DFF898A080460027FA44BA
:100BE000AAF1BE0A0EE0E0070AD03246684607EBDB
:100BF000470101230AEB810101F0A2F88DE807000B
:100C000064107F1C002CEED1194F7F44AE3F19E0D9
:100C1000E80715D007EB04100DF1180A90E80E0054
:100C20008AE80E00C068F04201D198190890324657
:100C3000012306A903A801F083F803AB83E80700AA
:100C40006D10641C002DE3D14FF00103324669465C
:100C5000B8F1000F03A802D001F048F801E001F05C
:100C60006FF8C9E90001C9F808200AB0BDE8F087AB
:100C7000902A0000007B00F0800070470048704719
:100C8000800100207546FFF7F9FFAE460500694672
:100C9000534620F00700854618B020B5FFF7EEFA5E
:100CA000BDE820404FF000064FF000074FF000086D
:100CB0004FF0000B21F00701AC46ACE8C009ACE8EE
:100CC000C009ACE8C009ACE8C0098D46704710B552
:100CD00000F082F8006810BD10B5044600F07CF802
:100CE000046010BD10B5044600F06EF80068005DA9
:100CF00000F0010010BD426842B1016811F8013BEB
:100D000023B1521EC0E90012184670470121C1608C
:100D1000881E704742685AB1C368016843B9836846
:100D20008B4205D0491E521CC0E9001200207047BA
:100D30004FF0FF30704710B50446AFF300802046F7
:100D4000BDE81040FFF785BA4FF0013C50F8042B86
:100D500051F8043B9A4221D1A2EB0C03934313EACE
:100D6000CC1317D150F8042B51F8043B9A4215D1FB
:100D7000A2EB0C03934313EACC130BD150F8042BD2
:100D800051F8043B9A4209D1A2EB0C03934313EAB6
:100D9000CC13DBD04FF00000704700BFD01A01BA6F
:100DA000B1FA81F101F0180122FA01F0CB40C1F152
:100DB0002001DBB2C0B2C01A2CFA01F3D11A914360
:100DC00011EAC311E6D1704710B5FFF7EDFD001D24
:100DD00010BD00BFD52100000048704780010020F1
:100DE0002DE9FF4F06468BB00878FF2806D0491C36
:100DF0002D2805D000244FF0000908E000200CE069
:100E00000124F8E709EB8903491C00EB4309087842
:100E1000FF28F7D114B1C9F10000814610780025F0
:100E20002C46AA4629462D2801D02B2804D1521C35
:100E30002D2813D0002082468B461078FF280FD033
:100E40004FF0000C0A21521CA5FB017804FB018124
:100E500005FB0C11C5194BEB0104EEE70120EAE795
:100E6000002108464FF00000BAF1000F02D000EB5D
:100E700080004008C0F38157012F01DD4FF0FF379C
:100E80000E9955EA040009EB01080BD04FF0020956
:100E900018F5FA7F16DA4FEACA70002F706008DD85
:100EA000012007E04FEACA70C6E900B00FB0BDE804
:100EB000F08F00203060FFF78FFFC0F800901821FE
:100EC000084616E0B8F5FA7F18DD002F02DAF74879
:100ED000784401E0F6487844D0E90010C6E90010F3
:100EE00040EACA707060FFF777FFC0F800901421E5
:100EF00008460FB0BDE8F04F02F0D9BA002108460D
:100F00004FF00000B8F10001099002DAC7F10002C9
:100F100000E03A4601DAC8F1000106A8FFF738FE02
:100F200006AB93E8070003AB83E8070044F23E00FA
:100F30005BEA04010090584604D144F21E012C469D
:100F40005D460091210C0904014306D10099240457
:100F500044EA15442D041039009104F07F41014307
:100F600006D10099240244EA15642D020839009143
:100F700004F07041014306D10099240144EA15743C
:100F80002D01091F009104F04041014306D1009951
:100F9000A40044EA9574AD00891E009104F000415C
:100FA000084304D100986D196441401E00904FF031
:100FB00001033A466846B8F1000FCDE9014503A99F
:100FC00002DD00F0D2FE01E000F0A5FEBAF1000F54
:100FD00004460D4601D084F00044002108464FF03D
:100FE0000000099940F2FF77484010F00C0F07D13C
:100FF00024F00040284303D0C4F30A50B84212D171
:10100000FFF7EAFEC0F80090C4F30A50B8420AD1D4
:10101000A8487844D0E90010C6E9001004F0004167
:101020000843706042E7C6E900543FE72DE9FF4FEF
:101030001F464FF0000A4FF0FF38454691B0D7E900
:101040000146CDF83CA0FFF7AFFCC0680168405CEA
:101050001090B96912986D1C8847396A8146884793
:101060000028F6D1B9F1FF3F0AD0002E24F4D06455
:1010700011DDB9F12B0F08D0B9F12D0F0BD102E022
:10108000404615B013E744F48064B96912986D1CAA
:101090008847761E8146600504A901D52D2000E011
:1010A0002B20002E01F1010B0DF130088DF81000FE
:1010B0003FDDB9F1690F08D0B9F1490F05D0B9F199
:1010C0006E0F02D0B9F14E0F1CD13B4601A800951E
:1010D00080E85002DDE912126FF0020002F050FACF
:1010E000C11CCED10EE0B96912986D1C88478146AB
:1010F0001398761E44F4007405600F98401C002E6F
:101100000F9016DDB9F1300FEDD0B9F1780F02D0A4
:10111000B9F1580F0DD10F9801280AD13B46CDE9FE
:101120000054DDE91212001F029602F027FAC11CDA
:10113000A7D1109989453ED144F0800406E0139967
:10114000681CAAF1010A44F400740860B9696D1CB6
:101150001298761E884730288146F0D02BE01099EF
:10116000894505D1200603D4761E44F0800418E09A
:10117000484601F014FC08B3761E0DF123018B459F
:1011800044F4007408D2A9F130000BF8010B2006DA
:1011900007D5AAF1010003E0200602D40AF10100FC
:1011A0008246A00502D51399681C0860B969129897
:1011B0006D1C88478146002ED1DC53E0002E51DDA6
:1011C000B9F1650F02D0B9F1450F4BD1A00549D552
:1011D000B9696D1C1298761E24F440748847002E5D
:1011E00081460CDD2B2804D0B9F12D0F07D144F432
:1011F0008074B96912986D1C8847761E8146E00597
:1012000001D52D2100E02B2108F8011BCDF800802D
:1012100021E0761E0DF13901884544F400740CD2AA
:10122000A9F1300010F0FF0088F8000002D1009909
:10123000884509D908F1010806E0E00501D51E48F6
:1012400001E042F20F708246B96912986D1C88471E
:10125000814613980560002E04DD484601F09FFB8F
:101260000028D6D1F96912988847FF2053468BF899
:10127000000088F8000000200A900B9004AA0CA936
:101280000AA8FFF7ADFDA00502D46FF00100F8E653
:1012900014F0240F12D0E0071CD13868DDE90A12DF
:1012A000031D3B600068C0E9001213E09C270000AA
:1012B0008E27000052260000F1D8FFFF0AA96846D9
:1012C00001F05AFBE00705D13868009A011D39602A
:1012D000006802602846D4E62DE9FF4F1F464FF014
:1012E0003C0987B04FF00042DDE9141001F101081C
:1012F000DDF858A002EA4050039000200590834694
:10130000054604460490B969461E08988847AAF124
:10131000010A0290BAF1000F3BDD02982E2815D089
:10132000102100F016FA00282EDB4FF0010B059972
:10133000014317D0B9F1000F0BDB4A46C11700F08B
:10134000F5F905430C43A9F1040905E001200490D7
:101350000BE008B145F0010501200590049820B983
:10136000361D02E0049800B1361FB969089808F1EB
:1013700001088847BBF1000FAAF1010A0290C9D009
:101380000999C1F80080C5E70298702808D0502854
:1013900006D0F96908988847BBF1000F14D04FE0D8
:1013A000002002900120BBF1000F049009D0B96920
:1013B000089808F101088847AAF10109B9F1000F5E
:1013C00007DCF969089888476FF001000BB0BDE8A9
:1013D000F08F2B2804D02D280CD14FF0FF30049033
:1013E000B969089808F101088847A9F10109B9F11C
:1013F000000FE6DD411CE4D00A2100F0AAF9002824
:10140000DFDB029908F1010801EB810100EB4100EB
:101410000290B969089888470A2100F09AF9099A58
:10142000A9F10109B9F1000FC2F8008001DD00281F
:10143000E7DAF969089888470499029800FB016681
:1014400055EA040004D004F04041090002D006E04F
:10145000039898E0A40044EA9574AD00B61E04F029
:101460000041080002D16D196441761E159810F0F4
:10147000240F03D04FF00B095C4803E04FF028091C
:101480006FF07D008246564507DAAAEB06018944D3
:10149000B9F1410F01DD4FF0410901200021A9F10F
:1014A000010200F043F9024628400B462140084360
:1014B00001D0012100E00021501E029143F1FF31D3
:1014C00028402140084301D0012000E0002002997B
:1014D000834651EA0B014FD0002108464FF000002F
:1014E000039900F4400039B100EB80004FF4400153
:1014F00000EBD07001EA60008015012802DD4FF09A
:10150000FF3000E013D0401C36D0029860B3BBF12E
:10151000000F0CD14A460120002100F007F92840B5
:101520002140084301D0012000E00020E0B101206B
:101530004A46002100F0FAF8034640190A46614184
:101540002D1A8C4111D3B9F1400F09DD159810F017
:10155000240F02D0AAF1340603E0AAF1170600E036
:10156000761C00254FF0004406E05B1E42F1FF327E
:1015700020EA030521EA0204CAF10100B04206DABA
:101580001B49039808430190002000900EE0039A45
:10159000C4F3D321E80A0A43164940EA44500A43F7
:1015A0003146CDE90002684601F0EFF9159810F0D8
:1015B000240F0BD01598C00715D13868DDE900124B
:1015C000031D3B600068C0E900120CE002A86946F8
:1015D00001F0D2F91598C00705D13868029A011DAB
:1015E0003960006802604046F0E6000002FCFFFF40
:1015F0000000F07F0000F03F2DE9FF4F92461D46AE
:1016000085B04FF00041DDE9124BDDE914727F1E19
:1016100001EA4B50414940F0FF4940EA01080021EE
:1016200022F020004928049102D04E2828D04CE016
:101630003BA0012607C88DE80700A9690698641C2D
:1016400088477F1E014606D41DF8060018B121F018
:10165000200181420BD0E96906988847032E34D0D7
:10166000082E32D06FF0010009B0BDE8F08F761C73
:10167000032E01D0082EE0D1601CCAF80000DCE780
:10168000A9690698641C88477F1E2AD420F0200090
:10169000412826D1A9690698641C88477F1E20D45A
:1016A00020F020004E281CD1A9690698641C8847A8
:1016B0007F1E48F4002849F48009CAF8004001D48C
:1016C000282806D0E969069888475FEACB7012D0CF
:1016D00022E0A9690698641C88477F1E01D400286F
:1016E00003DAE96906988847BCE72928F1D1641C28
:1016F000CAF80040E9E71BF0240F07D028680499D6
:10170000031D2B600068C0E9001805E02868021D71
:101710002A600068C0F800902046A5E70000F07F2E
:10172000494E46494E49545900000000B2F1200389
:101730000AD5C2F1200301FA02F120FA03F300FAFC
:1017400002F041EA0301704700FA03F14FF0000094
:1017500070473A2800D2303820F02002412A01D3C5
:10176000A2F13700884201D34FF0FF3070475FEAA3
:10177000400C08BF91F0000F4FEA8C234FEAC122C2
:1017800043EA51514FEA1C5018BF00F5F0404FEAB0
:10179000300018BF41F000415FEA6C5C00F0298026
:1017A000BCF1FF3F08BF40F080407047130C06BFFC
:1017B00012044FF0100C4FF0000C130E04BF120275
:1017C0000CF1080C130F04BF12010CF1040C930F61
:1017D00004BF92000CF1020CD30F04BF52000CF1B5
:1017E000010C11464FF00002A0F11F00A0EB0C000D
:1017F000704711F0004F08BF704731F000413FF4CF
:10180000D5AF0B0C06BF09044FF0100C4FF0000CC5
:101810000B0E04BF09020CF1080C0B0F04BF0901E9
:101820000CF1040C8B0F04BF89000CF1020CCB0FE0
:1018300004BF49000CF1010CCCF12003A0EB0C001B
:1018400022FA03F302FA0CF241EA030100F101006B
:10185000704720F07F4C80EA030023F07F47ACEB19
:10186000070303F57C5300F0004003F1FF032DE96B
:1018700080494FEA154B09B44FEA144325EA0B4E51
:1018800024EA03480FF2042606EB132749083E78A2
:101890005FEA320203FB0667C7F5000707FB06F69F
:1018A0004FEA54374FEAD64606F1020607FB066CAC
:1018B000CCF1005C4FEA1C472CEA074C07FB06F40E
:1018C0000CFB06F504EB15464FEA961634BF0020D4
:1018D0004FF000404FEAD13706FB07FC4FEA1C4CA3
:1018E0000CFB0BF7D21B03FB0CF761EB07010CFBA6
:1018F0000EF7B0EB074072EB17420CFB08F734BF52
:10190000A2EB0742B2EB074261EB17414FEA0C44EE
:101910004FEA910706FB07FC4FEA1C4C0CFB0BF748
:10192000B0EBC74072EB573203FB0CF734BFA2EBAE
:10193000C742B2EBC74261EB57310CFB0EF7B0EB7D
:10194000C70072EB57720CFB08F734BFA2EBC7025B
:10195000B2EBC70261EB5771039F4FEA816141EA25
:10196000921104EBCC044FEAD1374FEA826206FBB6
:1019700007FC42EA90124FEA80604FEA1C4C0CFBD5
:101980000BF7D21B03FB0CF761EB07010CFB0EF707
:10199000B0EB074072EB17420CFB08F734BFA2EB29
:1019A0000742B2EB074261EB17414FEA8C554FEA11
:1019B000910704EB9C2406FB07FC4FEA1C4C0CFB34
:1019C0000BF7B0EBC74072EB573203FB0CF734BF99
:1019D000A2EBC742B2EBC74261EB57310CFB0EF7EB
:1019E000B0EBC70072EB57720CFB08F734BFA2EBE9
:1019F000C702B2EBC70261EB577115EB4C254FEAFA
:101A0000816141EA92114FEA82624FEAD13742EA9C
:101A1000901206FB07FC44F100044FEA80604FEA95
:101A20001C4C0CFB0BF7D21B03FB0CF761EB070103
:101A30000CFB0EF7B0EB074072EB17420CFB08F7FC
:101A400034BFA2EB0742B2EB074261EB174115EB43
:101A50001C154FEA813141EA92414FEA823242EA53
:101A600090424FEA80304FEA0C7644F1000448EA95
:101A700003434EEA0B484FF0000EB2EB080C71EB3B
:101A8000030724BF624639464EEB0E0E4FF0000BA3
:101A90000018524149414BEB0B0BB2EB080C71EBB8
:101AA00003077BF1000B24BF624639464EEB0E0E56
:101AB0004FF0000B0018524149414BEB0B0BB2EBBE
:101AC000080C71EB03077BF1000B24BF624639461B
:101AD0004EEB0E0E51EA020718BF46F0010616EB58
:101AE0000E7655F1000254F1000103D5BDE88901DD
:101AF000BDE80088BDE88901BDE80048B61952413B
:101B000041EB0101A3F10103704780807F7E7D7C62
:101B10007B7A7978777676757473727171706F6E7F
:101B20006E6D6C6C6B6A6A6968686766666564642A
:101B3000636362616160605F5F5E5E5D5D5C5C5BB4
:101B40005B5A5A5959585857575656555555545423
:101B5000535352525251515050504F4F4F4E4E4D81
:101B60004D4D4C4C4C4B4B4B4A4A4A4949494848CD
:101B7000484747474746464645454544444444430D
:101B800043434342424242414141000046EA064645
:101B9000A3F570534FEA164646EA42564FEAD22260
:101BA00042EA415210B54FEAD121A3F1010300F0FE
:101BB0002FF820F0004000F1020C00F0004701EB8C
:101BC00000501146BCF5006F40EA070000D210BD7E
:101BD000BAF1000F0AD01CB503B44FF004004FF067
:101BE00004014FF000000FBCBDE810404FF00001B1
:101BF000BBF1010FB9BF04484FF0FF31034800218A
:101C000040EA070010BD00BFFFFFEF7F0000F07F3C
:101C1000002B9C4630D477002BD01CB54FEA3707F9
:101C200003B44FF010004FF01001BAF1000F06D0CE
:101C3000BCF1000FDCBF40F0080040F008014FF09D
:101C400000000FBCBDE810400BF1010BBBF1010F10
:101C500008BF5FEA170722BF12F1010211F101016B
:101C60004FF0004143F1000300F0004043EA000060
:101C70007047F9D35708D0E746EA064613F1400FFC
:101C80004FEA16461FDD13F1200FDFBF16430A4649
:101C9000002120335B42BED0C3F1200746EA06464E
:101CA00002FA07F74FEA164646EA0706C3F120078D
:101CB00022FA03F201FA07F721FA03F14FF00003C9
:101CC00042EA0702A7E746EA020646EA06464FEA64
:101CD000164646EA0106BCBF46EA0646360C4FF0F9
:101CE00000034FF000024FF0000194E72DE9804C13
:101CF0009A46934670B491E8380007C831EA400C20
:101D000048BF34EA430C03D5FFF7A3FDFFF780FF7C
:101D1000F0BCBDE8008C2DE9804C9A46934670B427
:101D200091E8380007C831EA400C48BF34EA430C58
:101D300003D5FFF78EFDFFF729FFF0BCBDE8008C4F
:101D40002DE9804C9A46934670B491E8380007C854
:101D500010F0804F08BF13F0804F03D100F01AF845
:101D6000FFF756FFF0BCBDE8008C2DE9804C9A4689
:101D7000934670B491E8380007C810F0804F08BF50
:101D800013F0804F03D100F005F8FFF7FFFEF0BC21
:101D9000BDE8008C20F07F4780EA030023F07F4CF1
:101DA00007EB0C03A3F57C5300F00040A3F1FE0306
:101DB00092F0000F00F0B38095F0000F00F07780F4
:101DC0002DE901494FEA11404FEA144621EA004843
:101DD00000FB06FC24EA064708FB06F607FB08F8AA
:101DE00000FB07F718EB06484CEB164C4FEA124B7A
:101DF00018EB07484FEA15464CEB174022EA0B4E0A
:101E00000BFB06FC25EA06470EFB06F607FB0EFE5B
:101E10000BFB07F71EEB064E4CEB164C4FF0000683
:101E20001EEB074E4CEB174B18EB0B0840F1000074
:101E300018EB0E0B58EB000840F100008F1A4FF022
:101E400000013CBFC943661B14BFB5EB040C002165
:101E50003CBFC943F61B4FEA17444EEA8E0E27EAF1
:101E600004454FEA1C4704FB07622CEA074C05FBBC
:101E700007F70CFB05F604FB0CFC16EB074642EBE0
:101E8000174216EB0C4642EB1C421BEB060658EBC6
:101E90000202414146EA9E0601D5BDE80189B61914
:101EA000524141EB0101A3F10103BDE801894FEA71
:101EB00014454FEA114724EA054621EA074C05FB81
:101EC00007F406FB07F70CFB06F105FB0CFC11EB16
:101ED000074144EB17444FEA124711EB0C4144EB26
:101EE0001C4422EA074C05FB07F206FB07F70CFB34
:101EF00006F605FB0CFC16EB074642EB174216EB09
:101F00000C4642EB1C456A1854F1000148BF70476B
:101F1000B619524141EB0101A3F10103704795F05D
:101F2000000F37D04FEA11424FEA144721EA024628
:101F300024EA074C02FB07F106FB07F70CFB06F44B
:101F400002FB0CFC14EB074441EB17414FEA154729
:101F500014EB0C4441EB1C4125EA074C02FB07F54E
:101F600006FB07F70CFB06F602FB0CFC16EB07461C
:101F700045EB174516EB0C4645EB1C42121951F187
:101F8000000148BF7047B619524141EB0101A3F16E
:101F9000010370474FEA14454FEA114724EA05460A
:101FA00021EA074C05FB07F106FB07F70CFB06F2DD
:101FB0004FF0000605FB0CFC12EB074241EB17410A
:101FC00012EB0C4251EB1C4148BF7047921841EB99
:101FD0000101A3F10103704700BFFEE77047F0B5B0
:101FE0000A4600210023002400BF3DE0012505FA38
:101FF00001F3156805EA03049C4234D105684F00DB
:102000000326BE40B543056015794E00B54006680D
:10201000354305601579012D02D01579022D16D1B1
:1020200085684F000326BE40B543856055794E0054
:10203000B540866835438560456801268E40B543C6
:102040004560456896798E40B6B235434560C568AF
:102050004F000326BE40B543C560D5794E00B5405C
:10206000C6683543C560491C1029BFD3F0BDF0B523
:10207000002300244D07ED0E02FA05F3CE1000F107
:10208000200555F826504E07F70E0F26BE40B543E3
:10209000CF1000F1200646F82750CE1000F12005A1
:1020A00055F8265045EA0304CE1000F1200545F806
:1020B0002640F0BD00BFFEE700BFFEE7704700000E
:1020C00070B5002100230F22C4781CB3174C24687C
:1020D00004F4E064C4F5E064C4F30721C1F104042E
:1020E000E3B20A4144789C40E1B284781440214331
:1020F0000C07210E0E4C05786155047804F01F057D
:102100000124AC4005786D11AD0005F1E025C5F85E
:10211000004109E0047804F01F050124AC40054D9E
:102120000678761145F8264070BD00000CED00E001
:1021300000E400E080E100E002490143024A11604E
:10214000704700000000FA050CED00E07047000049
:1021500029B1064A12680243044B1A6004E0034A9C
:1021600012688243014B1A60704700003038024009
:1021700029B1064A12680243044B1A6004E0034A7C
:1021800012688243014B1A607047000040380240D9
:1021900029B1064A12680243044B1A6004E0034A5C
:1021A00012688243014B1A607047000044380240B5
:1021B000F0B5002100220024022500260223324F20
:1021C0003F6807F00C0121B1042905D0082937D157
:1021D00005E02E4F076036E02D4F076033E02A4FB1
:1021E0003F1F3F68C7F38056274F3F1F3F6807F0E8
:1021F0003F036EB1264FB7FBF3F7DFF88CC0ACF1AD
:10220000040CDCF800C0CCF3881C07FB0CF40CE0D9
:102210001E4FB7FBF3F7DFF870C0ACF1040CDCF82D
:1022200000C0CCF3881C07FB0CF4174F3F1F3F681E
:10223000C7F301477F1C7D00B4FBF5F7076002E0A0
:10224000124F076000BF00BF0F4F3F6807F0F0015B
:102250000909104F7A5C0768D74047600A4F3F680A
:1022600007F4E051890A0B4F7A5C4768D7408760D2
:10227000054F3F6807F46041490B064F7A5C476899
:10228000D740C760F0BD0000083802400024F400C9
:1022900000127A0000000020704700000CB50020FA
:1022A000019000903448006840F480303249086062
:1022B00000BF3148006800F4003000900198401CD5
:1022C0000190009818B90198B0F5A04FF1D12A48B3
:1022D000006800F4003010B10120009001E00020FF
:1022E00000900098012846D123484030006840F013
:1022F00080502149403108602048006840F4404047
:102300001E4908601C48083000681B4908310860F5
:102310000846006840F4004008600846006840F441
:10232000A05008601648091F0860081F006840F0A8
:102330008070091F086000BF0F48006800F000703F
:102340000028F9D040F205700E4908600A480830AC
:10235000006820F00300084908310860084600685A
:1023600040F00200086000BF03480830006800F039
:102370000C000828F8D10CBD003802400070004065
:1023800019544007003C024010B500F069F810BD38
:1023900030B515480068154AB0FBF2F1481EB0F19F
:1023A000807F01D301201BE0481E4FF0E0225061E6
:1023B00050170F22002807DA13071D0E0C4B00F0F0
:1023C0000F04241F1D5503E013071C0E094B1C545A
:1023D00000BF00204FF0E022906107201061002034
:1023E00008B100BFFEE730BD2400002040420F00CE
:1023F00018ED00E000E400E010B51548006840F476
:102400007000134908601348006840F0010011494A
:10241000086000200F49083108600E4800680E4926
:1024200008400C4908600D48091D0860081F006835
:1024300020F48020091F0860002006490C31086044
:10244000FFF72CFF4FF0006001498039086010BD94
:1024500088ED00E000380240FFFFF6FE1030002457
:102460000448006820B103480068401E0149086024
:10247000704700001800002010B540F225511D489B
:1024800000F08AF810B31B4800F040F9C4B21A48B3
:10249000008800F40040C8B91748008800F4804064
:1024A00060B10A2C03D000201349088020E01248B4
:1024B000008840F400401049088019E00D2C06D136
:1024C0000D48008840F480400B49088010E00A481D
:1024D0000088C0F30D0009490C5407480088401CCF
:1024E0000549088008460088C72801DD00200880CB
:1024F00010BD00000010014020000020B8000020A6
:1025000010B540F225510E4800F046F8B0B10C4825
:1025100000F0FCF8C4B20B480B49098844540A483F
:102520000088401C084908800A2C02D10120074974
:10253000087040F22551024800F013F810BD000069
:10254000004400403800002012000020110000204C
:1025500001F40072B2F5007F00D100BFCA430280CF
:10256000704710B50022002340F66A14A14200D142
:1025700000BF0A1201249440A3B2DC43048010BDC2
:1025800021B1828942F40052828104E082894DF6B1
:10259000FF731A408281704770B502460024002301
:1025A0000025002040F66A16B14200D100BFC1F3F9
:1025B000421501F01F03012606FA03F3012D02D193
:1025C0009689334006E0022D02D1168A334001E09D
:1025D000968A33400C12012606FA04F41688344019
:1025E00013B10CB1012000E0002070BDF0B503462E
:1025F000002400260025002040F66A17B94200D1C9
:1026000000BF1846C1F3421401F01F06012707FA64
:1026100006F5012C01D10C3004E0022C01D1103060
:1026200000E014301AB107682F43076002E0076822
:10263000AF430760F0BD00002DE9FF4705460E4699
:102640000024A14600BFA046B08900B100BF2C8A7B
:1026500024F44054F08804432C82AC8941F20C608D
:102660008443B08831890843718908430443AC81AD
:10267000AC8A24F44074B0890443AC826846FFF706
:1026800097FD2048854202D01F48854202D1DDF8DF
:102690000C9001E0DDF80890A88900F4004040B1FA
:1026A00009EBC90000EB091031684900B0FBF1F7F4
:1026B00007E009EBC90000EB091031688900B0FBA5
:1026C000F1F76420B7FBF0F004012009642101FB5D
:1026D0001078A88900F4004040B1322000EBC80017
:1026E000B0FBF1F000F00700044308E0322000EBFB
:1026F00008106421B0FBF1F000F00F0004432C81BE
:10270000BDE8FF87001001400014014001468888A1
:10271000C0F30800704700BFFEE703B40198410012
:10272000009850EAC12018BF04204A0D18BF40F09D
:10273000010040F2FF72B2EB515F08BF40F00200AF
:10274000012808BF052002B070470000000000000B
:1027500030B52DED048B81B0B0EE408AF0EE608A8A
:102760006A4651EC180B00F033F900989FED329B4C
:102770007E300090002821DC53EC192B51EC180B13
:1027800000F06EFC1AD0002140F608004FF0000067
:10279000044651EC180B00F01DFC08EE100A40F640
:1027A000080004EA00014FF00000B5EEC08AF1EE27
:1027B00010FA04BF0220FEF78FFA2DE00098FF28E0
:1027C00030DB002108464FF0000000F4400553ECD8
:1027D000192B51EC180B00F0B9FD8CBF002401241B
:1027E0000220FEF779FA9FED168A4DB1002C0CBF3E
:1027F0004FF400004FF48000A84218BF9FED118AEB
:10280000042108464FF00000002C01BFB1EE480A39
:1028100001B0BDEC048B30BDB0EE480A01B0BDEC98
:10282000048B30BD51EC180B00F0D4FB01B000EE6E
:10283000100ABDEC048B30BD000000000000000059
:102840000000807FFFFF7F7F30B540F2FF742DEDE9
:10285000048BF0EE608A18EE901A85B0B0EE408AD4
:102860009FED2B9B05468DED008B34EA115147D02F
:1028700053EC192B51EC180B00F0F2FB40D02A4618
:1028800051EC180B00F04AFE41EC180B18EE900AC0
:102890008DED008B34EA10501CD053EC192B51EC09
:1028A000180B00F0DDFB2BD10220FEF715FA00F02B
:1028B00053F810EE901A18EE900A8DED020B8DED84
:1028C000008B61F31E0003909DED020B05B0BDEC83
:1028D000048B30BD0220FEF7FFF900F02DF810EE5A
:1028E000901A18EE900A8DED020B8DED008B61F3BE
:1028F0001E0003909DED020B05B0BDEC048B30BDB6
:1029000005B0B0EE480AF0EE680ABDEC048B30BDAD
:10291000000000000000000008B59FED060A0A460E
:1029200001468DED000A6846FEF730F89DED000A7D
:1029300008BD0000000000009FED050B10B553EC32
:10294000102B51EC100B00F003FC41EC100B10BDF0
:1029500000000000000000709FED050B10B553EC67
:10296000102B51EC100B00F0F3FB41EC100B10BDE1
:10297000000000000000001010B5044691ED000BAF
:10298000FFF7E6FE84ED000A10BD10B5044690ED99
:10299000000B0846FFF758FF84ED000B10BD3038E0
:1029A0000A2801D2012070470020704700BF7047FD
:1029B00000BF054A128802F04002002AF9D0C2B2D4
:1029C000014B9A8070470000001001400000000099
:1029D00010B582B01446CDE900010023009A2360AF
:1029E000194B21F0004098422ADA024328D0B0F572
:1029F000801FA8BF226810DA9FED150B53EC102B37
:102A00009DED000B51EC100B00F0A2FBCDE9000195
:102A10006FF0350221F0004022600F4B6FF31E5122
:102A200003EB20501044206041F0FF5040F0005074
:102A300001909DED000B00BF02B051EC100B10BDDA
:102A40009DED000BF8E700000000F07F00000000A3
:102A5000000000000000504302FCFFFF10B588B0EA
:102A6000044601210820FFF773FB01214804FFF70A
:102A70007FFB072206212748FFF7F9FA07220521E5
:102A80002448FFF7F4FA4020069002208DF81C003D
:102A90008DF81D0000208DF81E0001208DF81F000C
:102AA00006A91C48FFF79BFA2020069006A91948A2
:102AB000FFF795FA02940020ADF80C00ADF80E0077
:102AC000ADF81000ADF814000C20ADF8120002A90A
:102AD0001148FFF7B1FD01210F48FFF751FD012219
:102AE00040F225510C48FFF781FD4FF4A060FFF73D
:102AF00023FB26208DF8040002208DF805008DF8B8
:102B0000060001208DF8070001A8FFF7D9FA08B0E8
:102B100010BD0000000C024000440040FFF738FCEC
:102B20004FF4E13000F0CCF94FF4E130FFF796FFBD
:102B30000EE00848007858B10020064908700649A0
:102B40000880064800F04EF8044905A0FDF7AAFBEE
:102B5000EFE70000110000201200002038000020E4
:102B60002D2D2D2D2D2D3E2025730D0A000000004A
:102B70002DE9F04106460F46154639463046FDF729
:102B800037FC04466CB1002103E020786854491CEE
:102B9000641C20780A28F8D1207868540020BDE809
:102BA000F0810120FBE7F0B504460D460026002128
:102BB000284610E00778A74209D0077801EB810C7E
:102BC00002EB8C0C0CF80670771CFEB202E00026BB
:102BD0004F1CF9B2401C07780A2FEBD14F1C1F7015
:102BE000F0BD000070B52DED028BADF50C7D0446F7
:102BF00000208B904FF4C87126A8FDF70BFC342100
:102C000005A8FDF707FC05AA75A12046FFF7B0FF50
:102C10000546002D7AD18BAB26AA05A92C20FFF7FB
:102C2000C2FF2B98CDF852002C98CDF85600BDF875
:102C3000B400ADF85A009DF8C0008DF85D008AA977
:102C400035A8FFF769FE10EE106A304600F0B4FBBD
:102C5000CDE918019DF8E8008DF868008AA93FA821
:102C6000FFF75AFE10EE106A304600F0A5FBCDE9E2
:102C70001C019DF810018DF878008AA949A8FFF77A
:102C80004BFE8DED1F0A8AA94EA8FFF745FE8DED7C
:102C9000200A53982190BDF85001ADF888008AA908
:102CA00058A8FFF739FE8DED230A9DF874018DF8C1
:102CB00090009DF888018DF891009DF89C018DF899
:102CC000920012A8807C12A9497C12AAD27B12AB76
:102CD0009B7BCDE90132CDE9031012A8407B009027
:102CE00012A8037BC27A9DF852103FA0FDF7DAFAD2
:102CF0009DF85D1044A0FDF7D5FA9DED181BB0EED0
:102D0000410AF0EE610A53EC102B00E062E042A0B1
:102D1000FDF7C8FA9DF8681042A0FDF7C3FA9DEDD3
:102D20001C1BB0EE410AF0EE610A53EC102B41A0DF
:102D3000FDF7B8FA9DF8781041A0FDF7B3FA9DEDC4
:102D40001F0A10EE101A084600F036FB41EC180B73
:102D500053EC182B3EA0FDF7A5FA9DED200A10EECE
:102D6000101A084600F028FB41EC180B53EC182B06
:102D70003BA0FDF797FA9DF889009DF888109DF813
:102D80008720CDE9002102909DF886309DF88520AE
:102D90009DF8841036A0FDF785FA9DED230A10EE0C
:102DA000101A084600F008FB41EC180B53EC182BE6
:102DB00035A0FDF777FA9DF8901036A0FDF772FA6E
:102DC0009DF8911037A0FDF76DFA9DF8921038A08C
:102DD000FDF768FA0DF50C7DBDEC028B70BD0000AF
:102DE00024474E524D430000555443CAB1BCE4A39E
:102DF000BA256325633A256325633A256325633A3B
:102E00003A256325630A0000B6A8CEBBD7B4CCAC84
:102E1000A3BA25640A000000CEB3B6C8A3BA2566DB
:102E20000A000000CEB3B6C8B7BDCFF2A3BA25647E
:102E30000A000000BEADB6C8A3BA25660A000000AD
:102E4000BEADB6C8B7BDCFF2A3BA25640A00000074
:102E5000B5D8C3E6CBD9B6C8A3BA25660A00000028
:102E6000B5D8C3E6BABDCFF2A3BA25660A00000002
:102E7000C8D5C6DAA3BA256325632E256325632E3C
:102E8000256325630A000000B4C5C6ABBDC7A3BA5D
:102E900025660A00B4C5C6ABBDC7B7BDCFF2A3BA9D
:102EA00025640A00C4A3CABDA3BA25630A000000B2
:102EB000BABDCFF2D7B4CCACA3BA25630A000000E8
:102EC00010B588B0044601210846FFF741F90121F9
:102ED0001020FFF75DF9072209212648FFF7C7F800
:102EE00007220A212348FFF7C2F84FF4C06006907A
:102EF00002208DF81C008DF81D0000208DF81E00AA
:102F000001208DF81F0006A91A48FFF768F80294FF
:102F10000020ADF80C00ADF80E00ADF81000ADF8D3
:102F200014000C20ADF8120002A91348FFF784FB2F
:102F300001211148FFF724FB40210F48FFF708FB50
:102F4000012240F225510C48FFF750FB4FF4A060DE
:102F5000FFF7F2F825208DF8040003208DF8050016
:102F60008DF8060001208DF8070001A8FFF7A8F8EA
:102F700008B010BD000002400010014010B500294B
:102F80000AD00878002807D005487844FDF7DCFE11
:102F9000002801D0002010BD0248784410BD000078
:102FA000EE060000E606000010B500290AD00878F9
:102FB000002807D005487844FDF7C6FE002801D058
:102FC000002010BD0248784410BD0000DE0600005D
:102FD000D606000021F00042A2F16052B2F5801F37
:102FE00001F0004328BFD2F17F6C0BD95FEA001CCF
:102FF00043EAC20242EB507018BF704728BF20F06E
:1030000001007047B2F5801FBCBF184670474FEAF9
:10301000410C1CF5001F02D2084600F043BA70B5FF
:1030200000F040F900000089FFF7F6BF4FF00040C4
:10303000A0F580007047000002494FF0000000F04A
:103040003BBA00BF0000F87F491058BFC1F14041B2
:103050005B1058BFC3F140438B42EFF300807047D1
:1030600051EA030C17D41CF5801F58BFBCF5801F14
:1030700000F10680994218BF704708BF9042704720
:1030800007D711F5801F58BF13F5801F19D4994237
:103090007047894270471CF5801F08D5BCF5801F1A
:1030A000F7D58B4218BF704708BF824270474FF474
:1030B000001C1CEB410F38BF1CEB430F01D28B42AD
:1030C000704770B500F0EEF8922449004FF00051BF
:1030D0004FF08053FFF7B8BF51EA030C17D41CF52B
:1030E000801F58BFBCF5801F00F10680994218BFB1
:1030F000704708BF9042704707D711F5801F58BF2F
:1031000013F5801F19D499427047894270471CF506
:10311000801F08D5BCF5801FF7D58B4218BF7047BC
:1031200008BF824270474FF4001C1CEB410F38BFB0
:103130001CEB430F01D28B42704770B500F0B2F820
:10314000922449004FF000514FF08053FFF77CBFAD
:10315000DFF848C170B51CEA111E1EBF1CEA13152A
:103160009EEA0C0F95EA0C0F00F06F8081EA0304D1
:1031700023EA4C134EEAD47E21EA4C1141F480112B
:1031800043F48013AE44A1FB024CA0FB0365AEF1F7
:103190007F7E361955EB0C05A1FB034C4CF1000367
:1031A000A0FB021C16EB0C06654153F1000309421B
:1031B00018BF46F0010613F4007F0BD14FEA03312C
:1031C0004FEA0530340341EA155140EA16506FF0DA
:1031D00003020AE04FEAC3214FEAC520F40241EAA4
:1031E000555140EA56506FF0020202EB2E4201EBBD
:1031F000025585EACE710AD05FEA440C18BF24F06C
:10320000004450F1000041F1000120EAD47040F286
:10321000FE7C624500D270BDA84214BF4FF08044CE
:103220004FF04044002E08BF0024BEF1806FA8BFBD
:10323000A1F1C041BDE8704080F282804FF00000F3
:1032400001F1C04101F0004170479EEA0C0F0CEA09
:10325000131518BF95EA0C0F06D04FF0000081EA55
:10326000030E0EF0004170BD00F01CF88900013E15
:1032700000F007B800F009B84FEA430C5FEA5C5C65
:1032800008D081EA030100F05BB84FEA410C5FEA25
:103290005C5CF6D14FF00000014970470000FF0769
:1032A0000000F87F0EF1020E2EF0030E5EF8046BA4
:1032B000364205D4012A43EB030515F5001F12D849
:1032C000012841EB010C1CF5001F0CD80ED14FEA70
:1032D000D17C15F5001F0CEB4C0C0CF1020C08BF57
:1032E0004CEBD37C04E04FF0080C01E04FEAD37CB8
:1032F0000CEB4C0526FA05F606F00706B6F1040CB1
:1033000006D20EEB860CBDE870404CF0010C604715
:10331000DFE80CF0090B02024FF000414FF0000013
:10332000A1F5002170BD19461046012851EB01049A
:1033300018BFD4F5001484BF002001F0004170BD17
:103340000808A0F500114FEA3101704753EA010C5B
:1033500017D41CF5801F58BFBCF5801F00F10680F4
:103360008B4218BF704708BF8242704707D713F5DA
:10337000801F58BF11F5801F19D48B4270479B42A4
:1033800070471CF5801F08D5BCF5801FF7D5994202
:1033900018BF704708BF904270474FF4001C1CEBE9
:1033A000430F38BF1CEB410F01D2994270470FB455
:1033B0000CBC03BCFFF7C1BE43004FEAD30C4FEA7D
:1033C0003C0C43401FBF40070CF1605113F0FE4F0F
:1033D00070471CF0006F03D100200CF000417047D3
:1033E0000CF0004343EA507010B540EACC0000F006
:1033F0000EF800BF000000924FEA0001FFF7A0BFE7
:103400004FF000414FF00000A1F5002170470EF190
:10341000020E2EF0030E5EF8044B244204D44FEA51
:103420004102B2F17F4F11D84FEA4003B3F17F4F11
:103430000CD80ED14FEAD07CB2F17F4F0CEB4C0C84
:103440000CF1020C08BF4CEBD17C04E04FF0080CEF
:1034500001E04FEAD17C0CEB4C0324FA03F404F0B6
:103460000704B4F1040C06D20EEB840CBDE8104046
:103470004CF0010C6047DFE80CF0070802024FF047
:103480000040A0F5800010BD0846420018BFD2F1F0
:10349000807288BF00F0004010BD4FF04070E1EE38
:1034A000100A7047FF2141EAD050C00570474FF025
:1034B00000007047FDF70BB90CF00F03092B08BF94
:1034C000082000F05F800A2B0BD0082B18BF704734
:1034D00008BF1CF0400F0AD04FF000004FF0000171
:1034E00070471CF0400F18BF4FF0004070471CF0B1
:1034F000100F08D020F0704300F07F4242EAD30161
:103500004FEA4370704700F0604021F07F4242EA8A
:10351000000201F07F4040EA727070474FF0FF0CEC
:103520004CF4E06C1CEA11531CBF9CEA030C94455C
:10353000C2BFDA4201EB02517047002B0DD0BCF143
:10354000000F0FD0002A01F00041A4BF41F0E0417C
:1035500041F07F614FF00000704701F000414FF0F3
:103560000000704750EA01334FF09B0C18BF4CF03D
:10357000806C7FF461AD7047FDF758BDFDF7ACBEC0
:10358000FEF73AB81CF4801F11D01CF4E02F03D0D2
:103590006FEACC31490070474FF04050EFF30082A2
:1035A00022F0704242EA000282F3008870474FF036
:1035B0000000704702400000000000A00000000072
:1035C00005400000000000C8000000000C400000A2
:1035D0000000409C00000000194000000020BCBE1C
:1035E0000000000034400000BFC91B8E0000000432
:1035F000B5400000504BCFD06607E2CF010000007D
:103600006C4100003E8251AADFEEA73401000000A9
:10361000D9420000DCB5A0E23A301F97FFFFFFFF60
:10362000B4450000FD25A0C8E9A3C14FFFFFFFFF7F
:10363000FF3F00000000008000000000FF3F00008E
:103640000000008000000000A437000800000020F7
:1036500038000000C4010008DC37000838000020F2
:10366000A8070000E0010008000000000000F07F53
:10367000FFFFFFFFFFFFEF7F1C0000004300000083
:10368000F8FFFFFF0C0000000E0000000F0000001C
:103690002E0000001001000043000000F8FFFFFFB3
:1036A0000040404040404040404041414141414055
:1036B000404040404040404040404040404040400A
:1036C0004005020202020202020202020202020299
:1036D000022020202020202020202002020202029E
:1036E00002029090909090901010101010101010F6
:1036F0001010101010101010101010100202020202
:103700000202888888888888080808080808080845
:103710000808080808080808080808080202020241
:103720004000000000000000000000000000000059
:103730000000000000000000000000000000000089
:103740000000000000000000000000000000000079
:103750000000000000000000000000000000000069
:103760000000000000000000000000000000000059
:103770000000000000000000000000000000000049
:103780000000000000000000000000000000000039
:103790000000000000000000000000000000000029
:1037A0000000000000000000010203040102030405
:1037B00006070809000000000000000000000000EB
:1037C0000000000000000000007A030A0000000072
:0C37D000000000000102030406070809C5
:040000050800018965
:00000001FF
