:03000000023AD2EF
:0C3AD200787FE4F6D8FD758120023B19D6
:10400300322E382054465420535049203234302A1B
:104013003332300056583A0056793A004348583AFA
:06402300004348593A0079
:04408B00410096005A
:103DAA001240ECEF701E74FFFFFE123E0874FF9083
:103DBA000094F0A3F090009274F8F0A3E4F01237A4
:103DCA001A7F012220B2061214B37F01227F00203B
:103DDA00B32B7EF8123E087FB87E0B1240297FE093
:103DEA007E07123E087FB87E0B1240297F1F7E0095
:0E3DFA00123E087FB87E0B1240297F01222264
:102D220074FF900094F0A3F090009274F8F0A3E482
:102D3200F0FBFDFCFFFE1237F37B01E4FDFC7F2874
:102D4200FE1237F37B02E4FDFC7F50FE1237F3E400
:102D5200FB7D23FCFFFE1238BD7B017D237C007FBF
:102D6200147E001238BD7B027D237C007F287E000A
:102D72001238BD7B037D237C007F3C7E001238BD70
:102D82007B047D237C007F507E001238BD7B057D55
:102D9200237C007F647E001238BD7BFF7A4079037A
:102DA2007D377C00E4FFFE123A31E4900006F0A386
:102DB200F0A3F0A3744BF07BFF7A407917FD7C00FF
:102DC200E4FFFE123A31900007E02428F09000065A
:102DD200E03400F090008EE0FEA3E0FFE4FCFD9002
:102DE200004712270F90004B7405F0900008E0FC9A
:102DF200A3E0FD900006E0FEA3E0FF12363990004A
:102E020007E0243CF0900006E03400F0E0FEA3E08E
:102E1200FFA3E0FCA3E0FD7BFF7A40791B123A316D
:102E2200900007E02428F0900006E03400F09000C3
:102E320090E0FEA3E0FFE4FCFD90004712270F9014
:102E4200004B7405F0900008E0FCA3E0FD90000642
:102E5200E0FEA3E0FF123639E4900006F0A3F0A3EF
:102E6200F0A3745FF07BFF7A40791FFD7C00E4FFE2
:102E7200FE123A31900007E02428F0900006E03478
:102E820000F0900082E0FEA3E0FFE4FCFD9000472A
:102E920012270F90004B7405F0900008E0FCA3E0AD
:102EA200FD900006E0FEA3E0FF123639900007E035
:102EB200243CF0900006E03400F0E0FEA3E0FFA323
:102EC200E0FCA3E0FD7BFF7A407924123A319000C6
:102ED20007E02428F0900006E03400F0900084E03F
:102EE200FEA3E0FFE4FCFD90004712270F90004B89
:102EF2007405F0900008E0FCA3E0FD900006E0FEFF
:062F0200A3E0FF023639D6
:1033290074FFFFFE123E08122D22900004E4F0A360
:103339007403F0E4900002F0A3F0900002E0FAA315
:10334900E0FB7C007D28FFAE02122537C006C007CE
:10335900A3E0FEA3E0FF122537C006C007AF03AE06
:1033690002122537EF2427FBE43EFA900004E0FE21
:10337900A3E0FF122537EF2427FFE43E900069F010
:10338900A3EFF0D005D004D007D006123F46E49051
:103399000000F0A3F0123DAAEF60079000967401B7
:1033A900F022900001E025E0FF900000E033FE7478
:1033B900042FF58274003EF583E493FF1240DE90FA
:1033C9000001E025E0FF900000E033FE74032FF5D3
:1033D9008274003EF583E493FF1240DE900001E021
:1033E90004F07006900000E004F0C3900001E0943E
:1033F90040900000E064809486409A900003E004C5
:10340900F07006900002E004F0C3900003E0940617
:10341900900002E0648094805003023343900005D9
:10342900E004F07006900004E004F0C3900005E0A9
:103439009408900004E064809480500302333CE4D3
:04344900900096F069
:01344D00225C
:103FD0001240E312294374FFFFFE123E08E49000F2
:103FE00094F0A3F074FF900092F0A3F01233291222
:103FF0003DAAEF6003123329900096E060F112337E
:034000002980EC28
:0240F7002000A7
:103F8D008F20A2079295C297D297A2069295C297BB
:103F9D00D297A2059295C297D297A2049295C297F5
:103FAD00D297A2039295C297D297A2029295C297E9
:103FBD00D297A2019295C297D297A2009295C297DD
:033FCD00D2972266
:0440DA001240F2FF9F
:0540DE00D282023F8DBB
:0540BB00E0FEA3E0FFA0
:1040C000AD07AC06D282ECFF123F8DAF05023F8DEB
:0540F200C282023F8DB7
:0A40D0001240F2AE04AF050240C03A
:103F4600900063EEF0A3EFF07F2A1240F290006338
:103F5600E0FF1240DEA3E0FF1240DEEAFF1240DE81
:103F6600AF031240DE7F2B1240F2ECFF1240DEAFB1
:103F7600051240DE900069E0FF1240DEA3E0FF126A
:073F860040DE7F2C0240F237
:10294300D28020805BE4FDFCFFFE1240D07BFF7A47
:102953004079F7E4FDFCFFFE123A3190004712275D
:102963001B00000000E490004BF0FDFCFFFE12365C
:1029730039E4900006F0FBFAFDFCFFFE123B5EE437
:10298300FDFCFFFE123EB1E4900006F0A3F0FBFA5B
:10299300FDFCFFFE123987E4FBFDFCFFFE12274C12
:1029A300C2817F147E00124029D2817F147E0012DF
:1029B3004029C2807FCF1240F2E4FF1240DE7FD96C
:1029C3001240DE7F301240DE7FED1240F27F641250
:1029D30040DE7F031240DE7F121240DE7F81124011
:1029E300DE7FE81240F27F851240DE7F101240DE68
:1029F3007F781240DE7FCB1240F27F391240DE7FB8
:102A03002C1240DEFF1240DE7F341240DE7F0212C2
:102A130040DE7FF71240F27F201240DE7FEA124051
:102A2300DA1240DE7FC01240F27F211240DE7FC106
:102A33001240F27F121240DE7FC51240F27F321243
:102A430040DE7F3C1240DE7FC71240F27FC112405E
:102A5300DE7F361240F27F081240DE7F3A1240F2E8
:102A63007F551240DE7FB11240DA7F181240DE7FBD
:102A7300B61240F27F0A1240DE7FA21240DE7FF2DE
:102A83001240DA7F261240F27F011240DE7FE0120D
:102A930040F27F0F1240DE7F201240DE7F1E124085
:102AA300DE7F091240DE7F121240DE7F0B1240DE12
:102AB3007F501240DE7FBA1240DE7F441240DE7F39
:102AC300091240DE7F141240DE7F051240DE7F23B1
:102AD3001240DE7F211240DEFF1240DE7FE1124012
:102AE300DA7F191240DE1240DEFF1240DE7F12123F
:102AF30040DE7F071240DE7F2D1240DE7F2812402A
:102B0300DE7F3F1240DE7F021240DE7F0A1240DE8C
:102B13007F081240DE7F251240DE7F2D1240DE7FCC
:102B23000F1240DE7F111240F27F78FE1240297FA0
:042B3300290240F241
:083E080090004AEEF0A3EFF078
:103E10009000697401F0A3743FF07BEF7A00E4FD39
:103E2000FCFFFE123F46E490004CF0A3F0E4FBFAE6
:103E300090004A1240BB0BBB00010ABA01F2BB4022
:103E4000EF90004DE004F0700690004CE004F0C3E9
:0E3E500090004DE094F090004CE0940040CFC4
:013E5E002241
:1037F30090000AEEF0A3EFF090000EEBF090000CB7
:05380300ECF0A3EDF064
:1038080090001174FFF0A3740CF0A37483F090007F
:103818000AE0FAA3E0FFAE02C006C007241FFBE4DB
:103828003AFAA3E0FEA3E0241FFFE43E900069F00B
:10383800A3EFF0D007D006123F4690000EE075F0D7
:1038480080A4FF900012E5F08FF012259EE490000E
:1038580010F0E490000FF090000FE0FFC3940850C0
:103868003D900011E0FBA3E0FAA3E0F912251EFD4C
:103878007C0074017E00A807088005C333CE33CED0
:10388800D8F9FFEE5CFEEF5D4E6005900092800374
:103898009000941240BB90000FE004F080B99000B3
:1038A80012E475F00112259E900010E004F0E0C3C8
:0438B8009480409E1A
:0138BC0022E9
:1038BD0090000AEEF0A3EFF090000EEBF090000CEC
:0538CD00ECF0A3EDF09A
:1038D20090001174FFF0A3740EF0A37403F0900033
:1038E2000AE0FAA3E0FFAE02C006C007240FFBE421
:1038F2003AFAA3E0FEA3E0240FFFE43E900069F051
:10390200A3EFF0D007D006123F4690000EE075F00C
:1039120020A4FF900012E5F08FF012259EE49000A3
:1039220010F0E490000FF090000FE0FFC3940850F5
:103932003D900011E0FBA3E0FAA3E0F912251EFD81
:103942007C0074017E00A807088005C333CE33CE05
:10395200D8F9FFEE5CFEEF5D4E60059000928003A9
:103962009000941240BB90000FE004F080B99000E8
:1039720012E475F00112259E900010E004F0E0C3FD
:043982009420409EAF
:01398600221E
:103E5F00900004E0FEA3E0FF900001E02FFF900030
:103E6F0000E03E900006FEE0FCA3E0FD900003E0C2
:083E7F002DFD900002E03CFC67
:103E8700AB07AA068D828C83C006C007AE83AF82BC
:103E9700900069EEF0A3EFF0D007D006123F4690EE
:0A3EA7000092E0FEA3E0FF0240C01D
:103EB100AB07AA068D828C83EB24FFFFEA34FFFE59
:103EC100C006C007E58224FFFDE58334FFFCEB2437
:103ED10001FBE43AFAAE83AF82EF2401FFE43E90A6
:103EE1000010F0A3EFF0900092E0FFA3E090001229
:0C3EF100CFF0A3EFF0D007D006023BE0BA
:103BE00090000AEEF0A3EFF0A3ECF0A3EDF0A3EA4F
:043BF000F0A3EBF063
:103BF400C007A3E0FFA3E0900069CFF0A3EFF0D0EB
:103C040007123F4690000CE0FFA3E0900014CFF0B1
:103C1400A3EFF0900010E0FEA3E0FFD3900015E0C6
:103C24009F900014E09E503490000AE0FEA3E0FB55
:103C3400AA06C390000FE09B90000EE09A400D90FE
:103C440000121240BB0BBB00010A80E6900015E095
:0C3C540004F070BF900014E004F080B792
:013C60002241
:0E2B3700900047EEF0A3EFF0A3ECF0A3EDF05A
:102B4500E4900051F0A3F0A3F0A3F0900047E0FE5D
:102B5500A3E0FFC3EB9FFFEA9E900055F0A3EFF0C3
:102B6500900049E0FAA3E0FBC390004EE09BFE9085
:102B7500004DE09A900057F0A3CEF0900047E0FF9B
:102B8500A3E090005FCFF0A3EFF0A3EAF0A3EBF092
:102B9500900055E0FEA3E0FFD39400EE648094809E
:102BA500400A90005BE4F0A304F08021EF4E70082A
:102BB50090005BF0A3F0801574FF90005BF0A3F02C
:102BC500C3E49FFFE49E900055F0A3EFF0900057FB
:102BD500E0FEA3E0FFD39400EE64809480400A9069
:102BE500005DE4F0A304F08021EF4E700890005DD5
:102BF500F0A3F0801574FF90005DF0A3F0C3E49F8F
:102C0500FFE49E900057F0A3EFF0900057E0FEA37D
:102C1500E0FF900055E0FCA3E0FDD39FEE6480F853
:102C2500EC6480989000594007ECF0A3EDF0800526
:102C3500EEF0A3EFF0E490004FF0A3F090005AE01F
:102C45002401FF900059E03400FED3900050E09F2E
:102C550090004FE09E4003022D2190005FE0FEA30F
:102C6500E0FFA3E0FCA3E0FD123E87900055E0FEE7
:102C7500A3E0FF900052E02FF0900051E03EF0906D
:102C85000057E0FEA3E0FF900054E02FF0900053C2
:102C9500E03EF0900059E0FEA3E0FF900051E0FC1B
:102CA500A3E0FDD39FEE6480F8EC6480984020EDAE
:102CB5009FFFEC9E900051F0A3EFF090005BE0FECB
:102CC500A3E0FF900060E02FF090005FE03EF09001
:102CD5000059E0FEA3E0FF900053E0FCA3E0FDD324
:102CE5009FEE6480F8EC6480984020ED9FFFEC9E99
:102CF500900053F0A3EFF090005DE0FEA3E0FF909D
:102D05000062E02FF0900061E03EF0900050E0049A
:0C2D1500F0700690004FE004F0022C412A
:012D2100228F
:10398700900004EAF0A3EBF0900000EEF0A3EFF054
:10399700A3ECF0A3EDF0C007A3E0FAA3E0FB9000CF
:1039A70002E0FFA3E090004DCFF0A3EFF0D00712A5
:1039B7002B37900000E0FAA3E0FBFFAE02C007A39D
:1039C700E0FCA3E0FD900006E0FFA3E090004DCFF0
:1039D700F0A3EFF0D007122B37900006E0FCA3E02E
:1039E700FD900004E0FAA3E0FBA3E0FFA3E0900052
:1039F7004DCFF0A3EFF0900000E0FEA3E0FF122B05
:103A070037900004E0FAA3E0FBFFAE02C007900086
:103A170002E0FCA3E0FD900006E0FFA3E090004D6C
:0A3A2700CFF0A3EFF0D007022B3719
:0E274C00900000EEF0A3EFF0A3ECF0A3EDF090
:10275A00E4A3F0A3F0EBFF7E00A3EEF0A3EFF025D5
:10276A00E0FFEE33FEC374039F900009F0E49E90ED
:10277A000008F0900006E0FEA3E0FFD3900005E019
:10278A009FEE6480F8900004E06480984003022978
:10279A0042C3900001E09FFF900000E09EFE90007F
:1027AA0004E0FCA3E0FDC3900003E09DFD9000025D
:1027BA00E09CFC123E87900006E0FEA3E0FF90003A
:1027CA0001E02FFF900000E03EFE900004E0FCA331
:1027DA00E0FDC3900003E09DFD900002E09CFC1226
:1027EA003E87900004E0FEA3E0FFC3900001E09F53
:1027FA00FF900000E09E123E72900006E0FEA3E009
:10280A00FFC3900001E09FFF900000E09EFE900051
:10281A0004E0FCA3E0FDC3900003E09DFD900002EC
:10282A00E09CFC123E87900004E0FEA3E0FFC39008
:10283A000001E09FFF900000E09EFE900006E0FC91
:10284A00A3E0FDC3900003E09DFD900002E09CFC24
:10285A00123E87900006E0FEA3E0FF900001E02F01
:10286A00FF900000E03E900004123E75900004E0E4
:10287A00FEA3E0FF900001E02FFF900000E03EFE83
:10288A00900006E0FCA3E0FDC3900003E09DFD90EC
:10289A000002E09CFC123E87123E5F900006E0FEBA
:1028AA00A3E0FFC3900001E09FFF900000E09EFEBE
:1028BA00900004123E76900005E004F07006900045
:1028CA0004E004F0C3900008E064809480502490EF
:1028DA000004E0FEA3E07802C333CE33CED8F92455
:1028EA0006FFE43EFE900009E02FF0900008E03E6B
:1028FA00F0803F900006E0FEA3E0FFC3900005E0F1
:10290A009FFF900004E09EFEEF7802C333CE33CEE1
:10291A00D8F9240AFFE43EFE900009E02FF0900067
:10292A0008E03EF0900007E024FFF0900006E03453
:08293A00FFF0123E5F02277D51
:012942002272
:062F0800FBE4900054F010
:102F0E0090004FEEF0A3EFF0A3ECF0A3EDF0A3EBE7
:012F1E00F0C2
:102F1F0090004FE0FEA3E0FF900057EEF0A3EFF01C
:102F2F00900092E0FDA3E0900059CDF0A3EDF0D317
:102F3F00EF94E0EE940040030230A0900051E0FCCB
:102F4F00A3E0FD9430EC940140030230A0900053B5
:102F5F00E024E0F090004FE0FAA3E0FFAE02C006DD
:102F6F00C0072407FBE43AFAA3E0FEA3E0240FFF17
:102F7F00E43E900069F0A3EFF0D007D006123F4671
:102F8F00900054E06003023028F9900053E075F090
:102F9F0010A4FFE97C002FFFEC35F0FE74C32FF572
:102FAF0082740E3EF583E493900055F0E4A3F09005
:102FBF000055E030E0059000598003900094E0FF49
:102FCF00A3E0900092CFF0A3EFF09000921240BBDD
:102FDF00900055E0C313F0900050E004F07006909D
:102FEF00004FE004F0900056E004F0E0C394084076
:102FFF00BE900057E0FFA3E090004FCFF0A3EFF09B
:10300F00900052E004F07006900051E004F009E9DE
:10301F0064106003022F998069E4F9900053E07502
:10302F00F010A4FFE97C002FFFEC35F0FE74C32FE6
:10303F00F582740E3EF583E493900055F0E4A3F00F
:10304F00900056E0FFC394085033900055E030E0F5
:10305F001F900050E02FFF90004FE03400FEE9FD7D
:10306F00900052E02DFD900051E03400FC123E879D
:10307F00900055E0C313F0A3E004F080C309E9B456
:10308F001099900059E0FFA3E0900092CFF0A3EFCA
:01309F00F040
:0130A000220D
:083EFD0090004FEFF0A3EDF07F
:103F0500A312271B00000001900050E0FF14F0EF02
:103F15006020A3E0F8A3E0F9A3E0FAA3E0FB90009A
:103F25004FE0FFE4FCFDFE1225D390005112270F50
:103F350080D6900051E0FCA3E0FDA3E0FEA3E0FFE6
:013F45002259
:0E363900900043EEF0A3EFF0A3ECF0A3EDF051
:10364700E490004EF0900047A3A3E0FEA3E0FFE460
:10365700FCFD90004712270FE490004CF090004BC0
:10366700E0FFA3E0FEC39F4003023719C3EF9E1498
:10367700FD7F0A123EFDA804A905AA06AB07900024
:1036870047E0FCA3E0FDA3E0FEA3E0FF12265EE413
:103697007B0AFAF9F812265E90004DEBF0A3E07072
:1036A7003B90004BE014FFA3E0FEC39F502EA3E026
:1036B7007024EE75F008A4FF900044E02FFF9000FF
:1036C70043E035F0FE900045E0FCA3E0FDE4900008
:1036D70054F07B20803090004E7401F090004CE055
:1036E70075F008A4FF900044E02FFF900043E035F9
:1036F700F0FE900045E0FCA3E0FD90004DE0243093
:10370700FBE4900054F0122F0E90004CE004F002FE
:02371700366416
:01371900228D
:103B5E00900000EEF0A3EFF0A3ECF0A3EDF0A3EADB
:043B6E00F0A3EBF0E5
:103B7200E4900007F0900006E0F9A3E0FFC399503B
:103B82005CC3E99F14FD7F0A123EFDA804A905AAA1
:103B920006AB07900004E0FEA3E0FFE4FCFD122662
:103BA2005EE47B0AFAF9F812265EAF03900008EF92
:103BB200F0900007E075F008A4FF900001E02FFFED
:103BC200900000E035F0FE900002E0FCA3E0FDEB87
:0D3BD2002430122F08900007E004F08098C6
:013BDF0022C3
:103A3100900043EEF0A3EFF0A3ECF0A3EDF0A3EBC5
:103A4100F0A3EAF0A3E9F0900047E0FBA3E0FAA3BA
:103A5100E0F912251E6079D3900044E094E09000D3
:103A610043E094004012E4F0A3F0900046E02410FB
:103A7100F0900045E03400F0D3900046E09430909F
:103A81000045E094014011E4900043F0A3F0A3F05D
:103A9100A3F0FF7EF8123E08900043E0FEA3E0FF92
:103AA100A3E0FCA3E0FDA3E0FBA3E0FAA3E0F9128D
:103AB100251E122F08900044E02408F0900043E0F6
:103AC1003400F0900048E475F00112259E023A4856
:013AD10022D2
:10402900E4FDFCC3ED9FEE6480F8EC6480985015C4
:10403900E4FBFA0BBB00010ABA03F8BBE8F50DBDB6
:0540490000010C80DE07
:01404E00224F
:10000300FFFFFFFFFFFFFFFFFFFFFFFFFFFFFFFFFD
:10001300FFFFFFFFFFFFFFFFFFFFFFFFBEF77DEFC8
:10002300BAD6B6B5F39CB294B39CB29434A5F7BDDB
:10003300FBDE7DEFFFFFFFFFFFFFFFFFFFFFFFFF84
:10004300FFFFFFFFFFFFFFFFFFFFFFFFFFFFFFFFBD
:10005300FFFFFFFFFFFFFFFFFFFFFFFFFFFFFFFFAD
:10006300FFFFFFFFFFFFFFFFBEF7FBDEF39CCB5A53
:10007300C7390421821042104210410883184529D0
:10008300C7390C6375AD3CE7BEF7FFFFFFFFFFFF0A
:10009300FFFFFFFFFFFFFFFFFFFFFFFFFFFFFFFF6D
:1000A300FFFFFFFFFFFFFFFFFFFFFFFFFFFFFFFF5D
:1000B300FFFFFFFFFFFF3CE7B2940842C318821023
:1000C300042145298631863186318631452904212B
:1000D30082104108C3180842F39C3CE7FFFFFFFF6F
:1000E300FFFFFFFFFFFFFFFFFFFFFFFFFFFFFFFF1D
:1000F300FFFFFFFFFFFFFFFFFFFFFFFFFFFFFFFF0D
:10010300FFFFFFFFFBDE0C63C318C3184529C73984
:10011300084208420842084208420842C739C73920
:1001230086318631042141088210CB5ABAD6FFFFAB
:10013300FFFFFFFFFFFFFFFFFFFFFFFFFFFFFFFFCC
:10014300FFFFFFFFFFFFFFFFFFFFFFFFFFFFFFFFBC
:10015300FFFFFBDECB5A82104529C739084208420C
:10016300094A494A494A494A494A494A0842C73910
:10017300C739C7398631452983180000C84138C6B5
:10018300FFFFFFFFFFFFFFFFFFFFFFFFFFFFFFFF7C
:10019300FFFFFFFFFFFFFFFFFFFFFFFFFFFFFFFF6C
:1001A3007DEF8E7382104529C7390842094A8A5266
:1001B3003084CF7B8A52494A4A52494ACB5ACF7B31
:1001C3000C630842C73986314529C3180000494AE0
:1001D300BAD6FFFFFFFFFFFFFFFFFFFFFFFFFFFF9A
:1001E300FFFFFFFFFFFFFFFFFFFFFFFFFFFFFFFF1C
:1001F300F39CC3180421C7390842494A494A7294F7
:100203007DEF7DEFB2944A52494A8A5275ADBEF7EB
:10021300BAD64D6BC739C73986314529C31841084A
:10022300CF7B7CE7FFFFFFFFFFFFFFFFFFFFFFFF2A
:10023300FFFFFFFFFFFFFFFFFFFFFFFFFFFFBAD639
:1002430008428210C7390842494A494A8E73FBDE85
:10025300FFFFBEF7BAD68E73084230843CE77DEFCA
:10026300FFFFB6B5494AC7398631452904214108FC
:100273004529B6B5FFFFFFFFFFFFFFFFFFFFFFFFAE
:10028300FFFFFFFFFFFFFFFFFFFFFFFFBEF7718CC5
:10029300410845290842494A494A4A52B294BEF79D
:1002A300BEF7B294CF7BCF7B494AB6B5F39C0C63C0
:1002B30038C6BAD60C638739C73986314529C3187E
:1002C300410830847DEFFFFFFFFFFFFFFFFFFFFFCC
:1002D300FFFFFFFFFFFFFFFFFFFFFFFF3CE7CB5ADF
:1002E3004108C7390842494A4A528A52F39CFFFFE0
:1002F3007DEFC739C3180C63CB5AB6B5B294CB5A4A
:1003030075ADFAD64D6B8739C73986314529042136
:1003130041088A5279CEFFFFFFFFFFFFFFFFFFFF78
:10032300FFFFFFFFFFFFFFFFFFFFFFFF38C6863121
:100333000421C841494A494A4A52494AB18CBEF745
:10034300BEF7B294CF7BCF7B494A74A57DEF7CE7A0
:10035300BEF779CE0C63C739C739863145290421E5
:100363008210452975ADBEF7FFFFFFFFFFFFFFFFBB
:10037300FFFFFFFFFFFFFFFFFFFFFFFF34A582101B
:1003830086310842494A494A8A52494A4D6BBAD68C
:10039300FFFFFFFF79CE0D63C739CF7B7DEFFFFFF3
:1003A300FFFF75AD08428631C73986314529452996
:1003B300C318C318B2947DEFFFFFFFFFFFFFFFFFDA
:1003C300FFFFFFFFFFFFFFFFFFFFBEF7B28C4108F8
:1003D300C7390842494A494A8A528A524A4AD07B13
:1003E3007AC67BBE906BC9398831C939B384BBC621
:1003F300F8B5CC5A8631C739C739863145294529DD
:10040300C420410830843CE7FFFFFFFFFFFFFFFFED
:10041300FFFFFFFFFFFFFFFFFFFF3CE78A4AC31019
:10042300C7390842494A494A4A4A4A42093A084AA4
:10043300096B497BC67A05834683C57AC672097BF5
:10044300485A8731882188298631863145294529AB
:10045300042141084A4ABAD6FFFFFFFFFFFFFFFF0F
:10046300FFFFFFFFFFFFFFFFFFFFF7C582500541BF
:10047300C7290842494A4A42494A097B889BC6B36D
:1004830021D4A0DCE1E461ED61ED21EDA0E420DC09
:1004930080CB43ABC482065A472146294529042908
:1004A300041982108218F39C7DEFFFFFFFFFFFFF0B
:1004B300FFFFFFFFFFFFFFFF7DEF4D9300A082B81B
:1004C300C7310932494A867A43C36BEDF4F6EBFD33
:1004D30020FD20FD60FDA0FDA0FD60FD60FD20FD71
:1004E300E0FCA0FC60F4C1DB839AC54945290419EB
:1004F300C42082380050CB6ABAD6FFFFFFFFFFFF4C
:10050300FFFFFFFFFFFFFFFFFBEE04A100C000F0B2
:10051300C3A0C8414942059B20FCA4FC69FDE8FD3A
:1005230063FD20FD60FD60FD60FD20FD20FDE0FC1E
:10053300E0FCA0FC60FC20FC41D3C5494519C4384C
:10054300826841880070495A79CEFFFFFFFFFFFFA1
:10055300FFFFFFFFFFFFFFFFFBF682C000D086C156
:1005630046F141C8457989528862866AC67AC4BB16
:10057300E1FC60FD60FDA0FDA0FD60FD60FDE0FC11
:1005830060E403938472446AC5414529C35841A872
:10059300409800B000600C6B79CEFFFFFFFFFFFFB8
:1005A300FFFFFFFFFFFF7DEFCE83828800F8C4D8F3
:1005B3000CF38AFA82E882B04569C7510842083AC7
:1005C300865A839BA2BC22CD21CDA1C422B4C47A76
:1005D300063A862945290531C450419000C000A838
:1005E30000A000A800304A4ABAD6FFFFFFFFFFFF72
:1005F300FFFFFFFF7DEF8E73C318053982A800F854
:10060300C3F84DFB4DFBC7F9C3F082D8C3B00481D7
:1006130045614651864986494641454145414541E3
:1006230005490461829041B000D000C800A800A829
:1006330000B8415882108210B294BEF7FFFFFFFF4B
:10064300FFFFBEF7CF7B82100421862986410499E0
:1006530040E841F886F9CBFA49FA82F800F800F04D
:1006630000E841D841D041C041C041C041C041C868
:1006730000D000E000E000D800D000B800A8418816
:100683008248821082100000452979CEFFFFFFFFC8
:10069300BEF7F39C8210C31845298631C731307CDD
:1006A300F3DC86E100F000F841F841F800F800F8C7
:1006B30000F800F800F800F800F800F800F800F877
:1006C30000E800E000E000D800C841A08A9A0C636B
:1006D300041182108210410800004D6B7DEFFFFF73
:1006E300FBDE08424210452986318631494A38BE2D
:1006F300FFFF38D686A900C800E000F000F800F834
:1007030000F800F800F800F800F800F800F000F036
:1007130000E800E000D0C3988A8AB2A4BAC6F7B54D
:10072300084241088210410800004529F7BDFFFF38
:10073300718C410804214529863186310C633CE7DD
:10074300FFFF79D646B900E042C882A882B041D8FB
:1007530082E882F041E841E841E841F041E841D8CC
:1007630004C108924D8B34A5FBC6FBD6BACE3CE739
:100773003084C3184108410800004108CF7B7DEF56
:10078300494A000004214529463186313084FFFF60
:10079300FFF7F7DD09DA83F801F042C08298499A3E
:1007A300F3B4F3CC71BC8EBB8EBB30BC71BCF3BC59
:1007B300B6BDFBCEBEE77DE73BDFBAD679CEFBDE27
:1007C30075AD86314108410800000000494AFBDE4F
:1007D300042141080421452945298739B294FFFFA3
:1007E300BEF734DD0CEB09FA00F001D800D88BD248
:1007F3007DE7FFFFFFFFFFFFFFFFFFFFFFFFFFFFA0
:10080300FFFFBEFF7DEFFBDEFBDEBAD679CEBAD6A5
:1008130078C6C7390000410800000000C73979CE07
:1008230000008210C318042105298631B39CFFFF01
:10083300FFF775DDC7E9C7F901F801F000E849E200
:10084300FBEEFFFFFFFFFFFFFFFFFFFFFFFFFFFFCA
:10085300FFFFBEF77DEFFBDEFBDEBAD679CEBAD65D
:10086300B9CE08420000000000000000C73938C6B6
:100873000000821082100421042145293084FFFFE7
:10088300FFFF38DEC4D000F001F800F800F008D212
:10089300FBE6FFFFFFFFFFFFFFFFFFFFFFFFFFFF82
:1008A300FFFFBEF77DEFFBDEBAD679CE79CEBAD69F
:1008B30079CEC7394108000000000000863138C6F0
:1008C30000000000C318CB5A8631C318CB5A7DEF02
:1008D300FFFF7DEFCFBBC3B041D041D082B84DB352
:1008E3007DE7FFFFFFFFFFFFFFFFFFFFFFFFFFFFAF
:1008F300BEF7BEF73DEFFBDEBAD679CE79CEFAD698
:10090300F7BD04218631042100000000863138C67A
:100913008631C318CB5A75ADCF7B41088631F7BDFD
:10092300FFFFFFFFBEEF74B5309C309C72A4BBD6B3
:10093300FFFFFFFFFFFFFFFFFFFFFFFFFFFFFFFFC4
:10094300BEF77DEF3CE7FBDEBAD679CE79CE3CE746
:10095300718C81080C63CF7B821000008A5238C6E9
:1009630075AD718CB6B53CE7FBDEC7390000CF73BC
:10097300FFFFFFFFFFFFFFFFFFFFFFFFFFFFFFFF84
:10098300FFFFFFFFFFFFFFFFFFFFFFFFFFFFBEF7BD
:100993007DEF7DEF3BDFFAD679CE79CEFBDEB9CEA4
:1009A300C739C420718CBAD6718CCB5AB294BAD6DB
:1009B300FFFF7DEF7DEFFFFFFFFFB6B5462905196A
:1009C30075A5FFFFFFFFFFFFFFFFFFFFFFFFFFFF18
:1009D300FFFFFFFFFFFFFFFFFFFFFFFFFFFFBEF76D
:1009E3007DEF3CE7FBDEBAD679CEBAD6FCDE4E63AA
:1009F30042080C63F7BDBEF7FFFFFBDEFBDEBEF76D
:100A0300FFFFFFFFFFFFFFFFFFFFFFFFF49C04213A
:100A13000521B6A5FFFFFFFFFFFFFFFFFFFFFFFF5E
:100A2300FFFFFFFFFFFFFFFFFFFFBEF7BEF77DEFF7
:100A33003CE7FBDEBAD679CEFBDEBBD6D173831897
:100A43008639349DBDEFFFFFFFFFFFFFFFFFFFFF71
:100A5300FFFFFFFFFFFFFFFFBEFF35D6EBCC43B326
:100A630040510519F58CBEEFFFFFFFFFFFFFFFFFAE
:100A7300FFFFFFFFFFFFBEF7BEF77DEF7DEF3CE714
:100A8300FBDEBADEBAD63CDF3ABE4F63824940A3EF
:100A930023B4CC833ABEFFFFFFFFFFFFFFFFFFFF3F
:100AA300FFFFFFFFFFFFBFF7B5BD829220F4A0FC5D
:100AB30060E4408284418F6B77AD3DE7FFFFFFFF2A
:100AC300FEFFBEF7BEF7BEF77DEF7DEF3CE7FBDE33
:100AD300FBDE3DE7BBCE369D0B6B416A60C420FE57
:100AE30060F5008BC76A38C6BEF7FFFFFFFFFFFF45
:100AF300FFFFFFFFFFFF7DEF4B7B80B2A0FCA0FC5D
:100B0300E0FCE0FCC0CBC18A45624D6BB394F7BDFA
:100B13003DDFFFF7FFFFBEF77DEF7DEF7DE73DDFB5
:100B2300BAC675A58D7B847A40B3E0ECE0FDE0FDA9
:100B330060F520E5A0D40A6BFBDEFFFFFFFFFFFF9C
:100B4300FFFFFFFFFFFF7DEFCC9340EB60FCA0FCBA
:100B5300E0FC20FD60FD20F5A0D4C0BB429B458B8B
:100B63006B9CAE9C718CB394339D34A5F2A4F0B40A
:100B7300CA9B049B40BB20E420FDA0FDA0FDE0FD3B
:100B8300E0FDE0FD20C4885A38BEFFFFFFFFFFFFF2
:100B9300FFFFFFFFFFFFFFFF78D646AB40DB20F4EC
:100BA30060FCA0FCE0FC60FDA0FD60FD20F5A0DC86
:100BB300C0B3C05186290D638F7B0D5BC741018292
:100BC30000C3C0E360FCA0FCE0FCE0FC60F560F562
:100BD30020E5809B8662308479CEFFFFFFFFFFFF15
:100BE300FFFFFFFFFFFFFFFFFFFF38C62D9C0593AD
:100BF30043A382B3C2BBC2BB22B482A34293C37AD0
:100C030085620B637184B6B579CE79C6B5AD709440
:100C13004A8B06830493049B439B439B4393048324
:100C230008738D73B39479CE7DEFFFFFFFFFFFFF52
:100C3300FFFFFFFFFFFFFFFFFFFFFFFF3CDF38BEAC
:100C430075B533A533A5F39CF39CF39CF394F39C04
:100C530035A5F8BDFBDEBEF7FFFFFFFFFFFF7EEF0D
:100C6300BBD6F8BDB6AD75AD34A5339D349D35A562
:100C7300B7AD79C63CE7BEF7FFFFFFFFFFFFFFFFFE
:100C830000000000000000000040000030C0010030
:100C9300E0E00100C0E10000C061001880F1FF3F07
:100CA30000700018003E001804DA01181CEE011849
:100CB300386F601878F7FF1870318618B019061866
:100CC3008009061880058619C0FEFF1BC000061A9E
:100CD300C0306618E070E6197C30E6187030E6180C
:100CE3006030E61870F8FF1C7030E01C7000001CC8
:100CF3007000F01F7000800F00000007000000006C
:100D0300000000000000000000008000000EC00191
:100D130000FEFF03000EC001000EC001000EC00163
:100D230000FEFF01000EC001000EC001000EC00155
:100D330000FEFF01000EC00100064000000000009D
:100D430030700C18F0FFFC3F70700C1870700C18AA
:100D530070700C1870700C18F07FFC1F70700C18FA
:100D630070700C1870700C1870700C1870700C1870
:100D7300F07FFC1F70700C181000040000000000CE
:100D830000000000000000000000300000007000C0
:100D9300001C7000FC1F7000008C7100208C770019
:100DA300E08C7304F08E731E708EF31F708EFB0C39
:100DB300708E7F0C70FE730C3086730C3086730C50
:100DC3003096730CF8BF730C38F8730C00B8730CBF
:100DD30000B8F30F00BE7306E09B73307E98733048
:100DE3001C981330089C0330009C0330008C03785C
:100DF300E00FFF7F800700000003000000000000F9
:100E0300800080008000FC1F40004000FF7F200026
:100E13001000F00F000800046002800100020004CB
:100E2300000104020800E83F010202020202080274
:100E3300C83F04020702040204020402F47F000014
:100E43000000F80F08080808F80F08080808F80F4A
:100E53002002222224222812280A2002FF7F0000D7
:100E63000000FC1F0000000000000000FF7F800066
:100E7300800088088810842082408140A0004000C0
:100E8300400080008000FF7F200020002000E00F52
:100E9300200820082008100810080808040502028A
:100EA3008000FE3F02202000FF7F10047802C00371
:100EB3003C1C8000FF7FA00290048C18836080009C
:100EC300000000000000000000000000000000001F
:100ED30000000008080808080808000018180000A7
:100EE30000486C2412000000000000000000000015
:100EF3000000002424247F1212127F121212000019
:100F03000000081C2A2A0A0C1828282A2A1C080868
:100F130000000022251515152A58545454220000A8
:100F23000000000C1212120A76252911916E00009E
:100F3300000606040300000000000000000000009B
:100F4300004020101008080808080810102040006E
:100F53000002040808101010101010080804020002
:100F63000000000008086B1C1C6B08080000000050
:100F730000000000080808087F08080808000000AF
:100F8300000000000000000000000000060604034B
:100F93000000000000000000FE0000000000000050
:100FA3000000000000000000000000000606000032
:100FB30000008040402020101008080404020200B2
:100FC30000000018244242424242424224180000D8
:100FD300000000080E08080808080808083E00007A
:100FE3000000003C4242422020100804427E0000E0
:100FF3000000003C4242201820404042221C0000D6
:10100300000000203028242422227E2020780000A3
:101013000000007E0202021A26404042221C000009
:10102300000000382402021A26424242241800001B
:101033000000007E2222101008080808080800009B
:101043000000003C4242422418244242423C000039
:10105300000000182442424264584040241C00000F
:10106300000000000000181800000000181800001D
:101073000000000000000008000000000008080451
:101083000000004020100804020408102040000063
:101093000000000000007F0000007F00000000004F
:1010A3000000000204081020402010080402000081
:1010B3000000003C42424640201010001818000077
:1010C3000000001C225A555555552D42221C000084
:1010D3000000000808181414243C224242E70000D0
:1010E3000000001F2222221E22424242221F000031
:1010F3000000007C4242010101010142221C000068
:101103000000001F2242424242424242221F00008C
:101113000000003F4212121E12120242423F000020
:101123000000003F4212121E1212020202070000C8
:101133000000003C2222010101712122221C000037
:10114300000000E7424242427E42424242E7000040
:101153000000003E0808080808080808083E0000C8
:101163000000007C10101010101010101010110F40
:101173000000007722120A0E0A12122222770000C0
:10118300000000070202020202020202427F000084
:1011930000000077363636362A2A2A2A2A6B0000C0
:1011A300000000E346464A4A525252626247000038
:1011B3000000001C2241414141414141221C0000E9
:1011C3000000003F424242423E0202020207000088
:1011D3000000001C2241414141414D53321C60003B
:1011E3000000003F4242423E1212222242C7000048
:1011F3000000007C4242020418204042423E0000AC
:101203000000007F4908080808080808081C0000B7
:10121300000000E74242424242424242423C000056
:10122300000000E742422224241414180808000096
:101233000000006B494949495555362222220000D6
:10124300000000E7422424181818242442E7000071
:10125300000000772222141408080808081C000064
:101263000000007E2120101008040442423F0000C9
:10127300007808080808080808080808080878001B
:101283000000020204040808081010202020404037
:10129300001E1010101010101010101010101E004F
:1012A30000384400000000000000000000000000BF
:1012B300000000000000000000000000000000FF2C
:1012C300000608000000000000000000000000000D
:1012D300000000000000003C4278444242FC000051
:1012E300000000030202021A26424242261A0000AC
:1012F30000000000000000384402020244380000ED
:1013030000000060404040784442424264D80000FC
:10131300000000000000003C427E0202423C00004C
:10132300000000F08808087E08080808083E00004E
:10133300000000000000007C22221C023C42423CD0
:10134300000000030202023A4642424242E7000022
:101353000000000C0C00000E08080808083E0000FE
:101363000000003030000038202020202020221EE2
:101373000000000302020272120A16122277000012
:101383000000000E0808080808080808083E0000C6
:10139300000000000000007F9292929292B700003A
:1013A300000000000000003B4642424242E70000CA
:1013B300000000000000003C42424242423C000068
:1013C300000000000000001B26424242221E0207CA
:1013D300000000000000007844424242447840E0AC
:1013E30000000000000000774C040404041F000008
:1013F300000000000000007C42023C40423E00002E
:10140300000000000008083E080808080830000033
:1014130000000000000000634242424262DC000020
:1014230000000000000000E7422424140808000024
:1014330000000000000000EB49495555222200003E
:10144300000000000000007624181818246E000025
:1014530000000000000000E74224241418080807D5
:10146300000000000000007E22100808447E0000F7
:1014730000C0202020202010202020202020C00079
:101483001010101010101010101010101010101059
:1014930000060808080808100808080808080600D5
:1014A3000C32C20000000000000000000000000039
:103CDC005658313A005679313A00434858313A0037
:103CEC00434859313A005658323A005679323A0024
:103CFC00434858323A00434859323A0056583A0031
:103D0C0056793A004348583A004348593A004164BE
:103D1C006A757374204F4B212020546F7563682093
:103D2C00416E79776865726520546F20436F6E74AD
:0B3D3C00696E756500583A00593A00A6
:10408F0042008E3B8A4200902B7B4200820F3A42C5
:04409F000084009108
:0640EC00A2B4E433FF2240
:0940E300D294D296D2B0D29622FA
:10407100E4FEC296EF25E0FF92B0C296000000D2A6
:09408100960000000EEEB408EBFD
:01408A002213
:10404F00E4FDFFFEEF25E0FFEE33FED29600000009
:10405F00C29600000030B104EF4401FF0DEDB40C27
:01406F00E36D
:01407000222D
:1040A400C294124071D29600000000C29600000033
:0640B4000012404FD294FF
:0140BA0022E3
:0230A100A9077D
:1030A300E490007EF0A3F0FBFAAF011240A4AC065B
:1030B300AD07EB25E0FFEA33FE74602FF582740061
:1030C3003EF583ECF0A3EDF00BBB00010AEB640FBC
:1030D3004A70D6E4FAFBEB2401FEE43A90005EF07A
:1030E300A3CEF090005EE0FEA3E0FFC3940FEE9446
:1030F30000400302319DEF25E0FFEE33FE74602FA5
:10310300F58274003EF583E0FCA3E0FDEB25E0FFD0
:10311300EA33FE74602FF58274003EF583E0FEA36C
:10312300E0FFD39DEE9C405E900080EEF0A3EFF0B5
:1031330090005FE025E0FF90005EE033FE74602FB7
:10314300F58274003EF583E0FCA3E0FDEB25E0FF90
:10315300EA33FE74602FF58274003EF583ECF0A32E
:10316300EDF0900080E0FCA3E0FD90005FE025E03F
:10317300FF90005EE033FE74602FF58274003EF52D
:1031830083ECF0A3EDF090005FE004F06003023005
:10319300E690005EE004F00230E60BBB00010AEBB0
:1031A300640E4A60030230D9E490007EF0A3F0FA83
:1031B3007B05EB25E0FFEA33FE74602FF582740094
:1031C3003EF583E0FEA3E0FF90007FE02FF0900048
:1031D3007EE03EF00BBB00010AEB640A4A70D39019
:1031E300007EE0FEA3E0FF7C007D05122549A3EEEF
:0431F300F0A3EFF066
:0131F70022B5
:0B3D4700900056EBF0A3EAF0A3E9F0B7
:103D52007FD01230A190005CEEF0A3EFF07F9012C2
:103D620030A1C390005DE0946490005CE094004058
:103D720008EF9464EE940050037F002290005CE010
:103D8200F9A3E0FD900056E0FBA3E0FAA3E0C98DA1
:103D9200F01225B4900059E0FBA3E0FAA3E0F9EE9B
:073DA2008FF01225B47F0130
:013DA90022F7
:0B31F800900048EBF0A3EAF0A3E9F020
:103203009000597401F0A37400F0A37450F07B0193
:103213007A00794E123D47EF7002FF2290005974F5
:1032230001F0A37400F0A37454F07B017A00795287
:10323300123D47EF7002FF2290004EE0FEA3E0FF35
:10324300900052E0FCA3E0FDD39FEC9E500EED24D2
:1032530014FDE43CFCC3EF9DEE9C402A900052E039
:10326300FEA3E0FF90004EE0FCA3E0FDD39FEC9EA5
:103273004003023326ED2414FDE43CFCC3EF9DEE32
:103283009C4003023326900050E0FEA3E0FF900031
:1032930054E0FCA3E0FDD39FEC9E500EED2414FDFF
:1032A300E43CFCC3EF9DEE9C4024900054E0FEA35D
:1032B300E0FF900050E0FCA3E0FDD39FEC9E506341
:1032C300ED2414FDE43CFCC3EF9DEE9C50559000AF
:1032D30052E0FEA3E0FF90004FE02FFF90004EE08E
:1032E3003EC313F9EF13FF900048E0FBA3E0FAA3FA
:1032F300E0C98FF01225B4900054E0FEA3E0FF90E4
:103303000051E02FFF900050E03EC313F9EF13FF8D
:1033130090004BE0FBA3E0FAA3E0C98FF01225B4C1
:053323007F01227F0084
:013328002282
:103C6100E4900043F0900043E0706A90004B7401CF
:103C7100F0A37400F0A3748CF07B017A00798A12AE
:103C810031F8EF60E67F0A7E0012402990004B7404
:103C910001F0A37400F0A37446F07B017A0079442B
:103CA1001231F8EF60E6900044E0FEA3E0FF9000DF
:103CB1008AE0B506B0A3E0B507AB900046E0FEA3ED
:103CC100E0FF90008CE06E7003A3E06F70979000AE
:0A3CD1004304F08090900043E0FFF0
:013CDB0022C6
:10355100900043EEF0A3EFF0A3ECF0A3EDF09000A8
:1035610043E0FAA3E0FB24F4FFEA34FFFEC007EBDB
:10357100240DFBE43AFAA3E0FFA3E090004DCFF065
:10358100A3EFF0D007122B37900043E0FAA3E0FB42
:10359100FFAE02C006C007900046E024F4FD900093
:1035A10045E034FFFCE0FEA3E0240DFFE43E900083
:1035B1004DF0A3EFF0D007D006122B37900044E076
:1035C1002401FF900043E03400FE900046E0240116
:1035D100FD900045E03400FC123E87900044E02459
:1035E100FFFF900043E034FFFE900046E02401FD20
:1035F100900045E03400FC123E87900044E0240135
:10360100FF900043E03400FE900046E024FFFD906F
:103611000045E034FFFC123E87900044E024FFFFA8
:10362100900043E034FFFE900046E024FFFD90004F
:0836310045E034FFFC023E8776
:10344E00E490000AF07B0190004B04F0A37400F0AE
:10345E00A3748CF07A00798A1231F8EF700302357A
:10346E004B90000A7401F0900082E0FEA3E0FFD3BF
:10347E0090008BE09F90008AE09E400BAB07AA065F
:10348E00E0FEA3E0FF801390008AE0FEA3E0FBAA1B
:10349E0006900082E0FEA3E0FFC3EF9BFFEE9AFED4
:1034AE00E49400FDE49400FCE47BE87A03F9F8125E
:1034BE0025D3C006C00790008EE0FEA3E0FBAA064F
:1034CE00E4F9F8D007D00612265E900086EEF0A33F
:1034DE00EFF0900084E0FEA3E0FFD390008DE09F1C
:1034EE0090008CE09E400BAB07AA06E0FEA3E0FF27
:1034FE00801390008CE0FEA3E0FBAA06900084E00F
:10350E00FEA3E0FFC3EF9BFFEE9AFEE49400FDE402
:10351E009400FCE47BE87A03F9F81225D3C006C0C8
:10352E0007900090E0FEA3E0FBAA06E4F9F8D007AE
:10353E00D00612265E900088EEF0A3EFF090000AFF
:02354E00E0FF9C
:013550002258
:1014B300E4900042F0F0900092F0A3741FF074FFE8
:1014C300900094F0A3F0FFFE123E0890009274F88F
:1014D300F0A3E4021BD020B4FD123C61EF60429004
:1014E300008AE0FEA3E0FFE4FCFD900042E0FB7510
:1014F300F008A42422F582E43400F58312270F9028
:10150300008CE0FEA3E0FFE4FCFDEB75F008A424EF
:1015130026F582E43400F58312270F900042E0049D
:10152300F0900042E024FE601A146028146038240E
:101533000370A374FFFFFE123E0830B4FD7D327CBE
:1015430000801F74FFFFFE123E0830B4FD7D0D7C4A
:1015530001021BDC74FFFFFE123E0830B4FD7D0D5B
:101563007C017FBD021BDE74FFFFFE123E0830B418
:10157300FD900022E0FCA3E0FDA3E0FEA3E0FF90CA
:10158300002AE0F8A3E0F9A3E0FAA3E0FBD31226D4
:10159300FE4034900022E0F8A3E0F9A3E0FAA3E0D0
:1015A300FB90002AE0FCA3E0FDA3E0FEA3E09BFF89
:1015B300EE9AFEED99FDEC98FCEF2401FFE43EFE6C
:1015C300E43DFDE43C803690002AE0F8A3E0F9A373
:1015D300E0FAA3E0FB900022E0FCA3E0FDA3E0FE21
:1015E300A3E0C39BFFEE9AFEED99FDEC98FCEF247C
:1015F300FFFFEE34FFFEED34FFFDEC34FFFCE47B34
:10160300E87A03F9F81225D3E47B8CFAF9F8122669
:101613005EE412245F90000612270F900022E0FC84
:10162300A3E0FDA3E0FEA3E0FF90002AE0F8A3E01F
:10163300F9A3E0FAA3E0FBD31226FEE4FFFE7D4804
:101643007C42900006E0F8A3E0F9A3E0FAA3E0FBF4
:10165300403412224CE4FBFA797A7844122355C0C1
:1016630004C005C006C007900022E0FCA3E0FDA370
:10167300E0FEA3E0FFE412245FD003D002D001D048
:1016830000122157803212224CE4FBFA797A784413
:10169300122355C004C005C006C007900022E0FC19
:1016A300A3E0FDA3E0FEA3E0FFE412245FD003D098
:1016B30002D001D00012215B12249D900016EEF09F
:1016C300A3EFF0900026E0FCA3E0FDA3E0FEA3E07F
:1016D300FF900036E0F8A3E0F9A3E0FAA3E0FBD320
:1016E3001226FE401D900026E0F8A3E0F9A3E0FADD
:1016F300A3E0FB900036E0FCA3E0FDA3E0FEA3E043
:10170300801C900036E0F8A3E0F9A3E0FAA3E0FB25
:10171300900026E0FCA3E0FDA3E0FEA3E0C39BFF53
:10172300EE9AFEED99FDEC98FCEF24FFFFEE34FFFB
:10173300FEED34FFFDEC34FFFCE47BE87A03F9F8BB
:101743001225D3E47BDCFAF9F812265EE412245F57
:1017530090000E12270F900026E0FCA3E0FDA3E00B
:10176300FEA3E0FF900036E0F8A3E0F9A3E0FAA3BC
:10177300E0FBD31226FEE4FFFE7D487C4290000E80
:10178300E0F8A3E0F9A3E0FAA3E0FB403412224C13
:10179300E4FBFA797A7844122355C004C005C006E5
:1017A300C007900026E0FCA3E0FDA3E0FEA3E0FF5A
:1017B300E412245FD003D002D001D000122157805D
:1017C3003212224CE4FBFA797A7844122355C0048E
:1017D300C005C006C007900026E0FCA3E0FDA3E01F
:1017E300FEA3E0FFE412245FD003D002D001D000B7
:1017F30012215B12249D90001AEEF0A3EFF09000EB
:1018030032E0FCA3E0FDA3E0FEA3E0FF90003AE09A
:10181300F8A3E0F9A3E0FAA3E0FBD31226FE4034D9
:10182300900032E0F8A3E0F9A3E0FAA3E0FB900014
:101833003AE0FCA3E0FDA3E0FEA3E09BFFEE9AFEEB
:10184300ED99FDEC98FCEF2401FFE43EFEE43DFD41
:10185300E43C803690003AE0F8A3E0F9A3E0FAA371
:10186300E0FB900032E0FCA3E0FDA3E0FEA3E0C3B5
:101873009BFFEE9AFEED99FDEC98FCEF24FFFFEE43
:1018830034FFFEED34FFFDEC34FFFCE47BE87A0328
:10189300F9F81225D3E47B8CFAF9F812265EE412E8
:1018A300245F90000A12270F900032E0FCA3E0FDB2
:1018B300A3E0FEA3E0FF90003AE0F8A3E0F9A3E081
:1018C300FAA3E0FBD31226FEE4FFFE7D487C4290A0
:1018D300000AE0F8A3E0F9A3E0FAA3E0FB40341226
:1018E300224CE4FBFA797A7844122355C004C005EC
:1018F300C006C007900032E0FCA3E0FDA3E0FEA316
:10190300E0FFE412245FD003D002D001D000122103
:1019130057803212224CE4FBFA797A784412235529
:10192300C004C005C006C007900032E0FCA3E0FD80
:10193300A3E0FEA3E0FFE412245FD003D002D001B2
:10194300D00012215B12249D900018EEF0A3EFF05B
:1019530090002EE0FCA3E0FDA3E0FEA3E0FF9000D7
:101963003EE0F8A3E0F9A3E0FAA3E0FBD31226FEDE
:10197300401D90002EE0F8A3E0F9A3E0FAA3E0FBFA
:1019830090003EE0FCA3E0FDA3E0FEA3E0801C90FA
:10199300003EE0F8A3E0F9A3E0FAA3E0FB90002EF9
:1019A300E0FCA3E0FDA3E0FEA3E0C39BFFEE9AFEF1
:1019B300ED99FDEC98FCEF24FFFFEE34FFFEED34D0
:1019C300FFFDEC34FFFCE47BE87A03F9F81225D33E
:1019D300E47BDCFAF9F812265EE412245F9000122D
:1019E30012270F90002EE0FCA3E0FDA3E0FEA3E08E
:1019F300FF90003EE0F8A3E0F9A3E0FAA3E0FBD3F5
:101A03001226FEE4FFFE7D487C42900012E0F8A31C
:101A1300E0F9A3E0FAA3E0FB403412224CE4FBFA22
:101A2300797A7844122355C004C005C006C00790D4
:101A3300002EE0FCA3E0FDA3E0FEA3E0FFE41224FC
:101A43005FD003D002D001D000122157803212227E
:101A53004CE4FBFA797A7844122355C004C005C0DC
:101A630006C00790002EE0FCA3E0FDA3E0FEA3E088
:101A7300FFE412245FD003D002D001D00012215B17
:101A830012249D90001CEEF0A3EFF090000AE0FCFE
:101A9300A3E0FDA3E0FEA3E0FF900006E0F8A3E0CF
:101AA300F9A3E0FAA3E0FB1223F260324030E4FF33
:101AB300FE7D7A7C4490000AE0F8A3E0F9A3E0FA03
:101AC300A3E0FB12215B900006E0F8A3E0F9A3E09A
:101AD300FAA3E0FB1223F260054003021BCC900043
:101AE3000AE0FCA3E0FDA3E0FEA3E0FF900006E014
:101AF300F8A3E0F9A3E0FAA3E0FB1223F2502EE4EB
:101B0300FFFE7D7A7CC490000AE0F8A3E0F9A3E02D
:101B1300FAA3E0FB12215B900006E0F8A3E0F9A32F
:101B2300E0FAA3E0FB1223F25003021BCC90001255
:101B3300E0FCA3E0FDA3E0FEA3E0FF90000EE0F8CD
:101B4300A3E0F9A3E0FAA3E0FB1223F2602F402DF8
:101B5300E4FFFE7D7A7C44900012E0F8A3E0F9A351
:101B6300E0FAA3E0FB12215B90000EE0F8A3E0F99A
:101B7300A3E0FAA3E0FB1223F26002504C900012A0
:101B8300E0FCA3E0FDA3E0FEA3E0FF90000EE0F87D
:101B9300A3E0F9A3E0FAA3E0FB1223F25045E4FF2C
:101BA300FE7D7A7CC4900012E0F8A3E0F9A3E0FA8A
:101BB300A3E0FB12215B90000EE0F8A3E0F9A3E0A1
:101BC300FAA3E0FB1223F2501AE4900042F074FFF0
:101BD300FFFE123E087D327C007F327E00123551BB
:101BE3000214D990000AE0FCA3E0FDA3E0FEA3E009
:101BF300FF900006E0F8A3E0F9A3E0FAA3E0FB12EC
:101C0300215BE4FBFAF9784012235512249D9000DE
:101C13008EEEF0A3EFF0900012E0FCA3E0FDA3E052
:101C2300FEA3E0FF90000EE0F8A3E0F9A3E0FAA31F
:101C3300E0FB12215BE4FBFAF978401223551224EE
:101C43009D900090EEF0A3EFF0900018E0FEA3E06B
:101C5300FF900017E02FFF900016E03EC313FEEF46
:101C630013FF900082EEF0A3EFF090001CE0FEA3C0
:101C7300E0FF90001BE02FFF90001AE03EC313FE2D
:101C8300EF13FF900084EEF0A3EFF074FFFFFE125A
:101C93003E08E4900092F0A3F0900094F0A3741F28
:101CA300F0E490001EF0A3F0A3F0A37432F07BFFE6
:101CB3007A3C79DCFD7C00E4FFFE123A3190001F90
:101CC300E02428F090001EE03400F0900006E0FCD1
:101CD300A3E0FDA3E0FEA3E0FF12249D90004712C2
:101CE300270F90004B7405F0900020E0FCA3E0FD6B
:101CF30090001EE0FEA3E0FF123639E490001EF0D0
:101D0300A3F0900021E02414F0900020E03400F0D0
:101D1300E0FCA3E0FD7BFF7A3C79E1E4FFFE123AAD
:101D23003190001FE02428F090001EE03400F09072
:101D3300000EE0FCA3E0FDA3E0FEA3E0FF12249D60
:101D430090004712270F90004B7405F0900020E09D
:101D5300FCA3E0FD90001EE0FEA3E0FF123639E491
:101D630090001EF0A3F0900021E02414F0900020D6
:101D7300E03400F0E0FCA3E0FD7BFF7A3C79E6E48D
:101D8300FFFE123A3190001FE02428F090001EE07D
:101D93003400F0900016E0FEA3E0FFE4FCFD9000A9
:101DA3004712270F90004B7405F0900020E0FCA32E
:101DB300E0FD90001EE0FEA3E0FF123639E4900040
:101DC3001EF0A3F0900021E02414F0900020E034F2
:101DD30000F0E0FCA3E0FD7BFF7A3C79ECE4FFFE3E
:101DE300123A3190001FE02428F090001EE03400E6
:101DF300F090001AE0FEA3E0FFE4FCFD9000471220
:101E0300270F90004B7405F0900020E0FCA3E0FD49
:101E130090001EE0FEA3E0FF12363990001EE4F0AE
:101E2300A37464F0A3E4F0A37432F07BFF7A3C79EB
:101E3300F2FD7C007F647E00123A3190001FE024A3
:101E430028F090001EE03400F090000AE0FCA3E0CC
:101E5300FDA3E0FEA3E0FF12249D90004712270F8D
:101E630090004B7405F0900020E0FCA3E0FD90008F
:101E73001EE0FEA3E0FF12363990001EE4F0A374C7
:101E830064F0900021E02414F0900020E03400F08E
:101E9300E0FCA3E0FD7BFF7A3C79F77F647E0012D0
:101EA3003A3190001FE02428F090001EE03400F047
:101EB300900012E0FCA3E0FDA3E0FEA3E0FF1224E8
:101EC3009D90004712270F90004B7405F09000205F
:101ED300E0FCA3E0FD90001EE0FEA3E0FF12363914
:101EE30090001EE4F0A37464F0900021E02414F049
:101EF300900020E03400F0E0FCA3E0FD7BFF7A3C9F
:101F030079FC7F647E00123A3190001FE02428F0B0
:101F130090001EE03400F0900018E0FEA3E0FFE420
:101F2300FCFD90004712270F90004B7405F09000C2
:101F330020E0FCA3E0FD90001EE0FEA3E0FF1236CC
:101F43003990001EE4F0A37464F0900021E024149F
:101F5300F0900020E03400F0E0FCA3E0FD7BFF7A8A
:101F63003D79027F647E00123A3190001FE02428FD
:101F7300F090001EE03400F090001CE0FEA3E0FFB0
:101F8300E4FCFD90004712270F90004B7405F0907E
:101F93000020E0FCA3E0FD90001EE0FEA3E0FF12A2
:101FA300363990001EE4F0A37432F0A3E4F0A37476
:101FB30096F07BFF7A3D7908FD7C007F327E00122C
:101FC3003A3190001FE02428F090001EE03400F026
:101FD30090008EE0FEA3E0FFE4FCFD900047122793
:101FE3000F90004B7405F0900020E0FCA3E0FD90FF
:101FF300001EE0FEA3E0FF12363990001EE4F0A3BA
:102003007432F0900021E02414F0900020E03400BA
:10201300F0E0FCA3E0FD7BFF7A3D790C7F327E008C
:10202300123A3190001FE02428F090001EE03400A3
:10203300F0900090E0FEA3E0FFE4FCFD9000471267
:10204300270F90004B7405F0900020E0FCA3E0FD07
:1020530090001EE0FEA3E0FF12363990001EE4F06C
:10206300A37432F0900021E02414F0900020E034B7
:1020730000F0E0FCA3E0FD7BFF7A3D79107F327E28
:1020830000123A3190001FE02428F090001EE03443
:1020930000F0900082E0FEA3E0FFE4FCFD90004727
:1020A30012270F90004B7405F0900020E0FCA3E092
:1020B300FD90001EE0FEA3E0FF12363990001EE4FF
:1020C300F0A37432F0900021E02414F0900020E09B
:1020D3003400F0E0FCA3E0FD7BFF7A3D79157F320D
:1020E3007E00123A3190001FE02428F090001EE099
:1020F3003400F0900084E0FEA3E0FFE4FCFD9000D8
:102103004712270F90004B7405F0900020E0FCA3CA
:10211300E0FD90001EE0FEA3E0FF12363990001EA2
:10212300E4F0A3741EF0900021E0241EF090002040
:10213300E03400F0E0FCA3E0FD7BFF7A3D791A7FF9
:102143001E7E00123A31123C6174FFFFFE123E08FC
:012153002269
:10371A0090000612271B0000000030B4030237B4E1
:10372A0090000612271B0000000012344EEF60EAD8
:10373A007BFF7A3D79417DFA7C007F0A7E00123A4E
:10374A003190008AE0FEA3E0FFE4FCFD90004712FE
:10375A00270F90004B7404F07DFA7C007F1E7E00D8
:10376A001236397BFF7A3D79447DFA7C007FB47E3C
:10377A0000123A3190008CE0FEA3E0FFE4FCFD90D9
:10378A00004712270F90004B7404F07DFA7C007FEB
:10379A00C87E00123639900086E0FEA3E0FFA3E05F
:1037AA00FCA3E0FD123EB1023724900006E0FCA320
:1037BA00E0FDA3E0FEA3E0FFE4FBFA7980783F1284
:1037CA00215B90000612270F7F007EE87D7D7C47F3
:1037DA00900006E0F8A3E0F9A3E0FAA3E0FB1223C5
:0937EA00F26002500302372422B0
:10215400022509E86480F8E933E83360110460F08B
:10216400ED33EC337009E8FCE9FDEAFEEBFF2204F1
:1021740060DED3EB9FEA9EE99DE8C2E78CF0C2F7EC
:1021840095F0400CE8CCF8E9CDF9EACEFAEBCFFBB8
:102194001224D485D0F05804700320D5B3E8047019
:1021A400075002B2D502251392D5EC0460F7E4CCB3
:1021B400C0E0C398F8603B94186008400DD0E0FB81
:1021C4000224EBE4FBFAC9FC8028E830E406E4C905
:1021D400FBE4CAFCE830E305E4C9CACBFCE85407D5
:1021E4006010F8C3E913F9EA13FAEB13FBEC13FCE0
:1021F400D8F130F52FC3E49CFCEF9BFFEE9AFEED83
:1022040099FDD0E0FBEF4E4D4C701222DB0302250A
:1022140010EC2CFCEF33FFEE33FEED33FDED30E735
:10222400EB0224EBEF2BFFEE3AFEED39FDD0E0FBA1
:1022340050130BBB0003022513ED13FDEE13FEEF49
:0822440013FFEC13FC0224EB74
:10224C00EC4D6011E8497017ED33EC3304600DE48C
:10225C00FCFFFEFD22E933E8330470F80225091275
:10226C0024D458046009E4CC248150062850090277
:10227C002513284003022510C0E0EB4A7044B980B6
:10228C0006D0E0FB0224FFEF4E701CBD8008EBFF74
:10229C00EAFEE9FD80EBE98DF0A4FEE5F0022335C2
:1022AC00E9CDF9EAFEEBFFEF89F0A4FCE5F0CE896D
:1022BC00F0A42EFFE435F0CD89F0A42DFEE435F02A
:1022CC008067EF4E7005BD80D780C3EF8BF0A4AC58
:1022DC00F0EE8BF0A42CFCE435F0F8EF8AF0A42C93
:1022EC00E5F038FCE433CB8DF0A42CFCE5F03BF8A6
:1022FC00EE8AF0A42CFCE5F038F8E433CF89F0A496
:10230C002CFCE5F038CF3400CE89F0A42FFFE5F09B
:10231C003EFEE433C98DF0A42EFEE5F039CD8AF0F3
:10232C00A42FFFE5F03EFEE43DFD33D0E0FB50076B
:10233C000BBB000F022513EC2CFCEF33FFEE33FE2E
:06234C00ED33FD0224EB5D
:10235200022513EC5D046005E859047003022509A7
:102362001224D4580460F6EC4860F2EC7004FDFECE
:10237200FF22C860DB2481C85009C398600250065E
:102382000225109850CAF582E9294B4A7005AB82A2
:102392000224FF75F0007C1A7880C3EF9BEE9AED61
:1023A20099400DC3EF9BFFEE9AFEED99FDE842F0D6
:1023B200DC23ACF0D0E0FFD0E0FED0E0FDAB822029
:1023C200E7101BEB60BAEC2CFCEF33FFEE33FEEDB3
:1023D20033FD0224EBE803F830E705C0F075F000A6
:1023E200EF2FFFEE33FEED33FD40B830E7C280AA97
:1023F20074F8CC6480CCC86480C8F582046043C39E
:10240200EB9FF5F0EA9E42F0E99D42F0E89C45F030
:1024120060305018E5825FFFE582F42B5582FB5055
:10242200210ABA001D09B90019088016E5825BFB72
:10243200E582F42F5582FF50090EBE00050DBD0046
:10244200010CC3EB9FF5F0EA9E42F0E99D42F0E8F1
:0D2452009C45F06007CC4820E701B3EC2268
:10245F0075F020800E75F010800575F0087D007EF8
:10246F00007F003392D530D5031226F0EC334010A5
:10247F00EF33FFEE33FEED33FDEC33FCD5F0ED2201
:0E248F00E5F0247EA2D513CC92E7CDCEFF223D
:10249D00EDD2E7CD33EC3392D524814006E4FFFE37
:1024AD00FDFC22FCE4CFCECDCC24E0501174FF8096
:1024BD00EDC3CC13CCCD13CDCE13CECF13CF047033
:0724CD00F030D5DE0226F01D
:1024D400E9D2E7C933E833F892D5EDD2E7CD33EC4E
:0724E40033FC5002B2D522C7
:1024EB00EC30E7100FBF000C0EBE00080DBD000452
:1024FB000BEB6014A2D5EB13FCED92E7FD2274FFFE
:10250B00FCFDFEFF22E480F8A2D574FF13FC7D8056
:03251B00E480EF6A
:103ADE00023FD0E493A3F8E493A34003F68001F2EF
:103AEE0008DFF48029E493A3F85407240CC8C333E9
:103AFE00C4540F4420C8834004F456800146F6DFB8
:103B0E00E4800B010204081020408090408BE47E7C
:103B1E00019360BCA3FF543F30E509541FFEE493AC
:103B2E00A360010ECF54C025E060A840B8E493A373
:103B3E00FAE493A3F8E493A3C8C582C8CAC583CA9E
:103B4E00F0A3C8C582C8CAC583CADFE9DEE780BE56
:0140A300001C
:10251E00BB010689828A83E0225002E722BBFE02BB
:09252E00E32289828A83E49322EE
:10253700EF8DF0A4A8F0CF8CF0A428CE8DF0A42EB8
:02254700FE2272
:10254900BC000BBE0029EF8DF084FFADF022E4CC76
:10255900F875F008EF2FFFEE33FEEC33FCEE9DEC3F
:10256900984005FCEE9DFE0FD5F0E9E4CEFD22ED85
:10257900F8F5F0EE8420D21CFEADF075F008EF2FCF
:10258900FFED33FD4007985006D5F0F222C398FDC0
:052599000FD5F0EA225D
:10259E00C5F0F8A3E028F0C5F0F8E58215827002C8
:0625AE001583E038F02265
:1025B400BB010A89828A83F0E5F0A3F0225006F772
:0F25C40009A7F01922BBFE06F3E5F009F319226F
:1025D300E88FF0A4CC8BF0A42CFCE98EF0A42CFCA7
:1025E3008AF0EDA42CFCEA8EF0A4CDA8F08BF0A425
:1025F3002DCC3825F0FDE98FF0A42CCD35F0FCEB84
:102603008EF0A4FEA9F0EB8FF0A4CFC5F02ECD3948
:0F261300FEE43CFCEAA42DCE35F0FDE43CFC22B5
:1026220075F008758200EF2FFFEE33FECD33CDCC6F
:1026320033CCC58233C5829BED9AEC99E5829840F2
:102642000CF582EE9BFEED9AFDEC99FC0FD5F0D6CF
:10265200E4CEFBE4CDFAE4CCF9A88222B800C1B9F9
:102662000059BA002DEC8BF084CFCECDFCE5F0CB37
:10267200F97818EF2FFFEE33FEED33FDEC33FCEB70
:1026820033FB10D703994004EB99FB0FD8E5E4F92B
:10269200FA227818EF2FFFEE33FEED33FDEC33FC18
:1026A200C933C910D7059BE99A4007EC9BFCE99A0C
:1026B200F90FD8E0E4C9FAE4CCFB2275F010EF2F51
:1026C200FFEE33FEED33FDCC33CCC833C810D70751
:1026D2009BEC9AE899400AED9BFDEC9AFCE899F88C
:0E26E2000FD5F0DAE4CDFBE4CCFAE4C8F9221F
:0E26F000C3E49FFFE49EFEE49DFDE49CFC22FB
:1026FE00EB9FF5F0EA9E42F0E99D42F0E89C45F032
:01270E0022A8
:0C270F00ECF0A3EDF0A3EEF0A3EFF0223D
:10271B00A8828583F0D083D08212273212273212FF
:10272B002732122732E473E493A3C583C5F0C58324
:10273B00C8C582C8F0A3C583C5F0C583C8C582C808
:01274B00226B
:00000001FF
