:020000040800F2
:100000004807002089010008350400080B04000897
:1000100031040008D5020008710E0008000000003D
:10002000000000000000000000000000E9060008D9
:10003000D902000800000000A5060008350A0008E3
:10004000A3010008A3010008A3010008A301000800
:10005000A3010008A3010008A3010008A3010008F0
:10006000A3010008A3010008A3010008A3010008E0
:10007000A3010008A3010008A3010008A3010008D0
:10008000A3010008A3010008A3010008A3010008C0
:10009000A3010008A3010008A3010008A3010008B0
:1000A000A3010008A3010008A3010008A3010008A0
:1000B000990A0008A3010008A3010008A301000891
:1000C000A3010008A3010008A3010008A301000880
:1000D000A3010008ED0D0008A3010008A30100081A
:1000E000A3010008A3010008A301000800F002F822
:1000F00000F03AF80AA090E8000C82448344AAF188
:100100000107DA4501D100F02FF8AFF2090EBAE885
:100110000F0013F0010F18BFFB1A43F0010318473B
:10012000C0180000E0180000103A24BF78C878C159
:10013000FAD8520724BF30C830C144BF04680C60ED
:10014000704700000023002400250026103A28BF35
:1001500078C1FBD8520728BF30C148BF0B60704739
:100160001FB51FBD10B510BD00F072F81146FFF7A6
:10017000F7FF00F0D3FE00F0A4F803B4FFF7F2FF9E
:1001800003BC00F077FE000009488047094800479B
:10019000FEE7FEE7FEE7FEE7FEE7FEE7FEE7FEE737
:1001A000FEE7FEE704480549054A064B7047000094
:1001B000390A0008ED000008480100204807002027
:1001C0004803002048030020704700000FB4044992
:1001D00010B503AA029800F009F810BC5DF814FBF2
:1001E000040000207047704770477047074B70B598
:1001F0000D467B4400F015F80446284600F024F82C
:1002000010B14FF0FF3070BD204670BD0B0D0000E7
:1002100000487047E800002001694A1C0261087824
:10022000704700B58FB0CDE9013100210591054936
:100230007944CDE903101146684600F02EF80FB05E
:1002400000BD0000E5FFFFFF007B00F0800070476D
:100250007546FFF7DDFFAE4605006946534620F0C0
:100260000700854618B020B5FFF79CFFBDE8204089
:100270004FF000064FF000074FF000084FF0000B62
:1002800021F00701AC46ACE8C009ACE8C009ACE815
:10029000C009ACE8C0098D4670472DE9F04106461B
:1002A0000024D6E90170F5688046304603E04146F7
:1002B000B847641C3046A8470028F8D12046BDE85E
:1002C000F08110B50446AFF300802046BDE8104031
:1002D000FFF753BF00BFFEE770472DE9F04102462C
:1002E00000250026002000230024002791F803C0E9
:1002F0000CF00F0591F803C00CF0100CBCF1000FCE
:1003000003D091F802C04CEA050591F800C0BCF199
:10031000000F31D0146800202BE04FF0010C0CFAD4
:1003200000F3B1F800C00CEA03069E4220D183001E
:100330004FF00F0C0CFA03F7BC4305FA03FC4CEA30
:10034000040491F803C0BCF1280F06D14FF0010C52
:100350000CFA00FCC2F814C00AE091F803C0BCF12A
:10036000480F05D14FF0010C0CFA00FCC2F810C088
:10037000401C0828D1D31460B1F800C0BCF1FF0FB5
:1003800034DD546800202EE000F1080C4FF0010825
:1003900008FA0CF3B1F800C00CEA03069E4221D122
:1003A00083004FF00F0C0CFA03F7BC4305FA03FC73
:1003B0004CEA040491F803C0BCF1280F05D100F108
:1003C000080C08FA0CF8C2F8148091F803C0BCF1CC
:1003D000480F07D100F1080C4FF0010808FA0CF89B
:1003E000C2F81080401C0828CED35460BDE8F081CC
:1003F0000246002093680B400BB1012000E0002072
:100400007047416170470161704700BFFEE710B55A
:10041000472144F61F6000F0DFFB10BD10B5044615
:100420004FF47A71014800F08BFC10BD00040040CD
:1004300000BFFEE77047000002490143024A116015
:10044000704700000000FA050CED00E010B5002038
:1004500000F001F810BD70B50646002415E004F167
:10046000B001C8B200F00EF9002000F00BF9102026
:1004700000F008F9002504E0304600F00BF9681C94
:10048000C5B2802DF8DB601CC4B2082CE7DB70BD60
:1004900010B500F0DDF910BD10B5FFF7F9FFAE2083
:1004A00000F0F0F8812000F0EDF8FF2000F0EAF80D
:1004B000A42000F0E7F8A62000F0E4F82E2000F0D9
:1004C000E1F8262000F0DEF8002000F0DBF8002044
:1004D00000F0D8F8032000F0D5F8072000F0D2F89B
:1004E000002000F0CFF8FF2000F0CCF8202000F032
:1004F000C9F8102000F0C6F8B02000F0C3F80020C2
:1005000000F0C0F8102000F0BDF8402000F0BAF86C
:10051000A12000F0B7F8A82000F0B4F83F2000F0C8
:10052000B1F8C82000F0AEF8D32000F0ABF80020FE
:1005300000F0A8F8DA2000F0A5F8122000F0A2F8E8
:10054000D92000F09FF8222000F09CF8DB2000F07A
:1005500099F8202000F096F88D2000F093F81420F0
:1005600000F090F8AF2000F08DF8FFF76FFF10BD9E
:1005700070B504460D4605F1B001C8B200F082F82E
:10058000102141EA141000F07DF804F00F0141F051
:10059000010000F077F870BD2DE9F0470646894666
:1005A00017469A464FF0000800240025BAF1010FC3
:1005B00003D0BAF1020F5ED125E020E0785D20384B
:1005C00000F0FF087E2E04DD002609F1010000F096
:1005D000FF0949463046FFF7CBFF002409E008EB4E
:1005E0004801264A02EB4101085D00F053F8601C07
:1005F000C4B2062CF3DBB01DC6B2681CC5B2785D70
:100600000028DBD137E032E0785D203800F0FF08C9
:10061000782E04DD002609F1010000F0FF094946AB
:100620003046FFF7A5FF002407E004EB0811144A49
:10063000505C00F02FF8601CC4B2082CF5DB09F107
:100640000100C1B23046FFF793FF002408E004EB3D
:10065000081108310A4A505C00F01CF8601CC4B252
:10066000082CF4DB06F10800C6B2681CC5B2785D40
:100670000028C9D100BF00BFBDE8F087C81100083D
:10068000F013000801B56B46012200213C2000F068
:10069000A1F808BD01B56B46012240213C2000F0C5
:1006A00099F808BD7047000029B1064AD269024393
:1006B000044BDA6104E0034AD2698243014BDA61F8
:1006C000704700000010024029B1064A92690243B7
:1006D000044B9A6104E0034A92698243014B9A6198
:1006E0007047000000100240704710B500F002F89B
:1006F00010BD00000CB50020019000903348006848
:1007000040F480303149086000BF3048006800F490
:10071000003000900198401C0190009818B9019891
:10072000B0F5A06FF1D12948006800F4003010B195
:100730000120009001E0002000900098012843D1A2
:100740002348006840F0100021490860084600680E
:1007500020F0030008600846006840F002000860CE
:100760001A48406819494860084640684860084689
:10077000406840F4806048600846406820F47C107F
:1007800048600846406840F4E81048600846006841
:1007900040F08070086000BF0C48006800F00070F6
:1007A0000028F9D00948406820F003000749486054
:1007B0000846406840F00200486000BF03484068B7
:1007C00000F00C000828F9D10CBD00000010024018
:1007D000002002402DE9F04105460E461746984696
:1007E00000F09AF8002141EA4501C8B200F058F83B
:1007F00000F0E8F8012804D100F0BCF80220BDE8C0
:10080000F081304600F04CF800F0DCF8012803D10C
:1008100000F0B0F80220F2E700240DE018F8040020
:1008200000F03EF800F0CEF8012803D100F0A2F865
:100830000220E4E7601CC4B2BC42EFDB00F09AF88F
:100840000020DCE710B5042000F036FB10BD0000EE
:1008500008B501210820FFF737FF4020ADF8000060
:1008600010208DF8030003208DF8020069460B4824
:10087000FFF733FD8020ADF8000069460748FFF719
:100880002CFD00BF40210548FFF7BDFD00BF00BFA4
:1008900080210248FFF7B7FD00BF08BD000C0140F2
:1008A00070B504461B48006820F070401949086084
:1008B0000846006840F040500860002520E000BF76
:1008C000E00920B180211348FFF79DFD03E080215E
:1008D0001048FFF796FD00BFFFF7B4FF00BF4021AF
:1008E0000C48FFF790FD00BFFFF7ACFF00BF4021B1
:1008F0000848FFF786FD00BF6006040E681CC5B2FD
:10090000082DDCDB00BF80210248FFF77CFD00BF23
:1009100070BD0000000C014010B51548006820F0C3
:100920007040134908600846006840F04050086075
:1009300000BF80210E48FFF766FD00BF00BF4021C9
:100940000B48FFF760FD00BFFFF77CFF00BF802171
:100950000748FFF756FD00BFFFF774FF00BF4021B7
:100960000348FFF74EFD00BFFFF76CFF10BD00000E
:10097000000C014010B51248006820F0704010498A
:1009800008600846006840F04050086000BF8021C1
:100990000B48FFF736FD00BFFFF754FF00BF4021B3
:1009A0000748FFF730FD00BFFFF74CFF00BF802175
:1009B0000348FFF728FD00BFFFF744FF10BD00000C
:1009C000000C014070B5002400251948006820F093
:1009D00070401749086008460068086000BF802121
:1009E0001348FFF710FD00BFFFF72CFF00BF4021A9
:1009F0000F48FFF708FD00BFFFF724FF07E0601C6A
:100A0000C4B2FA2C03DDFFF7B5FF012505E0802114
:100A10000748FFF7EDFC0028F1D100BF00BF4021DF
:100A20000348FFF7EEFC00BFFFF70CFF284670BD40
:100A3000000C01407047000010B51348006840F0FA
:100A400001001149086008464068104908400E49F5
:100A50004860084600680E4908400B49086008468F
:100A6000006820F4802008600846406820F4FE00FA
:100A700048604FF41F008860FFF737FE4FF00060BA
:100A80000449086010BD0000001002400000FFF89B
:100A9000FFFFF6FE08ED00E010B52E48007800F0EC
:100AA000800000284FD10121880700F084F8D0B1E0
:100AB0002848007800F04000A8B12648007800F0EF
:100AC0003F003F280AD12348007840F080002149A8
:100AD00008704FF6FF702049088004E01D48007838
:100AE000401C1C4908700221480700F064F850B30C
:100AF0001848007800F0400088B11648007840F0AF
:100B00008000144908704FF0804000F051F81249FD
:100B1000088000214FF0804000F000F913E0002031
:100B20000C4908700C49088000214FF0804000F00B
:100B300009F90848007840F0400006490870022191
:100B4000480700F0EBF803214FF0804000F012F866
:100B500010BD00001C0000201E00002021B10288F2
:100B600042F08002028004E002884FF67F731A4050
:100B700002807047CA430282704721B1028842F066
:100B80000102028004E002884FF6FE731A400280E0
:100B9000704731B1B0F8442042F40042A0F844203C
:100BA00005E0B0F84420C2F30E02A0F844207047DC
:100BB0000146888E704730B502460020002300248D
:100BC000158A05EA0103958905EA010413B10CB100
:100BD000012000E0002030BD30B589B005460C464C
:100BE00001210220FFF760FD01210420FFF76CFDC9
:100BF0004020ADF8200018208DF8230003208DF848
:100C0000220008A91D48FFF768FBA8B2ADF818003C
:100C1000ADF814400020ADF81A00ADF8160005A993
:100C2000174800F091F80020ADF810006020ADF8F2
:100C300004000020ADF81200ADF80E00ADF80C0075
:100C4000ADF808000120ADF806000020ADF80A005C
:100C500001A90B4800F016F80821094800F067F8D0
:100C600001210748FFF77AFF01210548FFF791FFAF
:100C700001210348FFF781FF09B030BD00080140A2
:100C80000004004070B5002400220023058C4FF6BC
:100C9000FE7635400584028C8388048B4FF68F7571
:100CA0002C40B51E2C400D882C43751E2A400D8902
:100CB0002A434D882A43144DA8420BD0134DA84215
:100CC00008D0134DA84205D0124DA84202D0124DB3
:100CD000A84213D14FF6F7752A404D892A434FF6A3
:100CE000FB752A408D882A434FF6FF652B404FF64F
:100CF000FF552B408D892B43CD892B438380048363
:100D0000CD888586028470BD002C014000340140EE
:100D10000040014000440140004801400A460021D3
:100D2000018C4FF6FD7319401143018470470A4648
:100D30000021018B4FF6F77319401143018370476F
:100D40008186704781847047002202881D4B98423B
:100D50000ED01D4B98420BD0B0F1804F08D01B4BEA
:100D6000984205D01A4B984202D01A4B984204D1AF
:100D70004FF68F731A404B881A43174B984207D08F
:100D8000164B984204D04FF6FF431A40CB881A43C3
:100D900002808B8883850B8803850A4B98420BD091
:100DA000094B984208D00E4B984205D00D4B984203
:100DB00002D00D4B984201D10B7A03860123838226
:100DC00070470000002C0140003401400004004046
:100DD00000080040000C00400010004000140040DB
:100DE0000040014000440140004801401D4909887D
:100DF00001F0200111B31B49091D0988C8B21A4925
:100E0000098801F40041C9B91749098801F48041F2
:100E100061B10A2803D00021134A118020E0124951
:100E2000098841F40041104A118019E00D2806D1CB
:100E30000D49098841F480410B4A118010E00A49AC
:100E40000988C1F30D01094A505407490988491C12
:100E5000054A118011460988C72901DD002111804A
:100E600070470000003801400800002020000020EA
:100E700000BFFEE700BF70474FF0E021096941F075
:100E800004014FF0E022116105490860114609692B
:100E900041F0010111616FF0704151617047000034
:100EA0000000002010B504464FF47A7104FB01F0F5
:100EB00000F002F810BD000070B5034600224FF0AC
:100EC000E02675690D4E366803FB06F44FF0E02608
:100ED000B16910E04FF0E026B06988420BD088423B
:100EE00002D20E1A324402E02E1A0E443244014657
:100EF000A24200D300E0EDE700BF70BD000000207B
:100F000000BF054A128802F04002002AF9D0C2B29E
:100F1000014B1B1D1A807047003801404FF4A06040
:100F2000FFF78AFA4820FFF7A7FF4FF4E131482086
:100F300000F0E8F8FFF7B0FAFFF769FA022308A219
:100F400000211020FFF728FB0020FFF767FA05E0DB
:100F500007A0FFF73BF9C820FFF7A4FFF8E7000060
:100F60006672656552544F532054657374000000D7
:100F70006868680D0A0000002DE9F04F0E461D4616
:100F8000DDE909C4002100278846002300BF64E092
:100F90004FF0010909FA01F706EA0708B8455BD1E5
:100FA0000023012A01D0022A0AD10CF0030305F024
:100FB000010943EA8903A2F1010943EAC90318E0E0
:100FC000BAB90CB9042314E00823D0F80C904FF000
:100FD000010A0AFA01FA29EA0A09C0F80C90D0F8C5
:100FE0000CA004F0010909FA01F94AEA090AC0F85B
:100FF0000CA0072916D8D0F800904FEA810B4FF0CB
:101000000F0A0AFA0BFA29EA0A09C0F80090D0F888
:1010100000904FEA810A03FA0AFA49EA0A09C0F87D
:10102000009019E0D0F80490A1F1080A4FEA8A0B69
:101030004FF00F0A0AFA0BFA29EA0A09C0F80490DD
:10104000D0F80490A1F1080A4FEA8A0A03FA0AFAD2
:1010500049EA0A09C0F80490491C102998D3BDE850
:10106000F08F00002DE9F0410746884614461D46E2
:10107000284600F033F8C5F1040007FA00F60F2007
:10108000284100EA0800064306F00F06E21704EBC9
:10109000D2625211920002F1E022D2F800212146E0
:1010A000E31704EBD3635B11A4EB431C012303FAA6
:1010B0000CF31A432046E31704EBD3635B119B0048
:1010C00003F1E023C3F800210348005D40EA061065
:1010D00001490855BDE8F08100E400E0014607231E
:1010E00023EA01021202054B18684FF6FF0318406D
:1010F000034B18431043014B186070470CED00E0A0
:101100000000FA057CB506460C4600BF2A488069F7
:1011100040F004002849886100BF00BF084680698C
:1011200040F00400886100BF00BF0846806940F4B9
:101130008040886100BF0120032100230222CDE905
:10114000001041021D48FFF717FF01200321002373
:101150001A46CDE9001081021848FFF70DFF184824
:10116000704300EB5400B0FBF4F516490D800020ED
:10117000091D08800846008808800846008840F05D
:10118000080008800846008840F0040008800846EF
:10119000008840F020000880022325220321084611
:1011A000FFF760FF0748001D008840F40050054924
:1011B000091D08807CBD00000010024000080140AD
:1011C00040420F000838014000000000000000000D
:1011D000002F000000000700070000147F147F1498
:1011E00000242A7F2A12006264081323003649551E
:1011F000225000000503000000001C2241000000F6
:1012000041221C000014083E08140008083E08088B
:10121000000000A0600000080808080800006060E6
:101220000000002010080402003E5149453E000025
:10123000427F4000004261514946002141454B3107
:10124000001814127F10002745454539003C4A49D3
:101250004930000171090503003649494936000645
:101260004949291E000036360000000056360000AD
:101270000008142241000014141414140000412228
:10128000140800020151090600324959513E007C00
:101290001211127C007F49494936003E41414122EA
:1012A000007F4141221C007F49494941007F0909D3
:1012B0000901003E4149497A007F0808087F000083
:1012C000417F4100002040413F01007F081422413E
:1012D000007F40404040007F020C027F007F0408F6
:1012E000107F003E4141413E007F09090906003E52
:1012F0004151215E007F091929460046494949317B
:101300000001017F0101003F4040403F001F20409D
:10131000201F003F4038403F00631408146300075B
:101320000870080700615149454300007F414100B2
:1013300000552A552A55000041417F000004020152
:101340000204004040404040000001020400002030
:1013500054545478007F484444380038444444206E
:1013600000384444487F00385454541800087E091B
:1013700001020018A4A4A47C007F080404780000E3
:10138000447D4000004080847D00007F10284400A0
:101390000000417F4000007C04180478007C0804B1
:1013A000047800384444443800FC242424180018ED
:1013B000242418FC007C08040408004854545420D9
:1013C00000043F444020003C4040207C001C204062
:1013D000201C003C4030403C004428102844001CA5
:1013E000A0A0A07C004464544C441414141414149D
:1013F00000000000000000000000000000000000ED
:10140000000000F800000000000000333000000081
:1014100000100C06100C0600000000000000000088
:1014200040C07840C0784000043F04043F040400FA
:10143000007088FC08300000001820FF211E00000A
:10144000F008F000E018000000211C031E211E001F
:1014500000F00888700000001E21232419272110A5
:1014600010160E0000000000000000000000000048
:10147000000000E0180402000000000718204000EF
:1014800000020418E00000000040201807000000DF
:10149000404080F0804040000202010F0102020043
:1014A000000000F0000000000101011F0101010027
:1014B000000000000000000080B07000000000008C
:1014C0000000000000000000000101010101010115
:1014D00000000000000000000030300000000000AC
:1014E0000000000080601804006018060100000081
:1014F00000E010080810E000000F102020100F007E
:10150000001010F8000000000020203F2020000004
:10151000007008080888700000302824222130005C
:1015200000300888884830000018202020110E0064
:101530000000C02010F8000000070424243F24000D
:1015400000F80888880808000019212020110E00E2
:1015500000E0108888180000000F112020110E00F4
:1015600000380808C83808000000003F00000000EC
:101570000070880808887000001C222121221C00AD
:1015800000E010080810E0000000312222110F00D6
:10159000000000C0C000000000000030300000006B
:1015A00000000080000000000000806000000000DB
:1015B00000008040201008000001020408102000F4
:1015C000404040404040400004040404040404003F
:1015D00000081020408000000020100804020100D4
:1015E000007048080808F0000000003036010000D4
:1015F000C030C828E810E0000718272423140B0087
:101600000000C038E0000000203C23020227382000
:1016100008F8888888700000203F202020110E00E4
:10162000C0300808080838000718202020100800DB
:1016300008F808080810E000203F202020100F00C4
:1016400008F88888E8081000203F20202320180090
:1016500008F88888E8081000203F200003000000F8
:10166000C03008080838000007182020221E020099
:1016700008F808000008F808203F210101213F2058
:10168000000808F8080800000020203F2020000083
:1016900000000808F8080800C08080807F00000073
:1016A00008F888C028180800203F200126382000AC
:1016B00008F8080000000000203F20202020300013
:1016C00008F8F800F8F80800203F003F003F20002D
:1016D00008F830C00008F808203F200007183F0035
:1016E000E01008080810E0000F10202020100F0064
:1016F00008F808080808F000203F21010101000057
:10170000E01008080810E0000F18242438504F009B
:1017100008F8888888887000203F2000030C30205B
:1017200000708808080838000038202121221C0099
:10173000180808F8080818000000203F20000000E2
:1017400008F808000008F808001F202020201F00CB
:101750000878880000C83808000007380E0100002B
:10176000F80800F80008F800033C0700073C0300F5
:10177000081868808068180820302C03032C30205B
:101780000838C800C83808000000203F20000000CA
:1017900010080808C8380800203826212020180022
:1017A000000000FE020202000000007F40404000F6
:1017B000000C30C000000000000000010638C0002E
:1017C00000020202FE000000004040407F000000D6
:1017D00000000402020204000000000000000000FB
:1017E00000000000000000008080808080808080F9
:1017F00000020204000000000000000000000000E1
:1018000000008080808000000019242222223F20D6
:1018100008F8008080000000003F112020110E0019
:101820000000008080800000000E112020201100A8
:10183000000000808088F800000E112020103F205A
:101840000000808080800000001F222222221300DE
:10185000008080F0888888180020203F2020000029
:101860000000808080808000006B949494936000DE
:1018700008F8008080800000203F210000203F20E9
:1018800000809898000000000020203F20200000E9
:10189000000000809898000000C08080807F0000D9
:1018A00008F8000080808000203F24022D302000B6
:1018B000000808F8000000000020203F2020000061
:1018C0008080808080808000203F20003F20003F7B
:1018D0008080008080800000203F210000203F2089
:1018E0000000808080800000001F202020201F003A
:1018F000808000808000000080FFA12020110E0069
:101900000000008080808000000E112020A0FF8059
:10191000808080008080800020203F212000010006
:10192000000080808080800000332424242419005B
:10193000008080E0808000000000001F2020000068
:101940008080000000808000001F202020103F20A9
:10195000808080000080808000010E300806010039
:1019600080800080008080800F300C030C300F00DE
:1019700000808000808080000020312E0E31200009
:10198000808080000080808080818E701806010039
:1019900000808080808080000021302C2221300057
:1019A00000000000807C020200000000003F404078
:1019B00000000000FF00000000000000FF00000029
:1019C0000002027C800000000040403F0000000058
:1019D00000060101020204040000000000000000F3
:1019E000001A000800000020200000002801000864
:1019F000201A0008200000202807000044010008E9
:101A000000000000000000000000000000000000D6
:101A100000000000000000000000000000000000C6
:04000005080000ED02
:00000001FF
